:1000000005C2000024C2000022C2000020C200007D
:100010001EC200001CC200001AC2000018C200006C
:1000200016C2000014C2000012C2000010C200007C
:100030004DC500000CC200000AC2000008C200004A
:1000400006C2000004C2000002C2000000C200009C
:10005000FEC10000FCC10000FAC10000F8C10000B0
:10006000F6C100000C9463130C94B513F0C10000AA
:10007000EEC10000ECC10000EAC10000E8C10000D0
:10008000E6C10000E4C10000E2C10000E0C10000E0
:100090000C94F9130C944B14DAC100000C94781CE6
:1000A000D6C10000D4C10000D2C10000D0C1000000
:1000B000CEC10000CCC10000CAC10000C8C1000010
:1000C000C6C10000C4C10000C2C100000C948F145E
:1000D0000C94E114BCC100000C9425150C94771508
:1000E000B6C10000950195019501C401CC01DB0169
:1000F00095019501C401CC019A1C0A1D0A1D0A1D17
:100100000A1D0A1D0A1D0A1D9A1C0A1D0A1D0A1D28
:100110000A1D0A1D0A1D0A1D9C1C0A1D0A1D0A1D16
:100120000A1D0A1D0A1D0A1D0A1D0A1D0A1D0A1D97
:100130000A1D0A1D0A1D0A1D9C1C0A1D0A1D0A1DF6
:100140000A1D0A1D0A1D0A1D0A1D0A1D0A1D0A1D77
:100150000A1D0A1D0A1D0A1D061D0A1D0A1D0A1D6B
:100160000A1D0A1D0A1D0A1DD11C0A1D0A1D0A1D91
:100170000A1D0A1D0A1D0A1D0A1D0A1D0A1D0A1D47
:100180000A1D0A1D0A1D0A1DC51C0A1D0A1D0A1D7D
:100190000A1D0A1D0A1D0A1DE91C0EEE16E00F2E8F
:1001A000F6E1EF2EF7E0FF2EF02D8091ED0688238B
:1001B00011F10FB6F8940F92D8011596ED91FC91BC
:1001C0001697C681D781CE010296E6D28091E306CA
:1001D00081508093E3068091ED0681508093ED0677
:1001E0000F900FBE8F89988D64D2CE0162D280911C
:1001F000ED068111DECFF7018081823008F0A1D3B6
:100200000E94BC11D2CFCF93DF9300D000D0CDB7E6
:10021000DEB7CE0101964C0144244394E12CF12C2D
:10022000512CC82ED92CE0914407F09145078081CC
:10023000882309F4D7C00580F681E02DA080B18025
:100240000E94FC0BC4010E944E118C018981811116
:1002500048C00A151B05B0F10E94C60CE091440786
:10026000F09145070580F681E02D66807780C30117
:10027000029692D2D30153968C91539782FF17C066
:100280001C966D917C911D976A0D7B1D9501A801AF
:10029000C3010E948F10882369F00E2D1F2D2E2D73
:1002A0003F2DA501652DC3010E94071103C08E7F5C
:1002B000F301838BD3015096ED91FC915197C301CB
:1002C000199584C0452DB501601B710B80914007C5
:1002D0009091410790D60E94C60C811177C031D30E
:1002E00075C00E94C60C72C0898188230CF46EC050
:1002F000AC80BD80F50182859385892B19F0C501FD
:1003000002964AD2CE0106960E944E11AC01E981B6
:100310000E2E000CFF0BEA30F10508F057C08827BD
:10032000EE58FF4F8F4F0C94571DD50153968C916B
:100330005397816053968C9353972A813B811C96E7
:100340006D917C911D97620F731FC5010E948F10E4
:100350008823E1F1D5015096ED91FC915197C501AB
:100360001995F501838982FF31C04A815B818485BB
:100370009585480F591F0E2D1F2D2E2D3F2D652DB4
:10038000C5010E94071122C0D50153968C91539745
:100390008E7F53968C931AC0F50183898160838B7D
:1003A0006A817B8175876487640F751F9A01C50117
:1003B0000E948F100BC0D50153968C9181FD03C014
:1003C000C50177D103C08E7FF501838B4E2D5F2D44
:1003D0006C2D7D2D809140079091410783D581112F
:1003E00083CF21CF0E94FC0BC4010E944E118C01CF
:1003F0008981811176CFE0914207F0914307808196
:10040000442D8111452DAE2CBF2C5DCF11241FBE74
:10041000CFEFD1E2DEBFCDBF00E00CBF16E0A0E021
:10042000B2E0E4ECF7E400E00BBF02C007900D92ED
:10043000AC35B107D9F728E0ACE5B6E001C01D92B4
:10044000A63CB207E1F70E94D7110C94E023D8CD67
:1004500081E00E94231982E090E00E94430D80E039
:100460000E94231986E990E00E94430D0E94E01843
:1004700081E00E9475170E9437190E945D1B9F93AF
:100480008F9381E492E09F938F930E94C2200E94F9
:10049000621A0E945D1B9F938F9384E592E09F9365
:1004A0008F930E94C22082E796E00E9449190E9421
:1004B0005D1BC2E7D6E0DF93CF939F938F938DE6CA
:1004C00092E09F938F930E94C220CE010E946419F4
:1004D0000E945D1B9F938F93DF93CF9381E892E0FF
:1004E0009F938F930E94C220AE0166E972E087EB72
:1004F00092E00E943C1B0E945D1B9F938F93DF93B1
:10050000CF9386E992E09F938F9387EB92E09F933E
:100510008F9388EC92E09F938F930E94C2200E9459
:1005200097190E945D1B9F938F938EEF92E09F938C
:100530008F930E94C2208DB79EB782960FB6F89413
:100540009EBF0FBE8DBF81E00E94571A0E945D1BA7
:100550009F938F938DE093E09F938F930E94C2208F
:100560000F900F900F900F90C5E0D0E00EE213E0D7
:1005700080E00E949D19F82E0E945D1B9F938F932F
:10058000DF93CF931F930F930E94C2200F900F9081
:100590000F900F900F900F9088E0F81689F180E08F
:1005A0000E94E1178FE290E00E94430D219701F72E
:1005B00020C0C7D1FECF8FE290E00E94430DAA82F7
:1005C000BB82CC82DD82EE82FF8283E00E94F31741
:1005D000BE0181E00E94C0190E945D1B9F938F9312
:1005E0001F930F930E94C2200F900F900F900F90B7
:1005F000E2CF81E00E94D21780E00E949C17D9CF01
:1006000081E00E94C317ECE5F6E086E0818382E09A
:100610008083EF010F2EF0E3AF2EF02D0F2EF9E3C4
:10062000BF2EF02D6894CC24C1F80F2EF3EADF2EF4
:10063000F02D6894EE24E2F80F2EFAE1FF2EF02D53
:100640000EE413E0B8CFEF92FF920F93E12CF12C60
:10065000082F20E030E048E851E063E673E088E2EC
:1006600092E088D70F91FF90EF900895E8E0F1E0D5
:100670009081907F908390818F70982B90830895C4
:10068000E8E0F1E08081807F80830895CF93DF935D
:10069000EC010E94FC0BCE010E94631FEC010E9442
:1006A000C60C209711F40E94BD11CE01DF91CF91AD
:1006B0000895CF93DF93009741F0EC010E94FC0B6B
:1006C000CE010E94FB1F0E94C60CDF91CF910895BE
:1006D000FC010396928381832FEF3FEF34832383C2
:1006E000968385839087878310820895FC01118605
:1006F00010860895CF93DF939C01FB01DC011196D6
:10070000CD91DC911297D383C2838C819D81958397
:1007100084838C819D81DC0113967C936E93129768
:100720007D836C8331872087F90180818F5F80838F
:10073000DF91CF910895CF93DF93EB0148815981E9
:100740004F3F2FEF520721F4FC01A781B0850DC068
:10075000DC01139601C0DF011296ED91FC91139715
:100760002081318142175307B0F71296ED91FC9129
:100770001397FB83EA83D583C483BD83AC8313962D
:10078000DC93CE93129799878887FC0120812F5F95
:100790002083DF91CF910895CF93DF93FC01A08553
:1007A000B185C281D381848195819D838C83C481ED
:1007B000D581828193819B838A8311968D919C91AF
:1007C0001297E817F90731F48481958112969C936A
:1007D0008E931197118610868C9181508C938C91F9
:1007E000DF91CF91089531E1FC013083319722E20E
:1007F00020833197A3E3A08331976083319770837F
:100800003197108231971082319760E86083319779
:1008100010823197108231971082319762E06083A5
:10082000319763E06083319764E06083319765E0DE
:100830006083319766E06083319767E0608331972A
:1008400068E06083319769E06083319760E160839D
:1008500031973083319732E13083319733E1308300
:10086000319734E13083319735E13083319736E188
:100870003083319737E13083319738E130833197D6
:1008800039E13083319730E23083319731E2308380
:1008900031972083319723E220833197408331972A
:1008A0005083319726E22083319727E220833197C6
:1008B00028E22083319729E22083319720E32083A7
:1008C000319721E3208389970895A89590EC88E1DA
:1008D0000FB6F894A895809360000FBE90936000C7
:1008E000A0913A07B0913B07CD91CDBFDD91DEBF1E
:1008F000FF91EF91DF91CF91BF91AF919F918F9138
:100900007F916F915F914F913F912F911F910F9127
:10091000FF90EF90DF90CF90BF90AF909F908F901F
:100920007F906F905F904F903F902F901F900F900F
:100930000CBE0F900BBE0F900FBE0F90089581E07C
:1009400008950F920FB6F8940F920BB60F920CB653
:100950000F921F9211242F923F924F925F926F92AB
:100960007F928F929F92AF92BF92CF92DF92EF923F
:10097000FF920F931F932F933F934F935F936F9328
:100980007F938F939F93AF93BF93CF93DF93EF9317
:10099000FF93A0913A07B0913B070DB60D920EB6AA
:1009A0000D920E94540DA0913A07B0913B07CD9152
:1009B000CDBFDD91DEBFFF91EF91DF91CF91BF9170
:1009C000AF919F918F917F916F915F914F913F91E7
:1009D0002F911F910F91FF90EF90DF90CF90BF90DC
:1009E000AF909F908F907F906F905F904F903F90CF
:1009F0002F901F900F900CBE0F900BBE0F900FBE4C
:100A00000F9008950F920FB6F8940F920BB60F92B5
:100A10000CB60F921F9211242F923F924F925F9229
:100A20006F927F928F929F92AF92BF92CF92DF92FE
:100A3000EF92FF920F931F932F933F934F935F93E8
:100A40006F937F938F939F93AF93BF93CF93DF93D6
:100A5000EF93FF93A0913A07B0913B070DB60D922B
:100A60000EB60D9213BED8D681110E94540DA091DE
:100A70003A07B0913B07CD91CDBFDD91DEBFFF912D
:100A8000EF91DF91CF91BF91AF919F918F917F9126
:100A90006F915F914F913F912F911F910F91FF9017
:100AA000EF90DF90CF90BF90AF909F908F907F900E
:100AB0006F905F904F903F902F901F900F900CBEC3
:100AC0000F900BBE0F900FBE0F9008959BDF1895EF
:100AD0000FB6F8940F92FC01928D0F900FBE81E03B
:100AE000911180E008950F931F93CF93DF93EC0152
:100AF000042F1A8D4C8D41110CC088819981892B4E
:100B000009F042C08C819D810E94AA0E1D821C8228
:100B100042C0011117C050E08A819B810E94882049
:100B20002C8D8A819B81820F911D9B838A832C81CE
:100B30003D818217930750F1888199819B838A8335
:100B400080E029C050E08E819F810E9488208C8D9A
:100B500090E09195819591092E813F81280F391F51
:100B60003F832E83488159812417350730F42C8127
:100B70003D81820F931F9F838E83023049F411239E
:100B800049F0115080E007C080E005C080E003C05C
:100B900080E001C080E01F5F1A8FDF91CF911F912D
:100BA0000F910895FC01448D4423A9F050E0268163
:100BB0003781240F351F3783268384819581281739
:100BC000390720F08081918197838683CB016681EC
:100BD00077810C9488200895EF92FF920F931F93D2
:100BE000CF938C010FB6F8940F92FC01C68D1C16A2
:100BF000ACF48189811106C011C0F801818981118D
:100C000005C00CC07801F1E1EF0EF11CC7010E9494
:100C10000B0E81110E94930EC15079F78FEFF801EE
:100C2000868F0F900FBE0FB6F8940F92C58D1C16CD
:100C3000A4F48085811106C010C0F801808581115F
:100C400005C00BC07801F8E0EF0EF11CC701E3D737
:100C500081110E94930EC15081F78FEFF801858FAB
:100C60000F900FBECF911F910F91FF90EF900895BD
:100C7000CF93DF93EC010FB6F8940F92E881F981DE
:100C80008B8D2C8D90E030E0829FA001839F500DD2
:100C9000929F500D11244E0F5F1F5D834C831A8E5F
:100CA000FB83EA830197829FA001839F500D929F4F
:100CB000500D1124CF01840F951F9F838E838FEFDA
:100CC0008D8F8E8F61110AC08885882369F0CE01CF
:100CD0000896A1D7882341F034DE06C0CE010896DD
:100CE000F7DCCE014196F4DC0F900FBE81E0DF917E
:100CF000CF910895FF920F931F93CF93DF93082F07
:100D0000162FF42E6623B9F0869FC0011124819618
:100D1000BDDCEC01009741F414C00B8F1C8F61E027
:100D2000CE01A6DFF8A20DC0819699838883F5CF06
:100D3000D983C883F2CF81E290E0A8DCEC01892B53
:100D4000B9F7CE01DF91CF911F910F91FF900895D8
:100D50009F92AF92BF92CF92DF92EF92FF920F934A
:100D60001F93CF93DF9300D01F921F92CDB7DEB7B2
:100D70008C016B015D834C83A22EB12C992493943A
:100D80007C0188E0E80EF11C0FB6F8940F92F80190
:100D9000928D838D981718F0F2E0AF1215C04A2D8E
:100DA000B601C801A0DEF8019189992339F0C80184
:100DB000419631D7882321F0C4DD02C08111C1DD05
:100DC0000F900FBE81E045C08C819D81892B21F45D
:100DD0000F900FBE80E03DC0B11004C0CE0101965F
:100DE00062D7B92C0F900FBE07D50FB6F8940F92AB
:100DF000F801858D8F3F09F4158EF801868D8F3FA0
:100E000009F4168E0F900FBEBE016C5F7F4FCE01AE
:100E1000019654D7811119C00FB6F8940F92F801BA
:100E2000928D838D0F900FBE98130BC06C817D81C6
:100E3000C701C8D6C801D0DEA9D58111A5CF81DDF3
:100E4000A3CFC801C9DEA2D59FCFC801C5DE9ED5FC
:100E500080E00F900F900F900F900F90DF91CF9147
:100E60001F910F91FF90EF90DF90CF90BF90AF90C8
:100E70009F900895EF92FF920F931F93CF93DF936C
:100E80008A01FC01528D338D531710F02230E1F4AA
:100E9000422F7801EC011E8D26DE1F3F79F48989EF
:100EA0008823A1F0CE014196B6D6882389F0E114BB
:100EB000F10481F081E0F70180830DC0FF24F394F9
:100EC000F10EFE8E81E007C080E005C081E003C026
:100ED00081E001C081E0DF91CF911F910F91FF90E0
:100EE000EF9008959F92AF92BF92CF92DF92EF92D0
:100EF000FF920F931F93CF93DF9300D01F921F9207
:100F0000CDB7DEB78C015B015D834C83E12C992466
:100F100093946C0181E1C80ED11C0FB6F8940F9226
:100F2000F801F28CFF2091F0B501C8013BDEFA9484
:100F3000F801F28E8085882329F0C80108966BD6C7
:100F40008111FFDC0F900FBE81E044C08C819D8138
:100F5000892B21F40F900FBE80E03CC0E11004C04B
:100F6000CE010196A0D6E92C0F900FBE45D40FB646
:100F7000F8940F92F801858D8F3F09F4158EF801D2
:100F8000868D8F3F09F4168E0F900FBEBE016C5FE9
:100F90007F4FCE01019692D6811113C0C80198DD12
:100FA000882359F06C817D81C6010CD6C80114DEFE
:100FB000EDD48111B2CFC5DCB0CFC8010DDEE6D4CF
:100FC000ACCFC80109DEE2D4C80182DD882309F470
:100FD000A4CF80E00F900F900F900F900F90DF91B3
:100FE000CF911F910F91FF90EF90DF90CF90BF9026
:100FF000AF909F900895CF93DF93EC010FB6F894D4
:101000000F928D8D8F3F09F41D8E8E8D8F3F09F4C9
:101010001E8E0F900FBE8A8D811103C0CE014196A6
:10102000E2D5CE01D9DDDF91CF910895FC01448155
:10103000558122813381240F351F80819181B9012F
:10104000681B790BCB016417750710F0841B950B97
:101050000895AF92BF92CF92DF92EF92FF920F93DB
:101060001F93CF93DF936C015B017A01FC01C28176
:10107000D381048115810C1B1D0B4017510708F407
:101080008A01F60184859585A801B5018C0F9D1F05
:101090000E9488200E151F0558F4A701401B510B14
:1010A000B501600F711FF601848595850E94882027
:1010B000CE018E0D9F1DF601248135818217930785
:1010C00010F0821B930BF60193838283C701DF919B
:1010D000CF911F910F91FF90EF90DF90CF90BF9035
:1010E000AF900895CF92DF92EF92FF920F931F93EC
:1010F000CF93DF931F921F92CDB7DEB75A834983F8
:1011000021153105C9F06B017C01FC01868580FD4C
:1011100008C0CA012417350708F4C9019A838983D6
:1011200011C02017310758F042E050E0BE016F5F58
:101130007F4FC7018EDF06C080E090E008C080E0EE
:1011400090E005C049815A81B601C70182DF0F9046
:101150000F90DF91CF911F910F91FF90EF90DF9053
:10116000CF900895AF92BF92CF92DF92EF92FF920D
:101170000F931F93CF93DF937C015B01E90142172B
:10118000530708F4EA01209779F1F70100811181F2
:10119000C480D580C01AD10ACC15DD0508F46E01D3
:1011A000F70164857585600F711FA601C5010E9456
:1011B0008820CC16DD0658F4AE014C195D09F70104
:1011C00064857585C5018C0D9D1D0E9488200C0FBE
:1011D0001D1FF701848195810817190710F0081B5E
:1011E000190BF70111830083CE01DF91CF911F917D
:1011F0000F91FF90EF90DF90CF90BF90AF90089548
:10120000EF92FF921F93CF93DF93EB0111E04130F8
:1012100009F010E0209711F4C1E0D0E07C012FEF3D
:10122000E21AF20A419632DA009781F020E1FC01DD
:1012300011922A95E9F79C01205F3F4FFC01358709
:101240002487F582E482D783C6831687DF91CF9106
:101250001F91FF90EF900895CF93DF93FC012785B6
:101260000FB6F8940F9280859185892BD1F48285F1
:101270009385892BC1F48685468157816481758168
:10128000A485B58590E1EF0119929A95E9F7B587A4
:10129000A48775836483578346838687278781E085
:1012A00003C080E001C080E00F900FBEDF91CF91BE
:1012B0000895FC012481358180819181428153818F
:1012C000820F931F0197841B950B8217930710F0D1
:1012D000821B930B0895AF92BF92CF92DF92EF9251
:1012E000FF920F931F93CF93DF93EC015B016A0191
:1012F00079018E8580FF04C08A010E5F1F4F01C0F7
:101300008A01CE01D6DF9C01A601B501CE01EADE3D
:101310006C01892BB1F0CE0189DE2E813F818217CD
:10132000930778F088859985892B59F08885998568
:1013300000E010E020E040E050E0BA014CD6198611
:101340001886C601DF91CF911F910F91FF90EF900A
:10135000DF90CF90BF90AF9008956F927F928F9261
:101360009F92AF92BF92CF92DF92EF92FF920F9334
:101370001F93CF93DF931F921F92CDB7DEB76C01FF
:101380003B014A017901FC01868580FD03C0A12C47
:10139000B12C04C06894AA24A1F8B12CE114F10482
:1013A00029F10FB6F8940F92C60140DE8C01A81601
:1013B000B90638F080E090E09ED6B9D4F601918766
:1013C00080870F900FBEA016B106B0F000E010E0CD
:1013D00020E030E0A90160E070E0CB01FBD4F60131
:1013E00011861086C60122DE8C0103C0C6011EDEF6
:1013F0008C01A016B106B8F5A114B104C1F0F60134
:10140000E080F1809801A501BE016F5F7F4FC601AA
:10141000A9DE89819A810A191B098816990630F478
:10142000F601F182E082812C912C01C04C019801DF
:10143000A401B301C60196DE7C01892BB1F0DCD199
:10144000F60182859385892B61F08285938500E082
:1014500010E020E040E050E0BA013FD5F6011386ED
:10146000128694D202C0E12CF12CC7010F900F908C
:10147000DF91CF911F910F91FF90EF90DF90CF9070
:10148000BF90AF909F908F907F906F900895E09164
:101490000207F09103078081811107C08FEF9FEF52
:1014A0009093DA068093D9060895E0910207F091AF
:1014B00003070580F681E02D0680F781E02D82810B
:1014C00093819093DA068093D9060895FF920F9343
:1014D0001F93CF93DF93EC01F62E0091E10610915C
:1014E000E20680913A0790913B07029655D9CF3F8B
:1014F0008FEFD80761F4FF2051F060913A077091A7
:101500003B076E5F7F4F84EE96E0F4D82DC0C00F8E
:10151000D11FE0913A07F0913B07D383C283C017F4
:10152000D10760F460913A0770913B078091000702
:10153000909101076E5F7F4FFED816C060913A0709
:1015400070913B0780910207909103076E5F7F4F78
:10155000F2D88091D9069091DA06C817D90720F4FD
:10156000D093DA06C093D906DF91CF911F910F91E6
:10157000FF9008954F925F926F927F928F929F9209
:10158000AF92BF92CF92DF92EF92FF920F93CF93E1
:10159000DF934C016B015A012901CA0177D83C0144
:1015A000892B09F4E6C08CE290E070D8EC01892B1D
:1015B00099F0788E6F8AA50165EA70E0C3010E94F8
:1015C000912081E0A81AB1088F89988DA80EB91EC4
:1015D000C114D10421F41FC0C3016BD8CAC0D60105
:1015E0008C91898F8C918823A1F0AE01465E5F4F6C
:1015F000F6013196B8E0CB0ED11CCF012191DA0172
:101600002D93AD01DC018C91882319F0EC15FD05BB
:10161000A1F718A201C0198E043008F003E00E8B68
:101620000BA31CA26E01B2E0CB0ED11CC6015ED88A
:10163000CE010C965BD8D987C88784E090E0801BE8
:1016400091099D878C87DB8BCA8B1EA21DA21FA2CE
:1016500018A619A61AA61BA6A201B401C501C3D8D3
:1016600099838883E114F10419F0F701D183C083D1
:101670000FB6F8940F928091E3068F5F8093E30694
:1016800080913A0790913B07892B91F5D0933B07C6
:10169000C0933A078091E306813009F039C086E1B2
:1016A00097E016D88FE197E013D888E297E010D83A
:1016B00081E397E00DD88DE097E00AD884E097E0C9
:1016C00007D887EF96E004D88EEE96E001D884EE36
:1016D00096E00E9468038DE097E090930307809363
:1016E000020784E097E0909301078093000710C001
:1016F0008091DF0681110CC0E0913A07F0913B0721
:1017000096898E89891720F0D0933B07C0933A07BA
:101710008091DB068F5F8093DB0689A38E89909191
:10172000E006981710F48093E00690E09C01220FE9
:10173000331F220F331F220F331F820F931FB60157
:101740008A5E984F0E947A030F900FBE8091DF0649
:10175000882359F0E0913A07F0913B0796898E89EA
:10176000981728F4EED881E005C081E003C081E03D
:1017700001C08FEFDF91CF910F91FF90EF90DF903D
:10178000CF90BF90AF909F908F907F906F905F9021
:101790004F900895EF92FF920F930F2EF7EDEF2EDB
:1017A000F6E0FF2EF02D00E020E030E040EC50E0CD
:1017B0006AE673E08DEC90E0DDDE8130C9F407D598
:1017C0008130B1F4F8948FEF9FEF9093DA06809315
:1017D000D90681E08093DF061092E2061092E106BE
:1017E000E0913A07F0913B0785A10E9436036DD83E
:1017F0000F91FF90EF9008958091D6068F5F8093B0
:10180000D60608950FB6F8940F928091E106909154
:10181000E2060F900FBE0895CF92DF92EF92FF92F3
:101820000F931F93CF93DF938091D606811198C0B9
:10183000E090E106F090E2068FEFE81AF80AF092E5
:10184000E206E092E106E114F104B1F480910207AE
:10185000909103072091000730910107309303070F
:101860002093020790930107809300078091DC0684
:101870008F5F8093DC060BDE8091D9069091DA06AB
:10188000E816F90610F4D12C53C0D12CCC24C39403
:10189000E0910207F09103078081811107C08FEF6B
:1018A0009FEF9093DA068093D90642C0E091020739
:1018B000F09103070580F681E02DC681D7818A81EA
:1018C0009B81E816F90628F49093DA068093D906EE
:1018D0002FC08E010E5F1F4FC8010E94CC038C8960
:1018E0009D89892B21F0CE010C960E94CC038E8914
:1018F0009091E006981710F48093E00690E09C0128
:10190000220F331F220F331F220F331F820F931F0B
:10191000B8018A5E984F0E947A03E0913A07F091ED
:101920003B079E898689981708F4B2CFDC2CB0CF8C
:10193000E0913A07F0913B07868990E0FC01EE0FB9
:10194000FF1FEE0FFF1FEE0FFF1F8E0F9F1FFC01EB
:10195000EA5EF84F8081823048F0DD24D39406C0DF
:101960008091DE068F5F8093DE06D12C8091DD06AC
:10197000882311F0DD24D3948D2DDF91CF911F9119
:101980000F91FF90EF90DF90CF900895DF92EF924C
:10199000FF920F931F93CF93DF930FB6F8940F929C
:1019A0008091D60681508093D6068091D60681110B
:1019B0005DC08091E306811133C05BC0D7011596ED
:1019C000ED91FC911697C681D781CE010C960E94AD
:1019D000CC038E010E5F1F4FC8010E94CC038E897D
:1019E0009091E006981710F48093E00690E09C0137
:1019F000220F331F220F331F220F331F820F931F1B
:101A0000B8018A5E984F0E947A03E0913A07F091FC
:101A10003B079E898689981768F0D092DD060AC038
:101A2000C0E0D0E00F2EF7EFEF2EF6E0FF2EF02D06
:101A3000DD24D394F70180818111C0CFCD2B09F033
:101A400026DDC091DE06CC2349F0D1E0E5DE811130
:101A5000D093DD06C150D1F71092DE068091DD06ED
:101A6000882331F00E94A10481E003C080E001C01E
:101A700080E00F900FBEDF91CF911F910F91FF90EB
:101A8000EF90DF900895CF93DF93EC01892B39F02D
:101A9000B3DE60E0CE011ADD79DF811102C00E9461
:101AA000A104DF91CF9108958091D606882321F07B
:101AB00081E08093DD0608951092DD06E0913A07FB
:101AC000F0913B0785A10E944003A0913A07B09195
:101AD0003B07E0913A07F0913B072D913C918789B4
:101AE000908D8217930758F060913A0770913B07E9
:101AF00080913A0790913B07675E7F4F4BD42091CE
:101B0000E006822F90E0FC01EE0FFF1FEE0FFF1F9B
:101B1000EE0FFF1FE80FF91FEA5EF84F3081311119
:101B200011C02150822F90E0FC01EE0FFF1FEE0F3D
:101B3000FF1FEE0FFF1FE80FF91FEA5EF84F30811D
:101B4000332379F3AC01440F551F440F551F440F45
:101B5000551F480F591FDA01AA5EB84F1196ED9133
:101B6000FC9112970280F381E02D1296FC93EE9384
:101B70001197475E584FE417F50729F442815381C6
:101B8000FD0152834183FC01EE0FFF1FEE0FFF1F8B
:101B9000EE0FFF1F8E0F9F1FFC01EA5EF84F0180C2
:101BA000F281E02D8681978190933B0780933A07DD
:101BB0002093E006E0913A07F0913B0785A10C9451
:101BC00036030895CF93DF93EB0160913A0770914C
:101BD0003B07645F7F4F0E949B0361E0CE0176DC90
:101BE000DF91CF9108950F931F93CF938B01C42F53
:101BF00060913A0770913B07645F7F4F0E947A03C0
:101C0000CC2311F00FEF1FEF6C2FC8015FDCCF91D9
:101C10001F910F9108950F931F93CF93DF93DC01D2
:101C20001596ED91FC911697C681D7818E01045FC0
:101C30001F4FC8010E94CC038091D60681111CC0A1
:101C40000A501109C8010E94CC038E899091E006C8
:101C5000981710F48093E00690E09C01220F331F48
:101C6000220F331F220F331F820F931FB8018A5E8A
:101C7000984F0E947A0305C0B80187EF96E00E9452
:101C80007A03E0913A07F0913B079E89868989178C
:101C900020F481E08093DD0601C080E0DF91CF91E8
:101CA0001F910F9108952091DC06FC012083209163
:101CB000E1063091E206328321830895CF93DF93CA
:101CC0000FB6F8940F922091E1063091E206DB0105
:101CD0004D915C914F3FBFEF5B07E9F0EC01E9816B
:101CE000FA81A091DC06B881BA1719F02E173F07C8
:101CF000A0F42E1B3F0B2417350740F4FB01421BB9
:101D0000530B51834083CFDF80E008C0FB01118279
:101D1000108281E003C080E001C081E00F900FBE1F
:101D2000DF91CF91089581E08093DD060895809141
:101D30003A0790913B0708958091DF06882331F0A0
:101D40008091D606882321F080E0089581E00895EF
:101D500082E008950F931F93CF93DF93FC01892BAB
:101D600079F184A1815084A3268993A1291751F187
:101D700081112AC0EF018F010E5F1F4FC8010E9421
:101D8000CC038BA18E8B24E030E0281B31093D87EA
:101D90002C879091E006981710F48093E00690E06D
:101DA0009C01220F331F220F331F220F331F820F7C
:101DB000931FB8018A5E984F0E947A0381E005C0A4
:101DC00080E003C080E001C080E0DF91CF911F91EF
:101DD0000F9108954F925F926F927F928F929F9290
:101DE000AF92BF92EF92FF920F931F9349015A0156
:101DF0000FB6F8940F92E0913A07F0913B0723A5B4
:101E0000223021F1E0913A07F0913B0747A050A41E
:101E100061A472A4DC01CB0180959095A095B0954A
:101E200084219521A621B72187A390A7A1A7B2A7B6
:101E3000E0913A07F0913B0781E083A7E114F104B8
:101E400029F061E0C70142DB0E94A1040F900FBEA0
:101E50000FB6F8940F920115110569F0E0913A0759
:101E6000F0913B0787A190A5A1A5B2A5F8018083B9
:101E70009183A283B383E0913A07F0913B0783A556
:101E80008230B1F4E0913A07F0913B0787A190A529
:101E9000A1A5B2A580949094A094B0948822992290
:101EA000AA22BB2287A290A6A1A6B2A681E001C069
:101EB00080E0E0913A07F0913B0713A60F900FBE28
:101EC0001F910F91FF90EF90BF90AF909F908F90D8
:101ED0007F906F905F904F9008950F931F93CF93D3
:101EE000DF93FC010FB6F8940F920115110549F02C
:101EF00087A190A5A1A5B2A5E80188839983AA83AB
:101F0000BB8383A592E093A72230B1F018F421306F
:101F100031F02AC02330E9F0243001F125C007A1B7
:101F200010A521A532A5402B512B622B732B47A363
:101F300050A761A772A718C047A150A561A572A5B7
:101F40004F5F5F4F6F4F7F4F47A350A761A772A7A7
:101F50000BC047A350A761A772A706C0823079F1D2
:101F600047A350A761A772A7813059F5EF018F01F0
:101F70000E5F1F4FC8010E94CC038E899091E0062E
:101F8000981710F48093E00690E09C01220F331F15
:101F9000220F331F220F331F820F931FB8018A5E57
:101FA000984F0E947A03E0913A07F0913B079E898F
:101FB0008689891740F40E94A10481E005C080E071
:101FC00003C081E001C081E00F900FBEDF91CF918F
:101FD0001F910F910895EF92FF920F931F93CF934C
:101FE000DF93FC010115110549F087A190A5A1A57A
:101FF000B2A5E80188839983AA83BB8383A592E075
:1020000093A72230B1F018F4213031F02BC02330E7
:10201000E9F0243001F126C007A110A521A532A5C1
:10202000402B512B622B732B47A350A761A772A79C
:1020300019C047A150A561A572A54F5F5F4F6F4FB3
:102040007F4F47A350A761A772A70CC047A350A713
:1020500061A772A707C0823009F441C047A350A707
:1020600061A772A78130E9F5EF018091D606811151
:102070001DC08F010E5F1F4FC8010E94CC038E89C7
:102080009091E006981710F48093E00690E09C0190
:10209000220F331F220F331F220F331F820F931F74
:1020A000B8018A5E984F0E947A0307C0BF01645F3F
:1020B0007F4F87EF96E00E947A03E0913A07F09114
:1020C0003B079E898689891770F4E114F10419F0A1
:1020D00081E0F701808381E08093DD0605C080E028
:1020E00003C081E001C081E0DF91CF911F910F918A
:1020F000FF90EF900895009721F480913A07909116
:102100003B070FB6F8940F92FC0123A5223019F477
:1021100013A681E001C080E00F900FBE0895FC017E
:1021200073836283918780874617570790F0421B1D
:10213000530B8485958548175907E0F4BF016E5FFE
:102140007F4F80914207909143070E949B0380E05C
:1021500008954217530718F46217730768F4BF0114
:102160006E5F7F4F80914407909145070E949B03CB
:1021700080E0089581E0089581E008950FB6F89415
:102180000F928091400790914107892BE9F48FE4E9
:1021900097E00E94680386E497E00E9468038FE45A
:1021A00097E0909345078093440786E497E09093E7
:1021B00043078093420740E065E08AE00E947A0688
:1021C00090934107809340070F900FBE0895EF92C0
:1021D000FF920F93D3DF8091400790914107892BA5
:1021E00089F00F2EFEE3EF2EF7E0FF2EF02D03E037
:1021F00020E030E045E550E06FE673E083E091E0F9
:10220000B9D901C080E00F91FF90EF9008950F932E
:102210001F93CF93DF9300D01F921F92CDB7DEB7ED
:10222000E0914007F0914107309769F1D901698346
:102230005B834A839D838C836630E4F47DDD82304A
:1022400061F420E0A801BE016F5F7F4F80914007DD
:10225000909141070E94A80617C020E040E050E09E
:10226000BE016F5F7F4F80914007909141070E94B0
:10227000A8060AC020E0AD01BE016F5F7F4FCF010D
:102280000E943A0701C080E00F900F900F900F90CE
:102290000F90DF91CF911F910F910895AF92BF9250
:1022A000CF92DF92EF92FF920F931F93CF93DF9322
:1022B0006C01A8DA7C0180913C0790913D07E816FB
:1022C000F90608F047C02FC00580F681E02DA080F8
:1022D000B180C681D7818E010E5F1F4FC8010E9459
:1022E000CC03E889F989CE0119958B8982FF1BC03F
:1022F0008C859D858A0D9B1DA816B90660F49B836D
:102300008A83D987C887B80180914407909145078F
:102310000E949B0308C000E010E020E030E0A5012F
:1023200060E0CE0174DFE0914407F09145078081C1
:102330008111CACF8091420790914307909345073E
:1023400080934407F0934307E093420781E0F6014E
:10235000808302C0F6011082F0923D07E0923C07B4
:10236000C701DF91CF911F910F91FF90EF90DF9008
:10237000CF90BF90AF9008950895279A2F9A2FEF8E
:1023800080E792E0215080409040E1F700C00000DB
:102390001F9AF5CF279A2F9A2FEF87EA91E62150BF
:1023A00080409040E1F700C000001F9AF5CF80E028
:1023B00030D078945ED4811104C087E793E00E9406
:1023C000D5208AE0F7D381E090E001D787E00E9432
:1023D0002303E0D9FFCFCF93DF931F92CDB7DEB7B2
:1023E000BE016F5F7F4F80915807909159074FD181
:1023F0008111F6CF898190E00F90DF91CF91089500
:10240000682F8091580790915907CCD080E090E0D8
:1024100008958F929F92AF92CF92EF920F93812C5B
:10242000912C6894AA24A7F86894CC24C7F8E12CCE
:1024300000E023E040E051EE60E070E013D09093C4
:10244000590780935807E0ECF8E086E092E091832A
:102450008083938382830F91EF90CF90AF909F9072
:102460008F9008952F923F924F925F926F927F923A
:102470008F929F92AF92CF92EF92FF920F931F9302
:10248000CF93DF93CDB7DEB7F82E2A013B0188E06A
:1024900090E00E94631F8C018F2D90E0880F991FA0
:1024A000FC01E65AF84F11830083FC01EC5EFD4FFE
:1024B00080819181D8018D939C936C2D70E084E094
:1024C00090E00E94491F1C0161E070E086E090E00E
:1024D0000E94491F7C014C2DB1014DD3F801F582BA
:1024E000E4826A2D70E084E090E00E94491F1C01A4
:1024F00061E070E086E090E00E94491F7C014A2D77
:10250000B10139D3D8011396FC92EE921297179627
:102510009C928E921697FFB6F894ED91FC911197CC
:1025200036978081826080838D909C90C301B20138
:102530000E94581E20E030E040E051E40E94E61E78
:102540009B01AC0160E074E284E79BE40E94C41D3F
:1025500020E030E040E85FE30E945F1D0E942C1EF7
:10256000F40132976083D801ED91FC911197359772
:1025700088E98083ED91FC91349786E08083FFBEEB
:10258000C801DF91CF911F910F91FF90EF90CF90F5
:10259000AF909F908F907F906F905F904F903F9003
:1025A0002F900895CF93DF93EC01EA81FB81938113
:1025B00082812581981B922384819817A1F09381B1
:1025C00026952923A081B181A20FB11D6C939F5F35
:1025D000258192239383E881F981359780818062F8
:1025E000808380E001C082E0DF91CF910895EF9277
:1025F000FF920F931F93CF93DF937C01DC01129620
:10260000ED91FC91139793818281981B858198238A
:102610008481891B861798F1662341F1842F952FB9
:10262000DC016150462F50E04F5F5F4F480F591F4C
:10263000E701EA81FB81938182812581981B9223A6
:102640008481981779F08C91938126952923608154
:1026500071818B01020F111DE80188839F5F8581C5
:10266000982393831196A417B50711F7D701ED911D
:10267000FC91359780818062808380E001C082E098
:10268000DF91CF911F910F91FF90EF900895DC01A2
:102690001496ED91FC91159793818281981789F09A
:1026A0009281858186958923A081B181A80FB11D72
:1026B0008C91DB018C939F5F85819823928380E0CE
:1026C000089583E008951F920F920FB60F92112480
:1026D0000BB60F922F933F934F935F936F937F931C
:1026E0008F939F93AF93BF93CF93DF93EF93FF931A
:1026F000A0915A07B0915B07109711F16091C60045
:102700001496ED91FC911597938182812581981BF8
:1027100092238481981761F0838126952823C081B4
:10272000D181C20FD11D68838F5F958189238383F7
:102730001696ED91FC911797309711F0CD011995F0
:10274000FF91EF91DF91CF91BF91AF919F918F91C9
:102750007F916F915F914F913F912F910F900BBEA1
:102760000F900FBE0F901F9018951F920F920FB6EB
:102770000F9211240BB60F922F938F939F93AF93C9
:10278000BF93EF93FF93E0915A07F0915B07309767
:10279000B9F00280F381E02D938182819817B1F026
:1027A00092818581282F26952923A081B181A20FAE
:1027B000B11D2C919F5F892382832093C6000BC09B
:1027C000E1ECF0E080818F7D808305C0E1ECF0E0FA
:1027D00080818F7D8083FF91EF91BF91AF919F9119
:1027E0008F912F910F900BBE0F900FBE0F901F90E7
:1027F00018951F920F920FB60F9211240BB60F92DD
:102800002F933F934F935F936F937F938F939F93F8
:10281000AF93BF93CF93DF93EF93FF93A0915C07A8
:10282000B0915D07109711F16091CE001496ED9173
:10283000FC911597938182812581981B9223848135
:10284000981761F0838126952823C081D181C20F1A
:10285000D11D68838F5F9581892383831696ED91BF
:10286000FC911797309711F0CD011995FF91EF91D9
:10287000DF91CF91BF91AF919F918F917F916F9198
:102880005F914F913F912F910F900BBE0F900FBE14
:102890000F901F9018951F920F920FB60F92112450
:1028A0000BB60F922F938F939F93AF93BF93EF939A
:1028B000FF93E0915C07F0915D073097B9F00280DB
:1028C000F381E02D938182819817B1F09281858107
:1028D000282F26952923A081B181A20FB11D2C910B
:1028E0009F5F892382832093CE000BC0E9ECF0E048
:1028F00080818F7D808305C0E9ECF0E080818F7D51
:102900008083FF91EF91BF91AF919F918F912F9114
:102910000F900BBE0F900FBE0F901F9018951F9237
:102920000F920FB60F9211240BB60F922F933F9375
:102930004F935F936F937F938F939F93AF93BF93C7
:10294000CF93DF93EF93FF93A0915E07B0915F0762
:10295000109711F16091D6001496ED91FC911597A6
:10296000938182812581981B92238481981761F03D
:10297000838126952823C081D181C20FD11D688310
:102980008F5F9581892383831696ED91FC9117972C
:10299000309711F0CD011995FF91EF91DF91CF9113
:1029A000BF91AF919F918F917F916F915F914F9167
:1029B0003F912F910F900BBE0F900FBE0F901F9065
:1029C00018951F920F920FB60F9211240BB60F920B
:1029D0002F938F939F93AF93BF93EF93FF93E091C8
:1029E0005E07F0915F073097B9F00280F381E02D28
:1029F000938182819817B1F092818581282F269545
:102A00002923A081B181A20FB11D2C919F5F892341
:102A100082832093D6000BC0E1EDF0E080818F7DB2
:102A2000808305C0E1EDF0E080818F7D8083FF91A0
:102A3000EF91BF91AF919F918F912F910F900BBE0E
:102A40000F900FBE0F901F9018951F920F920FB608
:102A50000F9211240BB60F922F933F934F935F93D6
:102A60006F937F938F939F93AF93BF93CF93DF9396
:102A7000EF93FF93A0916007B0916107109711F158
:102A8000609136011496ED91FC91159793818281A6
:102A90002581981B92238481981761F08381269564
:102AA0002823C081D181C20FD11D68838F5F95819A
:102AB000892383831696ED91FC911797309711F037
:102AC000CD011995FF91EF91DF91CF91BF91AF911A
:102AD0009F918F917F916F915F914F913F912F9136
:102AE0000F900BBE0F900FBE0F901F9018951F9266
:102AF0000F920FB60F9211240BB60F922F938F9354
:102B00009F93AF93BF93EF93FF93E0916007F09192
:102B100061073097B9F00280F381E02D93818281C3
:102B20009817B1F092818581282F26952923A081BD
:102B3000B181A20FB11D2C919F5F892382832093C5
:102B400036010BC0E1E3F1E080818F7D808305C019
:102B5000E1E3F1E080818F7D8083FF91EF91BF9170
:102B6000AF919F918F912F910F900BBE0F900FBE41
:102B70000F901F901895FC01411102C00E94842003
:102B8000842F90E09C012150310982239323892BCB
:102B900011F00E948420413810F00E94842012829B
:102BA00013824483440F415045837183608380E0E6
:102BB00090E00895E6EAF8E02EED3BE131832083D2
:102BC00021EE3BE1338322832CEE3BE135832483EA
:102BD00020EF3BE13783268326EF3BE131872087D7
:102BE00022E03CE13387228727E03CE135872487D8
:102BF00023E13CE13787268723EF3BE1318B208BB4
:102C000028E13CE1338B228B25E23CE1358B248BA0
:102C1000682FCF01E5C008956530F1F4FA01808195
:102C20008F7390E0982F88272181822B90931F0229
:102C300080931E028281F0E48F9FC0011124FA016B
:102C4000238126952695822B90931D0280931C024A
:102C500081E0809362070895643051F080E090E451
:102C600090931D0280931C0290931F0280931E027A
:102C700008950F931F930CE016E120E034E244EF37
:102C800050E060E087E2E7D59093640780936307A4
:102C900021E0892B09F020E0822F1F910F910895E8
:102CA000CF93DF9390E0FC01EE0FFF1FE80FF91FB9
:102CB000EE0FFF1FEB59F84F238121110AC0EF01DE
:102CC000E091AE08F091AF086A81888199811995E9
:102CD00012C0DC01AA0FBB1FED01C80FD91FCC0F1A
:102CE000DD1FCB59D84FE091B808F091B9086A813F
:102CF000888199811995DF91CF910895CF93DF93C2
:102D000090E0FC01EE0FFF1FE80FF91FEE0FFF1F11
:102D1000EB59F84F238121110AC0EF01E091B80867
:102D2000F091B9086A8188819981199512C0DC01F6
:102D3000AA0FBB1FED01C80FD91FCC0FDD1FCB5948
:102D4000D84FE091AE08F091AF086A8188819981EF
:102D50001995DF91CF91089587E893E00E94D520DF
:102D60000F2EF6EACF2EF8E0DF2EF02D04E0C5E6B8
:102D7000D7E010E08C81813069F0E8F0823039F5DD
:102D8000D6011C96ED91FC911D976A8188819981ED
:102D900019951DC08D818F5F8A3010F48D8317C007
:102DA0001D82D6011C96ED91FC911D976A81888148
:102DB000998119950CC08D81882331F0812F9EDF78
:102DC0008D8181508D8303C00C83812F69DF1F5F4C
:102DD0002696143079F685E090E00E94430DC7CF27
:102DE000CF92DF92EF92FF920F931F93CF93DF93D7
:102DF000062F0F2EF6EAEF2EF8E0FF2EF02DD7016A
:102E00001896ED91FC91199766E087E290E019958C
:102E1000C5E6D7E00F2EF8E2CF2ED12CF02DD982C7
:102E2000C88286E08A831B8214E01C8380E038DF3E
:102E3000D7011896ED91FC91199767E087E290E031
:102E40001995DF82CE8287E0888719861A8781E00C
:102E500027DFD7011896ED91FC91199765E083E380
:102E600090E01995D7011896ED91FC91199761E0C2
:102E700084E390E0199584E390E09D878C8785E05A
:102E80008E871F86188B82E00BDFD7011896ED9195
:102E9000FC91199764E081E091E01995D7011896AB
:102EA000ED91FC91199761E082E091E0199582E043
:102EB00091E09B8B8A8B1C8B1D8A1E8B83E0F0DE3E
:102EC000E12CF12C20E030E040EC50E06EE973E0C2
:102ED0008CEA96E10E94BA0ADF91CF911F910F917F
:102EE000FF90EF90DF90CF9008950F931F93CF93B3
:102EF000DF93C82FD0E08E01000F111FD801AC0F57
:102F0000BD1FAA0FBB1FAB59B84FE091B208F0919B
:102F1000B30812966C9112978D919C911995C00FE0
:102F2000D11FCC0FDD1FCB59D84F81E08C83DF91AF
:102F3000CF911F910F9108950F931F93CF93DF931C
:102F4000C82FD0E08E01000F111FD801AC0FBD1F9C
:102F5000AA0FBB1FAB59B84FE091B208F091B3086C
:102F600012966C9112978D919C911995C00FD11F5B
:102F7000CC0FDD1FCB59D84F82E08C83DF91CF91EE
:102F80001F910F910895282F30E0F901EE0FFF1FD8
:102F9000E20FF31FEE0FFF1FEB59F84F93E09483FE
:102FA000ADCE0895282F30E0F901EE0FFF1FE20F9C
:102FB000F31FEE0FFF1FEB59F84F94E0948370CE90
:102FC000089590E0FC01EE0FFF1FDF01A80FB91F6D
:102FD000AA0FBB1FAB59B84F24E015962C93159739
:102FE000FD011482089590E0FC01EE0FFF1FDF0148
:102FF000A80FB91FAA0FBB1FAB59B84F21E01596F8
:103000002C931597FD01148208950F931F93CF936E
:10301000DF931F921F92CDB7DEB78C0119822DC0AE
:10302000E091E107EC3250F481E08E0F8093E107EC
:10303000F0E0EF5EF74F8A81808302C01092E107D3
:103040008A818A30D1F44091E10750E0FA01E15FD2
:10305000F74F1082415051099E012F5F3F4F61E1B0
:1030600078E08091E2079091E3070E946B098981E3
:1030700081110E94A1041092E107BE016E5F7F4F93
:10308000C80105DB882361F20F900F90DF91CF918B
:103090001F910F9108950F931F93CF93DF938C018E
:1030A000EB018091E2079091E3070E942C09B8019F
:1030B0008DE797E00E94A320209779F0EDE7F7E0F5
:1030C00001900020E9F7319780E290E091838083BE
:1030D000BE018DE797E00E949820EDE7F7E0DF0161
:1030E0000D900020E9F711978DE09AE011969C93DE
:1030F0008E9312961C9201900020E9F73197ED57BC
:10310000F740AE2F8DE797E0AC016A2F8091E4077E
:103110009091E5076CDA81110FC028E235E04DE2AD
:1031200050E06BE678E08091E2079091E3070E941F
:10313000AD098BE698E002C080E090E0DF91CF918E
:103140001F910F910895AF92BF92CF92DF92EF92AD
:10315000FF920F931F93CF93DF936C01FC010190BB
:103160000020E9F731977F01E81AF90A0AE216E030
:10317000C0E0D0E0F80160817181A701C601EAD703
:10318000892B49F4FE01EE0FFF1FEC0FFD1FE75DD9
:10319000F94F808107C021960D5F1F4FC131D105C6
:1031A00049F780E1DF91CF911F910F91FF90EF9050
:1031B000DF90CF90BF90AF9008956DDFC4CF08959A
:1031C0008091E2079091E3070C942C0908958F9267
:1031D0009F92AF92CF92EF920F93CF93C82F41E07F
:1031E00060E070E088EC90E00E9400099093E307B3
:1031F0008093E2070F2EF5E08F2EF8E19F2EF02D41
:103200006894AA24A6F86894CC24C6F8E12C00E0BF
:1032100023E040E051EE60E070E08C2F23D99093E2
:10322000E5078093E407E091AE08F091AF0864E011
:1032300087E091E01995CF910F91EF90CF90AF90EB
:103240009F908F900895882349F0E091B808F091FD
:10325000B90864E088E091E019950895E091AE081E
:10326000F091AF0864E088E091E01995089560E07E
:1032700070E085EC93E00FDFEBE6F8E001900020D2
:10328000E9F73197EB56F84081E0759708F080E058
:103290000895CF93DF93EC0160E070E086ED93E05A
:1032A000FADEEBE6F8E001900020E9F7EC57F84091
:1032B00031F46BE678E0CE0146D780E002C0188298
:1032C00081E0DF91CF910895FC0101900020E9F7A2
:1032D0009F01215131092817390729F4BC0184E0E5
:1032E00094E06BCF089589E00895FC0101900020DF
:1032F000E9F79F01215131092817390729F4BC0149
:1033000083E194E05ACF089589E00895FC0101908B
:103310000020E9F79F01215231092817390729F4C4
:10332000BC0182E294E049CF089589E0089560E00D
:1033300070E081E694E041CF0895E82FF0E0EE0FD1
:10334000FF1FEB5DF94F608171818AE694E035DF04
:10335000811112C028E235E04DE250E06BE678E0E2
:103360008091E2079091E3070E94AD09882321F044
:103370008BE698E0E8CE08958BE698E0E4CE0895D9
:10338000CF93DF931F92CDB7DEB7DB0111969C91EF
:103390001197953108F086C0992381F160E070E0C3
:1033A000272F30E0462F50E0FD01E40FF51F9281FA
:1033B00092959F709A3010F0995C01C0905DF90170
:1033C000E450F84F90832F5F3F4FFD01E40FF51F4E
:1033D00092819F70492F50E04A30510514F0995C5A
:1033E00001C0905DF901E450F84F90837E5F6F5FFC
:1033F00011969C911197691798F201C070E0E72F20
:10340000F0E0E450F84F10824C91811103C083E743
:1034100094E002C085E794E02CEF37E03F932F93D0
:103420001F924F939F938F9389E794E09F938F937D
:103430008EE398E09F938F93E8D660E070E08EE390
:1034400098E0BBDE0FB6F894DEBF0FBECDBF8E3066
:1034500051F587E08983BE016F5F7F4F8BE698E06F
:1034600038D18093E607E981F0E0E559F74FDF01B5
:103470000D900020E9F71197AE1BBF0BAA2381F036
:10348000BB271197CD010AF40196959587958093F6
:10349000E707AF014F5F5F4F64E188EE97E045D1EA
:1034A0008EE001C084E10F90DF91CF9108958130CB
:1034B00019F069E874E002C069E475E08DE894E011
:1034C0007CCE08952F923F924F925F926F927F929F
:1034D0008F929F92AF92BF92CF92DF92EF92FF9224
:1034E0000F931F93CF93DF93CDB7DEB7A0970FB69F
:1034F000F894DEBF0FBECDBF62ED74E08EED94E0B8
:10350000CADD21DE81119FC080E2E1E2F2E0DE014E
:10351000119601900D928A95E1F79E012F5F3F4F22
:103520006901E12CF12C0F2EFAEEAF2EF4E0BF2E44
:10353000F02D0EE318E00F2EF3E04F2EF5E05F2E96
:10354000F02D0F2EFAE18F2EF5E09F2EF02D0F2E8D
:10355000F4E36F2EF5E07F2EF02D3E2C2F2CFF9202
:10356000EF92BF92AF921F930F934FD660E070E03F
:10357000C80191DDE8DD0F900F900F900F900F9034
:103580000F90811160C032E03E15E0F4F6018381B6
:103590008F9382818F9381818F9380818F93FF920C
:1035A000EF925F924F921F930F932FD660E070E0DF
:1035B000C80171DDC8DD0FB6F894DEBF0FBECDBF08
:1035C000811141C02F923F929F928F921F930F9330
:1035D0001CD660E070E0C8015EDDB5DD0F900F9095
:1035E0000F900F900F900F9081112DC02F923F924E
:1035F0007F926F921F930F9308D660E070E0C8012E
:103600004ADDA1DD0F900F900F900F900F900F905B
:10361000811119C03FEFE31AF30A84E0C80ED11CF0
:1036200098E0E916F10409F098CF60E070E08CE4CE
:1036300095E031DD88DD811106C060E070E08DE548
:1036400095E029DD80DDA0960FB6F894DEBF0FBEB1
:10365000CDBFDF91CF911F910F91FF90EF90DF9041
:10366000CF90BF90AF909F908F907F906F905F9022
:103670004F903F902F900895EF92FF920F931F93DA
:10368000CF93DF93EC018B017A0181E010DF811190
:103690000DC0CE012ADE811109C0C80137DE8111BB
:1036A00005C0C70111DE811101C041DEDF91CF915C
:1036B0001F910F91FF90EF90089590E0FC01EE0FA5
:1036C000FF1F8E0F9F1FFC01E75DF94F81819281E3
:1036D0000895DC01009729F1FB012081FC01019094
:1036E0000020E9F73197E81BF90B822F90E0E817EB
:1036F000F907C8F080E008C0880F382F330F330F68
:10370000830F8053890F2F5FFD01E20FF11D908120
:1037100030ED390F3A3010F49111EECFFB012083D8
:10372000089580E0089580E008950F931F93CF934C
:10373000DF93DC01EA012097E1F1FA01019000201A
:10374000E9F73197E41BF50B329710F532C08D0184
:10375000040F151F30E0AE01420F531FFA01908194
:10376000913428F09753592F5295507F03C0592F09
:103770005295507F2C0F3D1FF9019181913410F02B
:10378000975301C09053950FF80190838F5F01C04C
:1037900080E0282F220F482F50E0FE0101900020EA
:1037A000E9F73197EC1BFD0B4E175F0710F48613FA
:1037B000CECFDF91CF911F910F910895FC018081B1
:1037C0000895FC01208181E090E002C0880F991FDC
:1037D0006A95E2F782230895FC018081862308958B
:1037E000FC0160830895FC0110820895FC01408172
:1037F00021E030E002C0220F331F6A95E2F7242B4C
:1038000020830895FC012081622B60830895FC01D0
:10381000408121E030E002C0220F331F6A95E2F7B9
:10382000242720830895FC01208162276083089566
:10383000FC01908121E030E002C0220F331F6A9525
:10384000E2F72095292320830895FC01908160955B
:10385000692360830895AF92BF92CF92DF92EF9277
:10386000FF920F931F93CF93DF93A82EB62E69017B
:103870007A0184E090E027D3EC01892B61F1A882E2
:1038800081E0B81212C0C701B60120EA36E841E073
:1038900050E0EBD0DA01C9014097A109B109B69512
:1038A000A79597958795898311C0C701B60120E830
:1038B0003AE146E050E0D9D0DA01C9014097A109C8
:1038C000B109B695A7959795879589831B830A8338
:1038D0008C2F9D2F02C080E090E0DF91CF911F914F
:1038E0000F91FF90EF90DF90CF90BF90AF90089531
:1038F0001F920F920FB60F9211240BB60F922F93B7
:103900003F934F935F936F937F938F939F93AF9367
:10391000BF93EF93FF93E091B9008E2F90E0FC01ED
:103920003897E135F10508F075C08827E458FF4F56
:103930008F4FBDC010929808E091980880919B0825
:10394000E81770F481E08E0F80939808F0E0E45659
:10395000F74F80818093BB0085E88093BC0072C0E4
:1039600084E98093BC008091990890919A08DC01C9
:103970001296ED91FC911397309709F463C020E003
:1039800040E050E064E019955DC0E091980881E066
:103990008E0F809398088091BB00F0E0E456F74FBB
:1039A00080838091B900803411F41092980820919E
:1039B000980830E080919B0890E00197281739071C
:1039C00024F485EC8093BC003DC085E88093BC0066
:1039D00039C08091BB00E0919808F0E0E456F74FC1
:1039E000808384E98093BC008091990890919A0823
:1039F000DC011296ED91FC911397309719F120910B
:103A00009B084CE958E065E019951CC085EA809355
:103A1000BC0018C08091B9008093200284E080939C
:103A2000BC008091990890919A08DC011296ED9162
:103A3000FC911397309731F020E040E050E0609126
:103A400020021995FF91EF91BF91AF919F918F91B6
:103A50007F916F915F914F913F912F910F900BBE8E
:103A60000F900FBE0F901F901895A1E21A2EAA1B5F
:103A7000BB1BFD010DC0AA1FBB1FEE1FFF1FA2171E
:103A8000B307E407F50720F0A21BB30BE40BF50B1B
:103A9000661F771F881F991F1A9469F760957095A4
:103AA000809590959B01AC01BD01CF010895EE0F6B
:103AB000FF1F881F8BBF0790F691E02D1994505877
:103AC000BB27AA270ED048C139D130F03ED120F013
:103AD00031F49F3F11F41EF42EC10EF4E095E7FB84
:103AE00024C1E92F4AD180F3BA176207730784070C
:103AF000950718F071F49EF562C10EF4E0950B2E57
:103B0000BA2FA02D0B01B90190010C01CA01A0012F
:103B10001124FF27591B99F0593F50F4503E68F18A
:103B20001A16F040A22F232F342F4427585FF3CFCB
:103B3000469537952795A795F0405395C9F77EF49C
:103B40001F16BA0B620B730B840BBAF09150A1F0E5
:103B5000FF0FBB1F661F771F881FC2F70EC0BA0F6B
:103B6000621F731F841F48F4879577956795B795F3
:103B7000F7959E3F08F0B3CF9395880F08F09927EB
:103B8000EE0F9795879508950CD0E6C0DED040F0F3
:103B9000D5D030F021F45F3F19F0C7C0511110C1EA
:103BA000CAC0EBD098F39923C9F35523B1F3951B01
:103BB000550BBB27AA2762177307840738F09F5F4E
:103BC0005F4F220F331F441FAA1FA9F333D00E2EBD
:103BD0003AF0E0E830D091505040E695001CCAF72A
:103BE00029D0FE2F27D0660F771F881FBB1F2617EF
:103BF00037074807AB07B0E809F0BB0B802DBF01C2
:103C0000FF2793585F4F2AF09E3F510568F08DC003
:103C1000D7C05F3FECF3983EDCF3869577956795C8
:103C2000B795F7959F5FC9F7880F911D9695879572
:103C300097F90895E1E0660F771F881FBB1F621791
:103C400073078407BA0720F0621B730B840BBA0B4F
:103C5000EE1F88F7E095089598D088F09F5790F070
:103C6000B92F9927B751A0F0D1F0660F771F881FA1
:103C7000991F1AF0BA95C9F712C0B13081F09FD0E0
:103C8000B1E008959CC0672F782F8827B85F39F07E
:103C9000B93FCCF3869577956795B395D9F73EF400
:103CA00090958095709561957F4F8F4F9F4F0895A8
:103CB000E89409C097FB3EF49095809570956195C6
:103CC0007F4F8F4F9F4F9923A9F0F92F96E9BB277C
:103CD0009395F695879577956795B795F111F8CFF8
:103CE000FAF4BB0F11F460FF1BC06F5F7F4F8F4F63
:103CF0009F4F16C0882311F096E911C0772321F059
:103D00009EE8872F762F05C0662371F096E8862FF0
:103D100070E060E02AF09A95660F771F881FDAF747
:103D2000880F9695879597F9089597F99F6780E88A
:103D300070E060E008959FEF80EC089500240A94FD
:103D40001616170618060906089500240A94121676
:103D50001306140605060895092E0394000C11F4A9
:103D6000882352F0BB0F40F4BF2B11F460FF04C056
:103D70006F5F7F4F8F4F9F4F089557FD9058440FAF
:103D8000551F59F05F3F71F04795880F97FB991FBA
:103D900061F09F3F79F08795089512161306140677
:103DA000551FF2CF4695F1DF08C016161706180604
:103DB000991FF1CF86957105610508940895E894DF
:103DC000BB2766277727CB0197F908950BD0C4CF7F
:103DD000B5DF28F0BADF18F0952309F0A6CFABCFF6
:103DE0001124EECFCADFA0F3959FD1F3950F50E0D9
:103DF000551F629FF001729FBB27F00DB11D639F9D
:103E0000AA27F00DB11DAA1F649F6627B00DA11D42
:103E1000661F829F2227B00DA11D621F739FB00DE8
:103E2000A11D621F839FA00D611D221F749F332758
:103E3000A00D611D231F849F600D211D822F762FF1
:103E40006A2F11249F5750408AF0E1F088234AF0EE
:103E5000EE0FFF1FBB1F661F771F881F915050403A
:103E6000A9F79E3F510570F060CFAACF5F3FECF3FA
:103E7000983EDCF3869577956795B795F795E79526
:103E80009F5FC1F7FE2B880F911D9695879597F937
:103E900008950F931F93CF93DF93869F8001879F91
:103EA000100D969F100D1124C8010DD0EC01009744
:103EB00021F0A80160E070E034D1CE01DF91CF9114
:103EC0001F910F9108950F931F93CF93DF9382302B
:103ED000910510F482E090E0E091BE08F091BF08F7
:103EE00020E030E0A0E0B0E0309719F1408151814E
:103EF0000281138148175907C8F08417950769F4A0
:103F0000109731F012960C93129713961C9327C0BA
:103F10000093BE081093BF0822C02115310519F087
:103F20004217530718F49A01BD01EF01DF01F801B0
:103F3000DBCF21153105F9F0281B390B2430310571
:103F400080F48A819B816115710521F0FB019383C7
:103F5000828304C09093BF088093BE08FE0132960E
:103F600044C0FE01E20FF31F819391932250310967
:103F7000398328833AC02091BC083091BD08232B97
:103F800041F420910202309103023093BD08209346
:103F9000BC0820910002309101022115310541F445
:103FA0002DB73EB74091040250910502241B350BFA
:103FB000E091BC08F091BD08E217F307A0F42E1BB6
:103FC0003F0B2817390778F0AC014E5F5F4F24177D
:103FD000350748F04E0F5F1F5093BD084093BC0853
:103FE0008193919302C0E0E0F0E0CF01DF91CF91A7
:103FF0001F910F910895CF93DF93009709F481C02B
:10400000FC01329713821282A091BE08B091BF08C2
:10401000109781F420813181820F931F2091BC0879
:104020003091BD082817390751F5F093BD08E0938A
:10403000BC0867C0ED0120E030E0CE17DF0740F498
:104040004A815B819E0141155105F1F0EA01F5CFEE
:10405000D383C28340815181840F951FC817D9072C
:1040600059F488819981840F951F029691838083EA
:104070008A819B81938382832115310529F4F093F2
:10408000BF08E093BE083DC0E901FB83EA83499184
:104090005991C40FD51FEC17FD0761F48081918100
:1040A000840F951F0296E901998388838281938109
:1040B0009B838A83E0E0F0E012968D919C911397A8
:1040C000009719F0FD01DC01F7CF8D919C911197BC
:1040D0009D012E5F3F4F820F931F2091BC083091AE
:1040E000BD082817390769F4309729F41092BF08E2
:1040F0001092BE0802C013821282B093BD08A09332
:10410000BC08DF91CF91089581E090E0F89458C306
:10411000FB01DC0102C001900D9241505040D8F7E4
:104120000895DC0101C06D9341505040E0F70895BF
:10413000FB01DC010D900020E9F7119701900D9231
:104140000020E1F70895FB01DC0101900D920020B1
:10415000E1F70895FB01DC014150504088F08D915A
:1041600081341CF08B350CF4805E619161341CF05D
:104170006B350CF4605E861B611171F3990B089529
:10418000881BFCCFCF93DF93CDB7DEB7AE014A5F7C
:104190005F4FFA0161917191AF018091C2089091D6
:1041A000C30861D0DF91CF9108950F931F93CF93F0
:1041B000DF93E091C208F091C308238121FF1BC067
:1041C0008C01D0E0C0E0F80181918F016091C208BC
:1041D0007091C308DB011896ED91FC911997882323
:1041E00031F01995892B79F3DFEFCFEFECCF8AE02F
:1041F0001995892B19F08FEF9FEF02C08D2F9C2FFF
:10420000DF91CF911F910F9108950F931F93CF933B
:10421000DF93CDB7DEB72E970FB6F894DEBF0FBE93
:10422000CDBF0E891F8986E08C831A8309838FEFA7
:104230009FE79E838D83AE01465E5F4F688D798DCB
:10424000CE01019610D0EF81F885E00FF11F1082AA
:104250002E960FB6F894DEBF0FBECDBFDF91CF9183
:104260001F910F9108952F923F924F925F926F92FC
:104270007F928F929F92AF92BF92CF92DF92EF92F6
:10428000FF920F931F93CF93DF93CDB7DEB72B979A
:104290000FB6F894DEBF0FBECDBF6C017B018A0163
:1042A000FC0117821682838181FFBFC1CE01019676
:1042B0003C01F6019381F70193FD859193FF819174
:1042C0007F01882309F4ADC1853239F493FD8591CE
:1042D00093FF81917F01853221F4B60190E0D6D120
:1042E000E8CF912C212C312CFFE1F315D8F08B3243
:1042F00079F038F4803279F08332A1F4232D2061F3
:104300001DC08D3261F0803369F4232D216016C009
:10431000832D8260382EE32DE4603E2E2AC0F32DDB
:10432000F8601DC037FC2DC020ED280F2A3040F06A
:104330008E32B9F436FC75C1232D2064322E19C09B
:1043400036FE06C08AE0989E200D1124922E11C0E0
:10435000EAE02E9E200D1124222EF32DF0623F2E36
:1043600008C08C3621F4832D8068382E02C0883630
:1043700041F4F70193FD859193FF81917F018111B4
:10438000B3CF982F9F7D9554933028F40C5F1F4F27
:104390009FE399830DC0833631F0833771F0833505
:1043A00009F055C020C0F801808189830E5F1F4F3E
:1043B00088248394912C530112C02801F2E04F0EFF
:1043C000511CF801A080B18036FE03C0692D70E059
:1043D00002C06FEF7FEFC5014ED14C018201F32D7A
:1043E000FF773F2E15C0280122E0420E511CF80134
:1043F000A080B18036FE03C0692D70E002C06FEF6F
:104400007FEFC5012DD14C01F32DF0683F2E8201C5
:1044100033FC19C0822D90E088169906A0F4B601ED
:1044200080E290E033D12A94F5CFF50137FC8591F5
:1044300037FE81915F01B60190E028D121102A94C6
:1044400021E0821A91088114910479F7E1C0843641
:1044500011F0893639F5F80137FE07C060817181A6
:10446000828193810C5F1F4F08C060817181072E8C
:10447000000C880B990B0E5F1F4FF32DFF763F2E1C
:1044800097FF09C090958095709561957F4F8F4FEC
:104490009F4FF0683F2E2AE030E0A30133D1882EF1
:1044A000861844C0853731F4232D2F7EB22E2AE0A2
:1044B00030E025C0932D997FB92E8F36C1F018F4C6
:1044C000883579F0AEC0803719F0883721F0A9C05F
:1044D000E92FE061BE2EB4FE0DC0FB2DF460BF2EAF
:1044E00009C034FE0AC0292F2660B22E06C028E07B
:1044F00030E005C020E130E002C020E132E0F80108
:10450000B7FE07C060817181828193810C5F1F4F6C
:1045100006C06081718180E090E00E5F1F4FA301B3
:10452000F1D0882E8618FB2DFF773F2E36FE0DC06A
:10453000232D2E7FA22E891458F434FE0BC032FC9A
:1045400009C0832D8E7EA82E05C0B82CA32C03C0D5
:10455000B82C01C0B92CA4FE0FC0FE01E80DF11D5E
:104560008081803321F49A2D997EA92E09C0A2FE64
:1045700006C0B394B39404C08A2D867809F0B3942E
:10458000A3FC10C0A0FE06C0B21480F4280C922C2C
:104590009B180DC0B21458F4B60180E290E076D0BA
:1045A000B394F8CFB21418F42B1802C0982C212C15
:1045B000A4FE0FC0B60180E390E068D0A2FE16C052
:1045C000A1FC03C088E790E002C088E590E0B60156
:1045D0000CC08A2D867851F0A1FE02C08BE201C08A
:1045E00080E2A7FC8DE2B60190E050D0891430F44F
:1045F000B60180E390E04AD09A94F8CF8A94F30110
:10460000E80DF11D8081B60190E040D08110F6CF19
:10461000222009F44ECEB60180E290E037D02A94F1
:10462000F7CFF6018681978102C08FEF9FEF2B961F
:104630000FB6F894DEBF0FBECDBFDF91CF911F91B3
:104640000F91FF90EF90DF90CF90BF90AF909F9031
:104650008F907F906F905F904F903F902F90089534
:10466000FC010590615070400110D8F7809590953D
:104670008E0F9F1F0895FC01615070400190011042
:10468000D8F7809590958E0F9F1F08950F931F93D5
:10469000CF93DF93FB01238121FD03C08FEF9FEFB9
:1046A0002CC022FF16C046815781248135814217D4
:1046B000530744F4A081B1819D012F5F3F4F3183A7
:1046C00020838C93268137812F5F3F4F378326834A
:1046D00014C08B01EC01FB010084F185E02D1995DC
:1046E000892BE1F6D80116968D919C91179701962A
:1046F00017969C938E931697CE01DF91CF911F91C1
:104700000F910895FA01AA27283051F1203181F143
:10471000E8946F936E7F6E5F7F4F8F4F9F4FAF4FC9
:10472000B1E03ED0B4E03CD0670F781F891F9A1FDC
:10473000A11D680F791F8A1F911DA11D6A0F711D90
:10474000811D911DA11D20D009F468943F912AE09C
:10475000269F11243019305D3193DEF6CF01089584
:10476000462F4770405D4193B3E00FD0C9F7F6CFB5
:10477000462F4F70405D4A3318F0495D31FD40527D
:10478000419302D0A9F7EACFB4E0A6959795879513
:1047900077956795BA95C9F70097610571050895F2
:1047A0009B01AC010A2E069457954795379527959E
:1047B000BA95C9F7620F731F841F951FA01D089536
:0447C000F894FFCF9B
:1047C4000000C608200000000003000000000012E2
:1047D400EB110000C600CE00D600360100400040B8
:1047E400F8A027BE33E034C1332042C43360E5AEC1
:1047F40033A0F2B133E0FFB433200DB833601ABBF9
:1048040033466163746F72795265736574203E2513
:10481400733C0A00436F6E66696775726520746F36
:10482400204555383638203E25733C0A00476574C8
:10483400204857455549203E25733C3A2025730AA4
:1048440000536574204465764555493A2025732004
:104854003E25733C0A00376463353763353430369C
:1048640063303838326433613464356139656437B0
:104874006165356336660034323033373136343669
:104884003664393361303700536574204F544141E5
:10489400204964656E746974792061707045554966
:1048A4003A2573206170704B45593A25732064652D
:1048B400764555493A2573203E25733C0A005361D9
:1048C4007665206D6163203E25733C0A0053657450
:1048D400204164617074697665204461746120527A
:1048E4006174653A204F4E203E25733C0A004A6F9E
:1048F400696E204E6574776F726B205472696573AC
:104904004C6566743A2564203E25733C0A00557054
:104914006C6F6164204D657373616765203E257318
:104924003C0A004C5248616E640049444C450054B2
:104934006D722053766300447269766572206372E7
:1049440065617465642E0048414C206C6564207474
:1049540061736B2073746172746564212100484132
:104964004C5F4C4544007379732072657365740021
:104974006D6163207061757365006D61632072659C
:1049840073756D650073797320666163746F7279F2
:1049940052455345540073797320676574206877D2
:1049A400657569006D6163206765742067776E6261
:1049B400006D616320736574206C696E6B63686B52
:1049C400202564006D6163207365742064657665D9
:1049D4007569006D6163207365742061707065751D
:1049E40069006D616320736574206170706B657913
:1049F400006D616320736574206E776B736B6579EA
:104A0400006D61632073657420617070736B6579E8
:104A1400006D6163207365742064657661646472FB
:104A2400006D61632073617665006D6163206A6F58
:104A3400696E00756E636E66006D61632074782024
:104A44002573202564202573006F6666006D6163FD
:104A54002073657420616472006D616320676574FE
:104A640020616472006D6163207365742064722038
:104A74002564006D616320676574206472006D6154
:104A8400632073657420727864656C6179312025C4
:104A940064003320383639353235303030006D61BA
:104AA400632073657420727832006D6163207365CE
:104AB4007420636820646379636C652025642037FF
:104AC4003939006D616320736574206368206672F0
:104AD400657120256420256C75006D616320736504
:104AE4007420636820647272616E67652025642097
:104AF400302037006D616320736574206368207310
:104B04007461747573202564206F6E006D61632079
:104B1400736574207077726964782031006D616305
:104B24002073657420726574782037006F74616136
:104B340000616270004B4559535F4E4F545F494EBC
:104B44004954004E4F5F465245455F434800534920
:104B54004C454E540042555359004D41435F50411A
:104B6400555345440044454E49454400414343455B
:104B74005054454400494E56414C49445F504152BB
:104B8400414D004E4F545F4A4F494E454400494EF3
:104B940056414C49445F444154415F4C454E0046A4
:104BA40052414D455F434F554E5445525F45525215
:104BB4005F52454A4F494E5F4E4545444544004D7A
:104BC40041435F54585F4F4B004D41435F52585F20
:104BD4004F4B004D41435F4552524F5200554E4B8F
:104BE4004E4F574E006C0571050010060117060262
:104BF4007505038305048E05059505069A0507A525
:104C04000508AC0509B5050AC3050BCE050CDF057F
:0C4C14000DFF050E09060F1306101D060B
:00000001FF
