:1000000005C2000024C2000022C2000020C200007D
:100010001EC200001CC200001AC2000018C200006C
:1000200016C2000014C2000012C2000010C200007C
:1000300073C500000CC200000AC2000008C2000024
:1000400006C2000004C2000002C2000000C200009C
:10005000FEC10000FCC10000FAC10000F8C10000B0
:10006000F6C100000C9406160C945816F0C100005E
:10007000EEC10000ECC10000EAC10000E8C10000D0
:10008000E6C10000E4C10000E2C10000E0C10000E0
:100090000C949C160C94EE16DAC100000C94E81B2C
:1000A000D6C10000D4C10000D2C10000D0C1000000
:1000B000CEC10000CCC10000CAC10000C8C1000010
:1000C000C6C10000C4C10000C2C100000C943217B8
:1000D0000C948417BCC100000C94C8170C941A1817
:1000E000B6C10000950195019501C401CC01DB0169
:1000F00095019501C401CC010A1C7A1C7A1C7A1C5A
:100100007A1C7A1C7A1C7A1C0A1C7A1C7A1C7A1CAF
:100110007A1C7A1C7A1C7A1C0C1C7A1C7A1C7A1C9D
:100120007A1C7A1C7A1C7A1C7A1C7A1C7A1C7A1C1F
:100130007A1C7A1C7A1C7A1C0C1C7A1C7A1C7A1C7D
:100140007A1C7A1C7A1C7A1C7A1C7A1C7A1C7A1CFF
:100150007A1C7A1C7A1C7A1C761C7A1C7A1C7A1CF3
:100160007A1C7A1C7A1C7A1C411C7A1C7A1C7A1C18
:100170007A1C7A1C7A1C7A1C7A1C7A1C7A1C7A1CCF
:100180007A1C7A1C7A1C7A1C351C7A1C7A1C7A1C04
:100190007A1C7A1C7A1C7A1C591C0AE513E00F2E73
:1001A000F2E8EF2EF3E0FF2EF02D80915903882323
:1001B00011F10FB6F8940F92D8011596ED91FC91BC
:1001C0001697C681D781CE0102960BD380914F033B
:1001D000815080934F03809159038150809359033C
:1001E0000F900FBE8F89988D89D2CE0187D28091D2
:1001F00059038111DECFF7018081823008F0C6D328
:100200000E945614D2CFCF93DF9300D000D0CDB749
:10021000DEB7CE0101964C0144244394E12CF12C2D
:10022000512CC82ED92CE091B003F091B1038081FC
:10023000882309F4D7C00580F681E02DA080B18025
:100240000E947C0DC4010E94E8138C0189818111F8
:1002500048C00A151B05B0F10E94460EE091B0039C
:10026000F091B1030580F681E02D66807780C301AF
:100270000296B7D2D30153968C91539782FF17C041
:100280001C966D917C911D976A0D7B1D9501A801AF
:10029000C3010E94F312882369F00E2D1F2D2E2D0D
:1002A0003F2DA501652DC3010E94A11303C08E7FC0
:1002B000F301838BD3015096ED91FC915197C301CB
:1002C000199584C0452DB501601B710B8091AC035D
:1002D0009091AD0391D70E94460E811177C056D3FD
:1002E00075C00E94460E72C0898188230CF46EC0CE
:1002F000AC80BD80F50182859385892B19F0C501FD
:1003000002966FD2CE0106960E94E813AC01E981F5
:100310000E2E000CFF0BEA30F10508F057C08827BD
:10032000EE58FF4F8F4F0C94C71CD50153968C91FC
:100330005397816053968C9353972A813B811C96E7
:100340006D917C911D97620F731FC5010E94F3127E
:100350008823E1F1D5015096ED91FC915197C501AB
:100360001995F501838982FF31C04A815B818485BB
:100370009585480F591F0E2D1F2D2E2D3F2D652DB4
:10038000C5010E94A11322C0D50153968C915397A9
:100390008E7F53968C931AC0F50183898160838B7D
:1003A0006A817B8175876487640F751F9A01C50117
:1003B0000E94F3120BC0D50153968C9181FD03C0AE
:1003C000C5019CD103C08E7FF501838B4E2D5F2D1F
:1003D0006C2D7D2D8091AC039091AD03C7D581111B
:1003E00083CF21CF0E947C0DC4010E94E8138C01B1
:1003F0008981811176CFE091AE03F091AF038081C6
:10040000442D8111452DAE2CBF2C5DCF11241FBE74
:10041000CFEFD1E2DEBFCDBF00E00CBF13E0A0E024
:10042000B2E0E4EFF5E400E00BBF02C007900D92EC
:10043000A234B107D9F724E0A2E4B3E001C01D92D1
:10044000A236B207E1F70E9471140C94F822D8CDBD
:10045000CF93DF93C82FD92F2FEF3FEF42E050E02B
:10046000682F792F80913604909137040E943F0ABB
:100470006FEF7FEF809134049091350400D6DF93C5
:10048000CF938EE492E09F938F930E94082020E008
:1004900040E050E060E070E08091340490913504D9
:1004A0007FD40F900F900F900F90DF91CF91089510
:1004B00020E040E050E060E070E0809134049091F2
:1004C00035046EC40895EF92FF920F93E12CF12C46
:1004D00000E020E030E040EC50E06BE672E085E1C7
:1004E00093E00E942A0C20E030E040EC50E06CE702
:1004F00072E085E293E00E942A0C0F91FF90EF904A
:1005000008950F931F9308E512E022E030E041E0E8
:100510006EE370E08BE892E00E946B1390933904D5
:100520008093380423E030E041E06EE370E08DE931
:1005300092E00E946B1390933B0480933A041F91C6
:100540000F91089580E00E94AE14789481E0BED4AB
:1005500090933D0480933C0481E0B8D4909335049B
:100560008093340441E060E070E082E090E049D79D
:10057000909341048093400441E060E070E082E0A9
:1005800090E03FD790933704809336040E94D918A7
:10059000811115C06FEF7FEF80913C0490913D0475
:1005A0006ED58CEA92E00E941B2020E040E050E0F3
:1005B00060E070E080913C0490913D04F1D382E0D2
:1005C0000E947A1881E00E945A1A6FEF7FEF8091A3
:1005D0003C0490913D0453D58AEC92E00E941B208C
:1005E00020E040E050E060E070E080913C049091B9
:1005F0003D04D6D368E272E083E00E943E1B6FEFB9
:100600007FEF80913C0490913D0439D58CEA92E0D3
:100610000E941B2020E040E050E060E070E080910C
:100620003C0490913D04BCC308956FEF7FEF80912F
:1006300034049091350423D50E946C1B8823A9F3C0
:100640008FED92E00E941B20F0CF08EF12E06FEFD9
:100650007FEF809134049091350411D520E030E093
:10066000A701C0E06C2FD0E07D2F809136049091DF
:100670003704E0D77C016FEF7FEF809134049091D5
:100680003504FDD4DF93CF931F930F930E9408206E
:1006900020E040E050E060E070E080913404909110
:1006A00035047ED38AE090E00E94C30E0F900F9035
:1006B0000F900F90CCCFE8E0F1E09081907F908395
:1006C00090818F70982B90830895E8E0F1E080810D
:1006D000807F80830895CF93DF93EC010E947C0D8F
:1006E000CE010E94D31EEC010E94460E209711F409
:1006F0000E945714CE01DF91CF910895CF93DF93DD
:10070000009741F0EC010E947C0DCE010E946B1F0E
:100710000E94460EDF91CF910895FC0103969283CB
:1007200081832FEF3FEF34832383968385839087E4
:10073000878310820895FC01118610860895CF9357
:10074000DF939C01FB01DC011196CD91DC911297A6
:10075000D383C2838C819D81958384838C819D8189
:10076000DC0113967C936E9312977D836C833187A3
:100770002087F90180818F5F8083DF91CF91089579
:10078000CF93DF93EB01488159814F3F2FEF520701
:1007900021F4FC01A781B0850DC0DC01139601C0D6
:1007A000DF011296ED91FC91139720813181421760
:1007B0005307B0F71296ED91FC911397FB83EA83F0
:1007C000D583C483BD83AC831396DC93CE931297F9
:1007D00099878887FC0120812F5F2083DF91CF914B
:1007E0000895CF93DF93FC01A085B185C281D381A9
:1007F000848195819D838C83C481D58182819381FD
:100800009B838A8311968D919C911297E817F90723
:1008100031F48481958112969C938E931197118661
:1008200010868C9181508C938C91DF91CF9108959B
:1008300031E1FC013083319722E220833197A3E339
:10084000A0833197608331977083319710823197FD
:100850001082319760E8608331971082319710825F
:1008600031971082319762E06083319763E0608353
:10087000319764E06083319765E06083319766E08B
:100880006083319767E06083319768E060833197D8
:1008900069E06083319760E16083319730833197FD
:1008A00032E13083319733E13083319734E1308363
:1008B000319735E13083319736E13083319737E135
:1008C0003083319738E13083319739E13083319784
:1008D00030E23083319731E2308331972083319792
:1008E00023E220833197408331975083319726E26A
:1008F0002083319727E22083319728E220833197A4
:1009000029E22083319720E32083319721E320835C
:1009100089970895A89590EC88E10FB6F894A8956A
:10092000809360000FBE90936000A091A603B091E9
:10093000A703CD91CDBFDD91DEBFFF91EF91DF9198
:10094000CF91BF91AF919F918F917F916F915F9167
:100950004F913F912F911F910F91FF90EF90DF905A
:10096000CF90BF90AF909F908F907F906F905F904F
:100970004F903F902F901F900F900CBE0F900BBE8A
:100980000F900FBE0F90089581E008950F920FB65B
:10099000F8940F920BB60F920CB60F921F9211247F
:1009A0002F923F924F925F926F927F928F929F927F
:1009B000AF92BF92CF92DF92EF92FF920F931F936D
:1009C0002F933F934F935F936F937F938F939F9357
:1009D000AF93BF93CF93DF93EF93FF93A091A603C1
:1009E000B091A7030DB60D920EB60D920E94D40ED3
:1009F000A091A603B091A703CD91CDBFDD91DEBF3D
:100A0000FF91EF91DF91CF91BF91AF919F918F9126
:100A10007F916F915F914F913F912F911F910F9116
:100A2000FF90EF90DF90CF90BF90AF909F908F900E
:100A30007F906F905F904F903F902F901F900F90FE
:100A40000CBE0F900BBE0F900FBE0F9008950F922B
:100A50000FB6F8940F920BB60F920CB60F921F922E
:100A600011242F923F924F925F926F927F928F92BA
:100A70009F92AF92BF92CF92DF92EF92FF920F932D
:100A80001F932F933F934F935F936F937F938F9316
:100A90009F93AF93BF93CF93DF93EF93FF93A09177
:100AA000A603B091A7030DB60D920EB60D9213BE1C
:100AB0000E948C0D81110E94D40EA091A603B091CA
:100AC000A703CD91CDBFDD91DEBFFF91EF91DF9107
:100AD000CF91BF91AF919F918F917F916F915F91D6
:100AE0004F913F912F911F910F91FF90EF90DF90C9
:100AF000CF90BF90AF909F908F907F906F905F90BE
:100B00004F903F902F901F900F900CBE0F900BBEF8
:100B10000F900FBE0F9008959ADF18950FB6F894B6
:100B20000F92FC01928D0F900FBE81E0911180E039
:100B300008950F931F93CF93DF93EC01042F1A8D29
:100B40004C8D41110CC088819981892B09F042C0DC
:100B50008C819D810E94AC101D821C8242C00111BB
:100B600017C050E08A819B810E94F81F2C8D8A81DA
:100B70009B81820F911D9B838A832C813D818217EB
:100B8000930750F1888199819B838A8380E029C0F3
:100B900050E08E819F810E94F81F8C8D90E091958E
:100BA000819591092E813F81280F391F3F832E8324
:100BB000488159812417350730F42C813D81820FFB
:100BC000931F9F838E83023049F4112349F0115003
:100BD00080E007C080E005C080E003C080E001C085
:100BE00080E01F5F1A8FDF91CF911F910F910895C1
:100BF000FC01448D4423A9F050E026813781240F65
:100C0000351F37832683848195812817390720F083
:100C10008081918197838683CB01668177810C9453
:100C2000F81F0895EF92FF920F931F93CF938C01BB
:100C30000FB6F8940F92FC01C68D1C16ACF4818996
:100C4000811106C011C0F8018189811105C00CC055
:100C50007801F1E1EF0EF11CC7010E948B0F8111A9
:100C60000E942310C15079F78FEFF801868F0F9003
:100C70000FBE0FB6F8940F92C58D1C16ACF480858C
:100C8000811106C011C0F8018085811105C00CC01A
:100C90007801F8E0EF0EF11CC7010E948B0F811163
:100CA0000E942310C15079F78FEFF801858F0F90C4
:100CB0000FBECF911F910F91FF90EF900895CF93AA
:100CC000DF93EC010FB6F8940F92E881F9818B8DD8
:100CD0002C8D90E030E0829FA001839F500D929F69
:100CE000500D11244E0F5F1F5D834C831A8EFB83C2
:100CF000EA830197829FA001839F500D929F500D20
:100D00001124CF01840F951F9F838E838FEF8D8FCA
:100D10008E8F61110BC08885882371F0CE010896F3
:100D20000E948B0F882341F031DE06C0CE01089669
:100D3000F4DCCE014196F1DC0F900FBE81E0DF9133
:100D4000CF910895FF920F931F93CF93DF93082FB6
:100D5000162FF42E6623B9F0869FC00111248196C8
:100D6000BADCEC01009741F414C00B8F1C8F61E0DA
:100D7000CE01A5DFF8A20DC0819699838883F5CFB7
:100D8000D983C883F2CF81E290E0A5DCEC01892B06
:100D9000B9F7CE01DF91CF911F910F91FF90089588
:100DA0009F92AF92BF92CF92DF92EF92FF920F93FA
:100DB0001F93CF93DF9300D01F921F92CDB7DEB762
:100DC0008C016B015D834C83A22EB12C99249394EA
:100DD0007C0188E0E80EF11C0FB6F8940F92F80140
:100DE000928D838D981718F0F2E0AF1216C04A2D3D
:100DF000B601C8019EDEF8019189992341F0C8012E
:100E000041960E948B0F882321F0C0DD02C0811122
:100E1000BDDD0F900FBE81E048C08C819D81892B84
:100E200021F40F900FBE80E040C0B11005C0CE018C
:100E300001960E94E30FB92C0F900FBE5DD60FB63E
:100E4000F8940F92F801858D8F3F09F4158EF80103
:100E5000868D8F3F09F4168E0F900FBEBE016C5F1A
:100E60007F4FCE0101960E94EE0F81111AC00FB67E
:100E7000F8940F92F801928D838D0F900FBE981306
:100E80000CC06C817D81C7010E94620FC801CADE5F
:100E9000FDD68111A1CF7ADD9FCFC801C3DEF6D682
:100EA0009BCFC801BFDEF2D680E00F900F900F906D
:100EB0000F900F90DF91CF911F910F91FF90EF90C6
:100EC000DF90CF90BF90AF909F900895CF93DF9326
:100ED000482F60E081E036DFEC01009759F01D8279
:100EE0001C82198218821E8220E040E050E060E0FF
:100EF00070E056DFCE01DF91CF910895EF92FF921F
:100F00000F931F93CF93DF938A01FC01528D338D92
:100F1000531710F02230E1F4422F7801EC011E8DBE
:100F200008DE1F3F79F489898823A1F0CE0141961C
:100F3000F2D7882389F0E114F10481F081E0F70110
:100F400080830DC0FF24F394F10EFE8E81E007C074
:100F500080E005C081E003C081E001C081E0DF9155
:100F6000CF911F910F91FF90EF9008959F92AF92B4
:100F7000BF92CF92DF92EF92FF920F931F93CF9386
:100F8000DF9300D01F921F92CDB7DEB78C015B01BB
:100F90005D834C83E12C992493946C0181E1C80E0C
:100FA000D11C0FB6F8940F92F801F28CFF2091F04B
:100FB000B501C8011DDEFA94F801F28E8085882300
:100FC00029F0C8010896A7D78111E0DC0F900FBE69
:100FD00081E044C08C819D81892B21F40F900FBE4C
:100FE00080E03CC0E11004C0CE010196ECD7E92CB2
:100FF0000F900FBE81D50FB6F8940F92F801858D32
:101000008F3F09F4158EF801868D8F3F09F4168EF7
:101010000F900FBEBE016C5F7F4FCE010196DED7F1
:10102000811113C0C8017ADD882359F06C817D815C
:10103000C60148D7C801F6DD29D68111B2CFA6DC9A
:10104000B0CFC801EFDD22D6ACCFC801EBDD1ED694
:10105000C80164DD882309F4A4CF80E00F900F90CD
:101060000F900F900F90DF91CF911F910F91FF90F4
:10107000EF90DF90CF90BF90AF909F900895BF9278
:10108000CF92DF92EF92FF920F931F93CF93DF9354
:1010900000D01F921F92CDB7DEB78C017D836C8389
:1010A000B12CD12CCC24C3947C0181E1E80EF11C3D
:1010B0000FB6F8940F92D8015A968C915A978823BC
:1010C000D9F081505A968C935A978D919C91892B87
:1010D00029F40E943C11F80195838483D801189665
:1010E0008C91882329F0C801089615D781114EDC10
:1010F0000F900FBE81E071C08C819D81892B21F4FE
:101100000F900FBE80E069C0D11004C0CE010196DF
:101110005AD7DC2C0F900FBEEFD40FB6F8940F9275
:10112000F801858D8F3F09F4158ED8015E968C915C
:101130005E978F3F11F45E961C920F900FBEBE011A
:101140006C5F7F4FCE01019649D7811121C0C80144
:10115000E5DC8823C9F0F80180819181892B49F46D
:101160000FB6F8940F928481958184D7B82E0F9092
:101170000FBE6C817D81C701A5D6C80153DD86D520
:10118000811196CF03DC94CFC8014CDD7FD590CF81
:10119000C80148DD7BD5C801C1DC882309F488CFAC
:1011A000BB20D1F00FB6F8940F92F8018189882303
:1011B00039F00688F789E02D808164E0681B01C062
:1011C00060E0D80114968D919C9115970E94EC10C7
:1011D0000F900FBE80E001C080E00F900F900F9045
:1011E0000F900F90DF91CF911F910F91FF90EF9093
:1011F000DF90CF90BF900895CF93DF93EC010FB6AF
:10120000F8940F928D8D8F3F09F41D8E8E8D8F3F38
:1012100009F41E8E0F900FBE8A8D811103C0CE017E
:10122000419661D6CE01FEDCDF91CF910895FC019D
:101230004481558122813381240F351F8081918122
:10124000B901681B790BCB016417750710F0841B7B
:10125000950B0895AF92BF92CF92DF92EF92FF92DB
:101260000F931F93CF93DF936C015B017A01FC0115
:10127000C281D381048115810C1B1D0B40175107BE
:1012800008F48A01F60184859585A801B5018C0FC3
:101290009D1F0E94F81F0E151F0558F4A701401B43
:1012A000510BB501600F711FF601848595850E9471
:1012B000F81FCE018E0D9F1DF60124813581821706
:1012C000930710F0821B930BF60193838283C7016F
:1012D000DF91CF911F910F91FF90EF90DF90CF9012
:1012E000BF90AF900895CF92DF92EF92FF920F934D
:1012F0001F93CF93DF931F921F92CDB7DEB75A8310
:10130000498321153105C9F06B017C01FC018685FB
:1013100080FD08C0CA012417350708F4C9019A8363
:10132000898311C02017310758F042E050E0BE0118
:101330006F5F7F4FC7018EDF06C080E090E008C07E
:1013400080E090E005C049815A81B601C70182DF83
:101350000F900F90DF91CF911F910F91FF90EF9021
:10136000DF90CF900895AF92BF92CF92DF92EF922D
:10137000FF920F931F93CF93DF937C015B01E901F1
:101380004217530708F4EA01209779F1F701008129
:101390001181C480D580C01AD10ACC15DD0508F4AE
:1013A0006E01F70164857585600F711FA601C50187
:1013B0000E94F81FCC16DD0658F4AE014C195D09E9
:1013C000F70164857585C5018C0D9D1D0E94F81F70
:1013D0000C0F1D1FF701848195810817190710F064
:1013E000081B190BF70111830083CE01DF91CF9108
:1013F0001F910F91FF90EF90DF90CF90BF90AF9033
:101400000895EF92FF921F93CF93DF93EB0111E0CA
:10141000413009F010E0209711F4C1E0D0E07C01E8
:101420002FEFE21AF20A419656D9009781F020E197
:10143000FC0111922A95E9F79C01205F3F4FFC01C6
:1014400035872487F582E482D783C6831687DF91A8
:10145000CF911F91FF90EF900895FC012481358179
:101460008081918142815381820F931F0197841B58
:10147000950B8217930710F0821B930B08954F92E0
:101480005F926F927F928F929F92AF92BF92CF9214
:10149000DF92EF92FF920F931F93CF93DF9300D0D1
:1014A0001F921F92CDB7DEB76C012B013A013D832D
:1014B0002C83FC01868580FF05C04A01F2E08F0E77
:1014C000911C01C04A018C819D81892B09F432C095
:1014D000CE01019668D50FB6F8940F92C601BDDF14
:1014E0005C018815990508F580E090E00E94DF1204
:1014F000AED5F601938782870F900FBEEC80FD80FA
:1015000000E010E020E030E0A90160E070E0CB01F5
:10151000C5D6F60113861286BE016C5F7F4FCE01E1
:1015200001965CD58823B9F202C00F900FBEA114BA
:10153000B10419F4C60191DF5C0184019501A30196
:10154000B201C601D0DE7C01892BD9F0C6016FDE65
:10155000F601268137818217930798F0CDD2F601E4
:1015600080859185892B61F08085918500E010E070
:1015700020E040E050E0BA0114D7F6011186108651
:1015800085D3C7010F900F900F900F900F90DF91B0
:10159000CF911F910F91FF90EF90DF90CF90BF9070
:1015A000AF909F908F907F906F905F904F90089535
:1015B000AF92BF92CF92DF92EF92FF920F931F9361
:1015C000CF93DF93EC015B016A0179018E8580FF87
:1015D00004C08A010E5F1F4F01C08A01CE013DDFAA
:1015E0009C01A601B501CE017EDE6C01892BB1F014
:1015F000CE011DDE2E813F818217930778F088850A
:101600009985892B59F08885998500E010E020E0C4
:1016100040E050E0BA0143D719861886C601DF9131
:10162000CF911F910F91FF90EF90DF90CF90BF90DF
:10163000AF9008956F927F928F929F92AF92BF92D8
:10164000CF92DF92EF92FF920F931F93CF93DF938E
:101650001F921F92CDB7DEB76C013B014A017901A1
:10166000FC01868580FD03C0A12CB12C04C06894C8
:10167000AA24A1F8B12CE114F10429F10FB6F894D1
:101680000F92C601D4DD8C01A816B90638F080E0AF
:1016900090E095D7DCD4F601918780870F900FBE3C
:1016A000A016B106B0F000E010E020E030E0A901A3
:1016B00060E070E0CB01F2D5F60111861086C6011C
:1016C000B6DD8C0103C0C601B2DD8C01A016B106E7
:1016D000B8F5A114B104C1F0F601E080F1809801E1
:1016E000A501BE016F5F7F4FC6013DDE89819A81F2
:1016F0000A191B098816990630F4F601F182E08276
:10170000812C912C01C04C019801A401B301C601A8
:101710002ADE7C01892BB1F0EFD1F6018285938519
:10172000892B61F08285938500E010E020E040E0A5
:1017300050E0BA0136D6F60113861286A7D202C04F
:10174000E12CF12CC7010F900F90DF91CF911F91E9
:101750000F91FF90EF90DF90CF90BF90AF909F9050
:101760008F907F906F900895E0916E03F0916F03DA
:101770008081811107C08FEF9FEF90934603809384
:1017800045030895E0916E03F0916F030580F681A3
:10179000E02D0680F781E02D8281938190934603AE
:1017A000809345030895FF920F931F93CF93DF9388
:1017B000EC01F62E00914D0310914E038091A6038B
:1017C0009091A70302960DD8CF3F8FEFD80769F409
:1017D000FF2059F06091A6037091A7036E5F7F4FC1
:1017E00080E593E00E949F032FC0C00FD11FE091BE
:1017F000A603F091A703D383C283C017D10768F46F
:101800006091A6037091A70380916C0390916D0382
:101810006E5F7F4F0E94C00317C06091A603709156
:10182000A70380916E0390916F036E5F7F4F0E94BC
:10183000C0038091450390914603C817D90720F44F
:10184000D0934603C0934503DF91CF911F910F9131
:10185000FF9008954F925F926F927F928F929F9226
:10186000AF92BF92CF92DF92EF92FF920F93CF93FE
:10187000DF934C016B015A012901CA010E946B03DD
:101880003C01892B09F4F4C08CE290E00E946B03C8
:10189000EC01892B99F0788E6F8AA50165EA70E0DA
:1018A000C3010E94012081E0A81AB1088F89988D98
:1018B000A80EB91EC114D10429F420C0C3010E948E
:1018C0007E03D6C0D6018C91898F8C918823A1F09C
:1018D000AE01465E5F4FF6013196B8E0CB0ED11CEB
:1018E000CF012191DA012D93AD01DC018C91882388
:1018F00019F0EC15FD05A1F718A201C0198E0430EE
:1019000008F003E00E8B0BA31CA26E01B2E0CB0E1D
:10191000D11CC6010E949B03CE010C960E949B0322
:10192000D987C88784E090E0801B91099D878C87C8
:10193000DB8BCA8B1EA21DA21FA218A619A61AA66F
:101940001BA6A201B401C5010E94180499838883D3
:10195000E114F10419F0F701D183C0830FB6F894B4
:101960000F9280914F038F5F80934F038091A60366
:101970009091A703892BD1F5D093A703C093A60319
:1019800080914F03813009F041C082E893E00E94CA
:101990008D038BE893E00E948D0384E993E00E941D
:1019A0008D038DE993E00E948D0389E793E00E9407
:1019B0008D0380E793E00E948D0383E693E00E940D
:1019C0008D038AE593E00E948D0380E593E00E94F9
:1019D0008D0389E793E090936F0380936E0380E714
:1019E00093E090936D0380936C0310C080914B0340
:1019F00081110CC0E091A603F091A70396898E890E
:101A0000891720F0D093A703C093A60380914703C2
:101A10008F5F8093470389A38E8990914C03981719
:101A200010F480934C0390E09C01220F331F220F8F
:101A3000331F220F331F820F931FB6018E579C4F07
:101A40000E949F030F900FBE80914B03882361F08B
:101A5000E091A603F091A70396898E89981730F438
:101A60000E94C60481E005C081E003C081E001C09E
:101A70008FEFDF91CF910F91FF90EF90DF90CF909C
:101A8000BF90AF909F908F907F906F905F904F909E
:101A90000895EF92FF920F930F2EF3E4EF2EF3E0F1
:101AA000FF2EF02D00E020E030E040EC50E065E15A
:101AB00073E08DEC90E0CEDE8130D1F4ECD5813056
:101AC000B9F4F8948FEF9FEF90934603809345030A
:101AD00081E080934B0310924E0310924D03E091EE
:101AE000A603F091A70385A10E945B030E948A04CC
:101AF0000F91FF90EF900895809142038F5F809344
:101B0000420308950FB6F8940F9280914D0390917F
:101B10004E030F900FBE0895CF92DF92EF92FF9287
:101B20000F931F93CF93DF9380914203811198C04D
:101B3000E0904D03F0904E038FEFE81AF80AF09210
:101B40004E03E0924D03E114F104B1F480916E0371
:101B500090916F0320916C0330916D0330936F036C
:101B600020936E0390936D0380936C0380914803E0
:101B70008F5F80934803F8DD809145039091460381
:101B8000E816F90610F4D12C53C0D12CCC24C39400
:101B9000E0916E03F0916F038081811107C08FEF98
:101BA0009FEF909346038093450342C0E0916E03FC
:101BB000F0916F030580F681E02DC681D7818A817F
:101BC0009B81E816F90628F4909346038093450319
:101BD0002FC08E010E5F1F4FC8010E94F1038C8938
:101BE0009D89892B21F0CE010C960E94F1038E89EC
:101BF00090914C03981710F480934C0390E09C0153
:101C0000220F331F220F331F220F331F820F931F08
:101C1000B8018E579C4F0E949F03E091A603F0915C
:101C2000A7039E898689981708F4B2CFDC2CB0CF21
:101C3000E091A603F091A703868990E0FC01EE0FE6
:101C4000FF1FEE0FFF1FEE0FFF1F8E0F9F1FFC01E8
:101C5000EE57FC4F8081823048F0DD24D39406C0DB
:101C600080914A038F5F80934A03D12C809149036E
:101C7000882311F0DD24D3948D2DDF91CF911F9116
:101C80000F91FF90EF90DF90CF900895DF92EF9249
:101C9000FF920F931F93CF93DF930FB6F8940F9299
:101CA00080914203815080934203809142038111CD
:101CB0005DC080914F03811133C05BC0D701159681
:101CC000ED91FC911697C681D781CE010C960E94AA
:101CD000F1038E010E5F1F4FC8010E94F1038E8930
:101CE00090914C03981710F480934C0390E09C0162
:101CF000220F331F220F331F220F331F820F931F18
:101D0000B8018E579C4F0E949F03E091A603F0916B
:101D1000A7039E898689981768F0D09249030AC064
:101D2000C0E0D0E00F2EF3E6EF2EF3E0FF2EF02D13
:101D3000DD24D394F70180818111C0CFCD2B09F030
:101D400013DDC0914A03CC2349F0D1E0E5DE8111D7
:101D5000D0934903C150D1F710924A0380914903AF
:101D6000882331F00E94C60481E003C080E001C0F6
:101D700080E00F900FBEDF91CF911F910F91FF90E8
:101D8000EF90DF900895CF93DF93EC01892B39F02A
:101D9000B3DE60E0CE0107DD79DF811102C00E9471
:101DA000C604DF91CF91089580914203882321F0EA
:101DB00081E080934903089510924903E091A603BE
:101DC000F091A70385A10E946503A091A603B0919D
:101DD000A703E091A603F091A7032D913C91878979
:101DE000908D8217930758F06091A6037091A70316
:101DF0008091A6039091A703675E7F4F65D52091E0
:101E00004C03822F90E0FC01EE0FFF1FEE0FFF1F2F
:101E1000EE0FFF1FE80FF91FEE57FC4F3081311115
:101E200011C02150822F90E0FC01EE0FFF1FEE0F3A
:101E3000FF1FEE0FFF1FE80FF91FEE57FC4F308119
:101E4000332379F3AC01440F551F440F551F440F42
:101E5000551F480F591FDA01AE57BC4F1196ED912F
:101E6000FC9112970280F381E02D1296FC93EE9381
:101E700011974B575C4FE417F50729F442815381C2
:101E8000FD0152834183FC01EE0FFF1FEE0FFF1F88
:101E9000EE0FFF1F8E0F9F1FFC01EE57FC4F0180BE
:101EA000F281E02D868197819093A7038093A6030A
:101EB00020934C03E091A603F091A70385A10C9415
:101EC0005B030895CF93DF93EB016091A6037091BC
:101ED000A703645F7F4F0E94C00361E0CE0163DC13
:101EE000DF91CF9108950F931F93CF938B01C42F50
:101EF0006091A6037091A703645F7F4F0E949F03C8
:101F0000CC2311F00FEF1FEF6C2FC8014CDCCF91E9
:101F10001F910F9108950F931F93CF93DF93DC01CF
:101F20001596ED91FC911697C681D7818E01045FBD
:101F30001F4FC8010E94F1038091420381111CC010
:101F40000A501109C8010E94F1038E8990914C0337
:101F5000981710F480934C0390E09C01220F331FDC
:101F6000220F331F220F331F820F931FB8018E578A
:101F70009C4F0E949F0305C0B80183E693E00E9436
:101F80009F03E091A603F091A7039E898689891794
:101F900020F481E08093490301C080E0DF91CF917C
:101FA0001F910F9108950FB6F8940F922091480356
:101FB000FC01208320914D0330914E033283218315
:101FC0000F900FBE089520914803FC0120832091BB
:101FD0004D0330914E03328321830895CF93DF93D5
:101FE0000FB6F8940F9220914D0330914E03DB0110
:101FF0004D915C914F3FBFEF5B07E9F0EC01E98148
:10200000FA81A0914803B881BA1719F02E173F073B
:10201000A0F42E1B3F0B2417350740F4FB01421B95
:10202000530B51834083CFDF80E008C0FB01118256
:10203000108281E003C080E001C081E00F900FBEFC
:10204000DF91CF91089581E08093490308958091B5
:10205000A6039091A703089580914B03882331F044
:1020600080914203882321F080E0089581E0089563
:1020700082E008950F931F93CF93DF93FC01892B88
:1020800009F464C02689A091A603B091A7035696CF
:102090008C91281708F04EC084859585992364F0AB
:1020A000A091A603B091A70356963C9184E090E0DE
:1020B000831B91099587848730E0C901880F991F98
:1020C000880F991F880F991F280F391F2E573C4FD3
:1020D000828593858217930721F58F01EF01229660
:1020E000CE010E94F103E091A603F091A703868937
:1020F000F801868B90914C03981710F480934C0351
:1021000090E09C01220F331F220F331F220F331F39
:10211000820F931FBE018E579C4F0E949F0381E048
:1021200016C0A091A603B091A70356968C91868BFA
:1021300081E00DC0A091A603B091A70381E023A187
:1021400056969C91291718F080E001C080E0DF913D
:10215000CF911F910F9108950F931F93CF93DF930A
:10216000FC01892B79F184A1815084A3268993A154
:10217000291751F181112AC0EF018F010E5F1F4F06
:10218000C8010E94F1038BA18E8B24E030E0281B54
:1021900031093D872C8790914C03981710F4809358
:1021A0004C0390E09C01220F331F220F331F220F9C
:1021B000331F820F931FB8018E579C4F0E949F03BD
:1021C00081E005C080E003C080E001C080E0DF91D5
:1021D000CF911F910F9108950F931F93CF93DF938A
:1021E000FC01892B09F443C093A1961708F4962F9C
:1021F00086898917E1F124A12130C9F5968B2485C0
:102200003585332334F024E030E0291B310935874C
:10221000248790E09C01220F331F220F331F220FCF
:10222000331F820F931F8E579C4F228533852817AB
:102230003907E9F4EF018F010E5F1F4FC8010E94BB
:10224000F1038E8990914C03981710F480934C03FE
:1022500090E09C01220F331F220F331F220F331FE8
:10226000820F931FB8018E579C4F0E949F03DF91EE
:10227000CF911F910F9108958091A6039091A7038C
:10228000892B39F0E091A603F091A70384A18F5F19
:1022900084A38091A6039091A70308954F925F9223
:1022A0006F927F928F929F92AF92BF92EF92FF9226
:1022B0000F931F9349015A010FB6F8940F92E091C2
:1022C000A603F091A70323A5223021F1E091A603F4
:1022D000F091A70347A050A461A472A4DC01CB0134
:1022E00080959095A095B09584219521A621B72140
:1022F00087A390A7A1A7B2A7E091A603F091A70397
:1023000081E083A7E114F10429F061E0C7014BDA11
:102310000E94C6040F900FBE0FB6F8940F920115DD
:10232000110569F0E091A603F091A70387A190A59C
:10233000A1A5B2A5F80180839183A283B383E09124
:10234000A603F091A70383A58230B1F4E091A60320
:10235000F091A70387A190A5A1A5B2A58094909420
:10236000A094B09488229922AA22BB2287A290A688
:10237000A1A6B2A681E001C080E0E091A603F091A1
:10238000A70313A60F900FBE1F910F91FF90EF9020
:10239000BF90AF909F908F907F906F905F904F9085
:1023A00008950F931F93CF93DF93FC010FB6F8941A
:1023B0000F920115110549F087A190A5A1A5B2A51D
:1023C000E80188839983AA83BB8383A592E093A7BE
:1023D0002230B1F018F4213031F02AC02330E9F076
:1023E000243001F125C007A110A521A532A5402B5D
:1023F000512B622B732B47A350A761A772A718C05C
:1024000047A150A561A572A54F5F5F4F6F4F7F4FEA
:1024100047A350A761A772A70BC047A350A761A706
:1024200072A706C0823079F147A350A761A772A7AF
:10243000813059F5EF018F010E5F1F4FC8010E94D7
:10244000F1038E8990914C03981710F480934C03FC
:1024500090E09C01220F331F220F331F220F331FE6
:10246000820F931FB8018E579C4F0E949F03E091EB
:10247000A603F091A7039E898689891740F40E94DC
:10248000C60481E005C080E003C081E001C081E0B6
:102490000F900FBEDF91CF911F910F910895EF9292
:1024A000FF920F931F93CF93DF93FC01011511054A
:1024B00049F087A190A5A1A5B2A5E80188839983D9
:1024C000AA83BB8383A592E093A72230B1F018F4CE
:1024D000213031F02BC02330E9F0243001F126C047
:1024E00007A110A521A532A5402B512B622B732BE0
:1024F00047A350A761A772A719C047A150A561A51E
:1025000072A54F5F5F4F6F4F7F4F47A350A761A7E3
:1025100072A70CC047A350A761A772A707C082305B
:1025200009F441C047A350A761A772A78130E9F51C
:10253000EF018091420381111DC08F010E5F1F4F7B
:10254000C8010E94F1038E8990914C03981710F4F2
:1025500080934C0390E09C01220F331F220F331F06
:10256000220F331F820F931FB8018E579C4F0E947A
:102570009F0307C0BF01645F7F4F83E693E00E9423
:102580009F03E091A603F091A7039E89868989178E
:1025900070F4E114F10419F081E0F701808381E027
:1025A0008093490305C080E003C081E001C081E061
:1025B000DF91CF911F910F91FF90EF9008950097B9
:1025C00021F48091A6039091A7030FB6F8940F927F
:1025D000FC0123A5223019F413A681E001C080E09C
:1025E0000F900FBE0895FC017383628391878087EB
:1025F0004617570790F0421B530B84859585481763
:102600005907E0F4BF016E5F7F4F8091AE03909158
:10261000AF030E94C00380E008954217530718F4E7
:102620006217730768F4BF016E5F7F4F8091B0033C
:102630009091B1030E94C00380E0089581E0089565
:1026400081E008950FB6F8940F928091AC039091B9
:10265000AD03892BE9F48BEB93E00E948D0382EBB1
:1026600093E00E948D038BEB93E09093B1038093F2
:10267000B00382EB93E09093AF038093AE0340E00E
:1026800065E08AE00E94A2069093AD038093AC03BC
:102690000F900FBE0895EF92FF920F93D3DF8091BA
:1026A000AC039091AD03892B89F00F2EFAEAEF2E3F
:1026B000F3E0FF2EF02D03E020E030E045E550E0B0
:1026C0006AE173E083E091E0C5D801C080E00F913A
:1026D000FF90EF9008958F929F92AF92BF92CF920A
:1026E000DF92FF920F931F93CF93DF934C015B0117
:1026F000F42E690184E190E00E946B03EC01892BC8
:1027000099F01B8A9FDF99828882BD86AC86DF861E
:10271000CE86198B088BCE0102960E949B03FF2068
:1027200019F08B8984608B8BCE01DF91CF911F9143
:102730000F91FF90DF90CF90BF90AF909F908F90C0
:1027400008950F931F93CF93DF9300D01F921F9292
:10275000CDB7DEB7E091AC03F091AD03309769F1EE
:10276000D90169835B834A839D838C836630E4F45B
:1027700073DC823061F420E0A801BE016F5F7F4FFF
:102780008091AC039091AD030E94D00617C020E069
:1027900040E050E0BE016F5F7F4F8091AC039091AD
:1027A000AD030E94D0060AC020E0AD01BE016F5FFC
:1027B0007F4FCF010E947E0701C080E00F900F90F5
:1027C0000F900F900F90DF91CF911F910F9108956F
:1027D000AF92BF92CF92DF92EF92FF920F931F932F
:1027E000CF93DF936C018ED97C018091A8039091E7
:1027F000A903E816F90608F047C02FC00580F68146
:10280000E02DA080B180C681D7818E010E5F1F4F61
:10281000C8010E94F103E889F989CE0119958B89D5
:1028200082FF1BC08C859D858A0D9B1DA816B9064D
:1028300060F49B838A83D987C887B8018091B003ED
:102840009091B1030E94C00308C000E010E020E0B6
:1028500030E0A50160E0CE0174DFE091B003F091BB
:10286000B10380818111CACF8091AE039091AF03F3
:102870009093B1038093B003F093AF03E093AE0362
:1028800081E0F601808302C0F6011082F092A90374
:10289000E092A803C701DF91CF911F910F91FF90A4
:1028A000EF90DF90CF90BF90AF9008950895279A52
:1028B0002F9A2FEF80E792E0215080409040E1F77F
:1028C00000C000001F9AF5CF279A2F9A2FEF87EAB2
:1028D00091E6215080409040E1F700C000001F9A2F
:1028E000F5CF0E94A20281E00E9463020E94810251
:1028F00009D900E010E020E030E0AC0161E0809117
:102900003804909139041DDFFDD820E030E0AC019F
:1029100061E080913A0490913B0413DFBAD8FFCF75
:10292000CF93DF931F92CDB7DEB7BE016F5F7F4FAE
:102930008091C4039091C5034DD18111F6CF898157
:1029400090E00F90DF91CF910895682F8091C4039C
:102950009091C503CAD080E090E008958F929F9235
:10296000AF92CF92EF920F93812C912C6894AA246E
:10297000A7F86894CC24C7F8E12C00E023E040E0FD
:1029800051EE60E070E013D09093C5038093C403D0
:10299000ECE5F4E086E092E0918380839383828388
:1029A0000F91EF90CF90AF909F908F9008952F92BE
:1029B0003F924F925F926F927F928F929F92AF92CF
:1029C000CF92EF92FF920F931F93CF93DF93CDB7E8
:1029D000DEB7F82E2A013B0188E090E00E94D31E6A
:1029E0008C018F2D90E0880F991FFC01EA53FC4F5A
:1029F00011830083FC01EC5EFD4F80819181D80141
:102A00008D939C936C2D70E084E090E00E94B91E41
:102A10001C0161E070E086E090E00E94B91E7C013C
:102A20004C2DB1014BD3F801F582E4826A2D70E0A0
:102A300084E090E00E94B91E1C0161E070E086E035
:102A400090E00E94B91E7C014A2DB10137D3D80114
:102A50001396FC92EE92129717969C928E9216976E
:102A6000FFB6F894ED91FC911197369780818260C2
:102A700080838D909C90C301B2010E94C81D20E00C
:102A800030E040E051E40E94561E9B01AC0160E042
:102A900074E284E79BE4E8D720E030E040E85FE3BD
:102AA0007ED70E949C1DF40132976083D801ED917E
:102AB000FC911197359788E98083ED91FC913497CB
:102AC00086E08083FFBEC801DF91CF911F910F91F7
:102AD000FF90EF90CF90AF909F908F907F906F90EE
:102AE0005F904F903F902F900895CF93DF93EC012C
:102AF000EA81FB81938182812581981B92238481C5
:102B00009817A1F0938126952923A081B181A20F66
:102B1000B11D6C939F5F258192239383E881F98196
:102B2000359780818062808380E001C082E0DF9100
:102B3000CF910895EF92FF920F931F93CF93DF935E
:102B40007C01DC011296ED91FC91139793818281B7
:102B5000981B858198238481891B861798F16623A9
:102B600041F1842F952FDC016150462F50E04F5FDB
:102B70005F4F480F591FE701EA81FB8193818281F2
:102B80002581981B92238481981779F08C919381E9
:102B900026952923608171818B01020F111DE801A7
:102BA00088839F5F8581982393831196A417B50727
:102BB00011F7D701ED91FC91359780818062808378
:102BC00080E001C082E0DF91CF911F910F91FF90D3
:102BD000EF900895DC011496ED91FC911597938187
:102BE0008281981789F09281858186958923A081B9
:102BF000B181A80FB11D8C91DB018C939F5F858102
:102C00009823928380E0089583E008951F920F92A5
:102C10000FB60F9211240BB60F922F933F934F9341
:102C20005F936F937F938F939F93AF93BF93CF9354
:102C3000DF93EF93FF93A091C603B091C703109762
:102C400011F16091C6001496ED91FC911597938156
:102C500082812581981B92238481981761F083815A
:102C600026952823C081D181C20FD11D68838F5F33
:102C70009581892383831696ED91FC911797309760
:102C800011F0CD011995FF91EF91DF91CF91BF9197
:102C9000AF919F918F917F916F915F914F913F91F4
:102CA0002F910F900BBE0F900FBE0F901F90189595
:102CB0001F920F920FB60F9211240BB60F922F9303
:102CC0008F939F93AF93BF93EF93FF93E091C603CE
:102CD000F091C7033097B9F00280F381E02D938122
:102CE00082819817B1F092818581282F269529231A
:102CF000A081B181A20FB11D2C919F5F8923828396
:102D00002093C6000BC0E1ECF0E080818F7D8083D2
:102D100005C0E1ECF0E080818F7D8083FF91EF9131
:102D2000BF91AF919F918F912F910F900BBE0F90FC
:102D30000FBE0F901F9018951F920F920FB60F9213
:102D400011240BB60F922F933F934F935F936F9382
:102D50007F938F939F93AF93BF93CF93DF93EF9323
:102D6000FF93A091C803B091C903109711F160912E
:102D7000CE001496ED91FC91159793818281258167
:102D8000981B92238481981761F0838126952823CC
:102D9000C081D181C20FD11D68838F5F9581892346
:102DA00083831696ED91FC911797309711F0CD0122
:102DB0001995FF91EF91DF91CF91BF91AF919F91C5
:102DC0008F917F916F915F914F913F912F910F90D4
:102DD0000BBE0F900FBE0F901F9018951F920F9271
:102DE0000FB60F9211240BB60F922F938F939F93D0
:102DF000AF93BF93EF93FF93E091C803F091C903A2
:102E00003097B9F00280F381E02D93818281981789
:102E1000B1F092818581282F26952923A081B18147
:102E2000A20FB11D2C919F5F892382832093CE0036
:102E30000BC0E9ECF0E080818F7D808305C0E9EC78
:102E4000F0E080818F7D8083FF91EF91BF91AF9102
:102E50009F918F912F910F900BBE0F900FBE0F90EF
:102E60001F9018951F920F920FB60F9211240BB658
:102E70000F922F933F934F935F936F937F938F9313
:102E80009F93AF93BF93CF93DF93EF93FF93A09163
:102E9000CA03B091CB03109711F16091D60014963C
:102EA000ED91FC911597938182812581981B922346
:102EB0008481981761F0838126952823C081D18170
:102EC000C20FD11D68838F5F9581892383831696F6
:102ED000ED91FC911797309711F0CD011995FF9165
:102EE000EF91DF91CF91BF91AF919F918F917F91A2
:102EF0006F915F914F913F912F910F900BBE0F906B
:102F00000FBE0F901F9018951F920F920FB60F9241
:102F100011240BB60F922F938F939F93AF93BF9370
:102F2000EF93FF93E091CA03F091CB033097B9F090
:102F30000280F381E02D938182819817B1F0928114
:102F40008581282F26952923A081B181A20FB11D4B
:102F50002C919F5F892382832093D6000BC0E1EDE3
:102F6000F0E080818F7D808305C0E1EDF0E080811D
:102F70008F7D8083FF91EF91BF91AF919F918F9152
:102F80002F910F900BBE0F900FBE0F901F901895B2
:102F90001F920F920FB60F9211240BB60F922F9320
:102FA0003F934F935F936F937F938F939F93AF93D1
:102FB000BF93CF93DF93EF93FF93A091CC03B09196
:102FC000CD03109711F1609136011496ED91FC91AB
:102FD0001597938182812581981B9223848198176C
:102FE00061F0838126952823C081D181C20FD11D34
:102FF00068838F5F9581892383831696ED91FC9179
:103000001797309711F0CD011995FF91EF91DF914E
:10301000CF91BF91AF919F918F917F916F915F9170
:103020004F913F912F910F900BBE0F900FBE0F90BD
:103030001F9018951F920F920FB60F9211240BB686
:103040000F922F938F939F93AF93BF93EF93FF9321
:10305000E091CC03F091CD033097B9F00280F38179
:10306000E02D938182819817B1F092818581282F7C
:1030700026952923A081B181A20FB11D2C919F5FBC
:1030800089238283209336010BC0E1E3F1E0808144
:103090008F7D808305C0E1E3F1E080818F7D8083B7
:1030A000FF91EF91BF91AF919F918F912F910F90D1
:1030B0000BBE0F900FBE0F901F901895FC01411191
:1030C00001C092D7842F90E09C01215031098223C6
:1030D0009323892B09F088D7413808F085D71282CD
:1030E00013824483440F415045837183608380E0A1
:1030F00090E00895E2E4F4E026E93AE131832083A8
:1031000029E93AE13383228324EA3AE135832483AF
:1031100028EA3AE1378326832EEA3AE1318720878D
:103120002AEB3AE1338722872FEB3AE13587248770
:103130002BEC3AE1378726872BEA3AE1318B208B5B
:1031400020ED3AE1338B228B2DED3AE1358B248B48
:10315000682FCF01E4C008956530F1F4FA01808151
:103160008F7390E0982F88272181822B90931F02E4
:1031700080931E028281F0E48F9FC0011124FA0126
:10318000238126952695822B90931D0280931C0205
:1031900081E08093CE030895643051F080E090E4A4
:1031A00090931D0280931C0290931F0280931E0235
:1031B00008950F931F930CEA18E120E034E244EFE6
:1031C00050E060E087E2B7D29093D0038093CF03C2
:1031D00021E0892B09F020E0822F1F910F910895A3
:1031E000CF93DF9390E0FC01EE0FFF1FE80FF91F74
:1031F000EE0FFF1FEF52FC4F238121110AC0EF0198
:10320000E0914A04F0914B046A8188819981199573
:1032100012C0DC01AA0FBB1FED01C80FD91FCC0FD4
:10322000DD1FCF52DC4FE0915404F09155046A81C8
:10323000888199811995DF91CF910895CF93DF937C
:1032400090E0FC01EE0FFF1FE80FF91FEE0FFF1FCC
:10325000EF52FC4F238121110AC0EF01E091540489
:10326000F09155046A8188819981199512C0DC0119
:10327000AA0FBB1FED01C80FD91FCC0FDD1FCF5206
:10328000DC4FE0914A04F0914B046A818881998176
:103290001995DF91CF91089582E293E0CCD60F2E5D
:1032A000F2E4CF2EF4E0DF2EF02D04E0C1EDD3E008
:1032B00010E08C81813069F0E8F0823039F5D60178
:1032C0001C96ED91FC911D976A81888199811995D1
:1032D0001DC08D818F5F8A3010F48D8317C01D82D1
:1032E000D6011C96ED91FC911D976A818881998188
:1032F00019950CC08D81882331F0812F9FDF8D813E
:1033000081508D8303C00C83812F6ADF1F5F269657
:10331000143079F685E090E00E94C30EC7CFCF92BB
:10332000DF92EF92FF920F931F93CF93DF93062FBD
:103330000F2EF2E4EF2EF4E0FF2EF02DD7011896B9
:10334000ED91FC91199766E087E290E01995C1ED47
:10335000D3E00F2EF8E2CF2ED12CF02DD982C882E7
:1033600086E08A831B8214E01C8380E039DFD7016A
:103370001896ED91FC91199767E087E290E0199516
:10338000DF82CE8287E0888719861A8781E028DF6E
:10339000D7011896ED91FC91199765E083E390E0D1
:1033A0001995D7011896ED91FC91199761E084E386
:1033B00090E0199584E390E09D878C8785E08E8767
:1033C0001F86188B82E00CDFD7011896ED91FC91D7
:1033D000199764E081E091E01995D7011896ED9175
:1033E000FC91199761E082E091E0199582E091E00B
:1033F0009B8B8A8B1C8B1D8A1E8B83E0F1DEE12C5C
:10340000F12C20E030E040EC50E069E373E08CE424
:1034100099E10E942A0CDF91CF911F910F91FF90AB
:10342000EF90DF90CF9008950F931F93CF93DF938A
:103430001F921F92CDB7DEB78C0119822DC0E0918B
:10344000E903EC3250F481E08E0F8093E903F0E061
:10345000E251FC4F8A81808302C01092E9038A8185
:103460008A30D1F44091E90350E0FA01E451FC4F75
:103470001082415051099E012F5F3F4F6EEE73E065
:103480008091EA039091EB030E94D80A898181110F
:103490000E94C6041092E903BE016E5F7F4FC8010F
:1034A00099DB882361F20F900F90DF91CF911F91EC
:1034B0000F9108958F929F92AF92CF92EF920F93B8
:1034C000CF93C82F41E060E070E088EC90E00E946C
:1034D000010A9093EB038093EA030F2EF4E18F2E01
:1034E000FAE19F2EF02D6894AA24A6F86894CC24C3
:1034F000C6F8E12C00E023E040E051EE60E070E02F
:103500008C2F55DA9093ED038093EC03E0914A04FD
:10351000F0914B0464E087E091E01995CF910F9111
:10352000EF90CF90AF909F908F900895FC01808195
:103530000895FC01208181E090E002C0880F991F6E
:103540006A95E2F782230895FC018081862308951D
:10355000FC0160830895FC0110820895FC01408104
:1035600021E030E002C0220F331F6A95E2F7242BDE
:1035700020830895FC012081622B60830895FC0163
:10358000408121E030E002C0220F331F6A95E2F74C
:10359000242720830895FC012081622760830895F9
:1035A000FC01908121E030E002C0220F331F6A95B8
:1035B000E2F72095292320830895FC0190816095EE
:1035C00069236083089580911E04860F80931E04F2
:1035D00090912104913079F028F09230A9F0933045
:1035E00019F108956F3F09F048C010921E0481E060
:1035F000809321040895663809F03FC010921D049D
:1036000082E0809321040895E0911D0481E08E0FF3
:1036100080931D04F0E0E55EFB4F6083823069F526
:1036200083E080932104089590911D0421E0290FE7
:1036300020931D04963009F581110EC0EBE1F4E0F2
:10364000808190E0982F88272181820F911D90938F
:1036500023048093220404C01092230410922204B5
:1036600010922104E0911F04F0912004309729F07A
:103670008091220490912304199508958F929F922E
:10368000AF92CF92EF920F93CF93DF93EB010F2E78
:10369000F3EE8F2EFAE19F2EF02D6894AA24A4F861
:1036A0006894CC24C4F8E12C00E023E040E855E223
:1036B00060E070E07CD99093250480932404D0933B
:1036C0002004C0931F04DF91CF910F91EF90CF9012
:1036D000AF909F908F900895CF93DF93CDB7DEB7D3
:1036E00029970FB6F894DEBF0FBECDBF89E0E1E2A7
:1036F000F2E09E012F5F3F4FD90101900D928A9514
:10370000E1F71092230410922204809124049091F6
:103710002504009731F0422F532F69E00BDA80E047
:1037200001C082E029960FB6F894DEBF0FBECDBF70
:10373000DF91CF910895AF92BF92CF92DF92EF9237
:10374000FF920F931F93CF93DF93A82EB62E69019C
:103750007A0184E090E027D3EC01892B61F1A88203
:1037600081E0B81212C0C701B60120EA36E841E094
:1037700050E0EBD0DA01C9014097A109B109B69533
:10378000A79597958795898311C0C701B60120E851
:103790003AE146E050E0D9D0DA01C9014097A109E9
:1037A000B109B695A7959795879589831B830A8359
:1037B0008C2F9D2F02C080E090E0DF91CF911F9170
:1037C0000F91FF90EF90DF90CF90BF90AF90089552
:1037D0001F920F920FB60F9211240BB60F922F93D8
:1037E0003F934F935F936F937F938F939F93AF9389
:1037F000BF93EF93FF93E091B9008E2F90E0FC010F
:103800003897E135F10508F075C08827E458FF4F77
:103810008F4FBDC010922604E091260480912904A8
:10382000E81770F481E08E0F80932604F0E0E65DE7
:10383000FB4F80818093BB0085E88093BC0072C001
:1038400084E98093BC008091270490912804DC01D6
:103850001296ED91FC911397309709F463C020E024
:1038600040E050E064E019955DC0E091260481E0FD
:103870008E0F809326048091BB00F0E0E65DFB4F45
:1038800080838091B900803411F410922604209135
:10389000260430E08091290490E001972817390729
:1038A00024F485EC8093BC003DC085E88093BC0087
:1038B00039C08091BB00E0912604F0E0E65DFB4F4B
:1038C000808384E98093BC00809127049091280430
:1038D000DC011296ED91FC911397309719F120912C
:1038E00029044AE254E065E019951CC085EA8093FA
:1038F000BC0018C08091B9008093200284E08093BE
:10390000BC008091270490912804DC011296ED916F
:10391000FC911397309731F020E040E050E0609147
:1039200020021995FF91EF91BF91AF919F918F91D7
:103930007F916F915F914F913F912F910F900BBEAF
:103940000F900FBE0F901F901895A1E21A2EAA1B80
:10395000BB1BFD010DC0AA1FBB1FEE1FFF1FA2173F
:10396000B307E407F50720F0A21BB30BE40BF50B3C
:10397000661F771F881F991F1A9469F760957095C5
:10398000809590959B01AC01BD01CF010895EE0F8C
:10399000FF1F881F8BBF0790F691E02D1994505898
:1039A000BB27AA270ED048C139D130F03ED120F034
:1039B00031F49F3F11F41EF42EC10EF4E095E7FBA5
:1039C00024C1E92F4AD180F3BA176207730784072D
:1039D000950718F071F49EF562C10EF4E0950B2E78
:1039E000BA2FA02D0B01B90190010C01CA01A00151
:1039F0001124FF27591B99F0593F50F4503E68F1AC
:103A00001A16F040A22F232F342F4427585FF3CFEC
:103A1000469537952795A795F0405395C9F77EF4BD
:103A20001F16BA0B620B730B840BBAF09150A1F006
:103A3000FF0FBB1F661F771F881FC2F70EC0BA0F8C
:103A4000621F731F841F48F4879577956795B79514
:103A5000F7959E3F08F0B3CF9395880F08F099270C
:103A6000EE0F9795879508950CD0E6C0DED040F014
:103A7000D5D030F021F45F3F19F0C7C0511110C10B
:103A8000CAC0EBD098F39923C9F35523B1F3951B22
:103A9000550BBB27AA2762177307840738F09F5F6F
:103AA0005F4F220F331F441FAA1FA9F333D00E2EDE
:103AB0003AF0E0E830D091505040E695001CCAF74B
:103AC00029D0FE2F27D0660F771F881FBB1F261710
:103AD00037074807AB07B0E809F0BB0B802DBF01E3
:103AE000FF2793585F4F2AF09E3F510568F08DC025
:103AF000D7C05F3FECF3983EDCF3869577956795EA
:103B0000B795F7959F5FC9F7880F911D9695879593
:103B100097F90895E1E0660F771F881FBB1F6217B2
:103B200073078407BA0720F0621B730B840BBA0B70
:103B3000EE1F88F7E095089598D088F09F5790F091
:103B4000B92F9927B751A0F0D1F0660F771F881FC2
:103B5000991F1AF0BA95C9F712C0B13081F09FD001
:103B6000B1E008959CC0672F782F8827B85F39F09F
:103B7000B93FCCF3869577956795B395D9F73EF421
:103B800090958095709561957F4F8F4F9F4F0895C9
:103B9000E89409C097FB3EF49095809570956195E7
:103BA0007F4F8F4F9F4F9923A9F0F92F96E9BB279D
:103BB0009395F695879577956795B795F111F8CF19
:103BC000FAF4BB0F11F460FF1BC06F5F7F4F8F4F84
:103BD0009F4F16C0882311F096E911C0772321F07A
:103BE0009EE8872F762F05C0662371F096E8862F12
:103BF00070E060E02AF09A95660F771F881FDAF769
:103C0000880F9695879597F9089597F99F6780E8AB
:103C100070E060E008959FEF80EC089500240A941E
:103C20001616170618060906089500240A94121697
:103C30001306140605060895092E0394000C11F4CA
:103C4000882352F0BB0F40F4BF2B11F460FF04C077
:103C50006F5F7F4F8F4F9F4F089557FD9058440FD0
:103C6000551F59F05F3F71F04795880F97FB991FDB
:103C700061F09F3F79F08795089512161306140698
:103C8000551FF2CF4695F1DF08C016161706180625
:103C9000991FF1CF86957105610508940895E89400
:103CA000BB2766277727CB0197F908950BD0C4CFA0
:103CB000B5DF28F0BADF18F0952309F0A6CFABCF17
:103CC0001124EECFCADFA0F3959FD1F3950F50E0FA
:103CD000551F629FF001729FBB27F00DB11D639FBE
:103CE000AA27F00DB11DAA1F649F6627B00DA11D64
:103CF000661F829F2227B00DA11D621F739FB00D0A
:103D0000A11D621F839FA00D611D221F749F332779
:103D1000A00D611D231F849F600D211D822F762F12
:103D20006A2F11249F5750408AF0E1F088234AF00F
:103D3000EE0FFF1FBB1F661F771F881F915050405B
:103D4000A9F79E3F510570F060CFAACF5F3FECF31B
:103D5000983EDCF3869577956795B795F795E79547
:103D60009F5FC1F7FE2B880F911D9695879597F958
:103D700008950F931F93CF93DF93869F8001879FB2
:103D8000100D969F100D1124C8010DD0EC01009765
:103D900021F0A80160E070E034D1CE01DF91CF9135
:103DA0001F910F9108950F931F93CF93DF9382304C
:103DB000910510F482E090E0E0915A04F0915B04E8
:103DC00020E030E0A0E0B0E0309719F1408151816F
:103DD0000281138148175907C8F08417950769F4C1
:103DE000109731F012960C93129713961C9327C0DC
:103DF00000935A0410935B0422C02115310519F079
:103E00004217530718F49A01BD01EF01DF01F801D1
:103E1000DBCF21153105F9F0281B390B2430310592
:103E200080F48A819B816115710521F0FB019383E8
:103E3000828304C090935B0480935A04FE013296FF
:103E400044C0FE01E20FF31F819391932250310988
:103E5000398328833AC02091580430915904232B88
:103E600041F42091020230910302309359042093CF
:103E7000580420910002309101022115310541F4CE
:103E80002DB73EB74091040250910502241B350B1B
:103E9000E0915804F0915904E217F307A0F42E1BA7
:103EA0003F0B2817390778F0AC014E5F5F4F24179E
:103EB000350748F04E0F5F1F509359044093580444
:103EC0008193919302C0E0E0F0E0CF01DF91CF91C8
:103ED0001F910F910895CF93DF93009709F481C04C
:103EE000FC01329713821282A0915A04B0915B04B4
:103EF000109781F420813181820F931F2091580403
:103F0000309159042817390751F5F0935904E0937B
:103F1000580467C0ED0120E030E0CE17DF0740F421
:103F20004A815B819E0141155105F1F0EA01F5CF0F
:103F3000D383C28340815181840F951FC817D9074D
:103F400059F488819981840F951F0296918380830B
:103F50008A819B81938382832115310529F4F09313
:103F60005B04E0935A043DC0E901FB83EA83499175
:103F70005991C40FD51FEC17FD0761F48081918121
:103F8000840F951F0296E90199838883828193812A
:103F90009B838A83E0E0F0E012968D919C911397C9
:103FA000009719F0FD01DC01F7CF8D919C911197DD
:103FB0009D012E5F3F4F820F931F20915804309137
:103FC00059042817390769F4309729F410925B04D3
:103FD00010925A0402C013821282B0935904A09323
:103FE0005804DF91CF91089581E090E0F89400C3E8
:103FF000FB01DC0102C001900D9241505040D8F706
:104000000895DC0101C06D9341505040E0F70895E0
:10401000CF93DF93CDB7DEB7AE014A5F5F4FFA01B2
:1040200061917191AF0180915E0490915F0433D0F2
:10403000DF91CF9108950F931F93CF93DF93E0917A
:104040005E04F0915F04238121FF1BC08C01D0E04E
:10405000C0E0F80181918F0160915E0470915F046E
:10406000DB011896ED91FC911997882331F0199591
:10407000892B79F3DFEFCFEFECCF8AE01995892B0D
:1040800019F08FEF9FEF02C08D2F9C2FDF91CF9102
:104090001F910F9108952F923F924F925F926F92CE
:1040A0007F928F929F92AF92BF92CF92DF92EF92C8
:1040B000FF920F931F93CF93DF93CDB7DEB72B976C
:1040C0000FB6F894DEBF0FBECDBF6C017B018A0135
:1040D000FC0117821682838181FFBFC1CE01019648
:1040E0003C01F6019381F70193FD859193FF819146
:1040F0007F01882309F4ADC1853239F493FD8591A0
:1041000093FF81917F01853221F4B60190E0D6D1F1
:10411000E8CF912C212C312CFFE1F315D8F08B3214
:1041200079F038F4803279F08332A1F4232D2061C4
:104130001DC08D3261F0803369F4232D216016C0DB
:10414000832D8260382EE32DE4603E2E2AC0F32DAD
:10415000F8601DC037FC2DC020ED280F2A3040F03C
:104160008E32B9F436FC75C1232D2064322E19C06D
:1041700036FE06C08AE0989E200D1124922E11C0B2
:10418000EAE02E9E200D1124222EF32DF0623F2E08
:1041900008C08C3621F4832D8068382E02C0883602
:1041A00041F4F70193FD859193FF81917F01811186
:1041B000B3CF982F9F7D9554933028F40C5F1F4FF9
:1041C0009FE399830DC0833631F0833771F08335D7
:1041D00009F055C020C0F801808189830E5F1F4F10
:1041E00088248394912C530112C02801F2E04F0ED1
:1041F000511CF801A080B18036FE03C0692D70E02B
:1042000002C06FEF7FEFC5014ED14C018201F32D4B
:10421000FF773F2E15C0280122E0420E511CF80105
:10422000A080B18036FE03C0692D70E002C06FEF40
:104230007FEFC5012DD14C01F32DF0683F2E820197
:1042400033FC19C0822D90E088169906A0F4B601BF
:1042500080E290E033D12A94F5CFF50137FC8591C7
:1042600037FE81915F01B60190E028D121102A9498
:1042700021E0821A91088114910479F7E1C0843613
:1042800011F0893639F5F80137FE07C06081718178
:10429000828193810C5F1F4F08C060817181072E5E
:1042A000000C880B990B0E5F1F4FF32DFF763F2EEE
:1042B00097FF09C090958095709561957F4F8F4FBE
:1042C0009F4FF0683F2E2AE030E0A30133D1882EC3
:1042D000861844C0853731F4232D2F7EB22E2AE074
:1042E00030E025C0932D997FB92E8F36C1F018F498
:1042F000883579F0AEC0803719F0883721F0A9C031
:10430000E92FE061BE2EB4FE0DC0FB2DF460BF2E80
:1043100009C034FE0AC0292F2660B22E06C028E04C
:1043200030E005C020E130E002C020E132E0F801D9
:10433000B7FE07C060817181828193810C5F1F4F3E
:1043400006C06081718180E090E00E5F1F4FA30185
:10435000F1D0882E8618FB2DFF773F2E36FE0DC03C
:10436000232D2E7FA22E891458F434FE0BC032FC6C
:1043700009C0832D8E7EA82E05C0B82CA32C03C0A7
:10438000B82C01C0B92CA4FE0FC0FE01E80DF11D30
:104390008081803321F49A2D997EA92E09C0A2FE36
:1043A00006C0B394B39404C08A2D867809F0B39400
:1043B000A3FC10C0A0FE06C0B21480F4280C922CFE
:1043C0009B180DC0B21458F4B60180E290E076D08C
:1043D000B394F8CFB21418F42B1802C0982C212CE7
:1043E000A4FE0FC0B60180E390E068D0A2FE16C024
:1043F000A1FC03C088E790E002C088E590E0B60128
:104400000CC08A2D867851F0A1FE02C08BE201C05B
:1044100080E2A7FC8DE2B60190E050D0891430F420
:10442000B60180E390E04AD09A94F8CF8A94F301E1
:10443000E80DF11D8081B60190E040D08110F6CFEB
:10444000222009F44ECEB60180E290E037D02A94C3
:10445000F7CFF6018681978102C08FEF9FEF2B96F1
:104460000FB6F894DEBF0FBECDBFDF91CF911F9185
:104470000F91FF90EF90DF90CF90BF90AF909F9003
:104480008F907F906F905F904F903F902F90089506
:10449000FC010590615070400110D8F7809590950F
:1044A0008E0F9F1F0895FC01615070400190011014
:1044B000D8F7809590958E0F9F1F08950F931F93A7
:1044C000CF93DF93FB01238121FD03C08FEF9FEF8B
:1044D0002CC022FF16C046815781248135814217A6
:1044E000530744F4A081B1819D012F5F3F4F318379
:1044F00020838C93268137812F5F3F4F378326831C
:1045000014C08B01EC01FB010084F185E02D1995AD
:10451000892BE1F6D80116968D919C9117970196FB
:1045200017969C938E931697CE01DF91CF911F9192
:104530000F910895FA01AA27283051F1203181F115
:10454000E8946F936E7F6E5F7F4F8F4F9F4FAF4F9B
:10455000B1E03ED0B4E03CD0670F781F891F9A1FAE
:10456000A11D680F791F8A1F911DA11D6A0F711D62
:10457000811D911DA11D20D009F468943F912AE06E
:10458000269F11243019305D3193DEF6CF01089556
:10459000462F4770405D4193B3E00FD0C9F7F6CF87
:1045A000462F4F70405D4A3318F0495D31FD40524F
:1045B000419302D0A9F7EACFB4E0A69597958795E5
:1045C00077956795BA95C9F70097610571050895C4
:1045D0009B01AC010A2E0694579547953795279570
:1045E000BA95C9F7620F731F841F951FA01D089508
:0445F000F894FFCF6D
:1045F4000000620420000000000300000000A51475
:1046040090140000C600CE00D600360100400040E1
:10461400F8FF0186000000000079FF0179A0000086
:104624000000E6FF0179000000000086FF0187001A
:104634000000000078FF01880000000000004D65C4
:1046440061737572656420434F322076616C7565C1
:104654002025642073656E74210A004D65617375AD
:10466400726520434F32205461736B005072696E3F
:104674007420434F32205461736B00434F32204DFA
:104684006561737572652054696D657200434F32BC
:1046940020526561642054696D65720054656D70C3
:1046A4002F48756D696469747920647269766572DE
:1046B40020637265617465642E004C6F52612064DE
:1046C400726976657220637265617465642E004553
:1046D40072726F72206D6561737572696E672043C3
:1046E4004F322070706D2100526563656976656490
:1046F40020434F32206C6576656C203A2025642077
:1047040070706D0A0049444C4500546D7220537614
:10471400630048414C206C6564207461736B2073A2
:1047240074617274656421210048414C5F4C4544B6
:02473400000083
:00000001FF
