S00F000053656E736F72732E7372656328
S113000071C000008FC000008DC000008BC00000D4
S113001089C0000087C0000085C0000083C00000C4
S113002081C000007FC000007DC000007BC00000D4
S1130030E8C1000077C0000075C0000073C0000074
S113004071C000006FC000006DC000006BC00000F4
S113005069C0000067C0000065C0000063C0000004
S113006061C000000C940B090C945D095BC0000096
S113007059C0000057C0000055C0000053C0000024
S113008051C000004FC000004DC000004BC0000034
S11300900C94A1090C94F30945C0000043C000006E
S11300A041C000003FC000003DC000003BC0000054
S11300B039C0000037C0000035C0000033C0000064
S11300C031C000002FC000002DC000000C94370A7E
S11300D00C94890A27C000000C94CD0A0C941F0BC1
S11300E021C0000011241FBECFEFD1E2DEBFCDBF7F
S11300F000E00CBF12E0A0E0B2E0E6E0F4E200E0D1
S11301000BBF02C007900D92AA34B107D9F722E0C1
S1130110AAE4B2E001C01D92AA3CB207E1F73BD7C2
S11301200C9401126DCFE8E0F1E09081907F908310
S113013090818F70982B90830895E8E0F1E080819E
S1130140807F80830895CF93DF93EC01B0D3CE01F9
S11301500E940C0EEC0172D4209709F4F6D6CE015D
S1130160DF91CF910895FC010396928381832FEF51
S11301703FEF34832383968385839087878310821C
S11301800895FC01118610860895CF93DF939C0196
S1130190FB01DC011196CD91DC911297D383C283CC
S11301A08C819D81958384838C819D81DC01139650
S11301B07C936E9312977D836C8331872087F9013A
S11301C080818F5F8083DF91CF910895CF93DF93F8
S11301D0EB01488159814F3F2FEF520721F4FC0175
S11301E0A781B0850DC0DC01139601C0DF01129612
S11301F0ED91FC9113972081318142175307B0F799
S11302001296ED91FC911397FB83EA83D583C48303
S1130210BD83AC831396DC93CE931297998788871A
S1130220FC0120812F5F2083DF91CF910895CF932C
S1130230DF93FC01A085B185C281D381848195813E
S11302409D838C83C481D581828193819B838A839E
S113025011968D919C911297E817F90731F48481D6
S1130260958112969C938E931197118610868C918A
S113027081508C938C91DF91CF9108950F920FB69A
S1130280F8940F920BB60F920CB60F921F92112492
S11302902F923F924F925F926F927F928F929F9292
S11302A0AF92BF92CF92DF92EF92FF920F931F9380
S11302B02F933F934F935F936F937F938F939F936A
S11302C0AF93BF93CF93DF93EF93FF93A0918F02EC
S11302D0B09190020DB60D920EB60D9228D4A09155
S11302E08F02B0919002CD91CDBFDD91DEBFFF9121
S11302F0EF91DF91CF91BF91AF919F918F917F91BA
S11303006F915F914F913F912F911F910F91FF90AA
S1130310EF90DF90CF90BF90AF909F908F907F90A1
S11303206F905F904F903F902F901F900F900CBE56
S11303300F900BBE0F900FBE0F9008950F920FB643
S1130340F8940F920BB60F920CB60F921F921124D1
S11303502F923F924F925F926F927F928F929F92D1
S1130360AF92BF92CF92DF92EF92FF920F931F93BF
S11303702F933F934F935F936F937F938F939F93A9
S1130380AF93BF93CF93DF93EF93FF93A0918F022B
S1130390B09190020DB60D920EB60D9213BE97D287
S11303A08111C5D3A0918F02B0919002CD91CDBFA0
S11303B0DD91DEBFFF91EF91DF91CF91BF91AF91BE
S11303C09F918F917F916F915F914F913F912F9169
S11303D01F910F91FF90EF90DF90CF90BF90AF905F
S11303E09F908F907F906F905F904F903F902F9051
S11303F01F900F900CBE0F900BBE0F900FBE0F906E
S113040008959CDF18950F931F93CF93DF93EC010E
S1130410042F1A8D4C8D41110BC088819981892B31
S113042009F041C08C819D81B4D41D821C8242C0DC
S1130430011117C050E08A819B810E94310F2C8DDD
S11304408A819B81820F911D9B838A832C813D81AC
S11304508217930750F1888199819B838A8380E076
S113046029C050E08E819F810E94310F8C8D90E0D5
S11304709195819591092E813F81280F391F3F83E2
S11304802E83488159812417350730F42C813D810E
S1130490820F931F9F838E83023049F4112349F006
S11304A0115080E007C080E005C080E003C080E018
S11304B001C080E01F5F1A8FDF91CF911F910F91D0
S11304C00895EF92FF920F931F93CF938C010FB671
S11304D0F8940F92FC01C68D1C169CF4818981113D
S11304E006C00FC0F8018189811105C00AC07801D6
S11304F0F1E1EF0EF11CC701B6D3811138D4C1501C
S113050089F78FEFF801868F0F900FBE0FB6F8941E
S11305100F92C58D1C169CF48085811106C00FC0F6
S1130520F8018085811105C00AC07801F8E0EF0E5A
S1130530F11CC70198D381111AD4C15089F78FEFE8
S1130540F801858F0F900FBECF911F910F91FF90EF
S1130550EF900895CF93DF93EC010FB6F8940F92C8
S1130560E881F9818B8D2C8D90E030E0829FA00191
S1130570839F500D929F500D11244E0F5F1F5D837A
S11305804C831A8EFB83EA830197829FA001839F89
S1130590500D929F500D1124CF01840F951F9F83FE
S11305A08E838FEF8D8F8E8F61110AC0888588238B
S11305B069F0CE01089657D3882341F05FDE06C068
S11305C0CE010896D0DDCE014196CDDD0F900FBE51
S11305D081E0DF91CF910895FF920F931F93CF9302
S11305E0DF93082F162FF42E6623B9F0869FC001DF
S11305F011248196A8DDEC01009741F414C00B8FFF
S11306001C8F61E0CE01A6DFF8A20DC0819699830C
S11306108883F5CFD983C883F2CF81E290E093DD5C
S1130620EC01892BB9F7CE01DF91CF911F910F9186
S1130630FF9008959F92AF92BF92CF92DF92EF9274
S1130640FF920F931F93CF93DF9300D01F921F92BB
S1130650CDB7DEB78C016B015D834C83A22EB12C28
S1130660992493947C0188E0E80EF11C0FB6F89469
S11306700F92F801928D838D981718F0F2E0AF1263
S113068015C04A2DB601C801BEDEF801918999232F
S113069039F0C8014196E7D2882321F0EFDD02C08A
S11306A08111ECDD0F900FBE81E045C08C819D81EE
S11306B0892B21F40F900FBE80E03DC0B11004C01F
S11306C0CE01019614D3B92C0F900FBEF0D00FB603
S11306D0F8940F92F801858D8F3F09F4158EF80177
S11306E0868D8F3F09F4168E0F900FBEBE016C5F8E
S11306F07F4FCE01019606D3811119C00FB6F8942D
S11307000F92F801928D838D0F900FBE98130BC03A
S11307106C817D81C70197D2C801D3DE8FD181114D
S1130720A5CFACDDA3CFC801CCDE88D19FCFC80153
S1130730C8DE84D180E00F900F900F900F900F903F
S1130740DF91CF911F910F91FF90EF90DF90CF90A9
S1130750BF90AF909F900895EF92FF920F931F93D5
S1130760CF93DF938A01FC01528D338D531710F020
S11307702230E1F4422F7801EC011E8D44DE1F3F4C
S113078079F489898823A1F0CE0141966CD288231B
S113079089F0E114F10481F081E0F70180830DC058
S11307A0FF24F394F10EFE8E81E007C080E005C0C3
S11307B081E003C081E001C081E0DF91CF911F910E
S11307C00F91FF90EF900895E0916902F0916A0211
S11307D08081811107C08FEF9FEF90934C0280932B
S11307E04B020895E0916902F0916A020580F68156
S11307F0E02D0680F781E02D8281938190934C0255
S113080080934B020895FF920F931F93CF93DF932E
S1130810EC01F62E009152021091530280918F0246
S113082090919002029603DDCF3F8FEFD80761F4D9
S1130830FF2051F060918F02709190026E5F7F4FA4
S113084085E592E0A2DC2DC0C00FD11FE0918F029C
S1130850F0919002D383C283C017D10760F46091F2
S11308608F027091900280916702909168026E5F8E
S11308707F4FACDC16C060918F0270919002809122
S1130880690290916A026E5F7F4FA0DC80914B02F7
S113089090914C02C817D90720F4D0934C02C0930E
S11308A04B02DF91CF911F910F91FF90089580919A
S11308B04A028F5F80934A0208950FB6F8940F920C
S11308C080915202909153020F900FBE0895CF92DF
S11308D0DF92EF92FF920F931F93CF93DF93809158
S11308E04A02811195C0E0905202F09053028FEFBA
S11308F0E81AF80AF0925302E0925202E114F10469
S1130900B1F48091690290916A022091670230915A
S1130910680230936A02209369029093680280937C
S1130920670280914D028F5F80934D024DDF80916D
S11309304B0290914C02E816F90610F4D12C50C0E9
S1130940D12CCC24C394E0916902F0916A02808195
S1130950811107C08FEF9FEF90934C0280934B025D
S11309603FC0E0916902F0916A020580F681E02DB2
S1130970C681D7818A819B81E816F90628F4909371
S11309804C0280934B022CC08E010E5F1F4FC80196
S11309904EDC8C899D89892B19F0CE010C9647DC9D
S11309A08E8990915102981710F48093510290E02F
S11309B09C01220F331F220F331F220F331F820F7C
S11309C0931FB80185599D4FE0DBE0918F02F091B0
S11309D090029E898689981708F4B5CFDC2CB3CF92
S11309E0E0918F02F0919002868990E0FC01EE0F75
S11309F0FF1FEE0FFF1FEE0FFF1F8E0F9F1FFC0147
S1130A00E559FD4F8081823048F0DD24D39406C03F
S1130A1080914F028F5F80934F02D12C80914E02C0
S1130A20882311F0DD24D3948D2DDF91CF911F9174
S1130A300F91FF90EF90DF90CF900895DF92EF92A7
S1130A40FF920F931F93CF93DF930FB6F8940F92F7
S1130A5080914A02815080934A0280914A02811116
S1130A6059C080915402811130C057C0D7011596E6
S1130A70ED91FC911697C681D781CE010C96D7DBF8
S1130A808E010E5F1F4FC801D2DB8E8990915102F7
S1130A90981710F48093510290E09C01220F331FA9
S1130AA0220F331F220F331F820F931FB801855962
S1130AB09D4F6BDBE0918F02F09190029E898689B5
S1130AC0981768F0D0924E020AC0C0E0D0E00F2E12
S1130AD0FEE5EF2EF2E0FF2EF02DDD24D394F70196
S1130AE080818111C3CFCD2B09F06EDEC0914F02FE
S1130AF0CC2349F0D1E0EBDE8111D0934E02C150FA
S1130B00D1F710924F0280914E02882329F0B6DB70
S1130B1081E003C080E001C080E00F900FBEDF9150
S1130B20CF911F910F91FF90EF90DF9008958091E6
S1130B304A02882321F081E080934E0208951092A6
S1130B404E02E0918F02F091900285A1F6DAA09115
S1130B508F02B0919002E0918F02F09190022D915A
S1130B603C918789908D8217930758F060918F028A
S1130B707091900280918F0290919002675E7F4FF6
S1130B80F1D120915102822F90E0FC01EE0FFF1F62
S1130B90EE0FFF1FEE0FFF1FE80FF91FE559FD4F82
S1130BA03081311111C02150822F90E0FC01EE0FF1
S1130BB0FF1FEE0FFF1FEE0FFF1FE80FF91FE55990
S1130BC0FD4F3081332379F3AC01440F551F440F9B
S1130BD0551F440F551F480F591FDA01A559BD4F22
S1130BE01196ED91FC9112970280F381E02D1296FB
S1130BF0FC93EE93119742595D4FE417F50729F4DE
S1130C0042815381FD0152834183FC01EE0FFF1F9A
S1130C10EE0FFF1FEE0FFF1F8E0F9F1FFC01E55904
S1130C20FD4F0180F281E02D86819781909390029F
S1130C3080938F0220935102E0918F02F0919002F1
S1130C4085A171CA0895CF93DF93EB0160918F0260
S1130C5070919002645F7F4FB9DA61E0CE01D3DD19
S1130C60DF91CF9108950F931F93CF93DF93DC010E
S1130C701596ED91FC911697C681D7818E01045F7C
S1130C801F4FC801D4DA80914A0281111AC00A5058
S1130C901109C801CCDA8E8990915102981710F489
S1130CA08093510290E09C01220F331F220F331FC7
S1130CB0220F331F820F931FB80185599D4F65DAA8
S1130CC004C0B8018EE592E060DAE0918F02F09101
S1130CD090029E898689891720F481E080934E02D0
S1130CE001C080E0DF91CF911F910F910895209171
S1130CF04D02FC0120832091520230915302328331
S1130D0021830895CF93DF930FB6F8940F92209127
S1130D10520230915302DB014D915C914F3FBFEF82
S1130D205B07E9F0EC01E981FA81A0914D02B881F9
S1130D30BA1719F02E173F07A0F42E1B3F0B2417E8
S1130D40350740F4FB01421B530B51834083CFDF33
S1130D5080E008C0FB011182108281E003C080E0C2
S1130D6001C081E00F900FBEDF91CF91089581E023
S1130D7080934E02089580915002882331F080912F
S1130D804A02882321F080E0089581E0089582E0FA
S1130D9008950F931F93CF93DF93FC01892B69F17F
S1130DA084A1815084A3268993A1291741F181113B
S1130DB028C0EF018F010E5F1F4FC80138DA8BA1E5
S1130DC08E8B24E030E0281B31093D872C879091DD
S1130DD05102981710F48093510290E09C01220F65
S1130DE0331F220F331F220F331F820F931FB801AB
S1130DF085599D4FCAD981E005C080E003C080E0D9
S1130E0001C080E0DF91CF911F910F9108950FB63B
S1130E10F8940F928091910290919202892BD1F4CF
S1130E2080EA92E0A0D987E992E09DD980EA92E035
S1130E30909396028093950287E992E090939402AE
S1130E408093930240E065E08AE0C6DB90939202CF
S1130E50809391020F900FBE08958F929F92AF924C
S1130E60BF92CF92DF92FF920F931F93CF93DF93A2
S1130E704C015B01F42E690184E190E064D9EC013A
S1130E80892B91F01B8AC3DF99828882BD86AC8648
S1130E90DF86CE86198B088BCE01029672D9FF208D
S1130EA019F08B8984608B8BCE01DF91CF911F91D8
S1130EB00F91FF90DF90CF90BF90AF909F908F9055
S1130EC008950F931F93CF93DF9300D01F921F9227
S1130ED0CDB7DEB7E0919102F0919202309751F1D3
S1130EE0D90169835B834A839D838C836630D4F400
S1130EF042DF823059F420E0A801BE016F5F7F4FCA
S1130F00809191029091920295DB15C020E040E01F
S1130F1050E0BE016F5F7F4F8091910290919202E9
S1130F2089DB09C020E0AD01BE016F5F7F4FCF01B7
S1130F3013DC01C080E00F900F900F900F900F9082
S1130F40DF91CF911F910F910895279A2F9A2FEF38
S1130F5080E792E0215080409040E1F700C000001B
S1130F601F9AF5CF279A2F9A2FEF87EA91E62150FF
S1130F7080409040E1F700C000001F9AF5CF9F9396
S1130F808F938CE192E09F938F937BD70F900F9078
S1130F900F900F90089580E03ED078946FEB77E047
S1130FA083E008D40FEB17E020E030E041E06EE38B
S1130FB070E080E492E051DF9093BF028093BE0220
S1130FC07CDC00E010E020E030E0AC0161E08091E6
S1130FD0BE029091BF0275DFFFCFCF93DF931F92C4
S1130FE0CDB7DEB7BE016F5F7F4F8091A9029091AC
S1130FF0AA02F5D08111F6CF898190E00F90DF919C
S1131000CF910895682F8091A9029091AA02C2D02D
S113101080E090E008958F929F92AF92CF92EF92EA
S11310200F93812C912C6894AA24A7F86894CC245B
S1131030C7F8E12C00E023E040E051EE60E070E00E
S113104013D09093AA028093A902E4ECF2E086E024
S113105092E091838083938382830F91EF90CF906A
S1131060AF909F908F9008952F923F924F925F92EE
S11310706F927F928F929F92AF92CF92EF92FF9254
S11310800F931F93CF93DF93CDB7DEB7F82E2A01CA
S11310903B0188E090E0C0D58C018F2D90E0880F53
S11310A0991FFC01E555FD4F11830083FC01EC5EA3
S11310B0FD4F80819181D8018D939C936C2D70E0BC
S11310C084E090E08FD51C0161E070E086E090E060
S11310D089D57C014C2DB101F6D2F801F582E48268
S11310E06A2D70E084E090E07DD51C0161E070E041
S11310F086E090E077D57C014A2DB101E4D2D80195
S11311001396FC92EE92129717969C928E921697D3
S1131110FFB6F894ED91FC91119736978081826027
S113112080838D909C90C301B2016BD420E030E0A9
S113113040E051E4F4D49B01AC0160E074E284E744
S11311409BE4CBD320E030E040E85FE361D32DD4CF
S1131150F40132976083D801ED91FC911197359792
S113116088E98083ED91FC91349786E08083FFBE0B
S1131170C801DF91CF911F910F91FF90EF90CF9015
S1131180AF909F908F907F906F905F904F903F9023
S11311902F900895CF93DF93EC01EA81FB81938133
S11311A082812581981B922384819817A1F09381D1
S11311B026952923A081B181A20FB11D6C939F5F55
S11311C0258192239383E881F98135978081806218
S11311D0808380E001C082E0DF91CF910895DC013B
S11311E01496ED91FC91159793818281981789F05B
S11311F09281858186958923A081B181A80FB11D33
S11312008C91DB018C939F5F85819823928380E08E
S1131210089583E008951F920F920FB60F92112440
S11312200BB60F922F933F934F935F936F937F93DC
S11312308F939F93AF93BF93CF93DF93EF93FF93DA
S1131240A091AB02B091AC02109711F16091C6006D
S11312501496ED91FC911597938182812581981BB9
S113126092238481981761F0838126952823C08175
S1131270D181C20FD11D68838F5F958189238383B8
S11312801696ED91FC911797309711F0CD011995B1
S1131290FF91EF91DF91CF91BF91AF919F918F918A
S11312A07F916F915F914F913F912F910F900BBE62
S11312B00F900FBE0F901F9018951F920F920FB6AC
S11312C00F9211240BB60F922F938F939F93AF938A
S11312D0BF93EF93FF93E091AB02F091AC02309790
S11312E0B9F00280F381E02D938182819817B1F0E7
S11312F092818581282F26952923A081B181A20F6F
S1131300B11D2C919F5F892382832093C6000BC05B
S1131310E1ECF0E080818F7D808305C0E1ECF0E0BA
S113132080818F7D8083FF91EF91BF91AF919F91D9
S11313308F912F910F900BBE0F900FBE0F901F90A7
S113134018951F920F920FB60F9211240BB60F929D
S11313502F933F934F935F936F937F938F939F93B9
S1131360AF93BF93CF93DF93EF93FF93A091AD021D
S1131370B091AE02109711F16091CE001496ED91E8
S1131380FC911597938182812581981B92238481F6
S1131390981761F0838126952823C081D181C20FDB
S11313A0D11D68838F5F9581892383831696ED9180
S11313B0FC911797309711F0CD011995FF91EF919A
S11313C0DF91CF91BF91AF919F918F917F916F9159
S11313D05F914F913F912F910F900BBE0F900FBED5
S11313E00F901F9018951F920F920FB60F92112411
S11313F00BB60F922F938F939F93AF93BF93EF935B
S1131400FF93E091AD02F091AE023097B9F0028003
S1131410F381E02D938182819817B1F092818581C7
S1131420282F26952923A081B181A20FB11D2C91CB
S11314309F5F892382832093CE000BC0E9ECF0E008
S113144080818F7D808305C0E9ECF0E080818F7D11
S11314508083FF91EF91BF91AF919F918F912F91D5
S11314600F900BBE0F900FBE0F901F9018951F92F8
S11314700F920FB60F9211240BB60F922F933F9336
S11314804F935F936F937F938F939F93AF93BF9388
S1131490CF93DF93EF93FF93A091AF02B091B0028B
S11314A0109711F16091D6001496ED91FC91159767
S11314B0938182812581981B92238481981761F0FE
S11314C0838126952823C081D181C20FD11D6883D1
S11314D08F5F9581892383831696ED91FC911797ED
S11314E0309711F0CD011995FF91EF91DF91CF91D4
S11314F0BF91AF919F918F917F916F915F914F9128
S11315003F912F910F900BBE0F900FBE0F901F9025
S113151018951F920F920FB60F9211240BB60F92CB
S11315202F938F939F93AF93BF93EF93FF93E09188
S1131530AF02F091B0023097B9F00280F381E02D50
S1131540938182819817B1F092818581282F269505
S11315502923A081B181A20FB11D2C919F5F892302
S113156082832093D6000BC0E1EDF0E080818F7D73
S1131570808305C0E1EDF0E080818F7D8083FF9161
S1131580EF91BF91AF919F918F912F910F900BBECF
S11315900F900FBE0F901F9018951F920F920FB6C9
S11315A00F9211240BB60F922F933F934F935F9397
S11315B06F937F938F939F93AF93BF93CF93DF9357
S11315C0EF93FF93A091B102B091B202109711F181
S11315D0609136011496ED91FC9115979381828167
S11315E02581981B92238481981761F08381269525
S11315F02823C081D181C20FD11D68838F5F95815B
S1131600892383831696ED91FC911797309711F0F7
S1131610CD011995FF91EF91DF91CF91BF91AF91DA
S11316209F918F917F916F915F914F913F912F91F6
S11316300F900BBE0F900FBE0F901F9018951F9226
S11316400F920FB60F9211240BB60F922F938F9314
S11316509F93AF93BF93EF93FF93E091B102F09107
S1131660B2023097B9F00280F381E02D9381828138
S11316709817B1F092818581282F26952923A0817E
S1131680B181A20FB11D2C919F5F89238283209386
S113169036010BC0E1E3F1E080818F7D808305C0DA
S11316A0E1E3F1E080818F7D8083FF91EF91BF9131
S11316B0AF919F918F912F910F900BBE0F900FBE02
S11316C00F901F901895FC01411101C0C6D3842FBF
S11316D090E09C012150310982239323892B09F046
S11316E0BCD3413808F0B9D3128213824483440F27
S11316F0415045837183608380E090E00895809138
S1131700B602860F8093B6029091B902913079F0B7
S113171028F09230A9F0933019F108956F3F09F041
S113172048C01092B60281E08093B90208956638E9
S113173009F03FC01092B50282E08093B902089587
S1131740E091B50281E08E0F8093B502F0E0ED5494
S1131750FD4F6083823069F583E08093B902089578
S11317609091B50221E0290F2093B502963009F536
S113177081110EC0E3EBF2E0808190E0982F88277E
S11317802181820F911D9093BB028093BA0204C001
S11317901092BB021092BA021092B902E091B70201
S11317A0F091B802309729F08091BA029091BB026F
S11317B0199508958F929F92AF92CF92EF920F93C3
S11317C0CF93DF93EB010F2EFFE78F2EFBE09F2ECD
S11317D0F02D6894AA24A4F86894CC24C4F8E12CCD
S11317E000E023E040E855E260E070E03DDC9093E7
S11317F0BD028093BC02D093B802C093B702DF91BC
S1131800CF910F91EF90CF90AF909F908F900895CC
S11318105058BB27AA270ED048C139D130F03ED149
S113182020F031F49F3F11F41EF42EC10EF4E09524
S1131830E7FB24C1E92F4AD180F3BA176207730783
S11318408407950718F071F49EF562C10EF4E095D3
S11318500B2EBA2FA02D0B01B90190010C01CA0166
S1131860A0011124FF27591B99F0593F50F4503E11
S113187068F11A16F040A22F232F342F4427585F03
S1131880F3CF469537952795A795F0405395C9F71B
S11318907EF41F16BA0B620B730B840BBAF09150D3
S11318A0A1F0FF0FBB1F661F771F881FC2F70EC072
S11318B0BA0F621F731F841F48F487957795679545
S11318C0B795F7959E3F08F0B3CF9395880F08F02E
S11318D09927EE0F9795879508950CD0E6C0DED032
S11318E040F0D5D030F021F45F3F19F0C7C051115A
S11318F010C1CAC0EBD098F39923C9F35523B1F3AF
S1131900951B550BBB27AA2762177307840738F06A
S11319109F5F5F4F220F331F441FAA1FA9F333D0C9
S11319200E2E3AF0E0E830D091505040E695001C7D
S1131930CAF729D0FE2F27D0660F771F881FBB1F39
S1131940261737074807AB07B0E809F0BB0B802D13
S1131950BF01FF2793585F4F2AF09E3F510568F05F
S11319608DC0D7C05F3FECF3983EDCF38695779546
S11319706795B795F7959F5FC9F7880F911D969561
S1131980879597F90895E1E0660F771F881FBB1FBD
S1131990621773078407BA0720F0621B730B840B6A
S11319A0BA0BEE1F88F7E095089598D088F09F57FA
S11319B090F0B92F9927B751A0F0D1F0660F771F97
S11319C0881F991F1AF0BA95C9F712C0B13081F077
S11319D09FD0B1E008959CC0672F782F8827B85F07
S11319E039F0B93FCCF3869577956795B395D9F7D8
S11319F03EF490958095709561957F4F8F4F9F4FE2
S1131A000895E89409C097FB3EF4909580957095ED
S1131A1061957F4F8F4F9F4F9923A9F0F92F96E936
S1131A20BB279395F695879577956795B795F111AB
S1131A30F8CFFAF4BB0F11F460FF1BC06F5F7F4F48
S1131A408F4F9F4F16C0882311F096E911C077235A
S1131A5021F09EE8872F762F05C0662371F096E863
S1131A60862F70E060E02AF09A95660F771F881F32
S1131A70DAF7880F9695879597F9089597F99F67F0
S1131A8080E870E060E008959FEF80EC0895002402
S1131A900A941616170618060906089500240A94CF
S1131AA012161306140605060895092E0394000C55
S1131AB011F4882352F0BB0F40F4BF2B11F460FFE4
S1131AC004C06F5F7F4F8F4F9F4F089557FD90580D
S1131AD0440F551F59F05F3F71F04795880F97FBEE
S1131AE0991F61F09F3F79F08795089512161306A8
S1131AF01406551FF2CF4695F1DF08C016161706D7
S1131B001806991FF1CF869571056105089408950B
S1131B10E894BB2766277727CB0197F908950BD064
S1131B20C4CFB5DF28F0BADF18F0952309F0A6CFAB
S1131B30ABCF1124EECFCADFA0F3959FD1F3950F5D
S1131B4050E0551F629FF001729FBB27F00DB11D3D
S1131B50639FAA27F00DB11DAA1F649F6627B00DCD
S1131B60A11D661F829F2227B00DA11D621F739FB6
S1131B70B00DA11D621F839FA00D611D221F749FC4
S1131B803327A00D611D231F849F600D211D822F0B
S1131B90762F6A2F11249F5750408AF0E1F0882352
S1131BA04AF0EE0FFF1FBB1F661F771F881F91505F
S1131BB05040A9F79E3F510570F060CFAACF5F3F18
S1131BC0ECF3983EDCF3869577956795B795F79592
S1131BD0E7959F5FC1F7FE2B880F911D969587951A
S1131BE097F908950F931F93CF93DF93869F8001F6
S1131BF0879F100D969F100D1124C8010DD0EC0184
S1131C00009721F0A80160E070E034D1CE01DF91AB
S1131C10CF911F910F9108950F931F93CF93DF934B
S1131C208230910510F482E090E0E091C202F091DC
S1131C30C30220E030E0A0E0B0E0309719F1408129
S1131C4051810281138148175907C8F084179507F9
S1131C5069F4109731F012960C93129713961C9313
S1131C6027C00093C2021093C30222C0211531057C
S1131C7019F04217530718F49A01BD01EF01DF016F
S1131C80F801DBCF21153105F9F0281B390B24307D
S1131C90310580F48A819B816115710521F0FB0176
S1131CA09383828304C09093C3028093C202FE0193
S1131CB0329644C0FE01E20FF31F819391932250A8
S1131CC03109398328833AC02091C0023091C1027E
S1131CD0232B41F420910202309103023093C1027C
S1131CE02093C00220910002309101022115310598
S1131CF041F42DB73EB74091040250910502241BD4
S1131D00350BE091C002F091C102E217F307A0F491
S1131D102E1B3F0B2817390778F0AC014E5F5F4F3D
S1131D202417350748F04E0F5F1F5093C1024093AC
S1131D30C0028193919302C0E0E0F0E0CF01DF9113
S1131D40CF911F910F910895CF93DF93009709F4DA
S1131D5081C0FC01329713821282A091C202B09119
S1131D60C302109781F420813181820F931F209147
S1131D70C0023091C1022817390751F5F093C1020E
S1131D80E093C00267C0ED0120E030E0CE17DF072A
S1131D9040F44A815B819E0141155105F1F0EA014D
S1131DA0F5CFD383C28340815181840F951FC81717
S1131DB0D90759F488819981840F951F02969183DC
S1131DC080838A819B81938382832115310529F441
S1131DD0F093C302E093C2023DC0E901FB83EA83AE
S1131DE049915991C40FD51FEC17FD0761F4808107
S1131DF09181840F951F0296E901998388838281DA
S1131E0093819B838A83E0E0F0E012968D919C910C
S1131E101397009719F0FD01DC01F7CF8D919C9188
S1131E2011979D012E5F3F4F820F931F2091C00297
S1131E303091C1022817390769F4309729F41092B8
S1131E40C3021092C20202C013821282B093C10272
S1131E50A093C002DF91CF91089581E090E0F894BF
S1131E60D0C2FB01DC0102C001900D9241505040F0
S1131E70D8F70895DC0101C06D9341505040E0F75C
S1131E800895CF93DF93CDB7DEB7AE014A5F5F4FBE
S1131E90FA0161917191AF018091C6029091C702DC
S1131EA003D0DF91CF9108952F923F924F925F928A
S1131EB06F927F928F929F92AF92BF92CF92DF9256
S1131EC0EF92FF920F931F93CF93DF93CDB7DEB7BB
S1131ED02B970FB6F894DEBF0FBECDBF6C017B010C
S1131EE08A01FC0117821682838181FFBFC1CE0162
S1131EF001963C01F6019381F70193FD859193FFCF
S1131F0081917F01882309F4ADC1853239F493FDB1
S1131F10859193FF81917F01853221F4B60190E090
S1131F20D6D1E8CF912C212C312CFFE1F315D8F038
S1131F308B3279F038F4803279F08332A1F4232D96
S1131F4020611DC08D3261F0803369F4232D21603E
S1131F5016C0832D8260382EE32DE4603E2E2AC005
S1131F60F32DF8601DC037FC2DC020ED280F2A305A
S1131F7040F08E32B9F436FC75C1232D2064322E24
S1131F8019C036FE06C08AE0989E200D1124922EB8
S1131F9011C0EAE02E9E200D1124222EF32DF062B2
S1131FA03F2E08C08C3621F4832D8068382E02C061
S1131FB0883641F4F70193FD859193FF81917F0168
S1131FC08111B3CF982F9F7D9554933028F40C5FE3
S1131FD01F4F9FE399830DC0833631F0833771F02F
S1131FE0833509F055C020C0F801808189830E5FD4
S1131FF01F4F88248394912C530112C02801F2E0CE
S11320004F0E511CF801A080B18036FE03C0692D2B
S113201070E002C06FEF7FEFC5014ED14C01820129
S1132020F32DFF773F2E15C0280122E0420E511CEC
S1132030F801A080B18036FE03C0692D70E002C0B3
S11320406FEF7FEFC5012DD14C01F32DF0683F2ECA
S1132050820133FC19C0822D90E088169906A0F401
S1132060B60180E290E033D12A94F5CFF50137FC34
S1132070859137FE81915F01B60190E028D121104E
S11320802A9421E0821A91088114910479F7E1C01D
S1132090843611F0893639F5F80137FE07C06081BE
S11320A07181828193810C5F1F4F08C060817181AF
S11320B0072E000C880B990B0E5F1F4FF32DFF7634
S11320C03F2E97FF09C090958095709561957F4F3D
S11320D08F4F9F4FF0683F2E2AE030E0A30133D1A9
S11320E0882E861844C0853731F4232D2F7EB22ED6
S11320F02AE030E025C0932D997FB92E8F36C1F0A8
S113210018F4883579F0AEC0803719F0883721F09B
S1132110A9C0E92FE061BE2EB4FE0DC0FB2DF46012
S1132120BF2E09C034FE0AC0292F2660B22E06C075
S113213028E030E005C020E130E002C020E132E0D8
S1132140F801B7FE07C060817181828193810C5FC1
S11321501F4F06C06081718180E090E00E5F1F4FC9
S1132160A301F1D0882E8618FB2DFF773F2E36FE73
S11321700DC0232D2E7FA22E891458F434FE0BC0DB
S113218032FC09C0832D8E7EA82E05C0B82CA32C4A
S113219003C0B82C01C0B92CA4FE0FC0FE01E80D89
S11321A0F11D8081803321F49A2D997EA92E09C0D6
S11321B0A2FE06C0B394B39404C08A2D867809F0B5
S11321C0B394A3FC10C0A0FE06C0B21480F4280C83
S11321D0922C9B180DC0B21458F4B60180E290E022
S11321E076D0B394F8CFB21418F42B1802C0982CFC
S11321F0212CA4FE0FC0B60180E390E068D0A2FEBB
S113220016C0A1FC03C088E790E002C088E590E016
S1132210B6010CC08A2D867851F0A1FE02C08BE273
S113222001C080E2A7FC8DE2B60190E050D0891491
S113223030F4B60180E390E04AD09A94F8CF8A94BF
S1132240F301E80DF11D8081B60190E040D08110CA
S1132250F6CF222009F44ECEB60180E290E037D0CA
S11322602A94F7CFF6018681978102C08FEF9FEF02
S11322702B960FB6F894DEBF0FBECDBFDF91CF9182
S11322801F910F91FF90EF90DF90CF90BF90AF9090
S11322909F908F907F906F905F904F903F902F9082
S11322A00895FC010590615070400110D8F78095A5
S11322B090958E0F9F1F0895FC016150704001900E
S11322C00110D8F7809590958E0F9F1F08950F9356
S11322D01F93CF93DF93FB01238121FD03C08FEF75
S11322E09FEF2CC022FF16C046815781248135817F
S11322F04217530744F4A081B1819D012F5F3F4FE2
S1132300318320838C93268137812F5F3F4F37831E
S1132310268314C08B01EC01FB010084F185E02DC0
S11323201995892BE1F6D80116968D919C911797F2
S1132330019617969C938E931697CE01DF91CF91B9
S11323401F910F910895FA01AA27283051F12031E5
S113235081F1E8946F936E7F6E5F7F4F8F4F9F4F35
S1132360AF4FB1E03ED0B4E03CD0670F781F891F77
S11323709A1FA11D680F791F8A1F911DA11D6A0F45
S1132380711D811D911DA11D20D009F468943F91F8
S11323902AE0269F11243019305D3193DEF6CF01F7
S11323A00895462F4770405D4193B3E00FD0C9F7BD
S11323B0F6CF462F4F70405D4A3318F0495D31FD2A
S11323C04052419302D0A9F7EACFB4E0A69597957D
S11323D0879577956795BA95C9F700976105710553
S11323E008959B01AC010A2E06945795479537959D
S11323F02795BA95C9F7620F731F841F951FA01DF7
S10924000895F894FFCFDB
S11324060000CA02200000000003000000000208C9
S1132416ED070000C600CE00D6003601434F322039
S11324266C6576656C3A2025640A00536F6D657495
S113243668696E672077656E742077726F6E6700C1
S10D2446434F322054696D657200A3
S9030000FC
