S00F000053656E736F72732E7372656328
S1130000F6C0000015C1000013C1000011C10000BA
S11300100FC100000DC100000BC1000009C10000A8
S113002007C1000005C1000003C1000001C10000B8
S11300306FC60000FDC00000FBC00000F9C0000056
S1130040F7C00000F5C00000F3C00000F1C00000DC
S1130050EFC00000EDC00000EBC00000E9C00000EC
S1130060E7C000000C9412290C946429E1C000003C
S1130070DFC00000DDC00000DBC00000D9C000000C
S1130080D7C00000D5C00000D3C00000D1C000001C
S11300900C94A8290C94FA29CBC000000C94C23308
S11300A0C7C00000C5C00000C3C00000C1C000003C
S11300B0BFC00000BDC00000BBC00000B9C000004C
S11300C0B7C00000B5C00000B3C000000C943E2AC5
S11300D00C94902AADC000000C94D42A0C94262BC6
S11300E0A7C00000FC20FC20FC20472153217921DB
S11300F0FC20FC2047215321E43354345434543439
S11301005434543454345434E4335434543454341C
S11301105434543454345434E6335434543454340A
S1130120543454345434543454345434543454348B
S11301305434543454345434E633543454345434EA
S1130140543454345434543454345434543454346B
S1130150543454345434543450345434543454345F
S113016054345434543454341B3454345434543484
S1130170543454345434543454345434543454343B
S113018054345434543454340F3454345434543470
S113019054345434543454343334CF93DF931F924F
S11301A01F92CDB7DEB79A8389830E944F1880913E
S11301B05008823008F0C1D40E947F22F6CFCF933A
S11301C0DF9300D01F921F92CDB7DEB79D838C833F
S11301D0CE0103960E94EA1F9A8389832B81898129
S11301E09A81622F0E94951F0E94BB20F1CF112497
S11301F01FBECFEFD1E2DEBFCDBF00E00CBF18E0E1
S1130200A0E0B2E0EAEBF6E700E00BBF02C0079023
S11302100D92AE34B107D9F72AE0AEE4B8E001C0DC
S11302201D92A23DB207E1F70E9463270C945B3B49
S1130230E7CECF93DF9300D000D0CDB7DEB79E8357
S11302408D8381E090E09A8389838D819E819C8354
S11302508B838091AE0A9091AF0A20E030E044E0B5
S113026050E0BE016F5F7F4F0E94930D8091AC0AF6
S11302709091AD0A6FEF7FEF0E94A3092B813C811F
S113028089819A81432F4F932F93292F2F938F93F3
S113029081E292E0892F8F9381E292E08F930E9412
S11302A03D380F900F900F900F900F900F9080910A
S11302B0AC0A9091AD0A20E040E050E060E070E0CC
S11302C092D6000026960FB6F894DEBF0FBECDBFBF
S11302D0DF91CF910895CF93DF931F921F92CDB7F3
S11302E0DEB79A8389838091B00A9091B10A20E0A5
S11302F040E050E060E070E076D600000F900F9090
S1130300DF91CF910895CF93DF931F921F92CDB7C2
S1130310DEB79A8389838091B00A9091B10A20E074
S113032040E050E060E070E05ED600000F900F9077
S1130330DF91CF910895CF93DF931F921F92CDB792
S1130340DEB79A8389838091B00A9091B10A20E044
S113035040E050E060E070E046D600000F900F905F
S1130360DF91CF910895CF93DF931F921F92CDB762
S1130370DEB79A8389838091B00A9091B10A20E014
S113038040E050E060E070E02ED600000F900F9047
S1130390DF91CF910895CF93DF931F92CDB7DEB74E
S11303A0898388E091E028E031E0F9012081207F11
S11303B0FC01208388E091E028E031E0F90120810C
S11303C0322F29812F70232BFC01208300000F90F2
S11303D0DF91CF910895CF93DF931F92CDB7DEB70E
S11303E0898388E091E028E031E0F9012081207FD1
S11303F0FC01208300000F90DF91CF910895CF93EB
S1130400DF9300D01F92CDB7DEB79C838B830E940D
S11304104C148B819C810E94DE369A8389830E94CE
S1130420591489819A81892B11F40E948722898128
S11304309A810F900F900F900F90DF91CF910895B4
S1130440CF93DF931F921F92CDB7DEB79A83898330
S113045089819A81892B41F00E944C1489819A8167
S11304600E9476370E94591400000F900F90DF917C
S1130470CF910895CF93DF931F921F92CDB7DEB72C
S11304809A83898389819A819C012D5F3F4F898159
S11304909A81FC013283218389819A812FEF3FEF76
S11304A0FC013483238389819A819C012D5F3F4F12
S11304B089819A81FC013683258389819A819C01F3
S11304C02D5F3F4F89819A81FC0130872783898181
S11304D09A81FC01108200000F900F90DF91CF9160
S11304E00895CF93DF931F921F92CDB7DEB79A83FF
S11304F0898389819A81FC011186108600000F90FE
S11305000F90DF91CF910895CF93DF9300D000D067
S1130510CDB7DEB79C838B837E836D838B819C8177
S1130520FC01818192819A8389838D819E812981B5
S11305303A81FC013383228389819A81FC012481DD
S113054035818D819E81FC013583248389819A8143
S1130550FC01848195812D813E81FC0133832283BA
S113056089819A812D813E81FC01358324838D818B
S11305709E812B813C81FC01318720878B819C816A
S1130580FC01808121E0280F8B819C81FC01208368
S1130590000026960FB6F894DEBF0FBECDBFDF91E4
S11305A0CF910895CF93DF93CDB7DEB728970FB6D9
S11305B0F894DEBF0FBECDBF9E838D8378876F8393
S11305C08F819885FC01808191819C838B838B81B1
S11305D09C81019641F48D819E81FC0187819085E7
S11305E09A8389831AC08D819E8103969A83898315
S11305F007C089819A81FC01828193819A838983CE
S113060089819A81FC0182819381FC01208131815D
S11306108B819C818217930760F789819A81FC0101
S1130620228133818F819885FC01338322838F81DA
S11306309885FC01828193812F813885FC01358363
S113064024838F81988529813A81FC013583248311
S113065089819A812F813885FC01338322838F819C
S113066098852D813E81FC01318720878D819E8173
S1130670FC01808121E0280F8D819E81FC01208373
S1130680000028960FB6F894DEBF0FBECDBFDF91F1
S1130690CF910895CF93DF9300D01F92CDB7DEB7EB
S11306A09C838B838B819C81FC01808591859A83BB
S11306B089838B819C81FC01828193812B813C8184
S11306C0F90124813581FC01358324838B819C814C
S11306D0FC01848195812B813C81F9012281338144
S11306E0FC013383228389819A81FC012181328137
S11306F08B819C812817390751F48B819C81FC01E3
S11307002481358189819A81FC01328321838B8103
S11307109C81FC011186108689819A81FC0180816B
S11307202FEF280F89819A81FC01208389819A8186
S1130730FC0180810F900F900F900F90DF91CF916B
S11307400895CF93DF93CDB7DEB728970FB6F8940B
S1130750DEBF0FBECDBF9C838B837E836D835887A2
S11307604F838B819C8121E1FC0120838B819C81BF
S113077001979C838B838B819C8122E2FC012083E3
S11307808B819C8101979C838B838B819C8123E348
S1130790FC0120838B819C8101979C838B838D81B9
S11307A09E819A83898329818B819C81FC0120838A
S11307B08B819C8101979C838B8389819A81892F6A
S11307C099279A83898329818B819C81FC012083C9
S11307D08B819C8101979C838B838B819C81FC0101
S11307E010828B819C8101979C838B838B819C815C
S11307F0FC0110828B819C8101979C838B838B816C
S11308009C8120E8FC0120838B819C8101979C833F
S11308108B838B819C81FC0110828B819C8101974D
S11308209C838B838B819C81FC0110828B819C81B6
S113083001979C838B838B819C81FC0110828B812B
S11308409C8101979C838B838B819C8122E0FC019A
S113085020838B819C8101979C838B838B819C81DA
S113086023E0FC0120838B819C8101979C838B83F3
S11308708B819C8124E0FC0120838B819C810197E6
S11308809C838B838B819C8125E0FC0120838B815D
S11308909C8101979C838B838B819C8126E0FC0146
S11308A020838B819C8101979C838B838B819C818A
S11308B027E0FC0120838B819C8101979C838B839F
S11308C08B819C8128E0FC0120838B819C81019792
S11308D09C838B838B819C8129E0FC0120838B8109
S11308E09C8101979C838B838B819C8120E1FC01FB
S11308F020838B819C8101979C838B838B819C813A
S113090021E1FC0120838B819C8101979C838B8353
S11309108B819C8122E1FC0120838B819C81019746
S11309209C838B838B819C8123E1FC0120838B81BD
S11309309C8101979C838B838B819C8124E1FC01A6
S113094020838B819C8101979C838B838B819C81E9
S113095025E1FC0120838B819C8101979C838B83FF
S11309608B819C8126E1FC0120838B819C810197F2
S11309709C838B838B819C8127E1FC0120838B8169
S11309809C8101979C838B838B819C8128E1FC0152
S113099020838B819C8101979C838B838B819C8199
S11309A029E1FC0120838B819C8101979C838B83AB
S11309B08B819C8120E2FC0120838B819C810197A7
S11309C09C838B838B819C8121E2FC0120838B811E
S11309D09C8101979C838B838B819C8122E2FC0107
S11309E020838B819C8101979C838B838B819C8149
S11309F023E2FC0120838B819C8101979C838B8360
S1130A008F8198859A83898329818B819C81FC01BC
S1130A1020838B819C8101979C838B8389819A811C
S1130A20892F99279A83898329818B819C81FC0151
S1130A3020838B819C8101979C838B838B819C81F8
S1130A4026E2FC0120838B819C8101979C838B830C
S1130A508B819C8127E2FC0120838B819C810197FF
S1130A609C838B838B819C8128E2FC0120838B8176
S1130A709C8101979C838B838B819C8129E2FC015F
S1130A8020838B819C8101979C838B838B819C81A8
S1130A9020E3FC0120838B819C8101979C838B83C1
S1130AA08B819C8121E3FC0120838B819C810197B4
S1130AB09C838B838B819C8128960FB6F894DEBF30
S1130AC00FBECDBFDF91CF910895CF93DF93CDB704
S1130AD0DEB7FFD0A0914E08B0914F08CD91CDBFA5
S1130AE0DD91DEBFFF91EF91DF91CF91BF91AF9187
S1130AF09F918F917F916F915F914F913F912F9132
S1130B001F910F91FF90EF90DF90CF90BF90AF9027
S1130B109F908F907F906F905F904F903F902F9019
S1130B201F900F900CBE0F900BBE0F900FBE0F9036
S1130B30089581E0DF91CF9108950F920FB6F89454
S1130B400F920BB60F920CB60F921F9211242F9294
S1130B503F924F925F926F927F928F929F92AF9249
S1130B60BF92CF92DF92EF92FF920F931F932F9336
S1130B703F934F935F936F937F938F939F93AF9321
S1130B80BF93CF93DF93EF93FF93A0914E08B0915F
S1130B904F080DB60D920EB60D920E94F215A0915B
S1130BA04E08B0914F08CD91CDBFDD91DEBFFF91CE
S1130BB0EF91DF91CF91BF91AF919F918F917F91F1
S1130BC06F915F914F913F912F911F910F91FF90E2
S1130BD0EF90DF90CF90BF90AF909F908F907F90D9
S1130BE06F905F904F903F902F901F900F900CBE8E
S1130BF00F900BBE0F900FBE0F90089500000F9240
S1130C000FB6F8940F920BB60F920CB60F921F9278
S1130C1011242F923F924F925F926F927F928F9204
S1130C209F92AF92BF92CF92DF92EF92FF920F9377
S1130C301F932F933F934F935F936F937F938F9360
S1130C409F93AF93BF93CF93DF93EF93FF93A091C1
S1130C504E08B0914F080DB60D920EB60D9283E575
S1130C6090E0FC0110820E940615882311F00E9476
S1130C70F215A0914E08B0914F08CD91CDBFDD91F2
S1130C80DEBFFF91EF91DF91CF91BF91AF919F9123
S1130C908F917F916F915F914F913F912F911F9110
S1130CA00F91FF90EF90DF90CF90BF90AF909F9007
S1130CB08F907F906F905F904F903F902F901F90F8
S1130CC00F900CBE0F900BBE0F900FBE0F900895A7
S1130CD00000CF93DF93CDB7DEB7A89580E090E016
S1130CE088709927892B11F080EE01C080EC90E088
S1130CF09770892B982F88E10FB6F894A895809364
S1130D0060000FBE909360000000DF91CF910895C2
S1130D1076DF18950000CF93DF9300D01F921F92C7
S1130D20CDB7DEB79C838B836D838B819C819A8343
S1130D3089830FB6F8940F9289819A81FC0180818E
S1130D40918129813A81F901238D422F50E0298133
S1130D503A81F901248D222F30E0429FB001439F54
S1130D60700D529F700D11249B01280F391F89812A
S1130D709A81FC013583248389819A81FC01128E36
S1130D8089819A81FC012081318189819A81FC01C8
S1130D903383228389819A81FC0120813181898175
S1130DA09A81FC01838D882F90E0BC016150710908
S1130DB089819A81FC01848D482F50E0649FC00191
S1130DC0659F900D749F900D1124280F391F898100
S1130DD09A81FC013783268389819A812FEFFC0154
S1130DE0258F89819A812FEFFC01268F8D8188239D
S1130DF079F489819A81FC018085882389F089812D
S1130E009A8108960E94E416882351F096DE08C061
S1130E1089819A8108962EDB89819A8141962ADB01
S1130E200F900FBE81E00F900F900F900F900F90D6
S1130E30DF91CF9108950F931F93CF93DF93CDB795
S1130E40DEB729970FB6F894DEBF0FBECDBF8F83F0
S1130E50688749878885882319F41A8219820FC004
S1130E608F81482F50E08885282F30E0429FC001B1
S1130E70439F900D529F900D11249A8389838981F9
S1130E809A818196BCDA9C838B838B819C81892B8C
S1130E9099F08B819C819E838D838D819E81819627
S1130EA09E838D832B813C818D819E81890129853F
S1130EB0AC0168858F810DD08B819C8129960FB6FA
S1130EC0F894DEBF0FBECDBFDF91CF911F910F917C
S1130ED008950F931F93CF93DF93CDB7DEB7279772
S1130EE00FB6F894DEBF0FBECDBF89836A835C83DF
S1130EF04B832D831F830E838A81882341F48E8143
S1130F009F812E813F81FC013183208307C08E8124
S1130F109F812B813C81FC01318320838E819F81C1
S1130F202981FC01238F8E819F812A81FC01248FDA
S1130F308E819F8161E0EFDE8E819F812D81FC0196
S1130F4020A3000027960FB6F894DEBF0FBECDBFD6
S1130F50DF91CF911F910F910895CF93DF931F924B
S1130F601F92CDB7DEB79A83898389819A81892BB1
S1130F70B1F089819A81FC011582148289819A8158
S1130F80FC011182108289819A81FC011682898177
S1130F909A8120E040E050E060E070E024D000005E
S1130FA00F900F90DF91CF910895CF93DF9300D0EE
S1130FB01F921F92CDB7DEB78D8381E089831A8299
S1130FC04D816A81898137DF9C838B838B819C81EE
S1130FD0C4DF8B819C810F900F900F900F900F9026
S1130FE0DF91CF910895CF93DF93CDB7DEB72E97DE
S1130FF00FB6F894DEBF0FBECDBF998788877B8775
S11310006A875D874C872E871982888599859B839B
S11310108A830FB6F8940F928A819B81FC01228DFA
S11310208A819B81FC01838D281718F08E8582307C
S1131030F9F42A853B858A819B814E85B9017FD24B
S11310408C838A819B81FC018189882349F08A8170
S11310509B8141960E94E416882331F06EDD04C022
S11310608C81882309F069DD0F900FBE81E05BC09D
S11310708C859D85892B21F40F900FBE80E053C091
S11310808981882331F4CE0105960E94731781E08B
S113109089830F900FBE0E944C140FB6F8940F92E0
S11310A08A819B81FC01858D8F3F21F48A819B81FC
S11310B0FC01158E8A819B81FC01868D8F3F21F472
S11310C08A819B81FC01168E0F900FBE9E01245FC6
S11310D03F4FCE010596B9010E9490178823E9F489
S11310E08A819B81C8D3882391F02C853D858A8190
S11310F09B810896B9010E9496168A819B8140D3F0
S11311000E945914882309F084CF17DD82CF8A8185
S11311109B8136D30E9459147CCF8A819B8130D322
S11311200E94591480E02E960FB6F894DEBF0FBECD
S1131130CDBFDF91CF910895CF93DF93CDB7DEB7C5
S11311402C970FB6F894DEBF0FBECDBF9F838E835E
S1131150798768875B874A872C878E819F819B83E9
S11311608A831C828A819B81FC01228D8A819B81D6
S1131170FC01838D281718F08C85823081F58A81D3
S11311809B81FC01868D8D83288539858A819B818D
S11311904C85B901D4D18D818F3FB9F48A819B816B
S11311A0FC0181898823C1F08A819B8141960E9438
S11311B0E416882389F08A859B85892B69F08A85C2
S11311C09B8521E0FC01208307C08D818F5F282F40
S11311D08A819B81FC01268F81E0898301C0198269
S11311E089812C960FB6F894DEBF0FBECDBFDF9178
S11311F0CF910895CF93DF93CDB7DEB72D970FB678
S1131200F894DEBF0FBECDBF998788877B876A8736
S11312105D874C871982888599859B838A830FB65D
S1131220F8940F928A819B81FC01828D8C838C813E
S11312308823F9F02A853B858A819B81B9014FD2A5
S11312408C812FEF280F8A819B81FC01228F8A8158
S11312509B81FC018085882341F08A819B810896CB
S11312600E94E416882309F068DC0F900FBE81E029
S113127061C08C859D85892B21F40F900FBE80E081
S113128059C08981882331F4CE0105960E947317D1
S113129081E089830F900FBE0E944C140FB6F8941E
S11312A00F928A819B81FC01858D8F3F21F48A8175
S11312B09B81FC01158E8A819B81FC01868D8F3F69
S11312C021F48A819B81FC01168E0F900FBE9E0132
S11312D0245F3F4FCE010596B9010E9490178823E1
S11312E0E9F48A819B81AAD2882391F02C853D85DB
S11312F08A819B814196B9010E9496168A819B81BD
S11313003FD20E945914882309F089CF16DC87CF75
S11313108A819B8135D20E94591481CF8A819B8115
S11313202FD20E9459148A819B8188D2882309F480
S113133076CF80E02D960FB6F894DEBF0FBECDBFFA
S1131340DF91CF910895CF93DF93CDB7DEB72D977B
S11313500FB6F894DEBF0FBECDBF9B878A877D870B
S11313606C8719828A859B859C838B831A820FB62E
S1131370F8940F928B819C81FC01828D8D838D81E9
S1131380882341F18D812FEF280F8B819C81FC01F3
S1131390228F8B819C81FC0180819181892B41F476
S11313A00E94BE1A9C018B819C81FC01358324839D
S11313B08B819C81FC018085882341F08B819C81F9
S11313C008960E94E416882309F0B7DB0F900FBE3D
S11313D081E08AC08C859D85892B21F40F900FBEF6
S11313E080E082C08981882331F4CE0107960E946F
S11313F0731781E089830F900FBE0E944C140FB6BF
S1131400F8940F928B819C81FC01858D8F3F21F490
S11314108B819C81FC01158E8B819C81FC01868DC6
S11314208F3F21F48B819C81FC01168E0F900FBE9F
S11314309E01245F3F4FCE010796B9010E94901789
S1131440882309F031C08B819C81F8D1882331F144
S11314508B819C81FC0180819181892B69F40FB679
S1131460F8940F928B819C81FC01848195810E9468
S1131470F5188A830F900FBE2C853D858B819C8146
S11314804196B9010E9496168B819C8179D10E9464
S11314905914882309F06BCF50DB69CF8B819C8171
S11314A06FD10E94591463CF8B819C8169D10E94B2
S11314B059148B819C81C2D1882309F458CF8A8125
S11314C0882389F00FB6F8940F928B819C8115D0F4
S11314D08E838B819C81FC01848195816E810E9425
S11314E01E1A0F900FBE80E02D960FB6F894DEBF43
S11314F00FBECDBFDF91CF910895CF93DF9300D07E
S1131500CDB7DEB79B838A838A819B81FC01818965
S1131510882369F08A819B81FC0186899789FC0173
S113152080819181982F84E0891B898301C019826D
S113153089810F900F900F90DF91CF910895CF93F1
S1131540DF93CDB7DEB727970FB6F894DEBF0FBE93
S1131550CDBF9C838B837E836D834F8319828B8164
S11315609C81FC01828D8A838B819C81FC01848D0A
S11315708823B1F48B819C81FC0180819181892B2A
S113158009F09CC08B819C81FC01848195810E941F
S1131590A11989838B819C81FC01158214828EC0E0
S11315A08F818823D9F58B819C81FC01848D482F00
S11315B050E08B819C81FC01828193812D813E814D
S11315C0B9010E9403388B819C81FC012281338103
S11315D08B819C81FC01848D882F90E0280F391F1A
S11315E08B819C81FC01338322838B819C81FC0150
S11315F0228133818B819C81FC0184819581281710
S1131600390708F45BC08B819C81FC012081318106
S11316108B819C81FC013383228350C08B819C810C
S1131620FC01848D482F50E08B819C81FC018681D4
S113163097812D813E81B9010E9403388B819C8161
S1131640FC01268137818B819C81FC01848D882F4C
S113165090E0919581959109280F391F8B819C8188
S1131660FC01378326838B819C81FC012681378191
S11316708B819C81FC018081918128173907A8F412
S11316808B819C81FC01248135818B819C81FC01AF
S1131690848D882F90E0919581959109280F391FA9
S11316A08B819C81FC01378326838F81823031F4C6
S11316B08A81882319F08A8181508A838A8121E072
S11316C0280F8B819C81FC01228F898127960FB67C
S11316D0F894DEBF0FBECDBFDF91CF910895CF93B5
S11316E0DF9300D01F92CDB7DEB79A8389837C83C2
S11316F06B8389819A81FC01848D8823C9F1898156
S11317009A81FC012681378189819A81FC01848D2B
S1131710882F90E0280F391F89819A81FC01378333
S1131720268389819A81FC012681378189819A8166
S1131730FC01848195812817390750F089819A81A9
S1131740FC012081318189819A81FC0137832683C0
S113175089819A81FC01848D482F50E089819A8186
S1131760FC01268137818B819C81B9010E94033859
S113177000000F900F900F900F90DF91CF9108957C
S1131780CF93DF9300D01F92CDB7DEB79C838B83BA
S11317900FB6F8940F928B819C81FC01868D89830E
S11317A012C08B819C81FC018189882381F08B810B
S11317B09C8141960E94E416882311F00E9402182D
S11317C0898181508983898118165CF301C00000E6
S11317D08B819C812FEFFC01268F0F900FBE0FB6DB
S11317E0F8940F928B819C81FC01858D8A8312C0B1
S11317F08B819C81FC018085882381F08B819C8175
S113180008960E94E416882311F00E9402188A8127
S113181081508A838A8118165CF301C000008B8191
S11318209C812FEFFC01258F0F900FBE00000F90BD
S11318300F900F900F90DF91CF910895CF93DF9386
S113184000D0CDB7DEB79B838A830FB6F8940F928E
S11318508A819B81FC01828D882319F481E089832C
S113186001C019820F900FBE89810F900F900F90C5
S1131870DF91CF910895CF93DF9300D0CDB7DEB73A
S11318809B838A830FB6F8940F928A819B81FC0113
S1131890228D8A819B81FC01838D281719F481E0B4
S11318A0898301C019820F900FBE89810F900F9018
S11318B00F90DF91CF910895CF93DF93CDB7DEB72B
S11318C027970FB6F894DEBF0FBECDBF9C838B83E2
S11318D07E836D834F838B819C819A8389830FB62A
S11318E0F8940F9289819A81FC01858D8F3F21F4B0
S11318F089819A81FC01158E89819A81FC01868DEA
S11319008F3F21F489819A81FC01168E0F900FBEBE
S113191089819A81FC01828D882349F489819A8185
S113192041962D813E814F81B9010E94B81689816B
S11319309A8126DF000027960FB6F894DEBF0FBE0B
S1131940CDBFDF91CF9108950F93CF93DF93CDB7A0
S1131950DEB728970FB6F894DEBF0FBECDBF9D83C8
S11319608C837F836E8348878885813019F481E076
S1131970898301C019828E819F81892B21F481E0A2
S113198090E09F838E838C819D8101969D838C83BF
S11319908C819D8140960E94FF019B838A838A816A
S11319A09B81892B69F08A819B81BC01605F7F4F99
S11319B02E813F814C815D818A819B810981F7D48D
S11319C08A819B8128960FB6F894DEBF0FBECDBFE7
S11319D0DF91CF910F9108950F93CF93DF9300D0B0
S11319E000D0CDB7DEB79E838D838D819E819B838E
S11319F08A8319828A819B81DC011F968C918C8356
S1131A000FB6F8940F928A819B81FC0180859185A1
S1131A10892B71F58A819B81DC011A968D919C91A9
S1131A201B97892B29F58A819B81DC011E96EC91F9
S1131A308A819B81DC0116962D913C9117978A81AE
S1131A409B81DC0114964D915C9115978A819B8151
S1131A50DC011C966D917C911D978A819B810E2FD0
S1131A60A6D481E089838A819B812C81FC0127870C
S1131A700F900FBE898126960FB6F894DEBF0FBE75
S1131A80CDBFDF91CF910F910895CF93DF9300D015
S1131A9000D0CDB7DEB79E838D838D819E819C83DC
S1131AA08B838B819C81FC01248135818B819C817A
S1131AB0FC0180819181820F931F9A8389838B819A
S1131AC09C81FC018281938129813A81A901481B6F
S1131AD0590BCA019A83898389819A8101979A83D0
S1131AE089838B819C81FC012481358189819A8140
S1131AF08217930768F08B819C81FC018481958116
S1131B0029813A81A901481B590BCA019A83898307
S1131B1089819A8126960FB6F894DEBF0FBECDBF99
S1131B20DF91CF910895EF92FF920F931F93CF937C
S1131B30DF93CDB7DEB763970FB6F894DEBF0FBE61
S1131B40CDBF9D878C877F876E87598B488B3B8B56
S1131B502A8B8C859D859E838D831A821982888920
S1131B6099899C838B838D819E81FC018685882F36
S1131B7090E081709927892B29F08B819C810296B2
S1131B809C838B838A899B89892B09F442C0CE016B
S1131B9009960E9451170FB6F8940F928D819E8179
S1131BA074DF9A83898329813A818B819C812817E8
S1131BB0390768F480E090E00E94591D0E94C9181A
S1131BC09C018D819E81FC013387228703C00F9085
S1131BD00FBE1FC00F900FBE8A899B897C0100E055
S1131BE010E020E030E0A90160E070E0CB010E9449
S1131BF0D81A8D819E81FC01138612869E012E5E69
S1131C003F4FCE010996B9010E949017882309F429
S1131C10C2CF89819A81892B29F48D819E8135DFF8
S1131C209A838983EB81FC8129813A814889598986
S1131C306E857F858D819E818F01B8D098878F8333
S1131C408F819885892B39F18D819E816DD39C017B
S1131C508D819E81FC018681978128173907D8F0F0
S1131C601BD68D819E81FC0180859185892B91F005
S1131C708D819E81FC018085918500E010E020E04B
S1131C8040E050E0BA010E947D1B8D819E81FC01E1
S1131C90118610860ED68F81988563960FB6F894B8
S1131CA0DEBF0FBECDBFDF91CF911F910F91FF908B
S1131CB0EF900895EF92FF920F931F93CF93DF93CA
S1131CC0CDB7DEB761970FB6F894DEBF0FBECDBFB8
S1131CD09B878A877D876C875F874E87398B288BA4
S1131CE08A859B859C838B838E859F859A83898334
S1131CF08B819C81FC018685882F90E081709927D7
S1131D00892B29F089819A8102969A8389838B8110
S1131D109C81BBDE9E838D83E981FA812D813E8186
S1131D204E855F856C857D858B819C818F013ED03E
S1131D3098878F838F819885892B49F18B819C812A
S1131D40F3D29C018B819C81FC01868197812817A9
S1131D503907E8F019868B819C81FC018085918587
S1131D60892BA9F08B819C81FC0180859185288930
S1131D703989790100E010E020E040E050E0BA0148
S1131D800E945E1C8B819C81FC01118610868F81D0
S1131D90988561960FB6F894DEBF0FBECDBFDF9174
S1131DA0CF911F910F91FF90EF9008950F931F9380
S1131DB0CF93DF93CDB7DEB761970FB6F894DEBF4C
S1131DC00FBECDBF998788877B876A875D874C87DD
S1131DD03F872E87198B088B8E859F85892B11F45D
S1131DE0198233C088859985FC018685882F90E007
S1131DF081709927892BA9F481E089838C859D853D
S1131E009D838C838E859F859F838E832C813D81CA
S1131E108E819F812817390708F4C9019D878C8713
S1131E2014C02E853F85888999892817390760F061
S1131E3081E089839E01245F3F4F8885998542E034
S1131E4050E0B9013BD101C019828981882359F03E
S1131E504C855D852A853B8588859985B9012ED178
S1131E609B838A8302C01B821A828A819B8161962A
S1131E700FB6F894DEBF0FBECDBFDF91CF911F9197
S1131E800F910895EF92FF920F931F93CF93DF93D7
S1131E90CDB7DEB760970FB6F894DEBF0FBECDBFE7
S1131EA09A8789877C876B875E874D87388B2F87D6
S1131EB089859A8598878F831A8219828F8198855C
S1131EC0FC018685882F90E081709927892B29F061
S1131ED082E090E09E838D8302C01E821D828F85E6
S1131EE09889892B09F43CC00FB6F8940F928F811E
S1131EF098851AD29C838B832B813C818D819E8112
S1131F008217930760F080E090E00E94591D0E94C0
S1131F10C9189C018F819885FC01318720870F9017
S1131F200FBE2B813C818D819E8182179307E8F03F
S1131F308F8598897C0100E010E020E030E0A90161
S1131F4060E070E0CB010E94D81A8F819885FC0173
S1131F50118610868F819885E7D19C838B8305C079
S1131F608F819885E1D19C838B832B813C818D81EA
S1131F709E818217930768F5ED81FE812B813C8158
S1131F804D855E856B857C858F8198858F0130D0EA
S1131F909A83898389819A81892BD9F07DD48F8111
S1131FA09885FC0182859385892B91F08F81988592
S1131FB0FC018285938500E010E020E040E050E0E1
S1131FC0BA010E947D1B8F819885FC0113861286BD
S1131FD070D489819A8160960FB6F894DEBF0FBEE3
S1131FE0CDBFDF91CF911F910F91FF90EF90089596
S1131FF00F931F93CF93DF93CDB7DEB762970FB6DE
S1132000F894DEBF0FBECDBF9A8789877C876B8724
S11320105E874D87388B2F871A8B098B89899A891C
S1132020892B81F189859A85FC01808191819C832A
S11320308B832F85388949895A89BE01695F7F4F0F
S113204089859A85CAD08F8198859A8389832F85BB
S1132050388989899A89A901481B590BCA01988B27
S11320608F8729813A818D859E858217930770F425
S113207089859A852B813C81FC01318320831A82D6
S1132080198204C08D859E859A8389832F8538891A
S113209049815A816B857C8589859A859ED09E83EA
S11320A08D838D819E8162960FB6F894DEBF0FBE3C
S11320B0CDBFDF91CF911F910F910895CF93DF93FF
S11320C0CDB7DEB72E970FB6F894DEBF0FBECDBFE7
S11320D09A8789877C876B875E874D8789859A85F0
S11320E0FC01828193819A83898389859A85FC0185
S11320F02481358189819A81A901481B590BCA0120
S11321009C838B838D859E859E838D832B813C81CF
S11321108D819E812817390708F4C90198878F8318
S113212089859A85FC012485358589819A81820F68
S1132130931F4F8158852B853C85B9010E94033834
S11321402D853E858F81988582179307A8F42D8568
S11321503E858F819885A901481B590B2B853C85A9
S11321608F819885280F391F89859A85FC0184857C
S11321709585B9010E94033829813A818D859E8510
S1132180820F931F9A83898389859A85FC01248110
S1132190358189819A818217930768F089859A85A8
S11321A0FC018481958129813A81A901481B590B3D
S11321B0CA019A83898389859A8529813A81FC0198
S11321C0338322838D859E852E960FB6F894DEBFC9
S11321D00FBECDBFDF91CF910895CF93DF93CDB7DD
S11321E0DEB766970FB6F894DEBF0FBECDBF988BEF
S11321F08F877A8B698B5C8B4B8B3E8B2D8B8D8978
S11322009E899C838B838B899C899E838D832B8160
S11322103C818D819E812817390708F4C90198876C
S11322208F838F819885892B09F473C08F85988952
S1132230FC01808191819A8389838F859889FC012F
S11322402481358189819A81A901481B590BCA01CE
S11322509A8789878F8198859C878B8729853A857A
S11322608B859C852817390708F4C9019E878D87BB
S11322708F859889FC012485358589819A81280F69
S1132280391F4D855E8589899A89B9010E94033871
S11322902F8138858D859E8582179307A0F42F8121
S11322A038858D859E85A901481B590B8F85988992
S11322B0FC016485758529893A898D859E85820FFF
S11322C0931F0E94033829813A818F819885820F58
S11322D0931F9A8389838F859889FC012481358192
S11322E089819A818217930768F08F859889FC0108
S11322F08481958129813A81A901481B590BCA011E
S11323009A8389838F85988929813A81FC01318355
S113231020838F81988566960FB6F894DEBF0FBE32
S1132320CDBFDF91CF910895CF93DF9300D01F925B
S1132330CDB7DEB79C838B838B819C81FC01248188
S113234035818B819C81FC0182819381820F931F53
S11323509A8389838B819C81FC018081918129816D
S11323603A81A901481B590BCA019A8389838B813D
S11323709C81FC012481358189819A81821793078C
S113238068F08B819C81FC018481958129813A814B
S1132390A901481B590BCA019A83898389819A81AF
S11323A00F900F900F900F90DF91CF9108950F939E
S11323B0CF93DF93CDB7DEB729970FB6F894DEBF7E
S11323C00FBECDBF9A8389837C836B835E834D83E9
S11323D038872F83098789819A8140E150E060E042
S11323E070E00E940C3889819A812B813C81FC0128
S11323F03587248789819A812D813E81FC0135832B
S1132400248389819A812F813885FC01378326832F
S113241089819A812985FC012687000029960FB6B7
S1132420F894DEBF0FBECDBFDF91CF910F91089519
S1132430AF92BF92CF92DF92EF92FF920F93CF931E
S1132440DF93CDB7DEB760970FB6F894DEBF0FBE4B
S1132450CDBF9F838E83798768875B874A873D8753
S11324602C870E87F88AEF868A859B850E94FF0158
S11324709D838C838C819D81892BB9F08CE290E0C3
S11324800E94FF019A83898389819A81892B41F073
S113249089819A812C813D81FC01308F278B07C073
S11324A08C819D810E94200202C01A821982898136
S11324B09A81892BC1F0A981BA81EF85F8892C858D
S11324C03D854A855B85688579858E819F81A12CB0
S11324D0B12C6D017F010E8519D089819A81F5D0C7
S11324E081E08B8302C08FEF8B838B8160960FB664
S11324F0F894DEBF0FBECDBFDF91CF910F91FF9057
S1132500EF90DF90CF90BF90AF900895AF92BF92BD
S1132510CF92DF92EF92FF920F93CF93DF93CDB7D9
S1132520DEB762970FB6F894DEBF0FBECDBF9D83B2
S11325308C837F836E83598748873B872A870C87E0
S1132540FE86ED86D88ACF86BA8AA98A8F8598892D
S1132550FC018789908D28853985A90165EA70E099
S11325600E940C388F859889FC012789308D8885D5
S113257099850197820F931F9B838A838E819F8104
S1132580892B69F1198221C08981882F90E02981E2
S1132590222F30E04E815F81240F351FF9014081E5
S11325A02F853889820F931F4996FC0140838981C6
S11325B0882F90E02E813F81820F931FFC01808140
S11325C0882339F089818F5F898389818830E0F29B
S11325D001C000008F859889FC0110A204C08F857A
S11325E09889FC01118E8C85843010F083E08C87EF
S11325F08F8598892C85FC01268B8F8598892C855D
S1132600FC0123A38F859889FC0114A28F859889E6
S113261002960E9471028F8598890C960E9471021D
S11326208F8598892F853889FC01318720878C858F
S1132630882F90E024E030E0281B390B8F8598899F
S1132640FC01358724878F8598892F853889FC017B
S1132650338B228B8F859889FC0116A215A28F8556
S11326609889FC0117A210A611A612A68F85988935
S1132670FC0113A64A855B852C813D818A819B815F
S1132680B9010E94A1039C018F859889FC013183C3
S113269020838D859E85892B39F08D859E852F8598
S11326A03889FC0131832083000062960FB6F894C8
S11326B0DEBF0FBECDBFDF91CF910F91FF90EF90A2
S11326C0DF90CF90BF90AF900895CF93DF931F9288
S11326D01F92CDB7DEB79A8389830FB6F8940F9211
S11326E08091A6088F5F8093A60880914E089091F0
S11326F04F08892B61F489819A8190934F088093C4
S11327004E088091A6088130C1F487D416C0809108
S1132710AA08882391F480914E0890914F08FC01F7
S1132720268989819A81FC018689821730F0898102
S11327309A8190934F0880934E088091AE088F5FE2
S11327408093AE082091AE0889819A81FC0121A36F
S113275089819A81FC0196898091A908891730F4AE
S113276089819A81FC0186898093A90889819A814B
S1132770AC014E5F5F4F89819A81FC018689282FC5
S113278030E0C901880F991F880F991F880F991F7E
S1132790820F931F805B974FBA010E9484020F90AF
S11327A00FBE8091AA08882371F080914E08909101
S11327B04F08FC01268989819A81FC0186892817A2
S11327C010F40E949D0500000F900F90DF91CF91AF
S11327D00895CF93DF9300D0CDB7DEB79B838A8370
S11327E019828A819B81892B41F056D08A819B81F1
S11327F060E00E948B1D5DD089838981882311F458
S11328000E949D0500000F900F900F90DF91CF91D3
S11328100895EF92FF920F93CF93DF931F92CDB75A
S1132820DEB70F2EF1EBEF2EF8E0FF2EF02D00E0D7
S113283020E030E040EC50E060E472E08DEC90E0A9
S1132840F7DD89838981813019F40E94051E89830B
S113285089818130C9F4F8948FEF9FEF9093B00889
S11328608093AF0881E08093AA081092A808109280
S1132870A70880914E0890914F08FC0185A196A16C
S11328800E94CB010E94650500000F90DF91CF915B
S11328900F91FF90EF900895CF93DF93CDB7DEB7FC
S11328A08091B3088F5F8093B3080000DF91CF91CC
S11328B00895CF93DF9300D01F92CDB7DEB71A826D
S11328C019821B820FB6F8940F928091B30881503D
S11328D08093B3088091B308882309F075C0809170
S11328E0A608882309F470C049C080918F0890918C
S11328F09008FC01868197819A83898389819A81D2
S11329000C960E944A0389819A8102960E944A0386
S113291089819A81FC0196898091A908891730F4EC
S113292089819A81FC0186898093A90889819A8189
S1132930AC014E5F5F4F89819A81FC018689282F03
S113294030E0C901880F991F880F991F880F991FBC
S1132950820F931F805B974FBA010E948402898182
S11329609A81FC01268980914E0890914F08FC01C0
S11329708689281718F081E08093AC0880918A0832
S1132980882309F0B2CF89819A81892B09F0D1D3A8
S11329908091AB088C838C81882371F037D0882395
S11329A019F081E08093AC088C8181508C838C81F8
S11329B08823A1F71092AB088091AC08882321F0FA
S11329C081E08B830E949D050F900FBE8B810F9039
S11329D00F900F900F90DF91CF910895CF93DF93D5
S11329E01F921F92CDB7DEB70FB6F8940F92809165
S11329F0A7089091A8089A8389830F900FBE8981B4
S1132A009A810F900F90DF91CF910895CF93DF9328
S1132A10CDB7DEB729970FB6F894DEBF0FBECDBF92
S1132A2019828091B308882309F0C7C08091A70850
S1132A309091A80801969B838A838A819B819093B5
S1132A40A8088093A7088A819B81892BD1F480915F
S1132A508608909187089D838C8380918808909143
S1132A60890890938708809386088C819D81909330
S1132A708908809388088091AD088F5F8093AD08A2
S1132A8058D38091AF089091B0082A813B812817D0
S1132A90390708F478C08091860890918708FC0172
S1132AA08081882339F48FEF9FEF9093B00880934F
S1132AB0AF0869C08091860890918708FC018581E0
S1132AC09681FC01868197819F838E838E819F816D
S1132AD0FC0182819381998788872A813B8188853B
S1132AE099852817390738F4888599859093B00813
S1132AF08093AF0848C08E819F8102960E944A034A
S1132B008E819F81FC0184899589892B29F08E818E
S1132B109F810C960E944A038E819F81FC019689B5
S1132B208091A908891730F48E819F81FC018689E0
S1132B308093A9088E819F81AC014E5F5F4F8E8187
S1132B409F81FC018689282F30E0C901880F991FD5
S1132B50880F991F880F991F820F931F805B974FCF
S1132B60BA010E9484028E819F81FC012689809192
S1132B704E0890914F08FC018689281708F48BCFE2
S1132B8081E0898388CF80914E0890914F08FC01A1
S1132B908689282F30E0C901880F991F880F991F53
S1132BA0880F991F820F931F805B974FFC018081D0
S1132BB0823040F081E0898305C08091AB088F5F4B
S1132BC08093AB088091AC08882311F081E089835D
S1132BD0898129960FB6F894DEBF0FBECDBFDF9171
S1132BE0CF910895CF93DF9300D0CDB7DEB7809116
S1132BF0B308882321F081E08093AC0890C0109240
S1132C00AC0880914E0890914F08FC0185A196A1D3
S1132C100E94EB0180914E0890914F08FC012081A5
S1132C20318180914E0890914F08FC018789908DE5
S1132C308217930770F080914E0890914F089C0181
S1132C40275E3F4F80914E0890914F08B9010E9432
S1132C501F238091A908898303C0898181508983B6
S1132C608981282F30E0C901880F991F880F991F87
S1132C70880F991F820F931F805B974FFC018081FF
S1132C80882359F38981282F30E0C901880F991FBF
S1132C90880F991F880F991F820F931F805B974F8E
S1132CA09B838A838A819B81FC0181819281FC01BF
S1132CB0228133818A819B81FC01328321838A8131
S1132CC09B81FC01218132818A819B810396281793
S1132CD0390769F48A819B81FC0181819281FC011D
S1132CE0228133818A819B81FC01328321838A8101
S1132CF09B81FC0181819281FC0186819781909363
S1132D004F0880934E0889818093A90880914E08CA
S1132D1090914F08FC0185A196A10E94CB0100006F
S1132D200F900F900F90DF91CF910895CF93DF9381
S1132D3000D01F92CDB7DEB79A8389837C836B83DF
S1132D4080914E0890914F089C01245F3F4F8981E8
S1132D509A81B9010E94D2028B819C8161E0DBD609
S1132D6000000F900F900F900F90DF91CF91089576
S1132D70CF93DF9300D01F921F92CDB7DEB79A8313
S1132D8089837C836B834D8380914E0890914F0897
S1132D909C01245F3F4F89819A81B9010E9484027A
S1132DA08D81882321F08FEF9FEF9C838B838B8110
S1132DB09C816D81B0D600000F900F900F900F9002
S1132DC00F90DF91CF910895CF93DF9300D01F929E
S1132DD01F92CDB7DEB79D838C838C819D81FC01CE
S1132DE085819681FC01868197819B838A838A8170
S1132DF09B810C960E944A038091B308882369F54D
S1132E008A819B8102960E944A038A819B81FC01EC
S1132E1096898091A908891730F48A819B81FC01E5
S1132E2086898093A9088A819B81AC014E5F5F4F9C
S1132E308A819B81FC018689282F30E0C901880F93
S1132E40991F880F991F880F991F820F931F805B0A
S1132E50974FBA010E94840208C08A819B810C9614
S1132E60BC018AE898E00E9484028A819B81FC016B
S1132E70268980914E0890914F08FC01868982171B
S1132E8030F481E0898381E08093AC0801C0198229
S1132E9089810F900F900F900F900F90DF91CF9139
S1132EA00895CF93DF931F921F92CDB7DEB79A8315
S1132EB089830FB6F8940F922091AD0889819A8185
S1132EC0FC0120832091A7083091A80889819A8168
S1132ED0FC01328321830F900FBE00000F900F90EE
S1132EE0DF91CF910895CF93DF931F921F92CDB7B7
S1132EF0DEB79A8389832091AD0889819A81FC0188
S1132F0020832091A7083091A80889819A81FC0127
S1132F103283218300000F900F90DF91CF910895A9
S1132F20CF93DF93CDB7DEB729970FB6F894DEBF02
S1132F300FBECDBF9F838E83798768870FB6F894C1
S1132F400F928091A7089091A8089B838A838E8111
S1132F509F81FC01818192812A813B81A901481BC7
S1132F60590BCA019D838C8388859985FC018081D6
S1132F709181019611F4198239C08E819F81FC01DF
S1132F8090818091AD08981769F08E819F81FC0132
S1132F90218132818A819B818217930718F081E015
S1132FA0898324C088859985FC01208131818C81A5
S1132FB09D818217930798F488859985FC01208167
S1132FC031818C819D81281B390B88859985FC0171
S1132FD0318320838E819F8186DF198207C0888593
S1132FE09985FC011182108281E089830F900FBEC4
S1132FF0898129960FB6F894DEBF0FBECDBFDF914D
S1133000CF910895CF93DF93CDB7DEB781E080935E
S1133010AC080000DF91CF910895CF93DF931F9206
S1133020CDB7DEB7198213C08981282F30E0C901DA
S1133030880F991F880F991F880F991F820F931F5C
S1133040805B974F0E943A0289818F5F89838981CF
S1133050843050F384E798E00E943A028DE798E0C8
S11330600E943A028AE898E00E943A0283E998E0D2
S11330700E943A028DE998E00E943A0284E798E0BF
S113308090938708809386088DE798E09093890849
S11330908093880800000F90DF91CF910895CF931B
S11330A0DF931F921F92CDB7DEB720C00FB6F894FE
S11330B00F928091980890919908FC0186819781DC
S11330C09A83898389819A8102960E944A03809116
S11330D0A60881508093A60880919C088150809313
S11330E09C080F900FBE89819A810AD080919C0818
S11330F08823E1F600000F900F90DF91CF9108959F
S1133100CF93DF931F921F92CDB7DEB79A83898343
S113311089819A81FC018789908D0E94200289818E
S11331209A810E94200200000F900F90DF91CF91AE
S11331300895CF93DF931F921F92CDB7DEB780918E
S1133140860890918708FC018081882339F48FEFE9
S11331509FEF9093B0088093AF0815C080918608C4
S113316090918708FC0185819681FC018681978175
S11331709A83898389819A81FC01828193819093C6
S1133180B0088093AF0800000F900F90DF91CF91AB
S11331900895CF93DF931F921F92CDB7DEB780912E
S11331A04E0890914F089A83898389819A810F9060
S11331B00F90DF91CF910895CF93DF931F92CDB7F6
S11331C0DEB78091AA08882319F481E0898308C0B6
S11331D08091B308882319F482E0898301C019829D
S11331E089810F90DF91CF910895CF93DF9300D021
S11331F01F921F92CDB7DEB79D838C838C819D81F6
S11332009B838A8319828C819D81892B09F490C0C8
S11332108A819B81FC01268980914E0890914F08F8
S1133220FC018689281708F075C08A819B81FC01FE
S11332308485958599238CF080914E0890914F0850
S1133240FC018689882F90E024E030E0281B390BAC
S11332508A819B81FC01358724878A819B81FC01BB
S1133260428553858A819B81FC018689282F30E021
S1133270C901880F991F880F991F880F991F820F02
S1133280931F805B974F48175907B9F58A819B8133
S113329002960E944A0380914E0890914F08FC01C7
S11332A026898A819B81FC01268B8A819B81FC0172
S11332B096898091A908891730F48A819B81FC0141
S11332C086898093A9088A819B81AC014E5F5F4FF8
S11332D08A819B81FC018689282F30E0C901880FEF
S11332E0991F880F991F880F991F820F931F805B66
S11332F0974FBA010E9484020AC080914E089091AF
S11333004F08FC0126898A819B81FC01268B81E080
S113331089830EC08A819B81FC0123A180914E0880
S113332090914F08FC018689281710F481E0898365
S113333089810F900F900F900F900F90DF91CF9194
S11333400895CF93DF9300D01F921F92CDB7DEB7BD
S11333509D838C838C819D819B838A8319828C813C
S11333609D81892B09F461C08A819B81FC0184A120
S11333702FEF280F8A819B81FC0124A38A819B81E2
S1133380FC0126898A819B81FC0183A1281709F409
S11333904CC08A819B81FC0184A1882309F045C02B
S11333A08A819B8102960E944A038A819B81FC0147
S11333B023A18A819B81FC01268B8A819B81FC014C
S11333C08689882F90E024E030E0281B390B8A811D
S11333D09B81FC01358724878A819B81FC01968926
S11333E08091A908891730F48A819B81FC01868920
S11333F08093A9088A819B81AC014E5F5F4F8A81CB
S11334009B81FC018689282F30E0C901880F991F10
S1133410880F991F880F991F820F931F805B974F06
S1133420BA010E94840281E0898389810F900F9000
S11334300F900F900F90DF91CF910895CF93DF936A
S1133440CDB7DEB728970FB6F894DEBF0FBECDBF59
S11334509F838E8368878E819F819B838A8381E08B
S11334608C838E819F81892B09F47EC08A819B8104
S1133470FC0193A18885981718F48885898305C071
S11334808A819B81FC0183A189838A819B81FC01C0
S113349096898981981709F467C08A819B81FC0108
S11334A094A18C81981709F05FC08A819B81FC01EB
S11334B086898D838A819B812981FC01268B8A815F
S11334C09B81FC0184859585992364F08981882FEB
S11334D090E024E030E0281B390B8A819B81FC01B9
S11334E0358724878A819B81FC01428553858D81A0
S11334F0282F30E0C901880F991F880F991F880F62
S1133500991F820F931F805B974F4817590761F5E6
S11335108A819B8102960E944A038A819B81FC01D5
S113352096898091A908891730F48A819B81FC01CE
S113353086898093A9088A819B81AC014E5F5F4F85
S11335408A819B81FC018689282F30E0C901880F7C
S1133550991F880F991F880F991F820F931F805BF3
S1133560974FBA010E948402000028960FB6F8947F
S1133570DEBF0FBECDBFDF91CF910895CF93DF9310
S1133580CDB7DEB780914E0890914F08892B49F052
S113359080914E0890914F08FC0124A12F5FFC01FB
S11335A024A380914E0890914F08DF91CF91089504
S11335B0EF92FF920F931F93CF93DF93CDB7DEB7B4
S11335C02D970FB6F894DEBF0FBECDBF6A837B8301
S11335D08C839D832E833F83488759871B870A8763
S11335E0FD86EC860FB6F8940F9280914E08909168
S11335F04F08FC0183A5823059F160914E08709107
S11336004F08FB0127A130A541A552A58A819B81C2
S1133610AC81BD8180959095A095B095822393232C
S1133620A423B523FB0187A390A7A1A7B2A78091E8
S11336304E0890914F0821E0FC0123A78C859D85BD
S1133640892B31F08C859D8561E065D20E949D05B2
S11336500F900FBE0FB6F8940F928A859B85892B25
S113366081F080914E0890914F08FC0187A190A5AC
S1133670A1A5B2A52A853B85F90180839183A28304
S1133680B38380914E0890914F08FC0183A582304A
S113369011F019821CC060914E0870914F08FB0113
S11336A027A130A541A552A58E819F81A885B98502
S11336B080959095A095B09582239323A423B52358
S11336C0FB0187A390A7A1A7B2A781E0898380917A
S11336D04E0890914F08FC0113A60F900FBE8981EC
S11336E02D960FB6F894DEBF0FBECDBFDF91CF91FC
S11336F01F910F91FF90EF9008950F931F93CF9315
S1133700DF93CDB7DEB72D970FB6F894DEBF0FBEAB
S1133710CDBF9E838D834F83588769877A872B8794
S11337201D870C8781E089838D819E819B838A8399
S11337300FB6F8940F928C859D85892B71F08A8140
S11337409B81FC0187A190A5A1A5B2A52C853D85EF
S1133750F90180839183A283B3838A819B81FC01D5
S113376083A58C838A819B8122E0FC0123A78B851E
S1133770882F90E08230910531F18330910534F443
S1133780009709F44FC0019739F04DC0833091057B
S113379061F10497B1F147C08A819B81FC0127A1A3
S11337A030A541A552A58F819885A985BA85822B1C
S11337B0932BA42BB52B2A813B81F90187A390A7D6
S11337C0A1A7B2A730C08A819B81FC0187A190A5E3
S11337D0A1A5B2A50196A11DB11D2A813B81F901C4
S11337E087A390A7A1A7B2A71EC02A813B818F817E
S11337F09885A985BA85F90187A390A7A1A7B2A73F
S113380012C08C81823061F02A813B818F8198853E
S1133810A985BA85F90187A390A7A1A7B2A703C078
S1133820198201C000008C818130D1F58A819B818D
S113383002960E944A038A819B81FC0196898091A9
S1133840A908891730F48A819B81FC0186898093B9
S1133850A9088A819B81AC014E5F5F4F8A819B815D
S1133860FC018689282F30E0C901880F991F880F31
S1133870991F880F991F820F931F805B974FBA017E
S11338800E9484028A819B81FC01268980914E08D2
S113389090914F08FC018689821710F40E949D05BF
S11338A00F900FBE89812D960FB6F894DEBF0FBE20
S11338B0CDBFDF91CF911F910F910895EF92FF92A9
S11338C00F931F93CF93DF93CDB7DEB760970FB6F7
S11338D0F894DEBF0FBECDBF9F838E834887598780
S11338E06A877B872C871E870D87F88AEF8681E09D
S11338F089838E819F819B838A831C828D859E858B
S1133900892B71F08A819B81FC0187A190A5A1A5D7
S1133910B2A52D853E85F90180839183A283B3836B
S11339208A819B81FC0183A58D838A819B8122E00E
S1133930FC0123A78C85882F90E08230910531F11A
S11339408330910534F4009709F44FC0019739F09E
S11339504DC08330910561F10497B1F147C08A816C
S11339609B81FC0127A130A541A552A58885998595
S1133970AA85BB85822B932BA42BB52B2A813B8153
S1133980F90187A390A7A1A7B2A730C08A819B8120
S1133990FC0187A190A5A1A5B2A50196A11DB11D09
S11339A02A813B81F90187A390A7A1A7B2A71EC0D2
S11339B02A813B8188859985AA85BB85F90187A3DE
S11339C090A7A1A7B2A712C08D81823061F02A818D
S11339D03B8188859985AA85BB85F90187A390A732
S11339E0A1A7B2A703C0198201C000008D81813054
S11339F009F051C08091B308882369F58A819B81BD
S1133A0002960E944A038A819B81FC0196898091D7
S1133A10A908891730F48A819B81FC0186898093E7
S1133A20A9088A819B81AC014E5F5F4F8A819B818B
S1133A30FC018689282F30E0C901880F991F880F5F
S1133A40991F880F991F820F931F805B974FBA01AC
S1133A500E94840208C08A819B810C96BC018AE87A
S1133A6098E00E9484028A819B81FC0126898091CE
S1133A704E0890914F08FC018689821760F48F8567
S1133A809889892B29F08F85988921E0FC0120836E
S1133A9081E08093AC08898160960FB6F894DEBF0C
S1133AA00FBECDBFDF91CF911F910F91FF90EF908B
S1133AB00895CF93DF9300D01F921F92CDB7DEB746
S1133AC09D838C838C819D81892B29F480914E0860
S1133AD090914F0802C08C819D819B838A830FB68D
S1133AE0F8940F928A819B81FC0183A5823039F47A
S1133AF08A819B81FC0113A681E0898301C019821C
S1133B000F900FBE89810F900F900F900F900F9020
S1133B10DF91CF910895CF93DF93CDB7DEB7279789
S1133B200FB6F894DEBF0FBECDBF9E838D836F8327
S1133B308091A7089091A8089A83898380914E0860
S1133B4090914F0802960E944A038D819E810196AE
S1133B5071F48F81882359F080914E0890914F0819
S1133B600296BC018DE998E00E94840244C0298138
S1133B703A818D819E81820F931F9C838B838091D8
S1133B804E0890914F082B813C81FC0133832283A2
S1133B902B813C8189819A812817390778F4809197
S1133BA04E0890914F089C012E5F3F4F80918808EA
S1133BB090918908B9010E94D2021DC080914E08DB
S1133BC090914F089C012E5F3F4F80918608909101
S1133BD08708B9010E94D2028091AF089091B00881
S1133BE02B813C812817390730F48B819C81909379
S1133BF0B0088093AF08000027960FB6F894DEBF94
S1133C000FBECDBFDF91CF910895EF92FF920F9336
S1133C10CF93DF931F92CDB7DEB7198240D4809142
S1133C20CA089091CB08892B91F00F2EFCECEF2E53
S1133C30F8E0FF2EF02D03E020E030E045E550E011
S1133C4065E472E08FED90E00E9418128983898107
S1133C500F90DF91CF910F91FF90EF900895EF9225
S1133C60FF920F931F93CF93DF93CDB7DEB72B97BC
S1133C700FB6F894DEBF0FBECDBF9C838B837E83CB
S1133C806D834F83398728871B870A8784E190E0F7
S1133C900E94FF019A83898389819A81892B91F0FB
S1133CA089819A81FC01138AE981FA814A855B85BD
S1133CB0288539856D817E818B819C817F018A0174
S1133CC04F810FD089819A812B960FB6F894DEBF6D
S1133CD00FBECDBFDF91CF911F910F91FF90EF9059
S1133CE00895EF92FF920F931F93CF93DF93CDB775
S1133CF0DEB72B970FB6F894DEBF0FBECDBF9A8305
S1133D0089837C836B834D833F832E831987088744
S1133D10FB86EA868A859B85892B79F1C0D38A85BF
S1133D209B8529813A81FC01318320838A859B8587
S1133D302B813C81FC01358724878A859B852E81D4
S1133D403F81FC01378726878A859B8528853985AD
S1133D50FC01318B208B8A859B8502960E9471021F
S1133D608D81882351F08A859B85FC018389282FC6
S1133D7024608A859B85FC01238B00002B960FB65B
S1133D80F894DEBF0FBECDBFDF91CF911F910F918D
S1133D90FF90EF9008950F931F93CF93DF93CDB7C8
S1133DA0DEB72F970FB6F894DEBF0FBECDBF98874E
S1133DB08F8369875B874A873D872C871F870E8798
S1133DC019828091CA089091CB08892BC9F1898501
S1133DD08A838A859B859C838B838F8198859E8328
S1133DE08D8389858630FCF4E7D9823071F4809123
S1133DF0CA089091CB084E855F85BE016E5F7F4FE8
S1133E0020E00E94F30789831BC08091CA08909127
S1133E10CB08BE016E5F7F4F20E040E050E00E947F
S1133E20F30789830DC08091CA089091CB084C8513
S1133E305D85BE016E5F7F4F20E00E949C088983F0
S1133E4089812F960FB6F894DEBF0FBECDBFDF91E8
S1133E50CF911F910F9108950F931F93CF93DF93E9
S1133E60CDB7DEB727970FB6F894DEBF0FBECDBF30
S1133E709D838C837F836E838091C6089091C7084D
S1133E80FC0185819681FC01868197819A838983CF
S1133E9089819A8102960E944A0389819A81FC0150
S1133EA08389882F90E084709927892BF9F0898180
S1133EB09A81FC01248535858C819D81B901680F27
S1133EC0791F2C813D814E815F8189819A81E6D061
S1133ED08823B1F04C815D8189819A8100E010E0F2
S1133EE020E030E060E057DF8B830AC089819A814B
S1133EF0FC018389282F2E7F89819A81FC01238BE1
S1133F0089819A81FC012089318989819A81F90109
S1133F101995000027960FB6F894DEBF0FBECDBFEB
S1133F20DF91CF911F910F910895CF93DF9300D02C
S1133F3000D0CDB7DEB79D838C836E830E944C1472
S1133F40CE0103967CD09A8389838B818823B1F533
S1133F508E81882381F42C813D8189819A81821705
S1133F60930748F00E94591429813A818C819D81DC
S1133F70B90172DF25C08E81882359F08091C80869
S1133F809091C908FC01908181E0992309F080E0B7
S1133F908E832C813D8189819A81281B390B8091E4
S1133FA0CA089091CB084E81B9010E945C0C0E9412
S1133FB05914882329F40E949D0502C00E945914B3
S1133FC0000026960FB6F894DEBF0FBECDBFDF917A
S1133FD0CF910895CF93DF9300D01F92CDB7DEB772
S1133FE09C838B838091C6089091C708FC019081C3
S1133FF081E0992309F080E0282F8B819C81FC01CA
S113400020838B819C81FC018081882369F48091C9
S1134010C6089091C708FC0185819681FC018081C6
S113402091819A83898302C01A82198289819A8133
S11340300F900F900F900F90DF91CF910895CF9331
S1134040DF9300D01F92CDB7DEB79C838B830E9491
S1134050EE149A8389838091CE089091CF082981A8
S11340603A812817390738F47CD18B819C8121E06F
S1134070FC01208304C08B819C81FC011082898116
S11340809A819093CF088093CE0889819A810F906A
S11340900F900F900F90DF91CF910895CF93DF93FE
S11340A0CDB7DEB729970FB6F894DEBF0FBECDBFEC
S11340B09B838A837D836C835F834E8339872887C0
S11340C019828A819B812C813D81FC013383228367
S11340D08A819B812A813B81FC01318720872C8145
S11340E03D818E819F8182179307F0F02E813F815D
S11340F088859985281B390B8A819B81FC018485DD
S113410095852817390718F081E089832AC08A81A8
S11341109B819C012E5F3F4F8091C8089091C908F4
S1134120B9010E94D2021DC02E813F8188859985E4
S11341302817390750F42C813D81888599852817E3
S1134140390718F081E089830CC08A819B819C0126
S11341502E5F3F4F8091C6089091C708B9010E9415
S1134160D202898129960FB6F894DEBF0FBECDBF67
S1134170DF91CF9108950F931F93CF93DF93CDB722
S1134180DEB72B970FB6F894DEBF0FBECDBFCEC0FF
S11341908E8188230CF4CAC089859A859A83898381
S11341A089819A81DC011A968D919C911B97892BA8
S11341B029F089819A8102960E944A03CE010B96C6
S11341C03EDF9C838B838E81082E000C990B092E75
S11341D0000CAA0BBB0B40E050E029E030E0841B4C
S11341E0950B2817390708F4A0C0FC018827EE585E
S11341F0FF4F8F4F0C94A13489819A81FC018389EC
S1134200282F216089819A81DC0153962C93EF81B8
S1134210F8852F81388589819A81DC011C968D91DE
S11342209C911D97B901680F791F4B815C8189812D
S11342309A819F0133DF882309F478C089819A81A8
S1134240FC012089318989819A81F9011995898133
S11342509A81DC0153968C91882F90E08470992781
S1134260892B09F463C02F81388589819A81FC01E7
S113427084859585A901480F591F89819A8100E099
S113428010E020E030E060E086DD8D834FC089815E
S11342909A81DC0153968C91282F2E7F89819A81F3
S11342A0FC01238B43C089819A81DC0153968C9154
S11342B0282F216089819A81FC01238B2F813885E5
S11342C089819A81DC011D963C932E931C978981E8
S11342D09A81FC01248535858B819C81B901680F05
S11342E0791F2B813C814B815C8189819A81D6DE47
S11342F01DC089819A81DC0153968C91882F90E0AE
S113430082709927892B29F489819A810E9420023D
S11343100DC089819A81FC018389282F2E7F898190
S11343209A81DC0153962C9301C000008091CA0845
S11343309091CB089E012A5F3F4F40E050E0B901C5
S11343400E94FA08882309F023CF00002B960FB6A9
S1134350F894DEBF0FBECDBFDF91CF911F910F91B7
S113436008950F931F93CF93DF93CDB7DEB72997AB
S11343700FB6F894DEBF0FBECDBF68C08091C608EB
S11343809091C708FC0185819681FC01808191810F
S11343909A8389838091C6089091C708FC0185811E
S11343A09681FC01868197819C838B838B819C8180
S11343B002960E944A038B819C81FC0120893189E9
S11343C08B819C81F90119958B819C81FC018389E6
S11343D0882F90E084709927892BC1F18B819C816F
S11343E0FC012485358589819A81820F931F9E83E0
S11343F08D832D813E8189819A8182179307D8F418
S11344008B819C812D813E81FC01338322838B81AE
S11344109C812B813C81FC01318720878B819C818D
S11344209C012E5F3F4F8091C6089091C708B90147
S11344300E94D2020BC049815A818B819C8100E089
S113444010E020E030E060E0A6DC8F838091C608B5
S11344509091C708FC018081882309F08FCF809157
S1134460C6089091C708998788878091C808909159
S1134470C9089093C7088093C60888859985909346
S1134480C9088093C808000029960FB6F894DEBFC7
S11344900FBECDBFDF91CF911F910F910895CF93A0
S11344A0DF93CDB7DEB70FB6F8940F928091CA08A8
S11344B09091CB08892BE9F484EB98E00E943A02AE
S11344C08DEB98E00E943A0284EB98E09093C70841
S11344D08093C6088DEB98E09093C9088093C80830
S11344E040E065E08AE00E941B079093CB0880932C
S11344F0CA080F900FBE0000DF91CF910895CF93AB
S1134500DF93CDB7DEB70000DF91CF910895CF934D
S1134510DF93CDB7DEB72E970FB6F894DEBF0FBE8C
S1134520CDBF84E290E024E230E0F90120812068EC
S1134530FC01208385E290E025E230E0F90120814E
S11345402068FC01208380E090E0A8E4B2E4898341
S11345509A83AB83BC8320E030E04AE755E4698169
S11345607A818B819C810E946136DC01CB018D8331
S11345709E83AF83B88720E030E040E85FE36D813D
S11345807E818F8198850E940E3588232CF481E0EA
S113459090E09A8789873FC020E03FEF4FE757E4D8
S11345A06D817E818F8198850E945D3618164CF549
S11345B020E030E040E251E469817A818B819C8182
S11345C00E946136DC01CB01BC01CD010E947F3524
S11345D0DC01CB019A8789870FC080E991E09C8731
S11345E08B878B859C850197F1F79C878B878985C1
S11345F09A8501979A87898789859A85892B69F78E
S113460014C06D817E818F8198850E947F35DC0185
S1134610CB019A87898789859A859E878D878D8521
S11346209E850197F1F79E878D8783E290E023E2D0
S113463030E0F90120812068FC01208384CFCF93EE
S1134640DF93CDB7DEB762970FB6F894DEBF0FBE27
S1134650CDBF988B8F877A8B698B84E290E024E2BC
S113466030E0F90120812068FC01208385E290E09C
S113467025E230E0F90120812068FC01208380E0FC
S113468090E0AAEFB4E489839A83AB83BC8320E0EF
S113469030E04AE755E469817A818B819C810E94EC
S11346A06136DC01CB018D839E83AF83B88720E024
S11346B030E040E85FE36D817E818F8198850E94C0
S11346C00E3588232CF481E090E09A8789873FC0D7
S11346D020E03FEF4FE757E46D817E818F8198851D
S11346E00E945D3618164CF520E030E040E251E4BB
S11346F069817A818B819C810E946136DC01CB01C6
S1134700BC01CD010E947F35DC01CB019A878987EA
S11347100FC080E991E09C878B878B859C850197EE
S1134720F1F79C878B8789859A8501979A87898772
S113473089859A85892B69F714C06D817E818F8163
S113474098850E947F35DC01CB019A87898789850A
S11347509A859E878D878D859E850197F1F79E8723
S11347608D8783E290E023E230E0F9012081206824
S1134770FC01208384CFCF93DF9300D01F92CDB769
S1134780DEB79A8389837C836B838B819C816FEFF3
S11347907FEF0E94A30989819A810E9450388B81FE
S11347A09C8120E040E050E060E070E00E94F3076C
S11347B000000F900F900F900F90DF91CF9108950C
S11347C0EF92FF920F93CF93DF931F92CDB7DEB793
S11347D08983E12CF12C098120E030E048E851E0A4
S11347E06DE472E087ED95E20E941812E12CF12C41
S11347F000E020E030E040EC50E064E572E081E865
S113480096E20E941812E12CF12C00E020E030E046
S113481040EC50E066E672E084E696E20E941812EC
S1134820E12CF12C00E020E030E040EC50E067E7C0
S113483072E08BEF96E20E94181200000F90DF9155
S1134840CF910F91FF90EF9008950F931F93CF9303
S1134850DF93CDB7DEB70BE911E020E030E041E0B3
S11348606EE370E08FE892E0FAD99093AB0A8093FC
S1134870AA0A0BE611E021E030E041E06EE370E0CB
S113488089EA92E0ECD99093A70A8093A60A03E8F8
S113489011E022E030E041E06EE370E08BEB92E067
S11348A0DED99093A90A8093A80A03EB11E023E0D0
S11348B030E041E06EE370E083ED92E0D0D9909374
S11348C0A50A8093A40A0000DF91CF911F910F9154
S11348D00895CF93DF931F921F92CDB7DEB781E087
S11348E00E946E2D0E94312F0E945931292F2F933F
S11348F08F9386EE92E0892F8F9386EE92E08F93CA
S11349000E943D380F900F900F900F900E945E30E0
S11349100E945931292F2F938F9389EF92E0892F89
S11349208F9389EF92E08F930E943D380F900F9000
S11349300F900F9080ED98E00E94432F8A838A8124
S11349400E9459319C0180ED98E0892F8F9380ED6E
S113495098E08F93832F8F93822F8F9382E193E03C
S1134960892F8F9382E193E08F930E943D380F90BB
S11349700F900F900F900F900F9080ED98E00E9491
S11349805F2F0E945931292F2F938F9380ED98E048
S1134990892F8F9380ED98E08F9386E293E0892F9F
S11349A08F9386E293E08F930E943D380F900F908F
S11349B00F900F900F900F9040ED58E06BE373E071
S11349C08CE593E00E9438310E945931292F2F93AE
S11349D08F9380ED98E0892F8F9380ED98E08F93EB
S11349E08BE393E0892F8F938BE393E08F938CE594
S11349F093E0892F8F938CE593E08F938DE693E07A
S1134A00892F8F938DE693E08F930E943D388DB765
S1134A109EB70A960FB6F894DEBF0FBECDBF0E94B4
S1134A20922F0E945931292F2F938F9383EA93E079
S1134A30892F8F9383EA93E08F930E943D380F90E0
S1134A400F900F900F9081E00E9453300E945931D3
S1134A50292F2F938F9382EB93E0892F8F9382EBEF
S1134A6093E08F930E943D380F900F900F900F901A
S1134A7085E0898380E00E94982F8A838A810E943E
S1134A8059319C018981882F90E0432F4F932F93B4
S1134A90292F2F938F9383ED93E0892F8F9383EDA9
S1134AA093E08F930E943D380F900F900F900F90DA
S1134AB00F900F908A81883071F080E00E94DA2D87
S1134AC08FE290E00E94E913898181508983898172
S1134AD0882381F601C000008A81883021F481E0B6
S1134AE00E94BC2D09C081E00E94CB2D80E00E9471
S1134AF0952D0E949D05FDCF0F900F90DF91CF91D2
S1134B000895CF93DF93CDB7DEB780E031D27894A8
S1134B1081E00E94D5079093B10A8093B00A43E0E4
S1134B2060E081E00E941B079093AD0A8093AC0A79
S1134B308091AC0A9091AD0A20E040E050E060E042
S1134B4070E00E94F30741E060E070E08CE090E0E8
S1134B500E94A40C9093AF0A8093AE0A80E0D9D54A
S1134B6081E00E94E12E8091AC0A9091AD0ABC01D3
S1134B7084EF93E000DE2CD6882341F48091AC0AC4
S1134B809091AD0ABC018AE094E0F5DD69E171E041
S1134B9083E00E9482328091AC0A9091AD0ABC01FC
S1134BA089E294E0E8DD0000DF91CF910895CF938E
S1134BB0DF93CDB7DEB72C970FB6F894DEBF0FBEE8
S1134BC0CDBF9C878B8781E00E941D2F82E090E0FF
S1134BD00E94E91380E00E941D2F86E990E00E9464
S1134BE0E9130E94DA2E75DE84E08093350982E0B1
S1134BF0809334098091B00A9091B10A60E070E02A
S1134C000E94A30981E792E00E94E9138091AE0A11
S1134C109091AF0ABE01695F7F4F20E030E044E02D
S1134C2050E00E94420F9E838D831A8219822BC00A
S1134C301C821B821AC08F819885892F990F990B2A
S1134C40282F8B819C818A5C964FFC0120838B8169
S1134C509C8101962F8138858A5C964FFC012083C4
S1134C608B819C8102969C838B8380913509282FAC
S1134C7030E08B819C8182179307ECF289819A81C1
S1134C8001969A83898329813A818D819E8128178F
S1134C90390770F283E0A0D764E379E081E00E94F1
S1134CA0BB2F0E945931292F2F938F938EE394E0C9
S1134CB0892F8F938EE394E08F930E943D380F9059
S1134CC00F900F900F9096CFCF93DF931F921F9268
S1134CD0CDB7DEB79A8389838091B00A9091B10AE7
S1134CE06FEF7FEF0E94A3090E94B1328823A1F3E2
S1134CF08091AC0A9091AD0ABC0183E594E03BDD60
S1134D00EBCFCF93DF9300D000D0CDB7DEB79E8337
S1134D108D8382E090E09A8389831C821B82809138
S1134D20B00A9091B10A6FEF7FEF0E94A30967D593
S1134D30882341F08091AC0A9091AD0ABC018FE6C2
S1134D4094E019DD86E090E00E94E9136CD5882395
S1134D5049F08091AC0A9091AD0ABC018FE894E0CF
S1134D600ADD33C082E190E00E94E91387D59C8379
S1134D708B838091AC0A9091AD0A6FEF7FEF0E9414
S1134D80A3092B813C8189819A81432F4F932F93CF
S1134D90292F2F938F9383EB94E0892F8F9383EBA9
S1134DA094E08F930E943D380F900F900F900F90D6
S1134DB00F900F908091AC0A9091AD0A20E040E0F2
S1134DC050E060E070E00E94F3078091AE0A909199
S1134DD0AF0A20E030E044E050E0BE016F5F7F4F57
S1134DE00E94930D8091AC0A9091AD0ABC0189EDAB
S1134DF094E0C1DC94CFCF93DF93CDB7DEB72A978D
S1134E000FB6F894DEBF0FBECDBF9A878987809115
S1134E10B00A9091B10A6FEF7FEF0E94A3098091CD
S1134E20AE0A9091AF0ABE016B5F7F4F20E030E085
S1134E3044E050E00E94420F9C838B831A821982C3
S1134E4039C086E090E00E94E9138091AC0A909109
S1134E50AD0A6FEF7FEF0E94A3092F8138858D8102
S1134E609E81432F4F932F93292F2F938F9382E06B
S1134E7095E0892F8F9382E095E08F930E943D38CF
S1134E800F900F900F900F900F900F908091AC0A9D
S1134E909091AD0A20E040E050E060E070E00E94B4
S1134EA0F30781E090E00E94E91389819A810196D9
S1134EB09A83898329813A818B819C8128173907B8
S1134EC008F4BFCFA4CF0F931F93CF93DF93CDB735
S1134ED0DEB717DE81E074DCB8DC0E94EE14AC01AE
S1134EE08091AA0A9091AB0A00E010E020E030E043
S1134EF061E00E94CB1E0E94EE14AC018091A60AD0
S1134F009091A70A00E010E020E030E061E00E9408
S1134F10CB1E0E94EE14AC018091A80A9091A90ABC
S1134F2000E010E020E030E061E00E94CB1E0E942F
S1134F300914FFCFCF93DF931F92CDB7DEB7BE0125
S1134F406F5F7F4F80914A0990914B094FD1811136
S1134F50F6CF898190E00F90DF91CF910895682F6B
S1134F6080914A0990914B09CCD080E090E008955B
S1134F708F929F92AF92CF92EF920F93812C912CAC
S1134F806894AA24A7F86894CC24C7F8E12C00E01C
S1134F9023E040E051EE60E070E013D090934B09C1
S1134FA080934A09ECECFAE086E092E091838083F6
S1134FB0938382830F91EF90CF90AF909F908F90C7
S1134FC008952F923F924F925F926F927F928F92A9
S1134FD09F92AF92CF92EF92FF920F931F93CF9332
S1134FE0DF93CDB7DEB7F82E2A013B0188E090E0CD
S1134FF00E94DE368C018F2D90E0880F991FFC01F2
S1135000E45BF64F11830083FC01EC5EFD4F80816D
S11350109181D8018D939C936C2D70E084E090E095
S11350200E94C4361C0161E070E086E090E00E94BA
S1135030C4367C014C2DB1014DD3F801F582E482D4
S11350406A2D70E084E090E00E94C4361C0161E0A7
S113505070E086E090E00E94C4367C014A2DB101E4
S113506039D3D8011396FC92EE92129717969C921C
S11350708E921697FFB6F894ED91FC91119736979E
S11350808081826080838D909C90C301B2010E94D4
S1135090AB3520E030E040E051E40E9461369B01F2
S11350A0AC0160E074E284E79BE40E94123520E0E6
S11350B030E040E85FE30E94A9340E947F35F401A8
S11350C032976083D801ED91FC911197359788E967
S11350D08083ED91FC91349786E08083FFBEC80104
S11350E0DF91CF911F910F91FF90EF90CF90AF90F0
S11350F09F908F907F906F905F904F903F902F90F4
S11351000895CF93DF93EC01EA81FB81938182813F
S11351102581981B922384819817A1F09381269569
S11351202923A081B181A20FB11D6C939F5F2581BA
S113513092239383E881F98135978081806280830B
S113514080E001C082E0DF91CF910895EF92FF9259
S11351500F931F93CF93DF937C01DC011296ED91A3
S1135160FC91139793818281981B85819823848174
S1135170891B861798F1662341F1842F952FDC0152
S11351806150462F50E04F5F5F4F480F591FE701B2
S1135190EA81FB81938182812581981B92238481FA
S11351A0981779F08C9193812695292360817181D8
S11351B08B01020F111DE80188839F5F858198236D
S11351C093831196A417B50711F7D701ED91FC91BC
S11351D0359780818062808380E001C082E0DF9126
S11351E0CF911F910F91FF90EF900895DC011496D9
S11351F0ED91FC91159793818281981789F09281A2
S1135200858186958923A081B181A80FB11D8C91D8
S1135210DB018C939F5F85819823928380E00895BE
S113522083E008951F920F920FB60F9211240BB6CC
S11352300F922F933F934F935F936F937F938F932B
S11352409F93AF93BF93CF93DF93EF93FF93A0917B
S11352504C09B0914D09109711F16091C600149654
S1135260ED91FC911597938182812581981B92235E
S11352708481981761F0838126952823C081D18188
S1135280C20FD11D68838F5F95818923838316960E
S1135290ED91FC911797309711F0CD011995FF917D
S11352A0EF91DF91CF91BF91AF919F918F917F91BA
S11352B06F915F914F913F912F910F900BBE0F9083
S11352C00FBE0F901F9018951F920F920FB60F925A
S11352D011240BB60F922F938F939F93AF93BF9389
S11352E0EF93FF93E0914C09F0914D093097B9F099
S11352F00280F381E02D938182819817B1F092812D
S11353008581282F26952923A081B181A20FB11D63
S11353102C919F5F892382832093C6000BC0E1EC0C
S1135320F0E080818F7D808305C0E1ECF0E0808136
S11353308F7D8083FF91EF91BF91AF919F918F916A
S11353402F910F900BBE0F900FBE0F901F901895CA
S11353501F920F920FB60F9211240BB60F922F9338
S11353603F934F935F936F937F938F939F93AF93E9
S1135370BF93CF93DF93EF93FF93A0914E09B09126
S11353804F09109711F16091CE001496ED91FC91A4
S11353901597938182812581981B92238481981784
S11353A061F0838126952823C081D181C20FD11D4C
S11353B068838F5F9581892383831696ED91FC9191
S11353C01797309711F0CD011995FF91EF91DF9167
S11353D0CF91BF91AF919F918F917F916F915F9189
S11353E04F913F912F910F900BBE0F900FBE0F90D6
S11353F01F9018951F920F920FB60F9211240BB69F
S11354000F922F938F939F93AF93BF93EF93FF9339
S1135410E0914E09F0914F093097B9F00280F38181
S1135420E02D938182819817B1F092818581282F94
S113543026952923A081B181A20FB11D2C919F5FD4
S1135440892382832093CE000BC0E9ECF0E08081B5
S11354508F7D808305C0E9ECF0E080818F7D8083BF
S1135460FF91EF91BF91AF919F918F912F910F90E9
S11354700BBE0F900FBE0F901F9018951F920F92A6
S11354800FB60F9211240BB60F922F933F934F93A5
S11354905F936F937F938F939F93AF93BF93CF93B8
S11354A0DF93EF93FF93A0915009B09151091097A6
S11354B011F16091D6001496ED91FC9115979381AA
S11354C082812581981B92238481981761F08381BE
S11354D026952823C081D181C20FD11D68838F5F97
S11354E09581892383831696ED91FC9117973097C4
S11354F011F0CD011995FF91EF91DF91CF91BF91FB
S1135500AF919F918F917F916F915F914F913F9157
S11355102F910F900BBE0F900FBE0F901F901895F8
S11355201F920F920FB60F9211240BB60F922F9366
S11355308F939F93AF93BF93EF93FF93E0915009A1
S1135540F09151093097B9F00280F381E02D9381F5
S113555082819817B1F092818581282F269529237D
S1135560A081B181A20FB11D2C919F5F89238283F9
S11355702093D6000BC0E1EDF0E080818F7D808325
S113558005C0E1EDF0E080818F7D8083FF91EF9194
S1135590BF91AF919F918F912F910F900BBE0F9060
S11355A00FBE0F901F9018951F920F920FB60F9277
S11355B011240BB60F922F933F934F935F936F93E6
S11355C07F938F939F93AF93BF93CF93DF93EF9387
S11355D0FF93A0915209B0915309109711F1609172
S11355E036011496ED91FC91159793818281258162
S11355F0981B92238481981761F083812695282330
S1135600C081D181C20FD11D68838F5F95818923A9
S113561083831696ED91FC911797309711F0CD0185
S11356201995FF91EF91DF91CF91BF91AF919F9128
S11356308F917F916F915F914F913F912F910F9037
S11356400BBE0F900FBE0F901F9018951F920F92D4
S11356500FB60F9211240BB60F922F938F939F9333
S1135660AF93BF93EF93FF93E0915209F0915309E5
S11356703097B9F00280F381E02D938182819817ED
S1135680B1F092818581282F26952923A081B181AB
S1135690A20FB11D2C919F5F892382832093360131
S11356A00BC0E1E3F1E080818F7D808305C0E1E3FD
S11356B0F1E080818F7D8083FF91EF91BF91AF9165
S11356C09F918F912F910F900BBE0F900FBE0F9053
S11356D01F901895FC01411102C00E94FF37842FCE
S11356E090E09C012150310982239323892B11F0EE
S11356F00E94FF37413810F00E94FF371282138254
S11357004483440F415045837183608380E090E07B
S11357100895E2EBFAE02AED31E3318320832DEDA5
S113572031E33383228328EE31E3358324832CEE63
S113573031E33783268322EF31E3318720872EEF4D
S113574031E33387228723E032E3358724872FE050
S113575032E3378726872FEE31E3318B208B24E128
S113576032E3338B228B21E232E3358B248B682F97
S1135770CF012FC108956530F1F4FA0180818F7350
S113578090E0982F88272181822B90931F02809389
S11357901E028281F0E48F9FC0011124FA0123814B
S11357A026952695822B90931D0280931C0281E0FE
S11357B0809354090895643051F080E090E490930C
S11357C01D0280931C0290931F0280931E02089571
S11357D00F931F930BEB1BE220E034E244EF50E005
S11357E060E087E2FFD6909356098093550921E043
S11357F0892B09F020E0822F1F910F910895809149
S1135800550990915609009751F040E060E070E02E
S11358103AD7843031F41092540980E0089582E03C
S1135820089583E008958091550990915609009751
S113583031F064E074D7853021F083E0089582E08C
S1135840089580E0089560911C0270911D0280E02B
S113585090E00E94AB3520E030E045E253E40E9442
S1135860613620E038EF4FE756E40E94123520E01D
S113587030E040E252E40C94A9340895E4DF20E0DF
S113588030E040E251E40E9461360E947A35CB0157
S11358900895CF93DF9390E0FC01EE0FFF1FE80F14
S11358A0F91FEE0FFF1FE95AF64F238121110AC099
S11358B0EF01E091BA0AF091BB0A6A81888199816B
S11358C0199512C0DC01AA0FBB1FED01C80FD91F27
S11358D0CC0FDD1FC95AD64FE091C40AF091C50A16
S11358E06A81888199811995DF91CF910895CF9329
S11358F0DF9390E0FC01EE0FFF1FE80FF91FEE0F9E
S1135900FF1FE95AF64F238121110AC0EF01E091EC
S1135910C40AF091C50A6A8188819981199512C0D7
S1135920DC01AA0FBB1FED01C80FD91FCC0FDD1F6F
S1135930C95AD64FE091BA0AF091BB0A6A818881AC
S113594099811995DF91CF91089589E795E00E9497
S113595050380F2EF2EBCF2EFAE0DF2EF02D04E0BC
S1135960C7E5D9E010E08C81813069F0E8F082303D
S113597039F5D6011C96ED91FC911D976A818881B9
S1135980998119951DC08D818F5F8A3010F48D83A4
S113599017C01D82D6011C96ED91FC911D976A815A
S11359A08881998119950CC08D81882331F0812FCC
S11359B09EDF8D8181508D8303C00C83812F69DF2D
S11359C01F5F2696143079F685E090E00E94E91373
S11359D0C7CFCF92DF92EF92FF920F931F93CF9393
S11359E0DF93062F0F2EF2EBEF2EFAE0FF2EF02DB1
S11359F0D7011896ED91FC91199766E087E290E043
S1135A001995C7E5D9E00F2EF8E2CF2ED12CF02D51
S1135A10D982C88286E08A831B8214E01C8380E0DA
S1135A2038DFD7011896ED91FC91199767E087E26A
S1135A3090E01995DF82CE8287E0888719861A87DD
S1135A4081E027DFD7011896ED91FC91199765E065
S1135A5083E390E01995D7011896ED91FC9119977D
S1135A6061E084E390E0199584E390E09D878C875E
S1135A7085E08E871F86188B82E00BDFD70118968E
S1135A80ED91FC91199764E081E091E01995D701BB
S1135A901896ED91FC91199761E082E091E01995D7
S1135AA082E091E09B8B8A8B1C8B1D8A1E8B83E08A
S1135AB0F0DEE12CF12C20E030E040EC50E060E935
S1135AC075E085EA9CE20E941812DF91CF911F9144
S1135AD00F91FF90EF90DF90CF9008950F931F9355
S1135AE0CF93DF93C82FD0E08E01000F111FD80190
S1135AF0AC0FBD1FAA0FBB1FA95AB64FE091BE0A37
S1135B00F091BF0A12966C9112978D919C91199500
S1135B10C00FD11FCC0FDD1FC95AD64F81E08C8333
S1135B20DF91CF911F910F9108950F931F93CF93FE
S1135B30DF93C82FD0E08E01000F111FD801AC0FE6
S1135B40BD1FAA0FBB1FA95AB64FE091BE0AF09120
S1135B50BF0A12966C9112978D919C911995C00F62
S1135B60D11FCC0FDD1FC95AD64F82E08C83DF9141
S1135B70CF911F910F910895282F30E0F901EE0F76
S1135B80FF1FE20FF31FEE0FFF1FE95AF64F93E0DA
S1135B909483ADCE0895282F30E0F901EE0FFF1F56
S1135BA0E20FF31FEE0FFF1FE95AF64F94E09483C0
S1135BB070CE089590E0FC01EE0FFF1FDF01A80FE7
S1135BC0B91FAA0FBB1FA95AB64F24E015962C93F0
S1135BD01597FD011482089590E0FC01EE0FFF1F5C
S1135BE0DF01A80FB91FAA0FBB1FA95AB64F21E0A6
S1135BF015962C931597FD01148208950F931F9306
S1135C00CF93DF931F921F92CDB7DEB78C01198219
S1135C102DC0E091D309EC3250F481E08E0F8093D3
S1135C20D309F0E0ED5FF54F8A81808302C01092C2
S1135C30D3098A818A30D1F44091D30950E0FA0122
S1135C40EF5FF54F1082415051099E012F5F3F4F86
S1135C5063E07AE08091D4099091D5090E945A0EAC
S1135C60898181110E949D051092D309BE016E5F46
S1135C707F4FC801BBDA882361F20F900F90DF9148
S1135C80CF911F910F9108950F931F93CF93DF939B
S1135C908C01EB018091D4099091D5090E94EC0C00
S1135CA0B8018FE699E00E941E38209779F0EFE65C
S1135CB0F9E001900020E9F7319780E290E09183C8
S1135CC08083BE018FE699E00E941338EFE6F9E085
S1135CD0DF010D900020E9F711978DE09AE011960D
S1135CE09C938E9312961C9201900020E9F73197B1
