:10000000B4C10000D3C10000D1C10000CFC10000C5
:10001000CDC10000CBC10000C9C10000C7C10000B4
:10002000C5C10000C3C10000C1C10000BFC10000C4
:100030003BC40000BBC10000B9C10000B7C1000053
:10004000B5C10000B3C10000B1C10000AFC10000E4
:10005000ADC10000ABC10000A9C10000A7C10000F4
:10006000A5C100000C9497100C94E9109FC10000EA
:100070009DC100009BC1000099C1000097C1000014
:1000800095C1000093C1000091C100008FC1000024
:100090000C942D110C947F1189C1000087C10000C0
:1000A00085C1000083C1000081C100007FC1000044
:1000B0007DC100007BC1000079C1000077C1000054
:1000C00075C1000073C1000071C100000C94C31120
:1000D0000C9415126BC100000C9459120C94AB12C5
:1000E00065C1000044014401440173017B018A01A0
:1000F0004401440173017B010CEA12E00F2EF4ED80
:10010000EF2EF2E0FF2EF02D8091AB02882311F14B
:100110000FB6F8940F92D8011596ED91FC911697B1
:10012000C681D781CE01029627D28091A10281504B
:100130008093A1028091AB0281508093AB020F901B
:100140000FBE8F89988DA6D1CE01A4D18091AB022C
:100150008111DECFF7018081823008F0E2D20E9467
:10016000DF0ED2CFCF93DF9300D000D0CDB7DEB774
:10017000CE0101964C0144244394E12CF12C512CE6
:10018000C82ED92CE0910203F091030380818823CB
:1001900009F4D7C00580F681E02DA080B1800E94CF
:1001A000D409C4010E94710E8C018981811148C05B
:1001B0000A151B05B0F10E949B0AE0910203F09121
:1001C00003030580F681E02D66807780C3010296E7
:1001D000D3D1D30153968C91539782FF17C01C96AD
:1001E0006D917C911D976A0D7B1D9501A801C3013E
:1001F0000E947C0D882369F00E2D1F2D2E2D3F2D82
:10020000A501652DC3010E942A0E03C08E7FF30154
:10021000838BD3015096ED91FC915197C3011995B1
:1002200084C0452DB501601B710B8091FE02909139
:10023000FF029FD60E949B0A811177C072D275C0BF
:100240000E949B0A72C0898188230CF46EC0AC8026
:10025000BD80F50182859385892B19F0C501029631
:100260008BD1CE0106960E94710EAC01E9810E2E53
:10027000000CFF0BEA30F10508F057C08827EE5854
:10028000FF4F8F4F0C94C313D50153968C91539706
:10029000816053968C9353972A813B811C966D9174
:1002A0007C911D97620F731FC5010E947C0D8823EE
:1002B000E1F1D5015096ED91FC915197C501199549
:1002C000F501838982FF31C04A815B8184859585F0
:1002D000480F591F0E2D1F2D2E2D3F2D652DC501A9
:1002E0000E942A0E22C0D50153968C9153978E7F7F
:1002F00053968C931AC0F50183898160838B6A8140
:100300007B8175876487640F751F9A01C5010E9400
:100310007C0D0BC0D50153968C9181FD03C0C501A6
:10032000B9D003C08E7FF501838B4E2D5F2D6C2DD0
:100330007D2D8091FE029091FF02D7D4811183CF51
:1003400021CF0E94D409C4010E94710E8C018981C1
:10035000811176CFE0910003F09101038081442D5B
:100360008111452DAE2CBF2C5DCF11241FBECFEFC8
:10037000D1E2DEBFCDBF00E00CBF12E0A0E0B2E0F2
:10038000ECEEF3E300E00BBF02C007900D92A4393E
:10039000B107D9F723E0A4E9B2E001C01D92A93367
:1003A000B207E1F70E94FA0E0C94F41929CE6FEF10
:1003B0007FEF80912B0390912C0320D50E94941302
:1003C000882321F089E492E00E94171720E040E0A2
:1003D00050E060E070E080912B0390912C03A3D358
:1003E000E6CF082F192FCEE5D2E06FEF7FEF809197
:1003F0002B0390912C0302D51F930F93DF93CF9380
:100400000E94041720E040E050E060E070E080913E
:100410002B0390912C0387D30F900F900F900F9088
:10042000E4CF0F931F9307ED11E020E030E041E0AF
:100430006EE370E08DE692E00E94F40D90932E033F
:1004400080932D0380E090E030D71F910F910895A5
:10045000E8E0F1E09081907F908390818F70982BFD
:1004600090830895E8E0F1E08081807F80830895A3
:10047000CF93DF93EC0198D7CE010E94CF15EC010A
:100480000E949B0A209711F40E94E00ECE01DF919A
:10049000CF910895CF93DF93009739F0EC0184D783
:1004A000CE010E9467160E949B0ADF91CF910895AA
:1004B000FC010396928381832FEF3FEF34832383E4
:1004C000968385839087878310820895FC01118627
:1004D00010860895CF93DF939C01FB01DC011196F8
:1004E000CD91DC911297D383C2838C819D819583BA
:1004F00084838C819D81DC0113967C936E9312978B
:100500007D836C8331872087F90180818F5F8083B1
:10051000DF91CF910895CF93DF93EB01488159810B
:100520004F3F2FEF520721F4FC01A781B0850DC08A
:10053000DC01139601C0DF011296ED91FC91139737
:100540002081318142175307B0F71296ED91FC914B
:100550001397FB83EA83D583C483BD83AC8313964F
:10056000DC93CE93129799878887FC0120812F5FB7
:100570002083DF91CF910895CF93DF93FC01A08575
:10058000B185C281D381848195819D838C83C4810F
:10059000D581828193819B838A8311968D919C91D1
:1005A0001297E817F90731F48481958112969C938C
:1005B0008E931197118610868C9181508C938C911B
:1005C000DF91CF91089531E1FC013083319722E230
:1005D00020833197A3E3A0833197608331977083A1
:1005E0003197108231971082319760E8608331979C
:1005F00010823197108231971082319762E06083C8
:10060000319763E06083319764E06083319765E000
:100610006083319766E06083319767E0608331974C
:1006200068E06083319769E06083319760E16083BF
:1006300031973083319732E13083319733E1308322
:10064000319734E13083319735E13083319736E1AA
:100650003083319737E13083319738E130833197F8
:1006600039E13083319730E23083319731E23083A2
:1006700031972083319723E220833197408331974C
:100680005083319726E22083319727E220833197E8
:1006900028E22083319729E22083319720E32083C9
:1006A000319721E3208389970895A89590EC88E1FC
:1006B0000FB6F894A895809360000FBE90936000E9
:1006C000A091F802B091F902CD91CDBFDD91DEBFCE
:1006D000FF91EF91DF91CF91BF91AF919F918F915A
:1006E0007F916F915F914F913F912F911F910F914A
:1006F000FF90EF90DF90CF90BF90AF909F908F9042
:100700007F906F905F904F903F902F901F900F9031
:100710000CBE0F900BBE0F900FBE0F90089581E09E
:1007200008950F920FB6F8940F920BB60F920CB675
:100730000F921F9211242F923F924F925F926F92CD
:100740007F928F929F92AF92BF92CF92DF92EF9261
:10075000FF920F931F932F933F934F935F936F934A
:100760007F938F939F93AF93BF93CF93DF93EF9339
:10077000FF93A091F802B091F9020DB60D920EB65A
:100780000D9255D7A091F802B091F902CD91CDBF4D
:10079000DD91DEBFFF91EF91DF91CF91BF91AF91DE
:1007A0009F918F917F916F915F914F913F912F9189
:1007B0001F910F91FF90EF90DF90CF90BF90AF907F
:1007C0009F908F907F906F905F904F903F902F9071
:1007D0001F900F900CBE0F900BBE0F900FBE0F908E
:1007E00008950F920FB6F8940F920BB60F920CB6B5
:1007F0000F921F9211242F923F924F925F926F920D
:100800007F928F929F92AF92BF92CF92DF92EF92A0
:10081000FF920F931F932F933F934F935F936F9389
:100820007F938F939F93AF93BF93CF93DF93EF9378
:10083000FF93A091F802B091F9020DB60D920EB699
:100840000D9213BEC1D58111F2D6A091F802B091DC
:10085000F902CD91CDBFDD91DEBFFF91EF91DF9128
:10086000CF91BF91AF919F918F917F916F915F9148
:100870004F913F912F911F910F91FF90EF90DF903B
:10088000CF90BF90AF909F908F907F906F905F9030
:100890004F903F902F901F900F900CBE0F900BBE6B
:1008A0000F900FBE0F9008959CDF18950FB6F89427
:1008B0000F92FC01928D0F900FBE81E0911180E0AC
:1008C00008950F931F93CF93DF93EC01042F1A8D9C
:1008D0004C8D41110CC088819981892B09F042C04F
:1008E0008C819D810E94DA0C1D821C8242C0011104
:1008F00017C050E08A819B810E94F4162C8D8A815A
:100900009B81820F911D9B838A832C813D8182175D
:10091000930750F1888199819B838A8380E029C065
:1009200050E08E819F810E94F4168C8D90E091950D
:10093000819591092E813F81280F391F3F832E8396
:10094000488159812417350730F42C813D81820F6D
:10095000931F9F838E83023049F4112349F0115075
:1009600080E007C080E005C080E003C080E001C0F7
:1009700080E01F5F1A8FDF91CF911F910F91089533
:10098000FC01448D4423A9F050E026813781240FD7
:10099000351F37832683848195812817390720F0F6
:1009A0008081918197838683CB01668177810C94C6
:1009B000F4160895EF92FF920F931F93CF938C013B
:1009C0000FB6F8940F92FC01C68D1C169CF4818919
:1009D000811106C00FC0F8018189811105C00AC0CC
:1009E0007801F1E1EF0EF11CC701D8D681115ED775
:1009F000C15089F78FEFF801868F0F900FBE0FB6A9
:100A0000F8940F92C58D1C169CF48085811106C048
:100A10000FC0F8018085811105C00AC07801F8E097
:100A2000EF0EF11CC701BAD6811140D7C15089F72A
:100A30008FEFF801858F0F900FBECF911F910F910F
:100A4000FF90EF900895CF93DF93EC010FB6F894E9
:100A50000F92E881F9818B8D2C8D90E030E0829FA0
:100A6000A001839F500D929F500D11244E0F5F1FC8
:100A70005D834C831A8EFB83EA830197829FA001DA
:100A8000839F500D929F500D1124CF01840F951F0D
:100A90009F838E838FEF8D8F8E8F61110AC0888523
:100AA000882369F0CE01089679D6882341F039DE93
:100AB00006C0CE010896FCDCCE014196F9DC0F9011
:100AC0000FBE81E0DF91CF910895FF920F931F93A6
:100AD000CF93DF93082F162FF42E6623B9F0869F4D
:100AE000C00111248196C4DCEC01009741F414C0CC
:100AF0000B8F1C8F61E0CE01A6DFF8A20DC081969E
:100B000099838883F5CFD983C883F2CF81E290E0BF
:100B1000AFDCEC01892BB9F7CE01DF91CF911F91AA
:100B20000F91FF9008959F92AF92BF92CF92DF9264
:100B3000EF92FF920F931F93CF93DF9300D01F92FA
:100B40001F92CDB7DEB78C016B015D834C83A22E63
:100B5000B12C992493947C0188E0E80EF11C0FB627
:100B6000F8940F92F801928D838D981718F0F2E0A7
:100B7000AF1215C04A2DB601C801A3DEF801918954
:100B8000992339F0C801419609D6882321F0C9DD9F
:100B900002C08111C6DD0F900FBE81E045C08C817F
:100BA0009D81892B21F40F900FBE80E03DC0B110D4
:100BB00004C0CE0101963AD6B92C0F900FBEF4D3E3
:100BC0000FB6F8940F92F801858D8F3F09F4158EBA
:100BD000F801868D8F3F09F4168E0F900FBEBE016F
:100BE0006C5F7F4FCE0101962CD6811119C00FB6D4
:100BF000F8940F92F801928D838D0F900FBE981389
:100C00000BC06C817D81C701A0D5C801D3DE93D410
:100C10008111A5CF86DDA3CFC801CCDE8CD49FCFB8
:100C2000C801C8DE88D480E00F900F900F900F901D
:100C30000F90DF91CF911F910F91FF90EF90DF9078
:100C4000CF90BF90AF909F900895CF93DF93482FA0
:100C500060E081E03ADFEC01009759F01D821C82D0
:100C6000198218821E8220E040E050E060E070E0CF
:100C70005ADFCE01DF91CF910895EF92FF920F934B
:100C80001F93CF93DF938A01FC01528D338D53174D
:100C900010F02230E1F4422F7801EC011E8D11DEBC
:100CA0001F3F79F489898823A1F0CE01419676D53A
:100CB000882389F0E114F10481F081E0F701808359
:100CC0000DC0FF24F394F10EFE8E81E007C080E09A
:100CD00005C081E003C081E001C081E0DF91CF91D8
:100CE0001F910F91FF90EF9008959F92AF92BF9246
:100CF000CF92DF92EF92FF920F931F93CF93DF93E8
:100D000000D01F921F92CDB7DEB78C015B015D83CF
:100D10004C83E12C992493946C0181E1C80ED11C81
:100D20000FB6F8940F92F801F28CFF2091F0B50104
:100D3000C80126DEFA94F801F28E8085882329F016
:100D4000C80108962BD58111ECDC0F900FBE81E015
:100D500044C08C819D81892B21F40F900FBE80E0CF
:100D60003CC0E11004C0CE01019660D5E92C0F9083
:100D70000FBE1AD30FB6F8940F92F801858D8F3FEE
:100D800009F4158EF801868D8F3F09F4168E0F90A9
:100D90000FBEBE016C5F7F4FCE01019652D581110F
:100DA00013C0C80183DD882359F06C817D81C601A1
:100DB000CCD4C801FFDDBFD38111B2CFB2DCB0CF3C
:100DC000C801F8DDB8D3ACCFC801F4DDB4D3C80195
:100DD0006DDD882309F4A4CF80E00F900F900F9071
:100DE0000F900F90DF91CF911F910F91FF90EF9097
:100DF000DF90CF90BF90AF909F900895BF92CF9219
:100E0000DF92EF92FF920F931F93CF93DF9300D067
:100E10001F921F92CDB7DEB78C017D836C83B12CFE
:100E2000D12CCC24C3947C0181E1E80EF11C0FB6D7
:100E3000F8940F92D8015A968C915A978823D1F042
:100E400081505A968C935A978D919C91892B21F4BD
:100E500041D6F80195838483D80118968C91882314
:100E600029F0C80108969AD481115BDC0F900FBE5F
:100E700081E070C08C819D81892B21F40F900FBE81
:100E800080E068C0D11004C0CE010196CFD4DC2C24
:100E90000F900FBE89D20FB6F8940F92F801858D8E
:100EA0008F3F09F4158ED8015E968C915E978F3F27
:100EB00011F45E961C920F900FBEBE016C5F7F4FC7
:100EC000CE010196BED4811121C0C801EFDC882378
:100ED000C9F0F80180819181892B49F40FB6F8940B
:100EE0000F9284819581F4D4B82E0F900FBE6C813F
:100EF0007D81C7012AD4C8015DDD1DD3811197CF43
:100F000010DC95CFC80156DD16D391CFC80152DD54
:100F100012D3C801CBDC882309F489CFBB20C9F0E8
:100F20000FB6F8940F92F8018189882339F006886A
:100F3000F789E02D808164E0681B01C060E0D80182
:100F400014968D919C91159775D50F900FBE80E0EA
:100F500001C080E00F900F900F900F900F90DF91E5
:100F6000CF911F910F91FF90EF90DF90CF90BF90A6
:100F70000895CF93DF93EC010FB6F8940F928D8D07
:100F80008F3F09F41D8E8E8D8F3F09F41E8E0F90BA
:100F90000FBE8A8D811103C0CE014196E7D3CE01E9
:100FA00009DDDF91CF910895E091C002F091C10277
:100FB0008081811107C08FEF9FEF909398028093FB
:100FC00097020895E091C002F091C1020580F68178
:100FD000E02D0680F781E02D828193819093980225
:100FE000809397020895FF920F931F93CF93DF93FF
:100FF000EC01F62E00919F021091A0028091F80260
:101000009091F9020296B8DACF3F8FEFD80761F4DA
:10101000FF2051F06091F8027091F9026E5F7F4FEE
:1010200082EA92E057DA2DC0C00FD11FE091F8029A
:10103000F091F902D383C283C017D10760F46091A5
:10104000F8027091F9028091BE029091BF026E5F2A
:101050007F4F61DA16C06091F8027091F9028091B9
:10106000C0029091C1026E5F7F4F55DA8091970266
:1010700090919802C817D90720F4D0939802C09392
:101080009702DF91CF911F910F91FF9008954F929A
:101090005F926F927F928F929F92AF92BF92CF9208
:1010A000DF92EF92FF920F93CF93DF934C016B018E
:1010B0005A012901CA01DCD93C01892B09F4E4C099
:1010C0008CE290E0D5D9EC01892B99F0788E6F8A6B
:1010D000A50165EA70E0C3010E94FD1681E0A81A2F
:1010E000B1088F89988DA80EB91EC114D10421F4BE
:1010F0001FC0C301CFD9C8C0D6018C91898F8C91F4
:101100008823A1F0AE01465E5F4FF6013196B8E04C
:10111000CB0ED11CCF012191DA012D93AD01DC0161
:101120008C91882319F0EC15FD05A1F718A201C0D8
:10113000198E043008F003E00E8B0BA31CA26E0185
:10114000B2E0CB0ED11CC601C1D9CE010C96BED9DE
:10115000D987C88784E090E0801B91099D878C87A0
:10116000DB8BCA8B1EA21DA21FA218A619A61AA647
:101170001BA6A201B401C50126DA99838883E11474
:10118000F10419F0F701D183C0830FB6F8940F92E0
:101190008091A1028F5F8093A1028091F8029091CB
:1011A000F902892B89F5D093F902C093F802809156
:1011B000A102813009F038C084ED92E079D98DED3B
:1011C00092E076D986EE92E073D98FEE92E070D9F4
:1011D0008BEC92E06DD982EC92E06AD985EB92E0DB
:1011E00067D98CEA92E064D982EA92E061D98BEC0B
:1011F00092E09093C1028093C00282EC92E09093BF
:10120000BF028093BE0210C080919D0281110CC06C
:10121000E091F802F091F90296898E89891720F001
:10122000D093F902C093F802809199028F5F809366
:10123000990289A38E8990919E02981710F4809349
:101240009E0290E09C01220F331F220F331F220FBA
:10125000331F820F931FB6018C529D4F3BD90F90C5
:101260000FBE80919D02882359F0E091F802F09121
:10127000F90296898E89981728F453DA81E005C01F
:1012800081E003C081E001C08FEFDF91CF910F912A
:10129000FF90EF90DF90CF90BF90AF909F908F9096
:1012A0007F906F905F904F9008950F931F93CF930F
:1012B000DF93EC010FB6F8940F92892B21F4C091C3
:1012C000F802D091F9028E010E5F1F4FC80154D968
:1012D0008C899D89892B19F0CE010C964DD980916E
:1012E00099028F5F809399028091F8029091F902A0
:1012F000C817D90751F4B8018CEA92E0EBD8809175
:10130000AB028F5F8093AB020BC08091A102815032
:101310008093A1028F89988DBDD8CE01BBD844DEC1
:101320000F900FBE80919D02882341F08091F802BA
:101330009091F902C817D90709F4F3D9DF91CF9139
:101340001F910F910895EF92FF920F930F2EF5E9E1
:10135000EF2EF2E0FF2EF02D00E020E030E040EC38
:1013600050E067E772E08CE790E091DE8130C1F4F5
:101370001BD48130A9F4F8948FEF9FEF90939802DB
:101380008093970281E080939D021092A0021092B8
:101390009F02E091F802F091F90285A159D885D910
:1013A0000F91FF90EF900895809194028F5F80934A
:1013B000940208950FB6F8940F9280919F02909135
:1013C000A0020F900FBE0895CF92DF92EF92FF928E
:1013D0000F931F93CF93DF9380919402811195C057
:1013E000E0909F02F090A0028FEFE81AF80AF092C6
:1013F000A002E0929F02E114F104B1F48091C002D6
:101400009091C1022091BE023091BF023093C1027F
:101410002093C0029093BF028093BE0280919A02F3
:101420008F5F80939A02C0DD80919702909198021D
:10143000E816F90610F4D12C50C0D12CCC24C3945A
:10144000E091C002F091C1028081811107C08FEF4D
:101450009FEF90939802809397023FC0E091C00263
:10146000F091C1020580F681E02DC681D7818A8185
:101470009B81E816F90628F49093980280939702CE
:101480002CC08E010E5F1F4FC80176D88C899D89B4
:10149000892B19F0CE010C966FD88E8990919E02FF
:1014A000981710F480939E0290E09C01220F331F46
:1014B000220F331F220F331F820F931FB8018C524C
:1014C0009D4F08D8E091F802F091F9029E89868933
:1014D000981708F4B5CFDC2CB3CFE091F802F09167
:1014E000F902868990E0FC01EE0FFF1FEE0FFF1F4F
:1014F000EE0FFF1F8E0F9F1FFC01EC52FD4F8081EE
:10150000823048F0DD24D39406C080919C028F5F26
:1015100080939C02D12C80919B02882311F0DD24C2
:10152000D3948D2DDF91CF911F910F91FF90EF906C
:10153000DF90CF900895DF92EF92FF920F931F9369
:10154000CF93DF930FB6F8940F928091940281505D
:10155000809394028091940281115CC08091A102D9
:10156000811133C05AC0D7011596ED91FC911697A1
:10157000C681D781CE010C960E94BC028E010E5FFF
:101580001F4FC8010E94BC028E8990919E0298173D
:1015900010F480939E0290E09C01220F331F220FD3
:1015A000331F220F331F820F931FB8018C529D4FA0
:1015B0000E946A02E091F802F091F9029E89868900
:1015C000981768F0D0929B020AC0C0E0D0E00F2EBE
:1015D000F5EBEF2EF2E0FF2EF02DDD24D394F70192
:1015E00080818111C0CFCD2B09F0DEDCC0919C023F
:1015F000CC2349F0D1E0E8DE8111D0939B02C150A9
:10160000D1F710929C0280919B02882329F089D8FF
:1016100081E003C080E001C080E00F900FBEDF9149
:10162000CF911F910F91FF90EF90DF9008958091DF
:101630009402882321F081E080939B020895109208
:101640009B02E091F802F091F90285A10E9432021A
:10165000A091F802B091F902E091F802F091F9023C
:101660002D913C918789908D8217930758F0609156
:10167000F8027091F9028091F8029091F902675E88
:101680007F4FABD320919E02822F90E0FC01EE0FA2
:10169000FF1FEE0FFF1FEE0FFF1FE80FF91FEC52A9
:1016A000FD4F3081311111C02150822F90E0FC019B
:1016B000EE0FFF1FEE0FFF1FEE0FFF1FE80FF91FCA
:1016C000EC52FD4F3081332379F3AC01440F551FA9
:1016D000440F551F440F551F480F591FDA01AC52D4
:1016E000BD4F1196ED91FC9112970280F381E02D90
:1016F0001296FC93EE93119749525D4FE417F5074C
:1017000029F442815381FD0152834183FC01EE0F94
:10171000FF1FEE0FFF1FEE0FFF1F8E0F9F1FFC011D
:10172000EC52FD4F0180F281E02D868197819093EC
:10173000F9028093F80220939E02E091F802F09162
:10174000F90285A10C9428020895CF93DF93EB0151
:101750006091F8027091F902645F7F4F0E948B02E2
:1017600061E0CE0140DCDF91CF9108950F931F938C
:10177000CF938B01C42F6091F8027091F902645FDE
:101780007F4F0E946A02CC2311F00FEF1FEF6C2FE6
:10179000C80129DCCF911F910F9108950F931F93DA
:1017A000CF93DF93DC011596ED91FC911697C681DE
:1017B000D7818E01045F1F4FC8010E94BC02809137
:1017C000940281111CC00A501109C8010E94BC0278
:1017D0008E8990919E02981710F480939E0290E05B
:1017E0009C01220F331F220F331F220F331F820F42
:1017F000931FB8018C529D4F0E946A0205C0B80128
:1018000085EB92E00E946A02E091F802F091F90201
:101810009E898689891720F481E080939B0201C00C
:1018200080E0DF91CF911F910F91089520919A024E
:10183000FC01208320919F023091A00232832183FA
:101840000895CF93DF930FB6F8940F9220919F02E3
:101850003091A002DB014D915C914F3FBFEF5B07E0
:10186000E9F0EC01E981FA81A0919A02B881BA17F6
:1018700019F02E173F07A0F42E1B3F0B2417350736
:1018800040F4FB01421B530B51834083CFDF80E0C8
:1018900008C0FB011182108281E003C080E001C01A
:1018A00081E00F900FBEDF91CF91089581E080938A
:1018B0009B02089580919D02882331F080919402CB
:1018C000882321F080E0089581E0089582E0089562
:1018D0000F931F93CF93DF93FC01892B09F464C00E
:1018E0002689A091F802B091F90256968C9128179A
:1018F00008F04EC084859585992364F0A091F80284
:10190000B091F90256963C9184E090E0831B9109D6
:101910009587848730E0C901880F991F880F991F28
:10192000880F991F280F391F2C523D4F82859385B0
:101930008217930721F58F01EF012296CE010E94B5
:10194000BC02E091F802F091F9028689F801868BD9
:1019500090919E02981710F480939E0290E09C0153
:10196000220F331F220F331F220F331F820F931FAB
:10197000BE018C529D4F0E946A0281E016C0A09168
:10198000F802B091F90256968C91868B81E00DC0D9
:10199000A091F802B091F90281E023A156969C91A2
:1019A000291718F080E001C080E0DF91CF911F91EE
:1019B0000F9108950F931F93CF93DF93FC01892B11
:1019C00079F184A1815084A3268993A1291751F12B
:1019D00081112AC0EF018F010E5F1F4FC8010E94C5
:1019E000BC028BA18E8B24E030E0281B31093D879F
:1019F0002C8790919E02981710F480939E0290E09D
:101A00009C01220F331F220F331F220F331F820F1F
:101A1000931FB8018C529D4F0E946A0281E005C05D
:101A200080E003C080E001C080E0DF91CF911F9192
:101A30000F9108950F931F93CF93DF93FC01892B90
:101A400009F443C093A1961708F4962F8689891745
:101A5000E1F124A12130C9F5968B24853585332306
:101A600034F024E030E0291B31093587248790E0E9
:101A70009C01220F331F220F331F220F331F820FAF
:101A8000931F8C529D4F2285338528173907E9F41F
:101A9000EF018F010E5F1F4FC8010E94BC028E89AB
:101AA00090919E02981710F480939E0290E09C0102
:101AB000220F331F220F331F220F331F820F931F5A
:101AC000B8018C529D4F0E946A02DF91CF911F9105
:101AD0000F9108958091F8029091F902892B39F0C5
:101AE000E091F802F091F90284A18F5F84A38091C4
:101AF000F8029091F9020895FC0173836283918743
:101B000080874617570790F0421B530B84859585B5
:101B100048175907E0F4BF016E5F7F4F80910003C3
:101B2000909101030E948B0280E0089542175307B1
:101B300018F46217730768F4BF016E5F7F4F8091DE
:101B40000203909103030E948B0280E0089581E0DC
:101B5000089581E008950FB6F8940F928091FE02E7
:101B60009091FF02892BE9F48DE093E00E945802E6
:101B700084E093E00E9458028DE093E09093030389
:101B80008093020384E093E0909301038093000329
:101B900040E065E08AE00E9465059093FF02809333
:101BA000FE020F900FBE0895EF92FF920F93D3DFC6
:101BB0008091FE029091FF02892B89F00F2EFCEF9D
:101BC000EF2EF2E0FF2EF02D03E020E030E045E5BF
:101BD00050E06CE772E082EB90E059DA01C080E0FF
:101BE0000F91FF90EF9008958F929F92AF92BF92C6
:101BF000CF92DF92FF920F931F93CF93DF934C010D
:101C00005B01F42E690184E190E00E943802EC014E
:101C1000892B99F01B8A9FDF99828882BD86AC86CA
:101C2000DF86CE86198B088BCE0102960E94660253
:101C3000FF2019F08B8984608B8BCE01DF91CF91CF
:101C40001F910F91FF90DF90CF90BF90AF909F902A
:101C50008F9008950F931F93CF93DF9300D01F921F
:101C60001F92CDB7DEB7E091FE02F091FF023097F0
:101C700069F1D90169835B834A839D838C836630D4
:101C8000E4F418DE823061F420E0A801BE016F5F49
:101C90007F4F8091FE029091FF020E94930517C032
:101CA00020E040E050E0BE016F5F7F4F8091FE0278
:101CB0009091FF020E9493050AC020E0AD01BE0191
:101CC0006F5F7F4FCF010E943D0601C080E00F9003
:101CD0000F900F900F900F90DF91CF911F910F9168
:101CE0000895AF92BF92CF92DF92EF92FF920F933F
:101CF0001F93CF93DF936C015DDB7C018091FA022F
:101D00009091FB02E816F90608F047C02FC0058045
:101D1000F681E02DA080B180C681D7818E010E5F53
:101D20001F4FC8010E94BC02E889F989CE011995AC
:101D30008B8982FF1BC08C859D858A0D9B1DA816F3
:101D4000B90660F49B838A83D987C887B8018091DC
:101D50000203909103030E948B0208C000E010E090
:101D600020E030E0A50160E0CE0174DFE0910203E5
:101D7000F091030380818111CACF8091000390917B
:101D800001039093030380930203F0930103E09314
:101D9000000381E0F601808302C0F6011082F09218
:101DA000FB02E092FA02C701DF91CF911F910F91E0
:101DB000FF90EF90DF90CF90BF90AF90089508957F
:101DC000279A2F9A2FEF80E792E021508040904091
:101DD000E1F700C000001F9AF5CF279A2F9A2FEF46
:101DE00087EA91E6215080409040E1F700C0000072
:101DF0001F9AF5CF80E04BD0789461EF71E083E0DB
:101E000065D481E00E94250690932C0380932B03D8
:101E1000E12CF12C00E020E030E040EC50E064E800
:101E200072E081E192E033D981E00E94250690932F
:101E30002C0380932B03BEDA00E010E020E030E0BA
:101E4000AC0161E080912D0390912E0303DF7BDADA
:101E5000FFCFCF93DF931F92CDB7DEB7BE016F5F89
:101E60007F4F809116039091170345D18111F6CFD2
:101E7000898190E00F90DF91CF910895682F809134
:101E8000160390911703C2D080E090E008958F92DE
:101E90009F92AF92CF92EF920F93812C912C6894E6
:101EA000AA24A7F86894CC24C7F8E12C00E023E02A
:101EB00040E051EE60E070E013D090931703809300
:101EC0001603E3E3F3E086E092E09183808393835B
:101ED00082830F91EF90CF90AF909F908F90089555
:101EE0002F923F924F925F926F927F928F929F922A
:101EF000AF92CF92EF92FF920F931F93CF93DF9306
:101F0000CDB7DEB7F82E2A013B0188E090E047D636
:101F10008C018F2D90E0880F991FFC01E85EFC4F2B
:101F200011830083FC01EC5EFD4F80819181D8011B
:101F30008D939C936C2D70E084E090E016D61C018C
:101F400061E070E086E090E010D67C014C2DB1019C
:101F500046D3F801F582E4826A2D70E084E090E0D7
:101F600004D61C0161E070E086E090E0FED57C01C3
:101F70004A2DB10134D3D8011396FC92EE921297F8
:101F800017969C928E921697FFB6F894ED91FC915D
:101F9000119736978081826080838D909C90C301D9
:101FA000B201F2D420E030E040E051E47BD59B0167
:101FB000AC0160E074E284E79BE452D420E030E0BE
:101FC00040E85FE3E8D3B4D4F40132976083D801EA
:101FD000ED91FC911197359788E98083ED91FC9103
:101FE000349786E08083FFBEC801DF91CF911F91B7
:101FF0000F91FF90EF90CF90AF909F908F907F9038
:102000006F905F904F903F902F900895CF93DF9304
:10201000EC01EA81FB81938182812581981B9223C7
:1020200084819817A1F0938126952923A081B181FD
:10203000A20FB11D6C939F5F258192239383E8814A
:10204000F981359780818062808380E001C082E0E1
:10205000DF91CF910895EF92FF920F931F93CF934B
:10206000DF937C01DC011296ED91FC911397938133
:102070008281981B858198238481891B861798F11A
:10208000662341F1842F952FDC016150462F50E0EB
:102090004F5F5F4F480F591FE701EA81FB81938132
:1020A00082812581981B92238481981779F08C91E5
:1020B000938126952923608171818B01020F111D67
:1020C000E80188839F5F8581982393831196A417E5
:1020D000B50711F7D701ED91FC91359780818062AA
:1020E000808380E001C082E0DF91CF911F910F914A
:1020F000FF90EF900895DC011496ED91FC911597F7
:1021000093818281981789F09281858186958923B0
:10211000A081B181A80FB11D8C91DB018C939F5FD1
:1021200085819823928380E0089583E008951F922B
:102130000F920FB60F9211240BB60F922F933F936D
:102140004F935F936F937F938F939F93AF93BF93BF
:10215000CF93DF93EF93FF93A0911803B0911903EE
:10216000109711F16091C6001496ED91FC911597AE
:10217000938182812581981B92238481981761F035
:10218000838126952823C081D181C20FD11D688308
:102190008F5F9581892383831696ED91FC91179724
:1021A000309711F0CD011995FF91EF91DF91CF910B
:1021B000BF91AF919F918F917F916F915F914F915F
:1021C0003F912F910F900BBE0F900FBE0F901F905D
:1021D00018951F920F920FB60F9211240BB60F9203
:1021E0002F938F939F93AF93BF93EF93FF93E091C0
:1021F0001803F09119033097B9F00280F381E02DB4
:10220000938182819817B1F092818581282F26953C
:102210002923A081B181A20FB11D2C919F5F892339
:1022200082832093C6000BC0E1ECF0E080818F7DBB
:10223000808305C0E1ECF0E080818F7D8083FF9199
:10224000EF91BF91AF919F918F912F910F900BBE06
:102250000F900FBE0F901F9018951F920F920FB600
:102260000F9211240BB60F922F933F934F935F93CE
:102270006F937F938F939F93AF93BF93CF93DF938E
:10228000EF93FF93A0911A03B0911B03109711F1E4
:102290006091CE001496ED91FC9115979381828107
:1022A0002581981B92238481981761F0838126955C
:1022B0002823C081D181C20FD11D68838F5F958192
:1022C000892383831696ED91FC911797309711F02F
:1022D000CD011995FF91EF91DF91CF91BF91AF9112
:1022E0009F918F917F916F915F914F913F912F912E
:1022F0000F900BBE0F900FBE0F901F9018951F925E
:102300000F920FB60F9211240BB60F922F938F934B
:102310009F93AF93BF93EF93FF93E0911A03F091D4
:102320001B033097B9F00280F381E02D9381828105
:102330009817B1F092818581282F26952923A081B5
:10234000B181A20FB11D2C919F5F892382832093BD
:10235000CE000BC0E9ECF0E080818F7D808305C06A
:10236000E9ECF0E080818F7D8083FF91EF91BF9158
:10237000AF919F918F912F910F900BBE0F900FBE39
:102380000F901F9018951F920F920FB60F92112465
:102390000BB60F922F933F934F935F936F937F935F
:1023A0008F939F93AF93BF93CF93DF93EF93FF935D
:1023B000A0911C03B0911D03109711F16091D600FC
:1023C0001496ED91FC911597938182812581981B3C
:1023D00092238481981761F0838126952823C081F8
:1023E000D181C20FD11D68838F5F9581892383833B
:1023F0001696ED91FC911797309711F0CD01199534
:10240000FF91EF91DF91CF91BF91AF919F918F910C
:102410007F916F915F914F913F912F910F900BBEE4
:102420000F900FBE0F901F9018951F920F920FB62E
:102430000F9211240BB60F922F938F939F93AF930C
:10244000BF93EF93FF93E0911C03F0911D0330972E
:10245000B9F00280F381E02D938182819817B1F069
:1024600092818581282F26952923A081B181A20FF1
:10247000B11D2C919F5F892382832093D6000BC0CE
:10248000E1EDF0E080818F7D808305C0E1EDF0E03B
:1024900080818F7D8083FF91EF91BF91AF919F915C
:1024A0008F912F910F900BBE0F900FBE0F901F902A
:1024B00018951F920F920FB60F9211240BB60F9220
:1024C0002F933F934F935F936F937F938F939F933C
:1024D000AF93BF93CF93DF93EF93FF93A0911E032E
:1024E000B0911F03109711F1609136011496ED9190
:1024F000FC911597938182812581981B9223848179
:10250000981761F0838126952823C081D181C20F5D
:10251000D11D68838F5F9581892383831696ED9102
:10252000FC911797309711F0CD011995FF91EF911C
:10253000DF91CF91BF91AF919F918F917F916F91DB
:102540005F914F913F912F910F900BBE0F900FBE57
:102550000F901F9018951F920F920FB60F92112493
:102560000BB60F922F938F939F93AF93BF93EF93DD
:10257000FF93E0911E03F0911F033097B9F00280A2
:10258000F381E02D938182819817B1F0928185814A
:10259000282F26952923A081B181A20FB11D2C914E
:1025A0009F5F89238283209336010BC0E1E3F1E032
:1025B00080818F7D808305C0E1E3F1E080818F7DA4
:1025C0008083FF91EF91BF91AF919F918F912F9158
:1025D0000F900BBE0F900FBE0F901F901895FC012F
:1025E000411101C0FDD3842F90E09C01215031099D
:1025F00082239323892B09F0F3D3413808F0F0D3D9
:10260000128213824483440F415045837183608357
:1026100080E090E0089580912303860F8093230348
:1026200090912603913079F028F09230A9F0933000
:1026300019F108956F3F09F048C01092230381E01B
:10264000809326030895663809F03FC01092220354
:1026500082E0809326030895E091220381E08E0FAB
:1026600080932203F0E0E05EFC4F6083823069F5E6
:1026700083E08093260308959091220321E0290F9F
:1026800020932203963009F581110EC0E0E2F3E0B9
:10269000808190E0982F88272181820F911D90934F
:1026A00028038093270304C0109228031092270365
:1026B00010922603E0912403F0912503309729F02E
:1026C0008091270390912803199508958F929F92E6
:1026D000AF92CF92EF920F93CF93DF93EB010F2E38
:1026E000FBE08F2EF3E19F2EF02D6894AA24A4F82E
:1026F0006894CC24C4F8E12C00E023E040E855E2E3
:1027000060E070E0EDDB90932A0380932903D0937F
:102710002503C0932403DF91CF910F91EF90CF90C9
:10272000AF909F908F900895CF93DF93CDB7DEB792
:1027300029970FB6F894DEBF0FBECDBF89E0ECE15C
:10274000F2E09E012F5F3F4FD90101900D928A95D3
:10275000E1F71092280310922703809129039091AA
:102760002A03009731F0422F532F69E074DC80E098
:1027700001C082E029960FB6F894DEBF0FBECDBF30
:10278000DF91CF910895EE0FFF1F881F8BBF079039
:10279000F691E02D19945058BB27AA270ED048C1B6
:1027A00039D130F03ED120F031F49F3F11F41EF4C6
:1027B0002EC10EF4E095E7FB24C1E92F4AD180F346
:1027C000BA17620773078407950718F071F49EF52E
:1027D00062C10EF4E0950B2EBA2FA02D0B01B901AA
:1027E00090010C01CA01A0011124FF27591B99F087
:1027F000593F50F4503E68F11A16F040A22F232F93
:10280000342F4427585FF3CF469537952795A795E2
:10281000F0405395C9F77EF41F16BA0B620B730B89
:10282000840BBAF09150A1F0FF0FBB1F661F771FFA
:10283000881FC2F70EC0BA0F621F731F841F48F4AF
:10284000879577956795B795F7959E3F08F0B3CF35
:102850009395880F08F09927EE0F9795879508951F
:102860000CD0E6C0DED040F0D5D030F021F45F3F90
:1028700019F0C7C0511110C1CAC0EBD098F3992309
:10288000C9F35523B1F3951B550BBB27AA27621734
:102890007307840738F09F5F5F4F220F331F441F79
:1028A000AA1FA9F333D00E2E3AF0E0E830D09150B1
:1028B0005040E695001CCAF729D0FE2F27D0660F9E
:1028C000771F881FBB1F261737074807AB07B0E8DD
:1028D00009F0BB0B802DBF01FF2793585F4F2AF0F3
:1028E0009E3F510568F08DC0D7C05F3FECF3983E26
:1028F000DCF3869577956795B795F7959F5FC9F750
:10290000880F911D9695879597F90895E1E0660FD8
:10291000771F881FBB1F621773078407BA0720F051
:10292000621B730B840BBA0BEE1F88F7E0950895BA
:1029300098D088F09F5790F0B92F9927B751A0F001
:10294000D1F0660F771F881F991F1AF0BA95C9F743
:1029500012C0B13081F09FD0B1E008959CC0672FC4
:10296000782F8827B85F39F0B93FCCF386957795F3
:102970006795B395D9F73EF49095809570956195DC
:102980007F4F8F4F9F4F0895E89409C097FB3EF407
:1029900090958095709561957F4F8F4F9F4F9923AC
:1029A000A9F0F92F96E9BB279395F695879577952A
:1029B0006795B795F111F8CFFAF4BB0F11F460FFEA
:1029C0001BC06F5F7F4F8F4F9F4F16C0882311F042
:1029D00096E911C0772321F09EE8872F762F05C056
:1029E000662371F096E8862F70E060E02AF09A95F1
:1029F000660F771F881FDAF7880F9695879597F9E6
:102A0000089597F99F6780E870E060E008959FEF70
:102A100080EC089500240A94161617061806090675
:102A2000089500240A941216130614060506089544
:102A3000092E0394000C11F4882352F0BB0F40F4CC
:102A4000BF2B11F460FF04C06F5F7F4F8F4F9F4F0C
:102A5000089557FD9058440F551F59F05F3F71F08E
:102A60004795880F97FB991F61F09F3F79F08795F5
:102A70000895121613061406551FF2CF4695F1DF7E
:102A800008C0161617061806991FF1CF869571050E
:102A9000610508940895E894BB2766277727CB0142
:102AA00097F908950BD0C4CFB5DF28F0BADF18F03E
:102AB000952309F0A6CFABCF1124EECFCADFA0F348
:102AC000959FD1F3950F50E0551F629FF001729FC3
:102AD000BB27F00DB11D639FAA27F00DB11DAA1FE2
:102AE000649F6627B00DA11D661F829F2227B00D2F
:102AF000A11D621F739FB00DA11D621F839FA00DBA
:102B0000611D221F749F3327A00D611D231F849F09
:102B1000600D211D822F762F6A2F11249F57504060
:102B20008AF0E1F088234AF0EE0FFF1FBB1F661FFB
:102B3000771F881F91505040A9F79E3F510570F0B4
:102B400060CFAACF5F3FECF3983EDCF38695779594
:102B50006795B795F795E7959F5FC1F7FE2B880FAF
:102B6000911D9695879597F908950F931F93CF938D
:102B7000DF93869F8001879F100D969F100D112473
:102B8000C8010DD0EC01009721F0A80160E070E0D1
:102B900034D1CE01DF91CF911F910F9108950F9302
:102BA0001F93CF93DF938230910510F482E090E081
:102BB000E0913103F091320320E030E0A0E0B0E09A
:102BC000309719F1408151810281138148175907CB
:102BD000C8F08417950769F4109731F012960C939A
:102BE000129713961C9327C000933103109332035E
:102BF00022C02115310519F04217530718F49A0124
:102C0000BD01EF01DF01F801DBCF21153105F9F03E
:102C1000281B390B2430310580F48A819B81611592
:102C2000710521F0FB019383828304C090933203EA
:102C300080933103FE01329644C0FE01E20FF31F80
:102C40008193919322503109398328833AC020918E
:102C50002F0330913003232B41F420910202309155
:102C600003023093300320932F0320910002309110
:102C700001022115310541F42DB73EB74091040200
:102C800050910502241B350BE0912F03F091300386
:102C9000E217F307A0F42E1B3F0B2817390778F033
:102CA000AC014E5F5F4F2417350748F04E0F5F1F92
:102CB0005093300340932F038193919302C0E0E03F
:102CC000F0E0CF01DF91CF911F910F910895CF9345
:102CD000DF93009709F481C0FC01329713821282BE
:102CE000A0913103B0913203109781F4208131819A
:102CF000820F931F20912F0330913003281739073B
:102D000051F5F0933003E0932F0367C0ED0120E00D
:102D100030E0CE17DF0740F44A815B819E01411508
:102D20005105F1F0EA01F5CFD383C283408151818F
:102D3000840F951FC817D90759F488819981840F8A
:102D4000951F0296918380838A819B8193838283DE
:102D50002115310529F4F0933203E09331033DC08E
:102D6000E901FB83EA8349915991C40FD51FEC1700
:102D7000FD0761F480819181840F951F0296E9011E
:102D800099838883828193819B838A83E0E0F0E04A
:102D900012968D919C911397009719F0FD01DC011B
:102DA000F7CF8D919C9111979D012E5F3F4F820F20
:102DB000931F20912F03309130032817390769F4AE
:102DC000309729F4109232031092310302C013821B
:102DD0001282B0933003A0932F03DF91CF91089517
:102DE00081E090E0F89400C3FB01DC0102C0019097
:102DF0000D9241505040D8F70895DC0101C06D9309
:102E000041505040E0F70895CF93DF93CDB7DEB740
:102E1000AE014A5F5F4FFA0161917191AF018091FC
:102E200035039091360333D0DF91CF9108950F93FE
:102E30001F93CF93DF93E0913503F0913603238105
:102E400021FF1BC08C01D0E0C0E0F80181918F010F
:102E50006091350370913603DB011896ED91FC917A
:102E60001997882331F01995892B79F3DFEFCFEF8C
:102E7000ECCF8AE01995892B19F08FEF9FEF02C0F4
:102E80008D2F9C2FDF91CF911F910F9108952F923D
:102E90003F924F925F926F927F928F929F92AF92EA
:102EA000BF92CF92DF92EF92FF920F931F93CF9337
:102EB000DF93CDB7DEB72B970FB6F894DEBF0FBE0A
:102EC000CDBF6C017B018A01FC01178216828381D0
:102ED00081FFBFC1CE0101963C01F6019381F7014C
:102EE00093FD859193FF81917F01882309F4ADC102
:102EF000853239F493FD859193FF81917F0185326D
:102F000021F4B60190E0D6D1E8CF912C212C312CC0
:102F1000FFE1F315D8F08B3279F038F4803279F094
:102F20008332A1F4232D20611DC08D3261F08033E6
:102F300069F4232D216016C0832D8260382EE32D85
:102F4000E4603E2E2AC0F32DF8601DC037FC2DC072
:102F500020ED280F2A3040F08E32B9F436FC75C1CE
:102F6000232D2064322E19C036FE06C08AE0989EBA
:102F7000200D1124922E11C0EAE02E9E200D112466
:102F8000222EF32DF0623F2E08C08C3621F4832DC3
:102F90008068382E02C0883641F4F70193FD859190
:102FA00093FF81917F018111B3CF982F9F7D95541D
:102FB000933028F40C5F1F4F9FE399830DC0833635
:102FC00031F0833771F0833509F055C020C0F80126
:102FD000808189830E5F1F4F88248394912C530135
:102FE00012C02801F2E04F0E511CF801A080B18000
:102FF00036FE03C0692D70E002C06FEF7FEFC501A0
:103000004ED14C018201F32DFF773F2E15C02801D0
:1030100022E0420E511CF801A080B18036FE03C0B0
:10302000692D70E002C06FEF7FEFC5012DD14C011B
:10303000F32DF0683F2E820133FC19C0822D90E001
:1030400088169906A0F4B60180E290E033D12A9464
:10305000F5CFF50137FC859137FE81915F01B6010F
:1030600090E028D121102A9421E0821A910881143D
:10307000910479F7E1C0843611F0893639F5F80109
:1030800037FE07C060817181828193810C5F1F4F81
:1030900008C060817181072E000C880B990B0E5FB0
:1030A0001F4FF32DFF763F2E97FF09C09095809517
:1030B000709561957F4F8F4F9F4FF0683F2E2AE0AC
:1030C00030E0A30133D1882E861844C0853731F40F
:1030D000232D2F7EB22E2AE030E025C0932D997F3C
:1030E000B92E8F36C1F018F4883579F0AEC080372C
:1030F00019F0883721F0A9C0E92FE061BE2EB4FE97
:103100000DC0FB2DF460BF2E09C034FE0AC0292F6C
:103110002660B22E06C028E030E005C020E130E095
:1031200002C020E132E0F801B7FE07C06081718182
:10313000828193810C5F1F4F06C06081718180E0A6
:1031400090E00E5F1F4FA301F1D0882E8618FB2D53
:10315000FF773F2E36FE0DC0232D2E7FA22E891421
:1031600058F434FE0BC032FC09C0832D8E7EA82E8D
:1031700005C0B82CA32C03C0B82C01C0B92CA4FEE8
:103180000FC0FE01E80DF11D8081803321F49A2DDE
:10319000997EA92E09C0A2FE06C0B394B39404C0C0
:1031A0008A2D867809F0B394A3FC10C0A0FE06C057
:1031B000B21480F4280C922C9B180DC0B21458F451
:1031C000B60180E290E076D0B394F8CFB21418F450
:1031D0002B1802C0982C212CA4FE0FC0B60180E34E
:1031E00090E068D0A2FE16C0A1FC03C088E790E082
:1031F00002C088E590E0B6010CC08A2D867851F0B7
:10320000A1FE02C08BE201C080E2A7FC8DE2B60104
:1032100090E050D0891430F4B60180E390E04AD0B9
:103220009A94F8CF8A94F301E80DF11D8081B601DC
:1032300090E040D08110F6CF222009F44ECEB601A6
:1032400080E290E037D02A94F7CFF601868197810B
:1032500002C08FEF9FEF2B960FB6F894DEBF0FBE24
:10326000CDBFDF91CF911F910F91FF90EF90DF9035
:10327000CF90BF90AF909F908F907F906F905F9016
:103280004F903F902F900895FC0105906150704041
:103290000110D8F7809590958E0F9F1F0895FC011F
:1032A0006150704001900110D8F7809590958E0F75
:1032B0009F1F08950F931F93CF93DF93FB012381EB
:1032C00021FD03C08FEF9FEF2CC022FF16C0468167
:1032D0005781248135814217530744F4A081B1817D
:1032E0009D012F5F3F4F318320838C93268137814F
:1032F0002F5F3F4F3783268314C08B01EC01FB0106
:103300000084F185E02D1995892BE1F6D8011696F8
:103310008D919C911797019617969C938E93169773
:10332000CE01DF91CF911F910F910895FA01AA2745
:10333000283051F1203181F1E8946F936E7F6E5FF8
:103340007F4F8F4F9F4FAF4FB1E03ED0B4E03CD0A6
:10335000670F781F891F9A1FA11D680F791F8A1F89
:10336000911DA11D6A0F711D811D911DA11D20D0F0
:1033700009F468943F912AE0269F11243019305DAA
:103380003193DEF6CF010895462F4770405D41939B
:10339000B3E00FD0C9F7F6CF462F4F70405D4A33E8
:1033A00018F0495D31FD4052419302D0A9F7EACFB0
:1033B000B4E0A6959795879577956795BA95C9F7DF
:1033C00000976105710508959B01AC010A2E0694D2
:1033D0005795479537952795BA95C9F7620F731F8B
:0C33E000841F951FA01D0895F894FFCFD6
:1033EC0000003903200000000003000000003E0F25
:1033FC00290F0000C600CE00D6003601FF01860062
:10340C000000000079FF0179A000000000E6FF0138
:10341C0079000000000086FF0187000000000078A2
:10342C00FF0188000000000000536F6D657468692F
:10343C006E672077656E742077726F6E6700434FEE
:10344C0032206C6576656C3A2025640A00434F3255
:10345C002054696D65720049444C4500546D7220CE
:10346C0053766300434F322054696D65722054616A
:04347C00736B00006E
:00000001FF
