S00F000053656E736F72732E7372656328
S1130000F6C0000015C1000013C1000011C10000BA
S11300100FC100000DC100000BC1000009C10000A8
S113002007C1000005C1000003C1000001C10000B8
S1130030FDC50000FDC00000FBC00000F9C00000C9
S1130040F7C00000F5C00000F3C00000F1C00000DC
S1130050EFC00000EDC00000EBC00000E9C00000EC
S1130060E7C000000C94AA270C94FC27E1C0000010
S1130070DFC00000DDC00000DBC00000D9C000000C
S1130080D7C00000D5C00000D3C00000D1C000001C
S11300900C9440280C949228CBC000000C945A3243
S11300A0C7C00000C5C00000C3C00000C1C000003C
S11300B0BFC00000BDC00000BBC00000B9C000004C
S11300C0B7C00000B5C00000B3C000000C94D6282F
S11300D00C942829ADC000000C946C290C94BE2902
S11300E0A7C00000A11FA11FA11FEC1FF81F1E2005
S11300F0A11FA11FEC1FF81F7C32EC32EC32EC3252
S1130100EC32EC32EC32EC327C32EC32EC32EC326B
S1130110EC32EC32EC32EC327E32EC32EC32EC3259
S1130120EC32EC32EC32EC32EC32EC32EC32EC32DB
S1130130EC32EC32EC32EC327E32EC32EC32EC3239
S1130140EC32EC32EC32EC32EC32EC32EC32EC32BB
S1130150EC32EC32EC32EC32E832EC32EC32EC32AF
S1130160EC32EC32EC32EC32B332EC32EC32EC32D4
S1130170EC32EC32EC32EC32EC32EC32EC32EC328B
S1130180EC32EC32EC32EC32A732EC32EC32EC32C0
S1130190EC32EC32EC32EC32CB32CF93DF931F9261
S11301A01F92CDB7DEB79A8389830E94F41680919B
S11301B00408823008F04FD40E942421F6CFCF9354
S11301C0DF9300D01F921F92CDB7DEB79D838C833F
S11301D0CE0103960E948F1E9A8389832B81898185
S11301E09A81622F0E943A1E0E94601FF1CF11244F
S11301F01FBECFEFD1E2DEBFCDBF00E00CBF18E0E1
S1130200A0E0B2E0EAEEF3E700E00BBF02C0079023
S11302100D92A230B107D9F72AE0A2E0B8E001C0FC
S11302201D92A838B207E1F70E9417260C94F339FF
S1130230E7CECF93DF931F921F92CDB7DEB79A8399
S1130240898389819A819093590A8093580A00007E
S11302500F900F90DF91CF910895CF93DF931F926A
S11302601F92CDB7DEB79A8389838091600A9091FB
S1130270610A20E040E050E060E070E042D6809106
S1130280620A9091630A20E040E050E060E070E090
S113029038D68091640A9091650A20E040E050E0ED
S11302A060E070E02ED600000F900F90DF91CF91A8
S11302B00895CF93DF931F92CDB7DEB7898388E08B
S11302C091E028E031E0F9012081207FFC012083C6
S11302D088E091E028E031E0F9012081322F298182
S11302E02F70232BFC01208300000F90DF91CF910E
S11302F00895CF93DF931F92CDB7DEB7898388E04B
S113030091E028E031E0F9012081207FFC01208385
S113031000000F90DF91CF910895CF93DF9300D029
S11303201F92CDB7DEB79C838B830E9413138B81FE
S11303309C810E9476359A8389830E942013898147
S11303409A81892B11F40E942C2189819A810F9022
S11303500F900F900F90DF91CF910895CF93DF937B
S11303601F921F92CDB7DEB79A83898389819A81C0
S1130370892B41F00E94131389819A810E940E36C1
S11303800E94201300000F900F90DF91CF910895E9
S1130390CF93DF931F921F92CDB7DEB79A838983E1
S11303A089819A819C012D5F3F4F89819A81FC014B
S11303B03283218389819A812FEF3FEFFC013483BB
S11303C0238389819A819C012D5F3F4F89819A8182
S11303D0FC013683258389819A819C012D5F3F4FDF
S11303E089819A81FC013087278389819A81FC0164
S11303F0108200000F900F90DF91CF910895CF935A
S1130400DF931F921F92CDB7DEB79A8389838981C8
S11304109A81FC011186108600000F900F90DF91E5
S1130420CF910895CF93DF9300D000D0CDB7DEB73E
S11304309C838B837E836D838B819C81FC01818172
S113044092819A8389838D819E8129813A81FC01DD
S11304503383228389819A81FC01248135818D81B2
S11304609E81FC013583248389819A81FC018481E6
S113047095812D813E81FC013383228389819A8178
S11304802D813E81FC01358324838D819E812B81C6
S11304903C81FC01318720878B819C81FC01808118
S11304A021E0280F8B819C81FC012083000026968B
S11304B00FB6F894DEBF0FBECDBFDF91CF91089584
S11304C0CF93DF93CDB7DEB728970FB6F894DEBF8E
S11304D00FBECDBF9E838D8378876F838F81988570
S11304E0FC01808191819C838B838B819C8101960B
S11304F041F48D819E81FC01878190859A83898353
S11305001AC08D819E8103969A83898307C089814D
S11305109A81FC01828193819A83898389819A815A
S1130520FC0182819381FC01208131818B819C813A
S11305308217930760F789819A81FC0122813381B4
S11305408F819885FC01338322838F819885FC01F8
S1130550828193812F813885FC01358324838F81A7
S1130560988529813A81FC013583248389819A8184
S11305702F813885FC01338322838F8198852D81D7
S11305803E81FC01318720878D819E81FC01808121
S113059021E0280F8D819E81FC0120830000289694
S11305A00FB6F894DEBF0FBECDBFDF91CF91089593
S11305B0CF93DF9300D01F92CDB7DEB79C838B839C
S11305C08B819C81FC01808591859A8389838B81B1
S11305D09C81FC01828193812B813C81F9012481DE
S11305E03581FC01358324838B819C81FC018481CA
S11305F095812B813C81F90122813381FC01338374
S1130600228389819A81FC01218132818B819C81A1
S11306102817390751F48B819C81FC012481358191
S113062089819A81FC01328321838B819C81FC0125
S11306301186108689819A81FC0180812FEF280F11
S113064089819A81FC01208389819A81FC018081BE
S11306500F900F900F900F90DF91CF910895CF934B
S1130660DF93CDB7DEB728970FB6F894DEBF0FBE81
S1130670CDBF9C838B837E836D8358874F838B810F
S11306809C8121E1FC0120838B819C8101979C83C7
S11306908B838B819C8122E2FC0120838B819C8152
S11306A001979C838B838B819C8123E3FC012083B2
S11306B08B819C8101979C838B838D819E819A83FE
S11306C0898329818B819C81FC0120838B819C817E
S11306D001979C838B8389819A81892F99279A8397
S11306E0898329818B819C81FC0120838B819C815E
S11306F001979C838B838B819C81FC0110828B816D
S11307009C8101979C838B838B819C81FC0110824B
S11307108B819C8101979C838B838B819C8120E8B6
S1130720FC0120838B819C8101979C838B838B812B
S11307309C81FC0110828B819C8101979C838B831B
S11307408B819C81FC0110828B819C8101979C830D
S11307508B838B819C81FC0110828B819C8101970E
S11307609C838B838B819C8122E0FC0120838B8181
S11307709C8101979C838B838B819C8123E0FC016A
S113078020838B819C8101979C838B838B819C81AB
S113079024E0FC0120838B819C8101979C838B83C3
S11307A08B819C8125E0FC0120838B819C810197B6
S11307B09C838B838B819C8126E0FC0120838B812D
S11307C09C8101979C838B838B819C8127E0FC0116
S11307D020838B819C8101979C838B838B819C815B
S11307E028E0FC0120838B819C8101979C838B836F
S11307F08B819C8129E0FC0120838B819C81019762
S11308009C838B838B819C8120E1FC0120838B81E1
S11308109C8101979C838B838B819C8121E1FC01CA
S113082020838B819C8101979C838B838B819C810A
S113083022E1FC0120838B819C8101979C838B8323
S11308408B819C8123E1FC0120838B819C81019716
S11308509C838B838B819C8124E1FC0120838B818D
S11308609C8101979C838B838B819C8125E1FC0176
S113087020838B819C8101979C838B838B819C81BA
S113088026E1FC0120838B819C8101979C838B83CF
S11308908B819C8127E1FC0120838B819C810197C2
S11308A09C838B838B819C8128E1FC0120838B8139
S11308B09C8101979C838B838B819C8129E1FC0122
S11308C020838B819C8101979C838B838B819C816A
S11308D020E2FC0120838B819C8101979C838B8384
S11308E08B819C8121E2FC0120838B819C81019777
S11308F09C838B838B819C8122E2FC0120838B81EE
S11309009C8101979C838B838B819C8123E2FC01D6
S113091020838B819C8101979C838B838F81988515
S11309209A83898329818B819C81FC0120838B811B
S11309309C8101979C838B8389819A81892F992734
S11309409A83898329818B819C81FC0120838B81FB
S11309509C8101979C838B838B819C8126E2FC0183
S113096020838B819C8101979C838B838B819C81C9
S113097027E2FC0120838B819C8101979C838B83DC
S11309808B819C8128E2FC0120838B819C810197CF
S11309909C838B838B819C8129E2FC0120838B8146
S11309A09C8101979C838B838B819C8120E3FC0138
S11309B020838B819C8101979C838B838B819C8179
S11309C021E3FC0120838B819C8101979C838B8391
S11309D08B819C8128960FB6F894DEBF0FBECDBFE5
S11309E0DF91CF910895CF93DF93CDB7DEB7FFD0DA
S11309F0A0910208B0910308CD91CDBFDD91DEBF77
S1130A00FF91EF91DF91CF91BF91AF919F918F9122
S1130A107F916F915F914F913F912F911F910F9112
S1130A20FF90EF90DF90CF90BF90AF909F908F900A
S1130A307F906F905F904F903F902F901F900F90FA
S1130A400CBE0F900BBE0F900FBE0F90089581E067
S1130A50DF91CF9108950F920FB6F8940F920BB6D1
S1130A600F920CB60F921F9211242F923F924F9225
S1130A705F926F927F928F929F92AF92BF92CF922A
S1130A80DF92EF92FF920F931F932F933F934F9315
S1130A905F936F937F938F939F93AF93BF93CF9302
S1130AA0DF93EF93FF93A0910208B09103080DB672
S1130AB00D920EB60D920E94B914A0910208B09145
S1130AC00308CD91CDBFDD91DEBFFF91EF91DF91A2
S1130AD0CF91BF91AF919F918F917F916F915F91D2
S1130AE04F913F912F911F910F91FF90EF90DF90C5
S1130AF0CF90BF90AF909F908F907F906F905F90BA
S1130B004F903F902F901F900F900CBE0F900BBEF4
S1130B100F900FBE0F90089500000F920FB6F89437
S1130B200F920BB60F920CB60F921F9211242F92B4
S1130B303F924F925F926F927F928F929F92AF9269
S1130B40BF92CF92DF92EF92FF920F931F932F9356
S1130B503F934F935F936F937F938F939F93AF9341
S1130B60BF93CF93DF93EF93FF93A0910208B091CB
S1130B7003080DB60D920EB60D9283E590E0FC01CC
S1130B8010820E94CD13882311F00E94B914A09101
S1130B900208B0910308CD91CDBFDD91DEBFFF9176
S1130BA0EF91DF91CF91BF91AF919F918F917F9101
S1130BB06F915F914F913F912F911F910F91FF90F2
S1130BC0EF90DF90CF90BF90AF909F908F907F90E9
S1130BD06F905F904F903F902F901F900F900CBE9E
S1130BE00F900BBE0F900FBE0F9008950000CF938F
S1130BF0DF93CDB7DEB7A89580E090E088709927A1
S1130C00892B11F080EE01C080EC90E09770892B65
S1130C10982F88E10FB6F894A895809360000FBED2
S1130C20909360000000DF91CF91089576DF1895CE
S1130C300000CF93DF9300D01F921F92CDB7DEB791
S1130C409C838B836D838B819C819A8389830FB66C
S1130C50F8940F9289819A81FC0180819181298184
S1130C603A81F901238D422F50E029813A81F9011B
S1130C70248D222F30E0429FB001439F700D529F7C
S1130C80700D11249B01280F391F89819A81FC0161
S1130C903583248389819A81FC01128E89819A810A
S1130CA0FC012081318189819A81FC013383228373
S1130CB089819A81FC012081318189819A81FC0199
S1130CC0838D882F90E0BC016150710989819A81DC
S1130CD0FC01848D482F50E0649FC001659F900DF6
S1130CE0749F900D1124280F391F89819A81FC016A
S1130CF03783268389819A812FEFFC01258F89818F
S1130D009A812FEFFC01268F8D81882379F48981C4
S1130D109A81FC018085882389F089819A810896CB
S1130D200E94AB15882351F096DE08C089819A8110
S1130D3008962EDB89819A8141962ADB0F900FBE9B
S1130D4081E00F900F900F900F900F90DF91CF9153
S1130D5008950F931F93CF93DF93CDB7DEB72997F1
S1130D600FB6F894DEBF0FBECDBF8F836887498767
S1130D708885882319F41A8219820FC08F81482F1D
S1130D8050E08885282F30E0429FC001439F900D9A
S1130D90529F900D11249A83898389819A81819627
S1130DA0BCDA9C838B838B819C81892B99F08B810A
S1130DB09C819E838D838D819E8181969E838D836C
S1130DC02B813C818D819E8189012985AC016885B7
S1130DD08F810DD08B819C8129960FB6F894DEBF4C
S1130DE00FBECDBFDF91CF911F910F9108950F9347
S1130DF01F93CF93DF93CDB7DEB727970FB6F89441
S1130E00DEBF0FBECDBF89836A835C834B832D8392
S1130E101F830E838A81882341F48E819F812E81D2
S1130E203F81FC013183208307C08E819F812B8108
S1130E303C81FC01318320838E819F812981FC01C7
S1130E40238F8E819F812A81FC01248F8E819F8133
S1130E5061E0EFDE8E819F812D81FC0120A30000E3
S1130E6027960FB6F894DEBF0FBECDBFDF91CF91AA
S1130E701F910F910895CF93DF931F921F92CDB7C7
S1130E80DEB79A83898389819A81892BB1F089811C
S1130E909A81FC011582148289819A81FC01118254
S1130EA0108289819A81FC01168289819A8120E0CD
S1130EB040E050E060E070E024D000000F900F901C
S1130EC0DF91CF910895CF93DF9300D01F921F92AB
S1130ED0CDB7DEB78D8381E089831A824D816A8123
S1130EE0898137DF9C838B838B819C81C4DF8B81D9
S1130EF09C810F900F900F900F900F90DF91CF91E6
S1130F000895CF93DF93CDB7DEB72E970FB6F8943D
S1130F10DEBF0FBECDBF998788877B876A875D87D1
S1130F204C872E871982888599859B838A830FB67F
S1130F30F8940F928A819B81FC01228D8A819B8186
S1130F40FC01838D281718F08E858230F9F42A85E8
S1130F503B858A819B814E85B9017FD28C838A81AE
S1130F609B81FC018189882349F08A819B81419678
S1130F700E94AB15882331F06EDD04C08C81882378
S1130F8009F069DD0F900FBE81E05BC08C859D8503
S1130F90892B21F40F900FBE80E053C089818823F0
S1130FA031F4CE0105960E94181681E089830F90D2
S1130FB00FBE0E9413130FB6F8940F928A819B817F
S1130FC0FC01858D8F3F21F48A819B81FC01158E64
S1130FD08A819B81FC01868D8F3F21F48A819B81CC
S1130FE0FC01168E0F900FBE9E01245F3F4FCE0171
S1130FF00596B9010E9435168823E9F48A819B81FC
S1131000C8D3882391F02C853D858A819B810896DD
S1131010B9010E945D158A819B8140D30E942013EF
S1131020882309F084CF17DD82CF8A819B8136D350
S11310300E9420137CCF8A819B8130D30E9420138D
S113104080E02E960FB6F894DEBF0FBECDBFDF91C1
S1131050CF910895CF93DF93CDB7DEB72C970FB61A
S1131060F894DEBF0FBECDBF9F838E8379876887D8
S11310705B874A872C878E819F819B838A831C820E
S11310808A819B81FC01228D8A819B81FC01838D55
S1131090281718F08C85823081F58A819B81FC01A8
S11310A0868D8D83288539858A819B814C85B901FC
S11310B0D4D18D818F3FB9F48A819B81FC018189D0
S11310C08823C1F08A819B8141960E94AB158823B5
S11310D089F08A859B85892B69F08A859B8521E027
S11310E0FC01208307C08D818F5F282F8A819B811B
S11310F0FC01268F81E0898301C0198289812C96A5
S11311000FB6F894DEBF0FBECDBFDF91CF91089527
S1131110CF93DF93CDB7DEB72D970FB6F894DEBF2C
S11311200FBECDBF998788877B876A875D874C8789
S11311301982888599859B838A830FB6F8940F92C8
S11311408A819B81FC01828D8C838C818823F9F0B8
S11311502A853B858A819B81B9014FD28C812FEFEF
S1131160280F8A819B81FC01228F8A819B81FC014B
S11311708085882341F08A819B8108960E94AB1563
S1131180882309F068DC0F900FBE81E061C08C8574
S11311909D85892B21F40F900FBE80E059C0898171
S11311A0882331F4CE0105960E94181681E08983C4
S11311B00F900FBE0E9413130FB6F8940F928A81FA
S11311C09B81FC01858D8F3F21F48A819B81FC01E9
S11311D0158E8A819B81FC01868D8F3F21F48A8143
S11311E09B81FC01168E0F900FBE9E01245F3F4F22
S11311F0CE010596B9010E9435168823E9F48A8147
S11312009B81AAD2882391F02C853D858A819B817C
S11312104196B9010E945D158A819B813FD20E944B
S11312202013882309F089CF16DC87CF8A819B811C
S113123035D20E94201381CF8A819B812FD20E94B4
S113124020138A819B8188D2882309F476CF80E099
S11312502D960FB6F894DEBF0FBECDBFDF91CF91B0
S11312600895CF93DF93CDB7DEB72D970FB6F894DB
S1131270DEBF0FBECDBF9B878A877D876C871982AF
S11312808A859B859C838B831A820FB6F8940F9270
S11312908B819C81FC01828D8D838D81882341F11A
S11312A08D812FEF280F8B819C81FC01228F8B81F4
S11312B09C81FC0180819181892B41F40E946319F6
S11312C09C018B819C81FC01358324838B819C81CF
S11312D0FC018085882341F08B819C8108960E94C3
S11312E0AB15882309F0B7DB0F900FBE81E08AC0ED
S11312F08C859D85892B21F40F900FBE80E082C0E0
S11313008981882331F4CE0107960E94181681E062
S113131089830F900FBE0E9413130FB6F8940F9297
S11313208B819C81FC01858D8F3F21F48B819C8175
S1131330FC01158E8B819C81FC01868D8F3F21F4ED
S11313408B819C81FC01168E0F900FBE9E01245F41
S11313503F4FCE010796B9010E943516882309F044
S113136031C08B819C81F8D1882331F18B819C81A0
S1131370FC0180819181892B69F40FB6F8940F9256
S11313808B819C81FC01848195810E949A178A83B8
S11313900F900FBE2C853D858B819C814196B901B0
S11313A00E945D158B819C8179D10E942013882332
S11313B009F06BCF50DB69CF8B819C816FD10E9488
S11313C0201363CF8B819C8169D10E9420138B8170
S11313D09C81C2D1882309F458CF8A81882389F05B
S11313E00FB6F8940F928B819C8115D08E838B81DC
S11313F09C81FC01848195816E810E94C3180F90A9
S11314000FBE80E02D960FB6F894DEBF0FBECDBFA1
S1131410DF91CF910895CF93DF9300D0CDB7DEB79E
S11314209B838A838A819B81FC018189882369F05B
S11314308A819B81FC0186899789FC018081918145
S1131440982F84E0891B898301C0198289810F90B8
S11314500F900F90DF91CF910895CF93DF93CDB785
S1131460DEB727970FB6F894DEBF0FBECDBF9C83BF
S11314708B837E836D834F8319828B819C81FC01D6
S1131480828D8A838B819C81FC01848D8823B1F4B5
S11314908B819C81FC0180819181892B09F09CC006
S11314A08B819C81FC01848195810E9446188983EB
S11314B08B819C81FC01158214828EC08F818823CC
S11314C0D9F58B819C81FC01848D482F50E08B8160
S11314D09C81FC01828193812D813E81B9010E940E
S11314E09B368B819C81FC01228133818B819C8181
S11314F0FC01848D882F90E0280F391F8B819C81FB
S1131500FC01338322838B819C81FC012281338102
S11315108B819C81FC01848195812817390708F40B
S11315205BC08B819C81FC01208131818B819C81FA
S1131530FC013383228350C08B819C81FC01848D08
S1131540482F50E08B819C81FC01868197812D81FD
S11315503E81B9010E949B368B819C81FC012681CE
S113156037818B819C81FC01848D882F90E091953B
S113157081959109280F391F8B819C81FC01378348
S113158026838B819C81FC01268137818B819C8100
S1131590FC018081918128173907A8F48B819C81F3
S11315A0FC01248135818B819C81FC01848D882FF1
S11315B090E0919581959109280F391F8B819C8129
S11315C0FC01378326838F81823031F48A8188231A
S11315D019F08A8181508A838A8121E0280F8B81C6
S11315E09C81FC01228F898127960FB6F894DEBF77
S11315F00FBECDBFDF91CF910895CF93DF9300D07D
S11316001F92CDB7DEB79A8389837C836B838981EC
S11316109A81FC01848D8823C9F189819A81FC0116
S11316202681378189819A81FC01848D882F90E0FD
S1131630280F391F89819A81FC0137832683898188
S11316409A81FC012681378189819A81FC018481F8
S113165095812817390750F089819A81FC012081EE
S1131660318189819A81FC013783268389819A811A
S1131670FC01848D482F50E089819A81FC012681E8
S113168037818B819C81B9010E949B3600000F90A9
S11316900F900F900F90DF91CF910895CF93DF9328
S11316A000D01F92CDB7DEB79C838B830FB6F8941E
S11316B00F928B819C81FC01868D898312C08B8162
S11316C09C81FC018189882381F08B819C814196D6
S11316D00E94AB15882311F00E94A71689818150BE
S11316E08983898118165CF301C000008B819C8179
S11316F02FEFFC01268F0F900FBE0FB6F8940F92B8
S11317008B819C81FC01858D8A8312C08B819C8195
S1131710FC018085882381F08B819C8108960E943E
S1131720AB15882311F00E94A7168A8181508A8301
S11317308A8118165CF301C000008B819C812FEF15
S1131740FC01258F0F900FBE00000F900F900F909B
S11317500F90DF91CF910895CF93DF9300D0CDB751
S1131760DEB79B838A830FB6F8940F928A819B819C
S1131770FC01828D882319F481E0898301C01982D8
S11317800F900FBE89810F900F900F90DF91CF9132
S11317900895CF93DF9300D0CDB7DEB79B838A83C0
S11317A00FB6F8940F928A819B81FC01228D8A8165
S11317B09B81FC01838D281719F481E0898301C082
S11317C019820F900FBE89810F900F900F90DF91B7
S11317D0CF910895CF93DF93CDB7DEB727970FB698
S11317E0F894DEBF0FBECDBF9C838B837E836D8355
S11317F04F838B819C819A8389830FB6F8940F92CF
S113180089819A81FC01858D8F3F21F489819A8198
S1131810FC01158E89819A81FC01868D8F3F21F40C
S113182089819A81FC01168E0F900FBE89819A815D
S1131830FC01828D882349F489819A8141962D8106
S11318403E814F81B9010E947F1589819A8126DFEB
S1131850000027960FB6F894DEBF0FBECDBFDF9110
S1131860CF9108950F93CF93DF93CDB7DEB7289729
S11318700FB6F894DEBF0FBECDBF9D838C837F83EC
S11318806E8348878885813019F481E0898301C09B
S113189019828E819F81892B21F481E090E09F83BE
S11318A08E838C819D8101969D838C838C819D8107
S11318B040960E948D019B838A838A819B81892B18
S11318C069F08A819B81BC01605F7F4F2E813F81DB
S11318D04C815D818A819B81098130D48A819B817D
S11318E028960FB6F894DEBF0FBECDBFDF91CF911F
S11318F00F9108950F93CF93DF9300D000D0CDB70D
S1131900DEB79E838D838D819E819B838A8319821A
S11319108A819B81DC011F968C918C830FB6F8948D
S11319200F928A819B81FC0180859185892B71F5B9
S11319308A819B81DC011A968D919C911B97892B3E
S113194029F58A819B81DC011E96EC918A819B8119
S1131950DC0116962D913C9117978A819B81DC01BD
S113196014964D915C9115978A819B81DC011C969C
S11319706D917C911D978A819B810E2FDFD381E02D
S113198089838A819B812C81FC0127870F900FBE5C
S1131990898126960FB6F894DEBF0FBECDBFDF91C6
S11319A0CF910F910895CF93DF9300D000D0CDB79E
S11319B0DEB79E838D838D819E819C838B838B81F7
S11319C09C81FC01248135818B819C81FC01808177
S11319D09181820F931F9A8389838B819C81FC015F
S11319E08281938129813A81A901481B590BCA013B
S11319F09A83898389819A8101979A8389838B81C8
S1131A009C81FC012481358189819A818217930705
S1131A1068F08B819C81FC018481958129813A81C4
S1131A20A901481B590BCA019A83898389819A8128
S1131A3026960FB6F894DEBF0FBECDBFDF91CF91CF
S1131A400895EF92FF920F931F93CF93DF93CDB737
S1131A50DEB761970FB6F894DEBF0FBECDBF9B878C
S1131A608A877D876C875F874E87398B288B8A8529
S1131A709B859C838B838E859F859A8389838B81A9
S1131A809C81FC018685882F90E081709927892BA1
S1131A9029F089819A8102969A8389838B819C811A
S1131AA082DF9E838D83E981FA812D813E814E857B
S1131AB05F856C857D858B819C818F013ED0988765
S1131AC08F838F819885892B49F18B819C81F3D2F7
S1131AD09C018B819C81FC018681978128173907A1
S1131AE0E8F019868B819C81FC0180859185892B86
S1131AF0A9F08B819C81FC01808591852889398995
S1131B00790100E010E020E040E050E0BA010E94DA
S1131B10031B8B819C81FC01118610868F81988523
S1131B2061960FB6F894DEBF0FBECDBFDF91CF91A3
S1131B301F910F91FF90EF9008950F931F93CF93F0
S1131B40DF93CDB7DEB761970FB6F894DEBF0FBE53
S1131B50CDBF998788877B876A875D874C873F8756
S1131B602E87198B088B8E859F85892B11F41982FA
S1131B7033C088859985FC018685882F90E0817023
S1131B809927892BA9F481E089838C859D859D8380
S1131B908C838E859F859F838E832C813D818E814E
S1131BA09F812817390708F4C9019D878C8714C0C1
S1131BB02E853F85888999892817390760F081E047
S1131BC089839E01245F3F4F8885998542E050E0D8
S1131BD0B9013BD101C019828981882359F04C8510
S1131BE05D852A853B8588859985B9012ED19B839E
S1131BF08A8302C01B821A828A819B8161960FB6F6
S1131C00F894DEBF0FBECDBFDF91CF911F910F912E
S1131C100895EF92FF920F931F93CF93DF93CDB765
S1131C20DEB760970FB6F894DEBF0FBECDBF9A87BC
S1131C3089877C876B875E874D87388B2F8789855B
S1131C409A8598878F831A8219828F819885FC01DF
S1131C508685882F90E081709927892B29F082E06E
S1131C6090E09E838D8302C01E821D828F85988999
S1131C70892B09F43CC00FB6F8940F928F81988594
S1131C801AD29C838B832B813C818D819E81821708
S1131C90930760F080E090E00E94FE1B0E946E17A4
S1131CA09C018F819885FC01318720870F900FBE9E
S1131CB02B813C818D819E8182179307E8F08F856B
S1131CC098897C0100E010E020E030E0A90160E0A8
S1131CD070E0CB010E947D198F819885FC011186EB
S1131CE010868F819885E7D19C838B8305C08F8173
S1131CF09885E1D19C838B832B813C818D819E814E
S1131D008217930768F5ED81FE812B813C814D8517
S1131D105E856B857C858F8198858F0130D09A8311
S1131D20898389819A81892BD9F07DD48F81988583
S1131D30FC0182859385892B91F08F819885FC0124
S1131D408285938500E010E020E040E050E0BA0195
S1131D500E94221A8F819885FC011386128670D402
S1131D6089819A8160960FB6F894DEBF0FBECDBF0D
S1131D70DF91CF911F910F91FF90EF9008950F93F2
S1131D801F93CF93DF93CDB7DEB762970FB6F89466
S1131D90DEBF0FBECDBF9A8789877C876B875E873E
S1131DA04D87388B2F871A8B098B89899A89892BC0
S1131DB081F189859A85FC01808191819C838B8343
S1131DC02F85388949895A89BE01695F7F4F898582
S1131DD09A85CAD08F8198859A8389832F8538897B
S1131DE089899A89A901481B590BCA01988B8F8745
S1131DF029813A818D859E858217930770F48985A0
S1131E009A852B813C81FC01318320831A821982BB
S1131E1004C08D859E859A8389832F85388949815D
S1131E205A816B857C8589859A859ED09E838D8316
S1131E308D819E8162960FB6F894DEBF0FBECDBF32
S1131E40DF91CF911F910F910895CF93DF93CDB779
S1131E50DEB72E970FB6F894DEBF0FBECDBF9A87BC
S1131E6089877C876B875E874D8789859A85FC0186
S1131E70828193819A83898389859A85FC0124814F
S1131E80358189819A81A901481B590BCA019C8318
S1131E908B838D859E859E838D832B813C818D8153
S1131EA09E812817390708F4C90198878F8389858B
S1131EB09A85FC012485358589819A81820F931F37
S1131EC04F8158852B853C85B9010E949B362D8511
S1131ED03E858F81988582179307A8F42D853E85CA
S1131EE08F819885A901481B590B2B853C858F81CF
S1131EF09885280F391F89859A85FC0184859585E5
S1131F00B9010E949B3629813A818D859E85820F75
S1131F10931F9A83898389859A85FC01248135815D
S1131F2089819A818217930768F089859A85FC01D3
S1131F308481958129813A81A901481B590BCA01E1
S1131F409A83898389859A8529813A81FC0133831F
S1131F5022838D859E852E960FB6F894DEBF0FBE24
S1131F60CDBFDF91CF910895CF93DF93CDB7DEB787
S1131F7066970FB6F894DEBF0FBECDBF988B8F87E0
S1131F807A8B698B5C8B4B8B3E8B2D8B8D899E89D9
S1131F909C838B838B899C899E838D832B813C813D
S1131FA08D819E812817390708F4C90198878F838A
S1131FB08F819885892B09F473C08F859889FC01DA
S1131FC0808191819A8389838F859889FC012481FA
S1131FD0358189819A81A901481B590BCA019A87C5
S1131FE089878F8198859C878B8729853A858B85FE
S1131FF09C852817390708F4C9019E878D878F852A
S11320009889FC012485358589819A81280F391F97
S11320104D855E8589899A89B9010E949B362F81F5
S113202038858D859E8582179307A0F42F81388586
S11320308D859E85A901481B590B8F859889FC01C4
S11320406485758529893A898D859E85820F931FBC
S11320500E949B3629813A818F819885820F931F34
S11320609A8389838F859889FC01248135818981AC
S11320709A818217930768F08F859889FC0184817F
S1132080958129813A81A901481B590BCA019A8378
S113209089838F85988929813A81FC013183208342
S11320A08F81988566960FB6F894DEBF0FBECDBFBC
S11320B0DF91CF910895CF93DF9300D01F92CDB7D6
S11320C0DEB79C838B838B819C81FC0124813581C9
S11320D08B819C81FC0182819381820F931F9A835F
S11320E089838B819C81FC018081918129813A8142
S11320F0A901481B590BCA019A8389838B819C814E
S1132100FC012481358189819A818217930768F0C3
S11321108B819C81FC018481958129813A81A9016B
S1132120481B590BCA019A83898389819A810F902C
S11321300F900F900F90DF91CF9108950F93CF934D
S1132140DF93CDB7DEB729970FB6F894DEBF0FBE85
S1132150CDBF9A8389837C836B835E834D83388769
S11321602F83098789819A8140E150E060E070E023
S11321700E94A43689819A812B813C81FC01358798
S1132180248789819A812D813E81FC0135832483B2
S113219089819A812F813885FC013783268389813F
S11321A09A812985FC012687000029960FB6F894A8
S11321B0DEBF0FBECDBFDF91CF910F910895AF92D7
S11321C0BF92CF92DF92EF92FF920F93CF93DF9360
S11321D0CDB7DEB760970FB6F894DEBF0FBECDBFA4
S11321E09F838E83798768875B874A873D872C879F
S11321F00E87F88AEF868A859B850E948D019D83D0
S11322008C838C819D81892BB9F08CE290E00E94B3
S11322108D019A83898389819A81892B41F08981EF
S11322209A812C813D81FC01308F278B07C08C81E2
S11322309D810E94AE0102C01A82198289819A810D
S1132240892BC1F0A981BA81EF85F8892C853D8558
S11322504A855B85688579858E819F81A12CB12C07
S11322606D017F010E8519D089819A81F5D081E0B5
S11322708B8302C08FEF8B838B8160960FB6F894AB
S1132280DEBF0FBECDBFDF91CF910F91FF90EF90D6
S1132290DF90CF90BF90AF900895AF92BF92CF924E
S11322A0DF92EF92FF920F93CF93DF93CDB7DEB718
S11322B062970FB6F894DEBF0FBECDBF9D838C83AB
S11322C07F836E83598748873B872A870C87FE86DE
S11322D0ED86D88ACF86BA8AA98A8F859889FC0127
S11322E08789908D28853985A90165EA70E00E9467
S11322F0A4368F859889FC012789308D8885998536
S11323000197820F931F9B838A838E819F81892BE0
S113231069F1198221C08981882F90E02981222FB7
S113232030E04E815F81240F351FF90140812F85F4
S11323303889820F931F4996FC0140838981882F35
S113234090E02E813F81820F931FFC0180818823BE
S113235039F089818F5F898389818830E0F201C0F7
S113236000008F859889FC0110A204C08F8598898C
S1132370FC01118E8C85843010F083E08C878F856E
S113238098892C85FC01268B8F8598892C85FC01E6
S113239023A38F859889FC0114A28F8598890296BE
S11323A00E94FF018F8598890C960E94FF018F85FA
S11323B098892F853889FC01318720878C85882F5F
S11323C090E024E030E0281B390B8F859889FC01CC
S11323D0358724878F8598892F853889FC01338B2D
S11323E0228B8F859889FC0116A215A28F85988966
S11323F0FC0117A210A611A612A68F859889FC01CC
S113240013A64A855B852C813D818A819B81B90114
S11324100E942F039C018F859889FC0131832083BE
S11324208D859E85892B39F08D859E852F853889EC
S1132430FC0131832083000062960FB6F894DEBF5E
S11324400FBECDBFDF91CF910F91FF90EF90DF9042
S1132450CF90BF90AF900895CF93DF931F921F92B8
S1132460CDB7DEB79A8389830FB6F8940F92809123
S11324705A088F5F80935A0880910208909103084C
S1132480892B61F489819A819093030880930208CF
S113249080915A088130C1F465D416C080915E08D9
S11324A0882391F48091020890910308FC01268905
S11324B089819A81FC018689821730F089819A8109
S11324C09093030880930208809162088F5F809341
S11324D062082091620889819A81FC0121A3898183
S11324E09A81FC01968980915D08891730F489816D
S11324F09A81FC01868980935D0889819A81AC0167
S11325004E5F5F4F89819A81FC018689282F30E0D4
S1132510C901880F991F880F991F880F991F820F6F
S1132520931F8C5F974FBA010E9412020F900FBE47
S113253080915E08882371F08091020890910308CD
S1132540FC01268989819A81FC018689281710F467
S11325500E942B0500000F900F90DF91CF910895FA
S1132560CF93DF9300D0CDB7DEB79B838A831982E4
S11325708A819B81892B41F056D08A819B8160E0BE
S11325800E94301C5DD089838981882311F40E94C4
S11325902B0500000F900F900F90DF91CF910895BD
S11325A0EF92FF920F93CF93DF931F92CDB7DEB7D5
S11325B00F2EF5E6EF2EF8E0FF2EF02D00E020E0E0
S11325C030E040EC50E061E272E08DEC90E0F7DD49
S11325D089838981813019F40E94AA1C89838981A5
S11325E08130C9F4F8948FEF9FEF9093640880933F
S11325F0630881E080935E0810925C0810925B0887
S11326008091020890910308FC0185A196A10E9483
S113261059010E94F30400000F90DF91CF910F91B4
S1132620FF90EF900895CF93DF93CDB7DEB78091FD
S113263067088F5F809367080000DF91CF9108954A
S1132640CF93DF9300D01F92CDB7DEB71A821982E1
S11326501B820FB6F8940F92809167088150809383
S1132660670880916708882309F075C080915A082B
S1132670882309F470C049C08091430890914408AC
S1132680FC01868197819A83898389819A810C963A
S11326900E94D80289819A8102960E94D802898177
S11326A09A81FC01968980915D08891730F48981AB
S11326B09A81FC01868980935D0889819A81AC01A5
S11326C04E5F5F4F89819A81FC018689282F30E013
S11326D0C901880F991F880F991F880F991F820FAE
S11326E0931F8C5F974FBA010E94120289819A81CD
S11326F0FC0126898091020890910308FC018689D7
S1132700281718F081E08093600880913E088823A0
S113271009F0B2CF89819A81892B09F0AFD38091D6
S11327205F088C838C81882371F037D0882319F05B
S113273081E0809360088C8181508C838C81882314
S1132740A1F710925F0880916008882321F081E04E
S11327508B830E942B050F900FBE8B810F900F90DF
S11327600F900F90DF91CF910895CF93DF931F9235
S11327701F92CDB7DEB70FB6F8940F9280915B0825
S113278090915C089A8389830F900FBE89819A8106
S11327900F900F90DF91CF910895CF93DF93CDB732
S11327A0DEB729970FB6F894DEBF0FBECDBF1982EE
S11327B080916708882309F0C7C080915B089091D5
S11327C05C0801969B838A838A819B8190935C0831
S11327D080935B088A819B81892BD1F480913A088C
S11327E090913B089D838C8380913C0890913D0897
S11327F090933B0880933A088C819D8190933D0887
S113280080933C08809161088F5F8093610836D380
S113281080916308909164082A813B8128173907C5
S113282008F478C080913A0890913B08FC018081BB
S1132830882339F48FEF9FEF9093640880936308A3
S113284069C080913A0890913B08FC01858196818A
S1132850FC01868197819F838E838E819F81FC01F9
S113286082819381998788872A813B81888599858C
S11328702817390738F488859985909364088093DC
S1132880630848C08E819F8102960E94D8028E817F
S11328909F81FC0184899589892B29F08E819F81F0
S11328A00C960E94D8028E819F81FC0196898091AA
S11328B05D08891730F48E819F81FC01868980939D
S11328C05D088E819F81AC014E5F5F4F8E819F8139
S11328D0FC018689282F30E0C901880F991F880FD1
S11328E0991F880F991F820F931F8C5F974FBA010E
S11328F00E9412028E819F81FC0126898091020828
S113290090910308FC018689281708F48BCF81E095
S1132910898388CF8091020890910308FC018689FD
S1132920282F30E0C901880F991F880F991F880F3D
S1132930991F820F931F8C5F974FFC018081823017
S113294040F081E0898305C080915F088F5F8093A8
S11329505F0880916008882311F081E08983898170
S113296029960FB6F894DEBF0FBECDBFDF91CF918D
S11329700895CF93DF9300D0CDB7DEB78091670879
S1132980882321F081E08093600890C01092600851
S11329908091020890910308FC0185A196A10E94F0
S11329A079018091020890910308FC012081318112
S11329B08091020890910308FC018789908D821709
S11329C0930770F080910208909103089C01275EA0
S11329D03F4F8091020890910308B9010E94C421DD
S11329E080915D08898303C08981815089838981AD
S11329F0282F30E0C901880F991F880F991F880F6D
S1132A00991F820F931F8C5F974FFC01808188234D
S1132A1059F38981282F30E0C901880F991F880F45
S1132A20991F880F991F820F931F8C5F974F9B8369
S1132A308A838A819B81FC0181819281FC012281AC
S1132A4033818A819B81FC01328321838A819B812A
S1132A50FC01218132818A819B81039628173907E1
S1132A6069F48A819B81FC0181819281FC0122812C
S1132A7033818A819B81FC01328321838A819B81FA
S1132A80FC0181819281FC018681978190930308E6
S1132A9080930208898180935D0880910208909157
S1132AA00308FC0185A196A10E94590100000F9022
S1132AB00F900F90DF91CF910895CF93DF9300D0C3
S1132AC01F92CDB7DEB79A8389837C836B83809111
S1132AD00208909103089C01245F3F4F89819A81E9
S1132AE0B9010E9460028B819C8161E0B9D600002B
S1132AF00F900F900F900F90DF91CF910895CF9387
S1132B00DF9300D01F921F92CDB7DEB79A838983DB
S1132B107C836B834D8380910208909103089C0110
S1132B20245F3F4F89819A81B9010E9412028D81ED
S1132B30882321F08FEF9FEF9C838B838B819C8173
S1132B406D818ED600000F900F900F900F900F9014
S1132B50DF91CF910895CF93DF9300D01F921F92FE
S1132B60CDB7DEB79D838C838C819D81FC018581EB
S1132B709681FC01868197819B838A838A819B81CC
S1132B800C960E94D80280916708882369F58A818F
S1132B909B8102960E94D8028A819B81FC019689BE
S1132BA080915D08891730F48A819B81FC018689B4
S1132BB080935D088A819B81AC014E5F5F4F8A815F
S1132BC09B81FC018689282F30E0C901880F991F59
S1132BD0880F991F880F991F820F931F8C5F974F3F
S1132BE0BA010E94120208C08A819B810C96BC0122
S1132BF08EE398E00E9412028A819B81FC0126895F
S1132C008091020890910308FC018689821730F4B0
S1132C1081E0898381E08093600801C01982898101
S1132C200F900F900F900F900F90DF91CF91089518
S1132C30CF93DF931F921F92CDB7DEB79A83898318
S1132C402091610889819A81FC01208320915B088D
S1132C5030915C0889819A81FC01328321830000D0
S1132C600F900F90DF91CF910895CF93DF93CDB75D
S1132C70DEB729970FB6F894DEBF0FBECDBF9F8392
S1132C808E83798768870FB6F8940F9280915B08DA
S1132C9090915C089B838A838E819F81FC01818152
S1132CA092812A813B81A901481B590BCA019D834A
S1132CB08C8388859985FC0180819181019611F42A
S1132CC0198239C08E819F81FC01908180916108B5
S1132CD0981769F08E819F81FC01218132818A815C
S1132CE09B818217930718F081E0898324C088852B
S1132CF09985FC01208131818C819D818217930704
S1132D0098F488859985FC01208131818C819D818D
S1132D10281B390B88859985FC01318320838E819A
S1132D209F8186DF198207C088859985FC011182FD
S1132D30108281E089830F900FBE898129960FB696
S1132D40F894DEBF0FBECDBFDF91CF910895CF932E
S1132D50DF93CDB7DEB781E0809360080000DF9198
S1132D60CF910895CF93DF931F92CDB7DEB7198229
S1132D7013C08981282F30E0C901880F991F880F5B
S1132D80991F880F991F820F931F8C5F974F0E9482
S1132D90C80189818F5F89838981843050F388E2F7
S1132DA098E00E94C80181E398E00E94C8018EE384
S1132DB098E00E94C80187E498E00E94C80181E578
S1132DC098E00E94C80188E298E090933B088093C1
S1132DD03A0881E398E090933D0880933C08000012
S1132DE00F90DF91CF910895CF93DF931F921F929D
S1132DF0CDB7DEB720C00FB6F8940F9280914C087F
S1132E0090914D08FC01868197819A8389838981F9
S1132E109A8102960E94D80280915A088150809328
S1132E205A08809150088150809350080F900FBE2B
S1132E3089819A810AD0809150088823E1F60000A4
S1132E400F900F90DF91CF910895CF93DF931F924E
S1132E501F92CDB7DEB79A83898389819A81FC0159
S1132E608789908D0E94AE0189819A810E94AE016A
S1132E7000000F900F90DF91CF910895CF93DF93CF
S1132E801F921F92CDB7DEB780913A0890913B080C
S1132E90FC018081882339F48FEF9FEF90936408BD
S1132EA08093630815C080913A0890913B08FC0117
S1132EB085819681FC01868197819A8389838981A2
S1132EC09A81FC01828193819093640880936308C2
S1132ED000000F900F90DF91CF910895CF93DF936F
S1132EE01F921F92CDB7DEB780910208909103081C
S1132EF09A83898389819A810F900F90DF91CF9172
S1132F000895CF93DF931F92CDB7DEB780915E080B
S1132F10882319F481E0898308C080916708882395
S1132F2019F482E0898301C0198289810F90DF91AD
S1132F30CF910895CF93DF9300D01F921F92CDB706
S1132F40DEB79D838C838C819D819B838A831982C8
S1132F508C819D81892B09F490C08A819B81FC011D
S1132F6026898091020890910308FC01868928171C
S1132F7008F075C08A819B81FC018485958599231D
S1132F808CF08091020890910308FC018689882FB7
S1132F9090E024E030E0281B390B8A819B81FC01FE
S1132FA0358724878A819B81FC01428553858A81E8
S1132FB09B81FC018689282F30E0C901880F991F65
S1132FC0880F991F880F991F820F931F8C5F974F4B
S1132FD048175907B9F58A819B8102960E94D80245
S1132FE08091020890910308FC0126898A819B81C3
S1132FF0FC01268B8A819B81FC01968980915D0866
S1133000891730F48A819B81FC01868980935D084D
S11330108A819B81AC014E5F5F4F8A819B81FC0159
S11330208689282F30E0C901880F991F880F991FBE
S1133030880F991F820F931F8C5F974FBA010E94CC
S113304012020AC08091020890910308FC012689AB
S11330508A819B81FC01268B81E089830EC08A8151
S11330609B81FC0123A18091020890910308FC013B
S11330708689281710F481E0898389810F900F9045
S11330800F900F900F90DF91CF910895CF93DF931E
S113309000D01F921F92CDB7DEB79D838C838C81A5
S11330A09D819B838A8319828C819D81892B09F45C
S11330B061C08A819B81FC0184A12FEF280F8A8142
S11330C09B81FC0124A38A819B81FC0126898A813E
S11330D09B81FC0183A1281709F44CC08A819B8140
S11330E0FC0184A1882309F045C08A819B81029652
S11330F00E94D8028A819B81FC0123A18A819B8141
S1133100FC01268B8A819B81FC018689882F90E0B3
S113311024E030E0281B390B8A819B81FC01358730
S113312024878A819B81FC01968980915D08891797
S113313030F48A819B81FC01868980935D088A81B1
S11331409B81AC014E5F5F4F8A819B81FC01868924
S1133150282F30E0C901880F991F880F991F880F05
S1133160991F820F931F8C5F974FBA010E9412021E
S113317081E0898389810F900F900F900F900F90B9
S1133180DF91CF910895CF93DF93CDB7DEB7289722
S11331900FB6F894DEBF0FBECDBF9F838E836887C2
S11331A08E819F819B838A8381E08C838E819F8122
S11331B0892B09F47EC08A819B81FC0193A18885B7
S11331C0981718F48885898305C08A819B81FC013E
S11331D083A189838A819B81FC01968989819817BF
S11331E009F467C08A819B81FC0194A18C819817A2
S11331F009F05FC08A819B81FC0186898D838A8165
S11332009B812981FC01268B8A819B81FC01848519
S11332109585992364F08981882F90E024E030E03B
S1133220281B390B8A819B81FC01358724878A817D
S11332309B81FC01428553858D81282F30E0C90193
S1133240880F991F880F991F880F991F820F931F4A
S11332508C5F974F4817590761F58A819B810296C5
S11332600E94D8028A819B81FC01968980915D0825
S1133270891730F48A819B81FC01868980935D08DB
S11332808A819B81AC014E5F5F4F8A819B81FC01E7
S11332908689282F30E0C901880F991F880F991F4C
S11332A0880F991F820F931F8C5F974FBA010E945A
S11332B01202000028960FB6F894DEBF0FBECDBFF1
S11332C0DF91CF910895CF93DF93CDB7DEB780918F
S11332D0020890910308892B49F08091020890918B
S11332E00308FC0124A12F5FFC0124A380910208A0
S11332F090910308DF91CF910895EF92FF920F937D
S11333001F93CF93DF93CDB7DEB72D970FB6F89405
S1133310DEBF0FBECDBF6A837B838C839D832E83E8
S11333203F83488759871B870A87FD86EC860FB63B
S1133330F8940F928091020890910308FC0183A5F0
S1133340823059F16091020870910308FB0127A1B2
S113335030A541A552A58A819B81AC81BD81809510
S11333609095A095B09582239323A423B523FB01C4
S113337087A390A7A1A7B2A7809102089091030800
S113338021E0FC0123A78C859D85892B31F08C8558
S11333909D8561E065D20E942B050F900FBE0FB68C
S11333A0F8940F928A859B85892B81F0809102087D
S11333B090910308FC0187A190A5A1A5B2A52A8537
S11333C03B85F90180839183A283B38380910208B2
S11333D090910308FC0183A5823011F019821CC06E
S11333E06091020870910308FB0127A130A541A553
S11333F052A58E819F81A885B98580959095A095C9
S1133400B09582239323A423B523FB0187A390A71C
S1133410A1A7B2A781E08983809102089091030853
S1133420FC0113A60F900FBE89812D960FB6F89458
S1133430DEBF0FBECDBFDF91CF911F910F91FF90E3
S1133440EF9008950F931F93CF93DF93CDB7DEB71B
S11334502D970FB6F894DEBF0FBECDBF9E838D832C
S11334604F83588769877A872B871D870C8781E06C
S113347089838D819E819B838A830FB6F8940F92F2
S11334808C859D85892B71F08A819B81FC0187A1A4
S113349090A5A1A5B2A52C853D85F90180839183D2
S11334A0A283B3838A819B81FC0183A58C838A8157
S11334B09B8122E0FC0123A78B85882F90E082303A
S11334C0910531F18330910534F4009709F44FC02C
S11334D0019739F04DC08330910561F10497B1F142
S11334E047C08A819B81FC0127A130A541A552A533
S11334F08F819885A985BA85822B932BA42BB52B14
S11335002A813B81F90187A390A7A1A7B2A730C064
S11335108A819B81FC0187A190A5A1A5B2A50196F2
S1133520A11DB11D2A813B81F90187A390A7A1A701
S1133530B2A71EC02A813B818F819885A985BA854F
S1133540F90187A390A7A1A7B2A712C08C818230EA
S113355061F02A813B818F819885A985BA85F9011B
S113356087A390A7A1A7B2A703C0198201C0000036
S11335708C818130D1F58A819B8102960E94D80288
S11335808A819B81FC01968980915D08891730F4BA
S11335908A819B81FC01868980935D088A819B8155
S11335A0AC014E5F5F4F8A819B81FC018689282F85
S11335B030E0C901880F991F880F991F880F991F40
S11335C0820F931F8C5F974FBA010E9412028A8167
S11335D09B81FC0126898091020890910308FC01DB
S11335E08689821710F40E942B050F900FBE8981E3
S11335F02D960FB6F894DEBF0FBECDBFDF91CF91ED
S11336001F910F910895EF92FF920F931F93CF9301
S1133610DF93CDB7DEB760970FB6F894DEBF0FBE69
S1133620CDBF9F838E83488759876A877B872C8782
S11336301E870D87F88AEF8681E089838E819F81BA
S11336409B838A831C828D859E85892B71F08A8158
S11336509B81FC0187A190A5A1A5B2A52D853E85DE
S1133660F90180839183A283B3838A819B81FC01C6
S113367083A58D838A819B8122E0FC0123A78C850D
S1133680882F90E08230910531F18330910534F434
S1133690009709F44FC0019739F04DC0833091056C
S11336A061F10497B1F147C08A819B81FC0127A194
S11336B030A541A552A588859985AA85BB85822B0D
S11336C0932BA42BB52B2A813B81F90187A390A7C7
S11336D0A1A7B2A730C08A819B81FC0187A190A5D4
S11336E0A1A5B2A50196A11DB11D2A813B81F901B5
S11336F087A390A7A1A7B2A71EC02A813B81888572
S11337009985AA85BB85F90187A390A7A1A7B2A72C
S113371012C08D81823061F02A813B818885998530
S1133720AA85BB85F90187A390A7A1A7B2A703C067
S1133730198201C000008D81813009F051C080914F
S11337406708882369F58A819B8102960E94D802C2
S11337508A819B81FC01968980915D08891730F4E8
S11337608A819B81FC01868980935D088A819B8183
S1133770AC014E5F5F4F8A819B81FC018689282FB3
S113378030E0C901880F991F880F991F880F991F6E
S1133790820F931F8C5F974FBA010E94120208C0D8
S11337A08A819B810C96BC018EE398E00E941202F0
S11337B08A819B81FC0126898091020890910308EB
S11337C0FC018689821760F48F859889892B29F0FA
S11337D08F85988921E0FC01208381E08093600833
S11337E0898160960FB6F894DEBF0FBECDBFDF911E
S11337F0CF911F910F91FF90EF900895CF93DF9396
S113380000D01F921F92CDB7DEB79D838C838C812D
S11338109D81892B29F4809102089091030802C0AC
S11338208C819D819B838A830FB6F8940F928A8141
S11338309B81FC0183A5823039F48A819B81FC0140
S113384013A681E0898301C019820F900FBE89817C
S11338500F900F900F900F900F90DF91CF910895DC
S1133860CF93DF93CDB7DEB727970FB6F894DEBFBB
S11338700FBECDBF9E838D836F8380915B08909133
S11338805C089A83898380910208909103080296C8
S11338900E94D8028D819E81019671F48F818823C4
S11338A059F080910208909103080296BC0181E5C9
S11338B098E00E94120244C029813A818D819E8140
S11338C0820F931F9C838B8380910208909103083D
S11338D02B813C81FC01338322832B813C818981B0
S11338E09A812817390778F4809102089091030887
S11338F09C012E5F3F4F80913C0890913D08B90197
S11339000E9460021DC080910208909103089C01EE
S11339102E5F3F4F80913A0890913B08B9010E9475
S1133920600280916308909164082B813C81281780
S1133930390730F48B819C819093640880936308E9
S1133940000027960FB6F894DEBF0FBECDBFDF91FF
S1133950CF910895EF92FF920F93CF93DF931F922D
S1133960CDB7DEB7198240D480917E0890917F084C
S1133970892B91F00F2EF0E8EF2EF8E0FF2EF02DBA
S113398003E020E030E045E550E066E272E08FEDD0
S113399090E00E94DF10898389810F90DF91CF919D
S11339A00F91FF90EF900895EF92FF920F931F9362
S11339B0CF93DF93CDB7DEB72B970FB6F894DEBF66
S11339C00FBECDBF9C838B837E836D834F833987EA
S11339D028871B870A8784E190E00E948D019A83DF
S11339E0898389819A81892B91F089819A81FC014B
S11339F0138AE981FA814A855B85288539856D8139
S1133A007E818B819C817F018A014F810FD08981C6
S1133A109A812B960FB6F894DEBF0FBECDBFDF910F
S1133A20CF911F910F91FF90EF900895EF92FF9225
S1133A300F931F93CF93DF93CDB7DEB72B970FB6BA
S1133A40F894DEBF0FBECDBF9A8389837C836B83DA
S1133A504D833F832E8319870887FB86EA868A85F0
S1133A609B85892B79F1C0D38A859B8529813A81ED
S1133A70FC01318320838A859B852B813C81FC0159
S1133A80358724878A859B852E813F81FC01378772
S1133A9026878A859B8528853985FC01318B208B77
S1133AA08A859B8502960E94FF018D81882351F0AF
S1133AB08A859B85FC018389282F24608A859B85C0
S1133AC0FC01238B00002B960FB6F894DEBF0FBECB
S1133AD0CDBFDF91CF911F910F91FF90EF9008958B
S1133AE00F931F93CF93DF93CDB7DEB72F970FB606
S1133AF0F894DEBF0FBECDBF98878F8369875B873D
S1133B004A873D872C871F870E87198280917E08FC
S1133B1090917F08892BC9F189858A838A859B8541
S1133B209C838B838F8198859E838D838985863042
S1133B30FCF4E7D9823071F480917E0890917F087B
S1133B404E855F85BE016E5F7F4F20E00E94810736
S1133B5089831BC080917E0890917F08BE016E5FAF
S1133B607F4F20E040E050E00E94810789830DC030
S1133B7080917E0890917F084C855D85BE016E5FC3
S1133B807F4F20E00E942A08898389812F960FB6EF
S1133B90F894DEBF0FBECDBFDF91CF911F910F917F
S1133BA008950F931F93CF93DF93CDB7DEB7279775
S1133BB00FB6F894DEBF0FBECDBF9D838C837F8389
S1133BC06E8380917A0890917B08FC0185819681AF
S1133BD0FC01868197819A83898389819A810296DF
S1133BE00E94D80289819A81FC018389882F90E000
S1133BF084709927892BF9F089819A81FC012485A5
S1133C0035858C819D81B901680F791F2C813D8197
S1133C104E815F8189819A81E6D08823B1F04C81FD
S1133C205D8189819A8100E010E020E030E060E06D
S1133C3057DF8B830AC089819A81FC018389282FED
S1133C402E7F89819A81FC01238B89819A81FC01D1
S1133C502089318989819A81F90119950000279673
S1133C600FB6F894DEBF0FBECDBFDF91CF911F9189
S1133C700F910895CF93DF9300D000D0CDB7DEB776
S1133C809D838C836E830E941313CE0103967CD094
S1133C909A8389838B818823B1F58E81882381F46B
S1133CA02C813D8189819A818217930748F00E9473
S1133CB0201329813A818C819D81B90172DF25C04D
S1133CC08E81882359F080917C0890917D08FC01B5
S1133CD0908181E0992309F080E08E832C813D81DD
S1133CE089819A81281B390B80917E0890917F08E5
S1133CF04E81B9010E94EA0B0E942013882329F403
S1133D000E942B0502C00E942013000026960FB6C5
S1133D10F894DEBF0FBECDBFDF91CF910895CF934E
S1133D20DF9300D01F92CDB7DEB79C838B83809145
S1133D307A0890917B08FC01908181E0992309F035
S1133D4080E0282F8B819C81FC0120838B819C81C6
S1133D50FC018081882369F480917A0890917B0822
S1133D60FC0185819681FC01808191819A838983FC
S1133D7002C01A82198289819A810F900F900F9044
S1133D800F90DF91CF910895CF93DF9300D01F92CE
S1133D90CDB7DEB79C838B830E94B5139A83898346
S1133DA0809182089091830829813A8128173907E4
S1133DB038F47CD18B819C8121E0FC01208304C0F8
S1133DC08B819C81FC01108289819A819093830864
S1133DD08093820889819A810F900F900F900F90A1
S1133DE0DF91CF910895CF93DF93CDB7DEB72997B5
S1133DF00FB6F894DEBF0FBECDBF9B838A837D834D
S1133E006C835F834E833987288719828A819B81DB
S1133E102C813D81FC01338322838A819B812A8109
S1133E203B81FC01318720872C813D818E819F81DC
S1133E3082179307F0F02E813F8188859985281B8E
S1133E40390B8A819B81FC01848595852817390764
S1133E5018F081E089832AC08A819B819C012E5FAE
S1133E603F4F80917C0890917D08B9010E946002C7
S1133E701DC02E813F81888599852817390750F404
S1133E802C813D81888599852817390718F081E0B0
S1133E9089830CC08A819B819C012E5F3F4F809156
S1133EA07A0890917B08B9010E9460028981299661
S1133EB00FB6F894DEBF0FBECDBFDF91CF9108954A
S1133EC00F931F93CF93DF93CDB7DEB72B970FB626
S1133ED0F894DEBF0FBECDBFCEC08E8188230CF414
S1133EE0CAC089859A859A83898389819A81DC01EC
S1133EF01A968D919C911B97892B29F089819A811F
S1133F0002960E94D802CE010B963EDF9C838B83DF
S1133F108E81082E000C990B092E000CAA0BBB0BEA
S1133F2040E050E029E030E0841B950B2817390766
S1133F3008F4A0C0FC018827EE58FF4F8F4F0C9463
S1133F40393389819A81FC018389282F21608981F1
S1133F509A81DC0153962C93EF81F8852F81388563
S1133F6089819A81DC011C968D919C911D97B901E0
S1133F70680F791F4B815C8189819A819F0133DFAE
S1133F80882309F478C089819A81FC0120893189C8
S1133F9089819A81F901199589819A81DC01539665
S1133FA08C91882F90E084709927892B09F463C041
S1133FB02F81388589819A81FC0184859585A901A1
S1133FC0480F591F89819A8100E010E020E030E019
S1133FD060E086DD8D834FC089819A81DC01539630
S1133FE08C91282F2E7F89819A81FC01238B43C0D9
S1133FF089819A81DC0153968C91282F21608981D3
S11340009A81FC01238B2F81388589819A81DC0177
S11340101D963C932E931C9789819A81FC012485DB
S113402035858B819C81B901680F791F2B813C8177
S11340304B815C8189819A81D6DE1DC089819A81F8
S1134040DC0153968C91882F90E082709927892BFC
S113405029F489819A810E94AE010DC089819A81D7
S1134060FC018389282F2E7F89819A81DC01539654
S11340702C9301C0000080917E0890917F089E01DE
S11340802A5F3F4F40E050E0B9010E94880888232E
S113409009F023CF00002B960FB6F894DEBF0FBEB5
S11340A0CDBFDF91CF911F910F9108950F931F936F
S11340B0CF93DF93CDB7DEB729970FB6F894DEBF61
S11340C00FBECDBF68C080917A0890917B08FC0137
S11340D085819681FC01808191819A838983809175
S11340E07A0890917B08FC0185819681FC01868188
S11340F097819C838B838B819C8102960E94D8023A
S11341008B819C81FC01208931898B819C81F901FF
S113411019958B819C81FC018389882F90E08470A0
S11341209927892BC1F18B819C81FC0124853585DC
S113413089819A81820F931F9E838D832D813E8175
S113414089819A8182179307D8F48B819C812D8170
S11341503E81FC01338322838B819C812B813C81B2
S1134160FC01318720878B819C819C012E5F3F4F0E
S113417080917A0890917B08B9010E9460020BC07B
S113418049815A818B819C8100E010E020E030E07D
S113419060E0A6DC8F8380917A0890917B08FC0113
S11341A08081882309F08FCF80917A0890917B08D1
S11341B09987888780917C0890917D0890937B08EB
S11341C080937A088885998590937D0880937C08EC
S11341D0000029960FB6F894DEBF0FBECDBFDF9165
S11341E0CF911F910F910895CF93DF93CDB7DEB791
S11341F00FB6F8940F9280917E0890917F08892BD6
S1134200E9F488E698E00E94C80181E798E00E94FA
S1134210C80188E698E090937B0880937A0881E748
S113422098E090937D0880937C0840E065E08AE004
S11342300E94A90690937F0880937E080F900FBE7A
S11342400000DF91CF910895CF93DF93CDB7DEB710
S11342500000DF91CF910895CF93DF93CDB7DEB700
S11342602E970FB6F894DEBF0FBECDBF84E290E068
S113427024E230E0F90120812068FC01208385E2FA
S113428090E025E230E0F90120812068FC012083E0
S113429080E090E0A8E4B2E489839A83AB83BC8392
S11342A020E030E04AE755E469817A818B819C8182
S11342B00E94F934DC01CB018D839E83AF83B887E0
S11342C020E030E040E85FE36D817E818F81988556
S11342D00E94A63388232CF481E090E09A87898792
S11342E03FC020E03FEF4FE757E46D817E818F812F
S11342F098850E94F53418164CF520E030E040E231
S113430051E469817A818B819C810E94F934DC01BA
S1134310CB01BC01CD010E941734DC01CB019A878B
S113432089870FC080E991E09C878B878B859C856A
S11343300197F1F79C878B8789859A8501979A87DE
S1134340898789859A85892B69F714C06D817E8157
S11343508F8198850E941734DC01CB019A87898765
S113436089859A859E878D878D859E850197F1F72E
S11343709E878D8783E290E023E230E0F90120817B
S11343802068FC01208384CFCF93DF93CDB7DEB7C1
S113439062970FB6F894DEBF0FBECDBF988B8F87A0
S11343A07A8B698B84E290E024E230E0F901208189
S11343B02068FC01208385E290E025E230E0F901E9
S11343C020812068FC01208380E090E0AAEFB4E41F
S11343D089839A83AB83BC8320E030E04AE755E4C9
S11343E069817A818B819C810E94F934DC01CB0143
S11343F08D839E83AF83B88720E030E040E85FE39D
S11344006D817E818F8198850E94A63388232CF448
S113441081E090E09A8789873FC020E03FEF4FE733
S113442057E46D817E818F8198850E94F53418163A
S11344304CF520E030E040E251E469817A818B81DF
S11344409C810E94F934DC01CB01BC01CD010E94A6
S11344501734DC01CB019A8789870FC080E991E08A
S11344609C878B878B859C850197F1F79C878B872D
S113447089859A8501979A87898789859A85892B61
S113448069F714C06D817E818F8198850E941734ED
S1134490DC01CB019A87898789859A859E878D87D8
S11344A08D859E850197F1F79E878D8783E290E045
S11344B023E230E0F90120812068FC01208384CFCD
S11344C0CF93DF9300D01F92CDB7DEB79A83898351
S11344D07C836B838B819C816FEF7FEF0E9431091A
S11344E089819A810E94E8368B819C8120E040E09A
S11344F050E060E070E00E94810700000F900F9090
S11345000F900F90DF91CF910895EF92FF920F9348
S1134510CF93DF931F92CDB7DEB78983E12CF12CC3
S1134520098120E030E048E851E06EE272E083EF78
S113453094E20E94DF10E12CF12C00E020E030E056
S113454040EC50E065E372E086EC95E20E94DF10F7
S1134550E12CF12C00E020E030E040EC50E067E496
S113456072E085E895E20E94DF1000000F90DF9171
S1134570CF910F91FF90EF9008950F931F93CF93D6
S1134580DF93CDB7DEB70DE211E020E030E041E08B
S113459062EE74E088E592E007DA90935B0A809318
S11345A05A0A0000DF91CF911F910F910895CF9384
S11345B0DF93CDB7DEB781E00E94B52D82E090E0B5
S11345C00E94B01280E00E94B52D86E990E00E941E
S11345D0B0120E94722D04D00000DF91CF91089593
S11345E0CF93DF931F921F92CDB7DEB781E00E9475
S11345F0062C80915C0A90915D0A6FEF7FEF0E9418
S113460031090E94C92D0E94F12F292F2F938F93D6
S113461088E692E0892F8F9388E692E08F930E9438
S1134620D5360F900F900F900F9080915C0A909167
S11346305D0A20E040E050E060E070E00E94810705
S113464080915C0A90915D0A6FEF7FEF0E943109BF
S11346500E94F62E0E94F12F292F2F938F938BE720
S113466092E0892F8F938BE792E08F930E94D53647
S11346700F900F900F900F9080915C0A90915D0ABB
S113468020E040E050E060E070E00E94810784E8B0
S113469098E00E94DB2D8A8380915C0A90915D0AE8
S11346A06FEF7FEF0E9431098A810E94F12F9C01F4
S11346B084E898E0892F8F9384E898E08F93832F80
S11346C08F93822F8F9384E992E0892F8F9384E9CB
S11346D092E08F930E94D5360F900F900F900F9019
S11346E00F900F9080915C0A90915D0A20E040E069
S11346F050E060E070E00E94810780915C0A909134
S11347005D0A6FEF7FEF0E94310984E898E00E9410
S1134710F72D0E94F12F292F2F938F9384E898E08F
S1134720892F8F9384E898E08F9388EA92E0892F09
S11347308F9388EA92E08F930E94D5360F900F9062
S11347400F900F900F900F9080915C0A90915D0AEA
S113475020E040E050E060E070E00E94810780913A
S11347605C0A90915D0A6FEF7FEF0E94310944E883
S113477058E06DEB72E08EED92E00E94D02F0E9423
S1134780F12F292F2F938F9384E898E0892F8F930B
S113479084E898E08F938DEB92E0892F8F938DEBD3
S11347A092E08F938EED92E0892F8F938EED92E0BD
S11347B08F938FEE92E0892F8F938FEE92E08F93F9
S11347C00E94D5368DB79EB70A960FB6F894DEBF11
S11347D00FBECDBF80915C0A90915D0A20E040E05D
S11347E050E060E070E00E94810780915C0A909143
S11347F05D0A6FEF7FEF0E9431090E942A2E0E940A
S1134800F12F292F2F938F9385E293E0892F8F9394
S113481085E293E08F930E94D5360F900F900F900E
S11348200F9080915C0A90915D0A20E040E050E096
S113483060E070E00E94810780915C0A90915D0ABB
S11348406FEF7FEF0E94310981E00E94EB2E0E94FE
S1134850F12F292F2F938F9384E393E0892F8F9344
S113486084E393E08F930E94D5360F900F900F90BE
S11348700F9080915C0A90915D0A20E040E050E046
S113488060E070E00E94810785E0898380E00E94F7
S1134890302E8A838A810E94F12F9C018981882F7E
S11348A090E0432F4F932F93292F2F938F9385E5D8
S11348B093E0892F8F9385E593E08F930E94D536FB
S11348C00F900F900F900F900F900F908A81883067
S11348D071F080E00E94722C88E391E00E94B01293
S11348E08981815089838981882381F601C00000F0
S11348F08A81883019F481E0D7D707C081E0E3D7F3
S113490080E0ABD70E942B05FDCF0F900F90DF9175
S1134910CF910895CF93DF93CDB7DEB780E0C0D1B8
S1134920789443E060E081E00E94A90690935D0AD8
S113493080935C0A81E00E9463079093630A8093EA
S1134940620A81E00E9463079093610A8093600A7F
S113495081E00E9463079093650A8093640A81E072
S11349600E94630790935F0A80935E0A80915C0AB9
S113497090915D0A20E040E050E060E070E00E9429
S1134980810740E064E082E00E94A9069093670AF0
S11349908093660A82E055D581E00E94792D80914A
S11349A05C0A90915D0ABC0186E793E089DDA8D595
S11349B0882341F480915C0A90915D0ABC018CE8E3
S11349C093E07EDD69E171E083E00E941A31809119
S11349D05C0A90915D0ABC018BEA93E071DD0000F2
S11349E0DF91CF910895CF93DF9300D000D0CDB75E
S11349F0DEB79E838D83DBDD84E08093E90882E06B
S1134A008093E8088EE390E00E94B0128091640ADB
S1134A109091650A6FEF7FEF0E9431098EE390E079
S1134A200E94B0128091660A9091670A40E050E0BB
S1134A309E012F5F3F4FB9010E948808813049F0E1
S1134A4080915C0A90915D0ABC0180EC93E038DDB2
S1134A50D9CF80915C0A90915D0A6FEF7FEF0E943D
S1134A6031092B813C8189819A81432F4F932F9364
S1134A70292F2F938F9384EE93E0892F8F9384EEC5
S1134A8093E08F930E94D5360F900F900F900F9064
S1134A900F900F9080915C0A90915D0A20E040E0B5
S1134AA050E060E070E00E94810789819A81892F3B
S1134AB0990F990B8093EA0889819A818093EB0876
S1134AC08B819C81892F990F990B8093EC088B81A2
S1134AD09C818093ED0883E017D768EE78E081E04D
S1134AE00E94532E0E94F12F292F2F938F938AE136
S1134AF094E0892F8F938AE194E08F930E94D536B6
S1134B000F900F900F900F907DCFCF93DF9300D035
S1134B1000D0CDB7DEB79E838D838091620A9091D9
S1134B20630A6FEF7FEF0E9431090E9449318823A5
S1134B3041F080915C0A90915D0ABC018FE294E09F
S1134B40BFDC81E090E09A8389838091580A909138
S1134B50590A9C838B838091660A9091670A20E0AE
S1134B604FEF5FEFBE016F5F7F4F0E94810781307F
S1134B7041F080915C0A90915D0ABC018BE494E061
S1134B809FDC81E792E00E94B012C7CFCF93DF93FE
S1134B9000D000D0CDB7DEB79E838D838091600AAC
S1134BA09091610A6FEF7FEF0E943109C0D488238E
S1134BB041F080915C0A90915D0ABC018FE694E01B
S1134BC07FDC86E090E00E94B012C5D4882349F0CF
S1134BD080915C0A90915D0ABC018FE894E070DCDE
S1134BE021C083E090E00E94B01282E090E09A83BA
S1134BF08983DCD49C838B838091660A9091670AB5
S1134C0020E04FEF5FEFBE016F5F7F4F0E9481078F
S1134C10813041F080915C0A90915D0ABC0183EB84
S1134C2094E04EDC81E792E00E94B012B7CF0F937C
S1134C301F93CF93DF93CDB7DEB76CDE9EDC81E0AC
S1134C4064DC0E94B513AC0180915A0A90915B0A0E
S1134C5000E010E020E030E061E00E94701D0E945E
S1134C60D012FFCFCF93DF931F92CDB7DEB7BE0133
S1134C706F5F7F4F8091FE089091FF084FD18111A3
S1134C80F6CF898190E00F90DF91CF910895682F3E
S1134C908091FE089091FF08CCD080E090E00895C8
S1134CA08F929F92AF92CF92EF920F93812C912C7F
S1134CB06894AA24A7F86894CC24C7F8E12C00E0EF
S1134CC023E040E051EE60E070E013D09093FF08E1
S1134CD08093FE08E2E8FAE086E092E09183808324
S1134CE0938382830F91EF90CF90AF909F908F909A
S1134CF008952F923F924F925F926F927F928F927C
S1134D009F92AF92CF92EF92FF920F931F93CF9304
S1134D10DF93CDB7DEB7F82E2A013B0188E090E09F
S1134D200E9476358C018F2D90E0880F991FFC012D
S1134D30E050F74F11830083FC01EC5EFD4F80814E
S1134D409181D8018D939C936C2D70E084E090E068
S1134D500E945C351C0161E070E086E090E00E94F6
S1134D605C357C014C2DB1014DD3F801F582E48210
S1134D706A2D70E084E090E00E945C351C0161E0E3
S1134D8070E086E090E00E945C357C014A2DB10120
S1134D9039D3D8011396FC92EE92129717969C92EF
S1134DA08E921697FFB6F894ED91FC911197369771
S1134DB08081826080838D909C90C301B2010E94A7
S1134DC0433420E030E040E051E40E94F9349B0198
S1134DD0AC0160E074E284E79BE40E94AA3320E023
S1134DE030E040E85FE30E9441330E941734F4014D
S1134DF032976083D801ED91FC911197359788E93A
S1134E008083ED91FC91349786E08083FFBEC801D6
S1134E10DF91CF911F910F91FF90EF90CF90AF90C2
S1134E209F908F907F906F905F904F903F902F90C6
S1134E300895CF93DF93EC01EA81FB819381828112
S1134E402581981B922384819817A1F0938126953C
S1134E502923A081B181A20FB11D6C939F5F25818D
S1134E6092239383E881F9813597808180628083DE
S1134E7080E001C082E0DF91CF910895EF92FF922C
S1134E800F931F93CF93DF937C01DC011296ED9176
S1134E90FC91139793818281981B85819823848147
S1134EA0891B861798F1662341F1842F952FDC0125
S1134EB06150462F50E04F5F5F4F480F591FE70185
S1134EC0EA81FB81938182812581981B92238481CD
S1134ED0981779F08C9193812695292360817181AB
S1134EE08B01020F111DE80188839F5F8581982340
S1134EF093831196A417B50711F7D701ED91FC918F
S1134F00359780818062808380E001C082E0DF91F8
S1134F10CF911F910F91FF90EF900895DC011496AB
S1134F20ED91FC91159793818281981789F0928174
S1134F30858186958923A081B181A80FB11D8C91AB
S1134F40DB018C939F5F85819823928380E0089591
S1134F5083E008951F920F920FB60F9211240BB69F
S1134F600F922F933F934F935F936F937F938F93FE
S1134F709F93AF93BF93CF93DF93EF93FF93A0914E
S1134F800009B0910109109711F16091C6001496BF
S1134F90ED91FC911597938182812581981B922331
S1134FA08481981761F0838126952823C081D1815B
S1134FB0C20FD11D68838F5F9581892383831696E1
S1134FC0ED91FC911797309711F0CD011995FF9150
S1134FD0EF91DF91CF91BF91AF919F918F917F918D
S1134FE06F915F914F913F912F910F900BBE0F9056
S1134FF00FBE0F901F9018951F920F920FB60F922D
S113500011240BB60F922F938F939F93AF93BF935B
S1135010EF93FF93E0910009F09101093097B9F003
S11350200280F381E02D938182819817B1F09281FF
S11350308581282F26952923A081B181A20FB11D36
S11350402C919F5F892382832093C6000BC0E1ECDF
S1135050F0E080818F7D808305C0E1ECF0E0808109
S11350608F7D8083FF91EF91BF91AF919F918F913D
S11350702F910F900BBE0F900FBE0F901F9018959D
S11350801F920F920FB60F9211240BB60F922F930B
S11350903F934F935F936F937F938F939F93AF93BC
S11350A0BF93CF93DF93EF93FF93A0910209B09145
S11350B00309109711F16091CE001496ED91FC91C3
S11350C01597938182812581981B92238481981757
S11350D061F0838126952823C081D181C20FD11D1F
S11350E068838F5F9581892383831696ED91FC9164
S11350F01797309711F0CD011995FF91EF91DF913A
S1135100CF91BF91AF919F918F917F916F915F915B
S11351104F913F912F910F900BBE0F900FBE0F90A8
S11351201F9018951F920F920FB60F9211240BB671
S11351300F922F938F939F93AF93BF93EF93FF930C
S1135140E0910209F09103093097B9F00280F381EC
S1135150E02D938182819817B1F092818581282F67
S113516026952923A081B181A20FB11D2C919F5FA7
S1135170892382832093CE000BC0E9ECF0E0808188
S11351808F7D808305C0E9ECF0E080818F7D808392
S1135190FF91EF91BF91AF919F918F912F910F90BC
S11351A00BBE0F900FBE0F901F9018951F920F9279
S11351B00FB60F9211240BB60F922F933F934F9378
S11351C05F936F937F938F939F93AF93BF93CF938B
S11351D0DF93EF93FF93A0910409B0910509109711
S11351E011F16091D6001496ED91FC91159793817D
S11351F082812581981B92238481981761F0838191
S113520026952823C081D181C20FD11D68838F5F69
S11352109581892383831696ED91FC911797309796
S113522011F0CD011995FF91EF91DF91CF91BF91CD
S1135230AF919F918F917F916F915F914F913F912A
S11352402F910F900BBE0F900FBE0F901F901895CB
S11352501F920F920FB60F9211240BB60F922F9339
S11352608F939F93AF93BF93EF93FF93E0910409C0
S1135270F09105093097B9F00280F381E02D938114
S113528082819817B1F092818581282F2695292350
S1135290A081B181A20FB11D2C919F5F89238283CC
S11352A02093D6000BC0E1EDF0E080818F7D8083F8
S11352B005C0E1EDF0E080818F7D8083FF91EF9167
S11352C0BF91AF919F918F912F910F900BBE0F9033
S11352D00FBE0F901F9018951F920F920FB60F924A
S11352E011240BB60F922F933F934F935F936F93B9
S11352F07F938F939F93AF93BF93CF93DF93EF935A
S1135300FF93A0910609B0910709109711F16091DC
S113531036011496ED91FC91159793818281258134
S1135320981B92238481981761F083812695282302
S1135330C081D181C20FD11D68838F5F958189237C
S113534083831696ED91FC911797309711F0CD0158
S11353501995FF91EF91DF91CF91BF91AF919F91FB
S11353608F917F916F915F914F913F912F910F900A
S11353700BBE0F900FBE0F901F9018951F920F92A7
S11353800FB60F9211240BB60F922F938F939F9306
S1135390AF93BF93EF93FF93E0910609F091070950
S11353A03097B9F00280F381E02D938182819817C0
S11353B0B1F092818581282F26952923A081B1817E
S11353C0A20FB11D2C919F5F892382832093360104
S11353D00BC0E1E3F1E080818F7D808305C0E1E3D0
S11353E0F1E080818F7D8083FF91EF91BF91AF9138
S11353F09F918F912F910F900BBE0F900FBE0F9026
S11354001F901895FC01411102C00E949736842F09
S113541090E09C012150310982239323892B11F0C0
S11354200E949736413810F00E94973612821382F8
S11354304483440F415045837183608380E090E04E
S11354400895E8E6FAE022E730E33183208325E794
S113545030E33383228320E830E33583248324E854
S113546030E3378326832AE830E33187208726E92F
S113547030E3338722872BE930E33587248727EA13
S113548030E33787268727E830E3318B208B2CEAFB
S113549030E3338B228B29EB30E3358B248B682F5D
S11354A0CF012FC108956530F1F4FA0180818F7323
S11354B090E0982F88272181822B90931F0280935C
S11354C01E028281F0E48F9FC0011124FA0123811E
S11354D026952695822B90931D0280931C0281E0D1
S11354E0809308090895643051F080E090E490932B
S11354F01D0280931C0290931F0280931E02089544
S11355000F931F9303E51AE220E034E244EF50E0E6
S113551060E087E2FFD690930A098093090921E0AD
S1135520892B09F020E0822F1F910F91089580911B
S1135530090990910A09009751F040E060E070E099
S11355403AD7843031F41092080980E0089582E05B
S1135550089583E008958091090990910A090097BC
S113556031F064E074D7853021F083E0089582E05F
S1135570089580E0089560911C0270911D0280E0FE
S113558090E00E94433420E030E045E253E40E947E
S1135590F93420E038EF4FE756E40E94AA3320E0C4
S11355A030E040E252E40C9441330895E4DF20E01B
S11355B030E040E251E40E94F9340E941234CB01FD
S11355C00895CF93DF9390E0FC01EE0FFF1FE80FE7
S11355D0F91FEE0FFF1FE55FF64F238121110AC06B
S11355E0EF01E091700AF091710A6A8188819981D2
S11355F0199512C0DC01AA0FBB1FED01C80FD91FFA
S1135600CC0FDD1FC55FD64FE0917A0AF0917B0A7B
S11356106A81888199811995DF91CF910895CF93FB
S1135620DF9390E0FC01EE0FFF1FE80FF91FEE0F70
S1135630FF1FE55FF64F238121110AC0EF01E091BE
S11356407A0AF0917B0A6A8188819981199512C03E
S1135650DC01AA0FBB1FED01C80FD91FCC0FDD1F42
S1135660C55FD64FE091700AF091710A6A81888112
S113567099811995DF91CF9108958CE295E00E946C
S1135680E8360F2EF8E6CF2EFAE0DF2EF02D04E0F8
S1135690CBE0D9E010E08C81813069F0E8F0823011
S11356A039F5D6011C96ED91FC911D976A8188818C
S11356B0998119951DC08D818F5F8A3010F48D8377
S11356C017C01D82D6011C96ED91FC911D976A812D
S11356D08881998119950CC08D81882331F0812F9F
S11356E09EDF8D8181508D8303C00C83812F69DF00
S11356F01F5F2696143079F685E090E00E94B01280
S1135700C7CFCF92DF92EF92FF920F931F93CF9365
S1135710DF93062F0F2EF8E6EF2EFAE0FF2EF02D82
S1135720D7011896ED91FC91199766E087E290E015
S11357301995CBE0D9E00F2EF8E2CF2ED12CF02D25
S1135740D982C88286E08A831B8214E01C8380E0AD
S113575038DFD7011896ED91FC91199767E087E23D
S113576090E01995DF82CE8287E0888719861A87B0
S113577081E027DFD7011896ED91FC91199765E038
S113578083E390E01995D7011896ED91FC91199750
S113579061E084E390E0199584E390E09D878C8731
S11357A085E08E871F86188B82E00BDFD701189661
S11357B0ED91FC91199764E081E091E01995D7018E
S11357C01896ED91FC91199761E082E091E01995AA
S11357D082E091E09B8B8A8B1C8B1D8A1E8B83E05D
S11357E0F0DEE12CF12C20E030E040EC50E063E40A
S11357F075E08DE39BE20E94DF10DF91CF911F9152
S11358000F91FF90EF90DF90CF9008950F931F9327
S1135810CF93DF93C82FD0E08E01000F111FD80162
S1135820AC0FBD1FAA0FBB1FA55FB64FE091740A52
S1135830F091750A12966C9112978D919C9119951D
S1135840C00FD11FCC0FDD1FC55FD64F81E08C8305
S1135850DF91CF911F910F9108950F931F93CF93D1
S1135860DF93C82FD0E08E01000F111FD801AC0FB9
S1135870BD1FAA0FBB1FA55FB64FE091740AF0913C
S1135880750A12966C9112978D919C911995C00F7F
S1135890D11FCC0FDD1FC55FD64F82E08C83DF9113
S11358A0CF911F910F910895282F30E0F901EE0F49
S11358B0FF1FE20FF31FEE0FFF1FE55FF64F93E0AC
S11358C09483ADCE0895282F30E0F901EE0FFF1F29
S11358D0E20FF31FEE0FFF1FE55FF64F94E0948392
S11358E070CE089590E0FC01EE0FFF1FDF01A80FBA
S11358F0B91FAA0FBB1FA55FB64F24E015962C93C2
S11359001597FD011482089590E0FC01EE0FFF1F2E
S1135910DF01A80FB91FAA0FBB1FA55FB64F21E077
S113592015962C931597FD01148208950F931F93D8
S1135930CF93DF931F921F92CDB7DEB78C011982EC
S11359402DC0E0918709EC3250F481E08E0F8093F2
S11359508709F0E0E954F64F8A81808302C01092EF
S113596087098A818A30D1F44091870950E0FA018D
S1135970EB54F64F1082415051099E012F5F3F4F67
S113598067EB79E080918809909189090E94210D43
S1135990898181110E942B0510928709BE016E5FD7
S11359A07F4FC801BBDA882361F20F900F90DF911B
S11359B0CF911F910F9108950F931F93CF93DF936E
S11359C08C01EB0180918809909189090E947A0CDD
S11359D0B80183E299E00E94B636209779F0E3E2B9
S11359E0F9E001900020E9F7319780E290E091839B
S11359F08083BE0183E299E00E94AB36E3E2F9E0E2
S1135A00DF010D900020E9F711978DE09AE01196DF
S1135A109C938E9312961C9201900020E9F7319783
S1135A20E352F940AE2F83E299E0AC016A2F8091F2
S1135A308A0990918B0922DA81110FC028E235E09E
S1135A404DE250E061E17AE0809188099091890902
S1135A500E94090E81E19AE002C080E090E0DF91AB
S1135A60CF911F910F910895AF92BF92CF92DF9281
S1135A70EF92FF920F931F93CF93DF936C01FC017E
S1135A8001900020E9F731977F01E81AF90A0FEC39
S1135A9017E0C0E0D0E0F80160817181A701C60180
S1135AA00E94BD36892B49F4FE01EE0FFF1FEC0F57
S1135AB0FD1FE253F84F808107C021960D5F1F4FF1
S1135AC0C131D10541F780E1DF91CF911F910F9151
S1135AD0FF90EF90DF90CF90BF90AF9008956CDF70
S1135AE0C3CF089580918809909189090C947A0C08
S1135AF008958F929F92AF92CF92EF920F93CF938C
S1135B00C82F41E060E070E088EC90E00E94320C25
S1135B1090938909809388090F2EF6E98F2EFCE271
S1135B209F2EF02D6894AA24A6F86894CC24C6F875
S1135B30E12C00E023E040E051EE60E070E08C2FC7
S1135B40D8D890938B0980938A09E091700AF091D8
S1135B50710A64E087E091E01995CF910F91EF907D
S1135B60CF90AF909F908F900895882349F0E09153
S1135B707A0AF0917B0A64E088E091E0199508952F
S1135B80E091700AF091710A64E088E091E019955F
S1135B90089560E070E08AE695E00EDFE1E1FAE066
S1135BA001900020E9F73197E151FA4081E07597BF
S1135BB008F080E00895CF93DF93EC0160E070E09B
S1135BC08BE795E0F9DEE1E1FAE001900020E9F7E6
S1135BD0E252FA4039F461E17AE0CE010E94B6362D
S1135BE080E002C0188281E0DF91CF910895FC012A
S1135BF001900020E9F79F01215131092817390745
S1135C0029F4BC0189EA95E06ACF089589E00895F2
S1135C10FC0101900020E9F79F0121513109281767
S1135C20390729F4BC0188EB95E059CF089589E040
S1135C300895FC0101900020E9F79F0121523109E8
S1135C402817390729F4BC0187EC95E048CF08955B
S1135C5089E0089560E070E086E096E040CF089522
S1135C60E82FF0E0EE0FFF1FE653F84F60817181DB
S1135C708FE096E034DF811112C028E235E04DE276
S1135C8050E061E17AE080918809909189090E944D
S1135C90090E882321F081E19AE0E6CE089581E19E
S1135CA09AE0E2CE0895CF93DF931F92CDB7DEB78B
S1135CB0DB0111969C911197953108F087C09923C7
S1135CC081F160E070E0272F30E0462F50E0FD01C5
S1135CD0E40FF51F928192959F709A3010F0995CB1
S1135CE001C0905DF901EE55F64F90832F5F3F4F51
