:1000000071C000008FC000008DC000008BC00000D8
:1000100089C0000087C0000085C0000083C00000C8
:1000200081C000007FC000007DC000007BC00000D8
:1000300035C1000077C0000075C0000073C000002B
:1000400071C000006FC000006DC000006BC00000F8
:1000500069C0000067C0000065C0000063C0000008
:1000600061C00000D6C3000026C400005BC00000D1
:1000700059C0000057C0000055C0000053C0000028
:1000800051C000004FC000004DC000004BC0000038
:1000900056C40000A6C4000045C0000043C00000D4
:1000A00041C000003FC000003DC000003BC0000058
:1000B00039C0000037C0000035C0000033C0000068
:1000C00031C000002FC000002DC00000CEC40000D1
:1000D0001EC5000027C000005EC50000AEC50000C0
:1000E00021C0000011241FBECFEFD1E2DEBFCDBF83
:1000F00000E00CBF12E0A0E0B2E0ECE3F4E100E0CD
:100100000BBF02C007900D92A436B107D9F722E0C9
:10011000A4E6B2E001C01D92AD3AB207E1F72FD2DA
:100120000C941C0A6DCFE8E0F1E09081907F908301
:1001300090818F70982B90830895E8E0F1E08081A2
:10014000807F80830895CF93DF939C01FB01DC01C6
:100150001196CD91DC911297D383C2838C819D81BE
:10016000958384838C819D81DC0113967C936E93AF
:1001700012977D836C8331872087F90180818F5F9F
:100180008083DF91CF910895CF93DF93FC01A08509
:10019000B185C281D381848195819D838C83C48103
:1001A000D581828193819B838A8311968D919C91C5
:1001B0001297E817F90731F48481958112969C9380
:1001C0008E931197118610868C9181508C938C910F
:1001D000DF91CF9108950F920FB6F8940F920BB65E
:1001E0000F920CB60F921F9211242F923F924F92B2
:1001F0005F926F927F928F929F92AF92BF92CF92B7
:10020000DF92EF92FF920F931F932F933F934F93A1
:100210005F936F937F938F939F93AF93BF93CF938E
:10022000DF93EF93FF93A0919502B09196020DB6E4
:100230000D920EB60D9213BE52D0811107D1A0912E
:100240009502B0919602CD91CDBFDD91DEBFFF91B9
:10025000EF91DF91CF91BF91AF919F918F917F915E
:100260006F915F914F913F912F911F910F91FF904F
:10027000EF90DF90CF90BF90AF909F908F907F9046
:100280006F905F904F903F902F901F900F900CBEFB
:100290000F900BBE0F900FBE0F9008959CDF189526
:1002A000E0916F02F09170028081811107C08FEFA1
:1002B0009FEF90936602809365020895E0916F022C
:1002C000F09170020580F681E02D0680F781E02D27
:1002D0008281938190936602809365020895CF9204
:1002E000DF92EF92FF920F931F93CF93DF93809152
:1002F0006402811195C0E0906B02F0906C028FEF68
:10030000E81AF80AF0926C02E0926B02E114F10430
:10031000B1F480916F029091700220916D02309142
:100320006E023093700220936F0290936E0280935E
:100330006D02809167028F5F80936702B1DF8091C9
:10034000650290916602E816F90610F4D12C50C0AF
:10035000D12CCC24C394E0916F02F0917002808183
:10036000811107C08FEF9FEF909366028093650223
:100370003FC0E0916F02F09170020580F681E02DA0
:10038000C681D7818A819B81E816F90628F490936B
:100390006602809365022CC08E010E5F1F4FC8015C
:1003A000F3DE8C899D89892B19F0CE010C96ECDE49
:1003B0008E8990916A02981710F480936A0290E0F7
:1003C0009C01220F331F220F331F220F331F820F76
:1003D000931FB8018F589D4FB6DEE0919502F091C2
:1003E00096029E898689981708F4B5CFDC2CB3CF86
:1003F000E0919502F0919602868990E0FC01EE0F63
:10040000FF1FEE0FFF1FEE0FFF1F8E0F9F1FFC0140
:10041000EF58FD4F8081823048F0DD24D39406C030
:10042000809169028F5F80936902D12C809168026C
:10043000882311F0DD24D3948D2DDF91CF911F916E
:100440000F91FF90EF90DF90CF900895809164021C
:10045000882321F081E08093680208951092680259
:10046000E0919502F091960285A167DEA091950238
:10047000B0919602E0919502F09196022D913C91F7
:100480008789908D8217930758F06091950270913B
:1004900096028091950290919602675E7F4F62D09E
:1004A00020916A02822F90E0FC01EE0FFF1FEE0FF9
:1004B000FF1FEE0FFF1FE80FF91FEF58FD4F3081B0
:1004C000311111C02150822F90E0FC01EE0FFF1F6F
:1004D000EE0FFF1FEE0FFF1FE80FF91FEF58FD4F44
:1004E0003081332379F3AC01440F551F440F551F5E
:1004F000440F551F480F591FDA01AF58BD4F1196D1
:10050000ED91FC9112970280F381E02D1296FC93FD
:10051000EE9311974C585D4FE417F50729F442818B
:100520005381FD0152834183FC01EE0FFF1FEE0F4B
:10053000FF1FEE0FFF1F8E0F9F1FFC01EF58FD4F97
:100540000180F281E02D86819781909396028093BD
:10055000950220936A02E0919502F091960285A19E
:10056000E2CD0895279A2F9A2FEF87EA91E621503E
:1005700080409040E1F700C000001F9AF5CF80E076
:1005800048D0789465E08EE290E0B7D390939802DB
:1005900080939702892B21F08CE192E01DD703C054
:1005A0008CE292E019D78091970290919802C1D382
:1005B000882321F080E492E00FD703C083E592E026
:1005C0000BD72FEF81EE94E0215080409040E1F76F
:1005D00000C00000E8CFCF93DF931F92CDB7DEB706
:1005E000BE016F5F7F4F8091990290919A02F5D082
:1005F0008111F6CF898190E00F90DF91CF9108951E
:10060000682F8091990290919A02C2D080E090E088
:1006100008958F929F92AF92CF92EF920F93812C79
:10062000912C6894AA24A7F86894CC24C7F8E12CEC
:1006300000E023E040E051EE60E070E013D09093E2
:100640009A0280939902E7EAF2E086E092E09183D1
:100650008083938382830F91EF90CF90AF909F9090
:100660008F9008952F923F924F925F926F927F9258
:100670008F929F92AF92CF92EF92FF920F931F9320
:10068000CF93DF93CDB7DEB7F82E2A013B0188E088
:1006900090E076D58C018F2D90E0880F991FFC019A
:1006A000E556FD4F11830083FC01EC5EFD4F808118
:1006B0009181D8018D939C936C2D70E084E090E043
:1006C00045D51C0161E070E086E090E03FD57C01FB
:1006D0004C2DB101F6D2F801F582E4826A2D70E06A
:1006E00084E090E033D51C0161E070E086E090E0AA
:1006F0002DD57C014A2DB101E4D2D8011396FC928C
:10070000EE92129717969C928E921697FFB6F894D7
:10071000ED91FC91119736978081826080838D9056
:100720009C90C301B20121D420E030E040E051E4CC
:10073000AAD49B01AC0160E074E284E79BE481D31E
:1007400020E030E040E85FE317D3E3D3F4013297D1
:100750006083D801ED91FC911197359788E98083EA
:10076000ED91FC91349786E08083FFBEC801DF9154
:10077000CF911F910F91FF90EF90CF90AF909F90EE
:100780008F907F906F905F904F903F902F90089543
:10079000CF93DF93EC01EA81FB81938182812581F4
:1007A000981B922384819817A1F093812695292381
:1007B000A081B181A20FB11D6C939F5F258192230F
:1007C0009383E881F981359780818062808380E01E
:1007D00001C082E0DF91CF910895DC011496ED9184
:1007E000FC91159793818281981789F09281858178
:1007F00086958923A081B181A80FB11D8C91DB0161
:100800008C939F5F85819823928380E0089583E095
:1008100008951F920F920FB60F9211240BB60F92EC
:100820002F933F934F935F936F937F938F939F93F8
:10083000AF93BF93CF93DF93EF93FF93A0919B026E
:10084000B0919C02109711F16091C6001496ED9141
:10085000FC911597938182812581981B9223848135
:10086000981761F0838126952823C081D181C20F1A
:10087000D11D68838F5F9581892383831696ED91BF
:10088000FC911797309711F0CD011995FF91EF91D9
:10089000DF91CF91BF91AF919F918F917F916F9198
:1008A0005F914F913F912F910F900BBE0F900FBE14
:1008B0000F901F9018951F920F920FB60F92112450
:1008C0000BB60F922F938F939F93AF93BF93EF939A
:1008D000FF93E0919B02F0919C023097B9F0028067
:1008E000F381E02D938182819817B1F09281858107
:1008F000282F26952923A081B181A20FB11D2C910B
:100900009F5F892382832093C6000BC0E1ECF0E057
:1009100080818F7D808305C0E1ECF0E080818F7D58
:100920008083FF91EF91BF91AF919F918F912F9114
:100930000F900BBE0F900FBE0F901F9018951F9237
:100940000F920FB60F9211240BB60F922F933F9375
:100950004F935F936F937F938F939F93AF93BF93C7
:10096000CF93DF93EF93FF93A0919D02B0919E02EE
:10097000109711F16091CE001496ED91FC911597AE
:10098000938182812581981B92238481981761F03D
:10099000838126952823C081D181C20FD11D688310
:1009A0008F5F9581892383831696ED91FC9117972C
:1009B000309711F0CD011995FF91EF91DF91CF9113
:1009C000BF91AF919F918F917F916F915F914F9167
:1009D0003F912F910F900BBE0F900FBE0F901F9065
:1009E00018951F920F920FB60F9211240BB60F920B
:1009F0002F938F939F93AF93BF93EF93FF93E091C8
:100A00009D02F0919E023097B9F00280F381E02DB3
:100A1000938182819817B1F092818581282F269544
:100A20002923A081B181A20FB11D2C919F5F892341
:100A300082832093CE000BC0E9ECF0E080818F7DB3
:100A4000808305C0E9ECF0E080818F7D8083FF9199
:100A5000EF91BF91AF919F918F912F910F900BBE0E
:100A60000F900FBE0F901F9018951F920F920FB608
:100A70000F9211240BB60F922F933F934F935F93D6
:100A80006F937F938F939F93AF93BF93CF93DF9396
:100A9000EF93FF93A0919F02B091A002109711F1E4
:100AA0006091D6001496ED91FC9115979381828107
:100AB0002581981B92238481981761F08381269564
:100AC0002823C081D181C20FD11D68838F5F95819A
:100AD000892383831696ED91FC911797309711F037
:100AE000CD011995FF91EF91DF91CF91BF91AF911A
:100AF0009F918F917F916F915F914F913F912F9136
:100B00000F900BBE0F900FBE0F901F9018951F9265
:100B10000F920FB60F9211240BB60F922F938F9353
:100B20009F93AF93BF93EF93FF93E0919F02F09158
:100B3000A0023097B9F00280F381E02D9381828189
:100B40009817B1F092818581282F26952923A081BD
:100B5000B181A20FB11D2C919F5F892382832093C5
:100B6000D6000BC0E1EDF0E080818F7D808305C071
:100B7000E1EDF0E080818F7D8083FF91EF91BF9167
:100B8000AF919F918F912F910F900BBE0F900FBE41
:100B90000F901F9018951F920F920FB60F9211246D
:100BA0000BB60F922F933F934F935F936F937F9367
:100BB0008F939F93AF93BF93CF93DF93EF93FF9365
:100BC000A091A102B091A202109711F1609136019B
:100BD0001496ED91FC911597938182812581981B44
:100BE00092238481981761F0838126952823C08100
:100BF000D181C20FD11D68838F5F95818923838343
:100C00001696ED91FC911797309711F0CD0119953B
:100C1000FF91EF91DF91CF91BF91AF919F918F9114
:100C20007F916F915F914F913F912F910F900BBEEC
:100C30000F900FBE0F901F9018951F920F920FB636
:100C40000F9211240BB60F922F938F939F93AF9314
:100C5000BF93EF93FF93E091A102F091A20230972E
:100C6000B9F00280F381E02D938182819817B1F071
:100C700092818581282F26952923A081B181A20FF9
:100C8000B11D2C919F5F89238283209336010BC075
:100C9000E1E3F1E080818F7D808305C0E1E3F1E055
:100CA00080818F7D8083FF91EF91BF91AF919F9164
:100CB0008F912F910F900BBE0F900FBE0F901F9032
:100CC0001895FC01411101C07CD3842F90E09C0158
:100CD0002150310982239323892B09F072D34138A3
:100CE00008F06FD3128213824483440F415045832E
:100CF0007183608380E090E00895FF920F931F93CB
:100D0000CF93DF938C01F62E83E090E039D2EC0193
:100D1000892B41F0C801029799838883FA826F2D4D
:100D200001961DD0CE01DF91CF911F910F91FF90C1
:100D30000895FC0162818081918106D091E081114A
:100D400001C090E0892F0895FC01208181E090E0AE
:100D500002C0880F991F6A95E2F782230895FC016B
:100D6000908121E030E002C0220F331F6A95E2F744
:100D700020952923208308955058BB27AA270ED0F9
:100D800048C139D130F03ED120F031F49F3F11F409
:100D90001EF42EC10EF4E095E7FB24C1E92F4AD1E1
:100DA00080F3BA17620773078407950718F071F488
:100DB0009EF562C10EF4E0950B2EBA2FA02D0B010B
:100DC000B90190010C01CA01A0011124FF27591B90
:100DD00099F0593F50F4503E68F11A16F040A22F96
:100DE000232F342F4427585FF3CF46953795279507
:100DF000A795F0405395C9F77EF41F16BA0B620B06
:100E0000730B840BBAF09150A1F0FF0FBB1F661F4C
:100E1000771F881FC2F70EC0BA0F621F731F841F8F
:100E200048F4879577956795B795F7959E3F08F0B5
:100E3000B3CF9395880F08F09927EE0F9795879574
:100E400008950CD0E6C0DED040F0D5D030F021F4CB
:100E50005F3F19F0C7C0511110C1CAC0EBD098F361
:100E60009923C9F35523B1F3951B550BBB27AA272B
:100E700062177307840738F09F5F5F4F220F331F9D
:100E8000441FAA1FA9F333D00E2E3AF0E0E830D069
:100E900091505040E695001CCAF729D0FE2F27D06C
:100EA000660F771F881FBB1F261737074807AB073A
:100EB000B0E809F0BB0B802DBF01FF2793585F4FAF
:100EC0002AF09E3F510568F08DC0D7C05F3FECF31C
:100ED000983EDCF3869577956795B795F7959F5F74
:100EE000C9F7880F911D9695879597F90895E1E0C8
:100EF000660F771F881FBB1F621773078407BA0727
:100F000020F0621B730B840BBA0BEE1F88F7E09581
:100F1000089598D088F09F5790F0B92F9927B7512E
:100F2000A0F0D1F0660F771F881F991F1AF0BA95AD
:100F3000C9F712C0B13081F09FD0B1E008959CC0D4
:100F4000672F782F8827B85F39F0B93FCCF38695A3
:100F500077956795B395D9F73EF490958095709500
:100F600061957F4F8F4F9F4F0895E89409C097FB7D
:100F70003EF490958095709561957F4F8F4F9F4F70
:100F80009923A9F0F92F96E9BB279395F6958795B4
:100F900077956795B795F111F8CFFAF4BB0F11F477
:100FA00060FF1BC06F5F7F4F8F4F9F4F16C088231E
:100FB00011F096E911C0772321F09EE8872F762F54
:100FC00005C0662371F096E8862F70E060E02AF095
:100FD0009A95660F771F881FDAF7880F9695879581
:100FE00097F9089597F99F6780E870E060E00895A9
:100FF0009FEF80EC089500240A9416161706180631
:101000000906089500240A9412161306140605060C
:101010000895092E0394000C11F4882352F0BB0F9D
:1010200040F4BF2B11F460FF04C06F5F7F4F8F4F00
:101030009F4F089557FD9058440F551F59F05F3F3B
:1010400071F04795880F97FB991F61F09F3F79F0EA
:1010500087950895121613061406551FF2CF46956C
:10106000F1DF08C0161617061806991FF1CF8695EE
:101070007105610508940895E894BB2766277727D2
:10108000CB0197F908950BD0C4CFB5DF28F0BADFB4
:1010900018F0952309F0A6CFABCF1124EECFCADF0D
:1010A000A0F3959FD1F3950F50E0551F629FF0017B
:1010B000729FBB27F00DB11D639FAA27F00DB11DD4
:1010C000AA1F649F6627B00DA11D661F829F22275D
:1010D000B00DA11D621F739FB00DA11D621F839FE4
:1010E000A00D611D221F749F3327A00D611D231FBA
:1010F000849F600D211D822F762F6A2F11249F5708
:1011000050408AF0E1F088234AF0EE0FFF1FBB1F2A
:10111000661F771F881F91505040A9F79E3F5105C9
:1011200070F060CFAACF5F3FECF3983EDCF386957A
:1011300077956795B795F795E7959F5FC1F7FE2B74
:10114000880F911D9695879597F908950F931F9392
:10115000CF93DF93869F8001879F100D969F100D80
:101160001124C8010DD0EC01009721F0A80160E026
:1011700070E02BD1CE01DF91CF911F910F91089597
:101180000F931F93CF93DF938230910510F482E089
:1011900090E0E091A502F091A60220E030E0A0E00E
:1011A000B0E0309719F140815181028113814817D5
:1011B0005907C8F08417950769F4109731F0129613
:1011C0000C93129713961C9327C00093A5021093BB
:1011D000A60222C02115310519F04217530718F451
:1011E0009A01BD01EF01DF01F801DBCF21153105C7
:1011F000F9F0281B390B2430310580F48A819B815A
:101200006115710521F0FB019383828304C09093E3
:10121000A6028093A502FE01329644C0FE01E20FB1
:10122000F31F8193919322503109398328833AC067
:101230002091A3023091A402232B41F420910202B9
:10124000309103023093A4022093A3022091000264
:10125000309101022115310541F42DB73EB740917F
:10126000040250910502241B350BE091A302F0917A
:10127000A402E217F307A0F42E1B3F0B281739072F
:1012800078F0AC014E5F5F4F2417350748F04E0FE2
:101290005F1F5093A4024093A3028193919302C0D5
:1012A000E0E0F0E0CF01DF91CF911F910F91089521
:1012B000CF93DF93009709F481C0FC01329713822A
:1012C0001282A091A502B091A602109781F420810C
:1012D0003181820F931F2091A3023091A40228171D
:1012E000390751F5F093A402E093A30267C0ED0122
:1012F00020E030E0CE17DF0740F44A815B819E0199
:1013000041155105F1F0EA01F5CFD383C283408145
:101310005181840F951FC817D90759F48881998185
:10132000840F951F0296918380838A819B8193838A
:1013300082832115310529F4F093A602E093A502DA
:101340003DC0E901FB83EA8349915991C40FD51F40
:10135000EC17FD0761F480819181840F951F02963F
:10136000E90199838883828193819B838A83E0E06A
:10137000F0E012968D919C911397009719F0FD0162
:10138000DC01F7CF8D919C9111979D012E5F3F4F0E
:10139000820F931F2091A3023091A40228173907CE
:1013A00069F4309729F41092A6021092A50202C0A7
:1013B00013821282B093A402A093A302DF91CF9173
:1013C000089581E090E0F89437C0DC0101C06D938E
:1013D00041505040E0F708950F931F93CF93DF9350
:1013E000E091A902F091AA02238121FF1BC08C0188
:1013F000D0E0C0E0F80181918F016091A902709165
:10140000AA02DB011896ED91FC911997882331F01F
:101410001995892B79F3DFEFCFEFECCF8AE019959F
:10142000892B19F08FEF9FEF02C08D2F9C2FDF913A
:0C143000CF911F910F910895F894FFCF09
:10143C000000AD02200000000003000000000003CB
:10144C00EB020000C600CE00D6003601447269766D
:10145C00657220637265617465642E0044726976EE
:10146C006572206E6F7420637265617465642E0002
:10147C00736F6D657468696E6720646574656374F9
:10148C006564006E6F7468696E672064657465636B
:04149C00746564000F
:00000001FF
